{"abi":[{"inputs":[{"internalType":"uint256","name":"","type":"uint256"}],"name":"campaignsList","outputs":[{"internalType":"contract Campaign","name":"","type":"address"}],"stateMutability":"view","type":"function"},{"inputs":[{"internalType":"uint256","name":"minimum","type":"uint256"}],"name":"createCampaign","outputs":[],"stateMutability":"nonpayable","type":"function"},{"inputs":[],"name":"getCampaigns","outputs":[{"internalType":"contract Campaign[]","name":"","type":"address[]"}],"stateMutability":"view","type":"function"}],"devdoc":{"kind":"dev","methods":{},"version":1},"evm":{"assembly":"    /* \"Campaign.sol\":70:410  contract CampaignFactory {... */\n  mstore(0x40, 0x80)\n  callvalue\n  dup1\n  iszero\n  tag_1\n  jumpi\n  0x00\n  dup1\n  revert\ntag_1:\n  pop\n  dataSize(sub_0)\n  dup1\n  dataOffset(sub_0)\n  0x00\n  codecopy\n  0x00\n  return\nstop\n\nsub_0: assembly {\n        /* \"Campaign.sol\":70:410  contract CampaignFactory {... */\n      mstore(0x40, 0x80)\n      callvalue\n      dup1\n      iszero\n      tag_1\n      jumpi\n      0x00\n      dup1\n      revert\n    tag_1:\n      pop\n      jumpi(tag_2, lt(calldatasize, 0x04))\n      shr(0xe0, calldataload(0x00))\n      dup1\n      0xa3303a75\n      eq\n      tag_3\n      jumpi\n      dup1\n      0xa6b03633\n      eq\n      tag_4\n      jumpi\n      dup1\n      0xc3d44506\n      eq\n      tag_5\n      jumpi\n    tag_2:\n      0x00\n      dup1\n      revert\n        /* \"Campaign.sol\":139:301  function createCampaign(uint256 minimum) public {... */\n    tag_3:\n      tag_6\n      0x04\n      dup1\n      calldatasize\n      sub\n      dup2\n      add\n      swap1\n      tag_7\n      swap2\n      swap1\n      tag_8\n      jump\t// in\n    tag_7:\n      tag_9\n      jump\t// in\n    tag_6:\n      stop\n        /* \"Campaign.sol\":307:408  function getCampaigns() public view returns (Campaign[] memory) {... */\n    tag_4:\n      tag_10\n      tag_11\n      jump\t// in\n    tag_10:\n      mload(0x40)\n      tag_12\n      swap2\n      swap1\n      tag_13\n      jump\t// in\n    tag_12:\n      mload(0x40)\n      dup1\n      swap2\n      sub\n      swap1\n      return\n        /* \"Campaign.sol\":101:132  Campaign[] public campaignsList */\n    tag_5:\n      tag_14\n      0x04\n      dup1\n      calldatasize\n      sub\n      dup2\n      add\n      swap1\n      tag_15\n      swap2\n      swap1\n      tag_8\n      jump\t// in\n    tag_15:\n      tag_16\n      jump\t// in\n    tag_14:\n      mload(0x40)\n      tag_17\n      swap2\n      swap1\n      tag_18\n      jump\t// in\n    tag_17:\n      mload(0x40)\n      dup1\n      swap2\n      sub\n      swap1\n      return\n        /* \"Campaign.sol\":139:301  function createCampaign(uint256 minimum) public {... */\n    tag_9:\n        /* \"Campaign.sol\":197:217  Campaign newCampaign */\n      0x00\n        /* \"Campaign.sol\":233:240  minimum */\n      dup2\n        /* \"Campaign.sol\":242:252  msg.sender */\n      caller\n        /* \"Campaign.sol\":220:253  new Campaign(minimum, msg.sender) */\n      mload(0x40)\n      tag_20\n      swap1\n      tag_21\n      jump\t// in\n    tag_20:\n      tag_22\n      swap3\n      swap2\n      swap1\n      tag_23\n      jump\t// in\n    tag_22:\n      mload(0x40)\n      dup1\n      swap2\n      sub\n      swap1\n      0x00\n      create\n      dup1\n      iszero\n      dup1\n      iszero\n      tag_24\n      jumpi\n      returndatasize\n      0x00\n      dup1\n      returndatacopy\n      revert(0x00, returndatasize)\n    tag_24:\n      pop\n        /* \"Campaign.sol\":197:253  Campaign newCampaign = new Campaign(minimum, msg.sender) */\n      swap1\n      pop\n        /* \"Campaign.sol\":263:276  campaignsList */\n      0x00\n        /* \"Campaign.sol\":282:293  newCampaign */\n      dup2\n        /* \"Campaign.sol\":263:294  campaignsList.push(newCampaign) */\n      swap1\n      dup1\n      0x01\n      dup2\n      sload\n      add\n      dup1\n      dup3\n      sstore\n      dup1\n      swap2\n      pop\n      pop\n      0x01\n      swap1\n      sub\n      swap1\n      0x00\n      mstore\n      keccak256(0x00, 0x20)\n      add\n      0x00\n      swap1\n      swap2\n      swap1\n      swap2\n      swap1\n      swap2\n      0x0100\n      exp\n      dup2\n      sload\n      dup2\n      0xffffffffffffffffffffffffffffffffffffffff\n      mul\n      not\n      and\n      swap1\n      dup4\n      0xffffffffffffffffffffffffffffffffffffffff\n      and\n      mul\n      or\n      swap1\n      sstore\n      pop\n        /* \"Campaign.sol\":187:301  {... */\n      pop\n        /* \"Campaign.sol\":139:301  function createCampaign(uint256 minimum) public {... */\n      pop\n      jump\t// out\n        /* \"Campaign.sol\":307:408  function getCampaigns() public view returns (Campaign[] memory) {... */\n    tag_11:\n        /* \"Campaign.sol\":352:369  Campaign[] memory */\n      0x60\n        /* \"Campaign.sol\":388:401  campaignsList */\n      0x00\n        /* \"Campaign.sol\":381:401  return campaignsList */\n      dup1\n      sload\n      dup1\n      0x20\n      mul\n      0x20\n      add\n      mload(0x40)\n      swap1\n      dup2\n      add\n      0x40\n      mstore\n      dup1\n      swap3\n      swap2\n      swap1\n      dup2\n      dup2\n      mstore\n      0x20\n      add\n      dup3\n      dup1\n      sload\n      dup1\n      iszero\n      tag_27\n      jumpi\n      0x20\n      mul\n      dup3\n      add\n      swap2\n      swap1\n      0x00\n      mstore\n      keccak256(0x00, 0x20)\n      swap1\n    tag_28:\n      dup2\n      0x00\n      swap1\n      sload\n      swap1\n      0x0100\n      exp\n      swap1\n      div\n      0xffffffffffffffffffffffffffffffffffffffff\n      and\n      0xffffffffffffffffffffffffffffffffffffffff\n      and\n      dup2\n      mstore\n      0x20\n      add\n      swap1\n      0x01\n      add\n      swap1\n      dup1\n      dup4\n      gt\n      tag_28\n      jumpi\n    tag_27:\n      pop\n      pop\n      pop\n      pop\n      pop\n      swap1\n      pop\n        /* \"Campaign.sol\":307:408  function getCampaigns() public view returns (Campaign[] memory) {... */\n      swap1\n      jump\t// out\n        /* \"Campaign.sol\":101:132  Campaign[] public campaignsList */\n    tag_16:\n      0x00\n      dup2\n      dup2\n      sload\n      dup2\n      lt\n      tag_29\n      jumpi\n      0x00\n      dup1\n      revert\n    tag_29:\n      swap1\n      0x00\n      mstore\n      keccak256(0x00, 0x20)\n      add\n      0x00\n      swap2\n      pop\n      sload\n      swap1\n      0x0100\n      exp\n      swap1\n      div\n      0xffffffffffffffffffffffffffffffffffffffff\n      and\n      dup2\n      jump\t// out\n    tag_21:\n      dataSize(sub_0)\n      dup1\n      dataOffset(sub_0)\n      dup4\n      codecopy\n      add\n      swap1\n      jump\t// out\n        /* \"#utility.yul\":88:205   */\n    tag_32:\n        /* \"#utility.yul\":197:198   */\n      0x00\n        /* \"#utility.yul\":194:195   */\n      dup1\n        /* \"#utility.yul\":187:199   */\n      revert\n        /* \"#utility.yul\":334:411   */\n    tag_34:\n        /* \"#utility.yul\":371:378   */\n      0x00\n        /* \"#utility.yul\":400:405   */\n      dup2\n        /* \"#utility.yul\":389:405   */\n      swap1\n      pop\n        /* \"#utility.yul\":334:411   */\n      swap2\n      swap1\n      pop\n      jump\t// out\n        /* \"#utility.yul\":417:539   */\n    tag_35:\n        /* \"#utility.yul\":490:514   */\n      tag_59\n        /* \"#utility.yul\":508:513   */\n      dup2\n        /* \"#utility.yul\":490:514   */\n      tag_34\n      jump\t// in\n    tag_59:\n        /* \"#utility.yul\":483:488   */\n      dup2\n        /* \"#utility.yul\":480:515   */\n      eq\n        /* \"#utility.yul\":470:533   */\n      tag_60\n      jumpi\n        /* \"#utility.yul\":529:530   */\n      0x00\n        /* \"#utility.yul\":526:527   */\n      dup1\n        /* \"#utility.yul\":519:531   */\n      revert\n        /* \"#utility.yul\":470:533   */\n    tag_60:\n        /* \"#utility.yul\":417:539   */\n      pop\n      jump\t// out\n        /* \"#utility.yul\":545:684   */\n    tag_36:\n        /* \"#utility.yul\":591:596   */\n      0x00\n        /* \"#utility.yul\":629:635   */\n      dup2\n        /* \"#utility.yul\":616:636   */\n      calldataload\n        /* \"#utility.yul\":607:636   */\n      swap1\n      pop\n        /* \"#utility.yul\":645:678   */\n      tag_62\n        /* \"#utility.yul\":672:677   */\n      dup2\n        /* \"#utility.yul\":645:678   */\n      tag_35\n      jump\t// in\n    tag_62:\n        /* \"#utility.yul\":545:684   */\n      swap3\n      swap2\n      pop\n      pop\n      jump\t// out\n        /* \"#utility.yul\":690:1019   */\n    tag_8:\n        /* \"#utility.yul\":749:755   */\n      0x00\n        /* \"#utility.yul\":798:800   */\n      0x20\n        /* \"#utility.yul\":786:795   */\n      dup3\n        /* \"#utility.yul\":777:784   */\n      dup5\n        /* \"#utility.yul\":773:796   */\n      sub\n        /* \"#utility.yul\":769:801   */\n      slt\n        /* \"#utility.yul\":766:885   */\n      iszero\n      tag_64\n      jumpi\n        /* \"#utility.yul\":804:883   */\n      tag_65\n      tag_32\n      jump\t// in\n    tag_65:\n        /* \"#utility.yul\":766:885   */\n    tag_64:\n        /* \"#utility.yul\":924:925   */\n      0x00\n        /* \"#utility.yul\":949:1002   */\n      tag_66\n        /* \"#utility.yul\":994:1001   */\n      dup5\n        /* \"#utility.yul\":985:991   */\n      dup3\n        /* \"#utility.yul\":974:983   */\n      dup6\n        /* \"#utility.yul\":970:992   */\n      add\n        /* \"#utility.yul\":949:1002   */\n      tag_36\n      jump\t// in\n    tag_66:\n        /* \"#utility.yul\":939:1002   */\n      swap2\n      pop\n        /* \"#utility.yul\":895:1012   */\n      pop\n        /* \"#utility.yul\":690:1019   */\n      swap3\n      swap2\n      pop\n      pop\n      jump\t// out\n        /* \"#utility.yul\":1025:1155   */\n    tag_37:\n        /* \"#utility.yul\":1108:1114   */\n      0x00\n        /* \"#utility.yul\":1142:1147   */\n      dup2\n        /* \"#utility.yul\":1136:1148   */\n      mload\n        /* \"#utility.yul\":1126:1148   */\n      swap1\n      pop\n        /* \"#utility.yul\":1025:1155   */\n      swap2\n      swap1\n      pop\n      jump\t// out\n        /* \"#utility.yul\":1161:1345   */\n    tag_38:\n        /* \"#utility.yul\":1260:1271   */\n      0x00\n        /* \"#utility.yul\":1294:1300   */\n      dup3\n        /* \"#utility.yul\":1289:1292   */\n      dup3\n        /* \"#utility.yul\":1282:1301   */\n      mstore\n        /* \"#utility.yul\":1334:1338   */\n      0x20\n        /* \"#utility.yul\":1329:1332   */\n      dup3\n        /* \"#utility.yul\":1325:1339   */\n      add\n        /* \"#utility.yul\":1310:1339   */\n      swap1\n      pop\n        /* \"#utility.yul\":1161:1345   */\n      swap3\n      swap2\n      pop\n      pop\n      jump\t// out\n        /* \"#utility.yul\":1351:1499   */\n    tag_39:\n        /* \"#utility.yul\":1434:1438   */\n      0x00\n        /* \"#utility.yul\":1457:1460   */\n      dup2\n        /* \"#utility.yul\":1449:1460   */\n      swap1\n      pop\n        /* \"#utility.yul\":1487:1491   */\n      0x20\n        /* \"#utility.yul\":1482:1485   */\n      dup3\n        /* \"#utility.yul\":1478:1492   */\n      add\n        /* \"#utility.yul\":1470:1492   */\n      swap1\n      pop\n        /* \"#utility.yul\":1351:1499   */\n      swap2\n      swap1\n      pop\n      jump\t// out\n        /* \"#utility.yul\":1505:1631   */\n    tag_40:\n        /* \"#utility.yul\":1542:1549   */\n      0x00\n        /* \"#utility.yul\":1582:1624   */\n      0xffffffffffffffffffffffffffffffffffffffff\n        /* \"#utility.yul\":1575:1580   */\n      dup3\n        /* \"#utility.yul\":1571:1625   */\n      and\n        /* \"#utility.yul\":1560:1625   */\n      swap1\n      pop\n        /* \"#utility.yul\":1505:1631   */\n      swap2\n      swap1\n      pop\n      jump\t// out\n        /* \"#utility.yul\":1637:1697   */\n    tag_41:\n        /* \"#utility.yul\":1665:1668   */\n      0x00\n        /* \"#utility.yul\":1686:1691   */\n      dup2\n        /* \"#utility.yul\":1679:1691   */\n      swap1\n      pop\n        /* \"#utility.yul\":1637:1697   */\n      swap2\n      swap1\n      pop\n      jump\t// out\n        /* \"#utility.yul\":1703:1845   */\n    tag_42:\n        /* \"#utility.yul\":1753:1762   */\n      0x00\n        /* \"#utility.yul\":1786:1839   */\n      tag_73\n        /* \"#utility.yul\":1804:1838   */\n      tag_74\n        /* \"#utility.yul\":1813:1837   */\n      tag_75\n        /* \"#utility.yul\":1831:1836   */\n      dup5\n        /* \"#utility.yul\":1813:1837   */\n      tag_40\n      jump\t// in\n    tag_75:\n        /* \"#utility.yul\":1804:1838   */\n      tag_41\n      jump\t// in\n    tag_74:\n        /* \"#utility.yul\":1786:1839   */\n      tag_40\n      jump\t// in\n    tag_73:\n        /* \"#utility.yul\":1773:1839   */\n      swap1\n      pop\n        /* \"#utility.yul\":1703:1845   */\n      swap2\n      swap1\n      pop\n      jump\t// out\n        /* \"#utility.yul\":1851:1977   */\n    tag_43:\n        /* \"#utility.yul\":1901:1910   */\n      0x00\n        /* \"#utility.yul\":1934:1971   */\n      tag_77\n        /* \"#utility.yul\":1965:1970   */\n      dup3\n        /* \"#utility.yul\":1934:1971   */\n      tag_42\n      jump\t// in\n    tag_77:\n        /* \"#utility.yul\":1921:1971   */\n      swap1\n      pop\n        /* \"#utility.yul\":1851:1977   */\n      swap2\n      swap1\n      pop\n      jump\t// out\n        /* \"#utility.yul\":1983:2125   */\n    tag_44:\n        /* \"#utility.yul\":2049:2058   */\n      0x00\n        /* \"#utility.yul\":2082:2119   */\n      tag_79\n        /* \"#utility.yul\":2113:2118   */\n      dup3\n        /* \"#utility.yul\":2082:2119   */\n      tag_43\n      jump\t// in\n    tag_79:\n        /* \"#utility.yul\":2069:2119   */\n      swap1\n      pop\n        /* \"#utility.yul\":1983:2125   */\n      swap2\n      swap1\n      pop\n      jump\t// out\n        /* \"#utility.yul\":2131:2284   */\n    tag_45:\n        /* \"#utility.yul\":2224:2277   */\n      tag_81\n        /* \"#utility.yul\":2271:2276   */\n      dup2\n        /* \"#utility.yul\":2224:2277   */\n      tag_44\n      jump\t// in\n    tag_81:\n        /* \"#utility.yul\":2219:2222   */\n      dup3\n        /* \"#utility.yul\":2212:2278   */\n      mstore\n        /* \"#utility.yul\":2131:2284   */\n      pop\n      pop\n      jump\t// out\n        /* \"#utility.yul\":2290:2501   */\n    tag_46:\n        /* \"#utility.yul\":2375:2385   */\n      0x00\n        /* \"#utility.yul\":2396:2458   */\n      tag_83\n        /* \"#utility.yul\":2454:2457   */\n      dup4\n        /* \"#utility.yul\":2446:2452   */\n      dup4\n        /* \"#utility.yul\":2396:2458   */\n      tag_45\n      jump\t// in\n    tag_83:\n        /* \"#utility.yul\":2490:2494   */\n      0x20\n        /* \"#utility.yul\":2485:2488   */\n      dup4\n        /* \"#utility.yul\":2481:2495   */\n      add\n        /* \"#utility.yul\":2467:2495   */\n      swap1\n      pop\n        /* \"#utility.yul\":2290:2501   */\n      swap3\n      swap2\n      pop\n      pop\n      jump\t// out\n        /* \"#utility.yul\":2507:2636   */\n    tag_47:\n        /* \"#utility.yul\":2593:2597   */\n      0x00\n        /* \"#utility.yul\":2625:2629   */\n      0x20\n        /* \"#utility.yul\":2620:2623   */\n      dup3\n        /* \"#utility.yul\":2616:2630   */\n      add\n        /* \"#utility.yul\":2608:2630   */\n      swap1\n      pop\n        /* \"#utility.yul\":2507:2636   */\n      swap2\n      swap1\n      pop\n      jump\t// out\n        /* \"#utility.yul\":2682:3494   */\n    tag_48:\n        /* \"#utility.yul\":2817:2820   */\n      0x00\n        /* \"#utility.yul\":2846:2916   */\n      tag_86\n        /* \"#utility.yul\":2910:2915   */\n      dup3\n        /* \"#utility.yul\":2846:2916   */\n      tag_37\n      jump\t// in\n    tag_86:\n        /* \"#utility.yul\":2932:3018   */\n      tag_87\n        /* \"#utility.yul\":3011:3017   */\n      dup2\n        /* \"#utility.yul\":3006:3009   */\n      dup6\n        /* \"#utility.yul\":2932:3018   */\n      tag_38\n      jump\t// in\n    tag_87:\n        /* \"#utility.yul\":2925:3018   */\n      swap4\n      pop\n        /* \"#utility.yul\":3042:3114   */\n      tag_88\n        /* \"#utility.yul\":3108:3113   */\n      dup4\n        /* \"#utility.yul\":3042:3114   */\n      tag_39\n      jump\t// in\n    tag_88:\n        /* \"#utility.yul\":3137:3144   */\n      dup1\n        /* \"#utility.yul\":3168:3169   */\n      0x00\n        /* \"#utility.yul\":3153:3469   */\n    tag_89:\n        /* \"#utility.yul\":3178:3184   */\n      dup4\n        /* \"#utility.yul\":3175:3176   */\n      dup2\n        /* \"#utility.yul\":3172:3185   */\n      lt\n        /* \"#utility.yul\":3153:3469   */\n      iszero\n      tag_91\n      jumpi\n        /* \"#utility.yul\":3254:3260   */\n      dup2\n        /* \"#utility.yul\":3248:3261   */\n      mload\n        /* \"#utility.yul\":3281:3360   */\n      tag_92\n        /* \"#utility.yul\":3356:3359   */\n      dup9\n        /* \"#utility.yul\":3341:3354   */\n      dup3\n        /* \"#utility.yul\":3281:3360   */\n      tag_46\n      jump\t// in\n    tag_92:\n        /* \"#utility.yul\":3274:3360   */\n      swap8\n      pop\n        /* \"#utility.yul\":3383:3459   */\n      tag_93\n        /* \"#utility.yul\":3452:3458   */\n      dup4\n        /* \"#utility.yul\":3383:3459   */\n      tag_47\n      jump\t// in\n    tag_93:\n        /* \"#utility.yul\":3373:3459   */\n      swap3\n      pop\n        /* \"#utility.yul\":3213:3469   */\n      pop\n        /* \"#utility.yul\":3200:3201   */\n      0x01\n        /* \"#utility.yul\":3197:3198   */\n      dup2\n        /* \"#utility.yul\":3193:3202   */\n      add\n        /* \"#utility.yul\":3188:3202   */\n      swap1\n      pop\n        /* \"#utility.yul\":3153:3469   */\n      jump(tag_89)\n    tag_91:\n        /* \"#utility.yul\":3157:3171   */\n      pop\n        /* \"#utility.yul\":3485:3488   */\n      dup6\n        /* \"#utility.yul\":3478:3488   */\n      swap4\n      pop\n        /* \"#utility.yul\":2822:3494   */\n      pop\n      pop\n      pop\n        /* \"#utility.yul\":2682:3494   */\n      swap3\n      swap2\n      pop\n      pop\n      jump\t// out\n        /* \"#utility.yul\":3500:3905   */\n    tag_13:\n        /* \"#utility.yul\":3659:3663   */\n      0x00\n        /* \"#utility.yul\":3697:3699   */\n      0x20\n        /* \"#utility.yul\":3686:3695   */\n      dup3\n        /* \"#utility.yul\":3682:3700   */\n      add\n        /* \"#utility.yul\":3674:3700   */\n      swap1\n      pop\n        /* \"#utility.yul\":3746:3755   */\n      dup2\n        /* \"#utility.yul\":3740:3744   */\n      dup2\n        /* \"#utility.yul\":3736:3756   */\n      sub\n        /* \"#utility.yul\":3732:3733   */\n      0x00\n        /* \"#utility.yul\":3721:3730   */\n      dup4\n        /* \"#utility.yul\":3717:3734   */\n      add\n        /* \"#utility.yul\":3710:3757   */\n      mstore\n        /* \"#utility.yul\":3774:3898   */\n      tag_95\n        /* \"#utility.yul\":3893:3897   */\n      dup2\n        /* \"#utility.yul\":3884:3890   */\n      dup5\n        /* \"#utility.yul\":3774:3898   */\n      tag_48\n      jump\t// in\n    tag_95:\n        /* \"#utility.yul\":3766:3898   */\n      swap1\n      pop\n        /* \"#utility.yul\":3500:3905   */\n      swap3\n      swap2\n      pop\n      pop\n      jump\t// out\n        /* \"#utility.yul\":3911:4074   */\n    tag_49:\n        /* \"#utility.yul\":4014:4067   */\n      tag_97\n        /* \"#utility.yul\":4061:4066   */\n      dup2\n        /* \"#utility.yul\":4014:4067   */\n      tag_44\n      jump\t// in\n    tag_97:\n        /* \"#utility.yul\":4009:4012   */\n      dup3\n        /* \"#utility.yul\":4002:4068   */\n      mstore\n        /* \"#utility.yul\":3911:4074   */\n      pop\n      pop\n      jump\t// out\n        /* \"#utility.yul\":4080:4334   */\n    tag_18:\n        /* \"#utility.yul\":4189:4193   */\n      0x00\n        /* \"#utility.yul\":4227:4229   */\n      0x20\n        /* \"#utility.yul\":4216:4225   */\n      dup3\n        /* \"#utility.yul\":4212:4230   */\n      add\n        /* \"#utility.yul\":4204:4230   */\n      swap1\n      pop\n        /* \"#utility.yul\":4240:4327   */\n      tag_99\n        /* \"#utility.yul\":4324:4325   */\n      0x00\n        /* \"#utility.yul\":4313:4322   */\n      dup4\n        /* \"#utility.yul\":4309:4326   */\n      add\n        /* \"#utility.yul\":4300:4306   */\n      dup5\n        /* \"#utility.yul\":4240:4327   */\n      tag_49\n      jump\t// in\n    tag_99:\n        /* \"#utility.yul\":4080:4334   */\n      swap3\n      swap2\n      pop\n      pop\n      jump\t// out\n        /* \"#utility.yul\":4340:4458   */\n    tag_50:\n        /* \"#utility.yul\":4427:4451   */\n      tag_101\n        /* \"#utility.yul\":4445:4450   */\n      dup2\n        /* \"#utility.yul\":4427:4451   */\n      tag_34\n      jump\t// in\n    tag_101:\n        /* \"#utility.yul\":4422:4425   */\n      dup3\n        /* \"#utility.yul\":4415:4452   */\n      mstore\n        /* \"#utility.yul\":4340:4458   */\n      pop\n      pop\n      jump\t// out\n        /* \"#utility.yul\":4464:4560   */\n    tag_51:\n        /* \"#utility.yul\":4501:4508   */\n      0x00\n        /* \"#utility.yul\":4530:4554   */\n      tag_103\n        /* \"#utility.yul\":4548:4553   */\n      dup3\n        /* \"#utility.yul\":4530:4554   */\n      tag_40\n      jump\t// in\n    tag_103:\n        /* \"#utility.yul\":4519:4554   */\n      swap1\n      pop\n        /* \"#utility.yul\":4464:4560   */\n      swap2\n      swap1\n      pop\n      jump\t// out\n        /* \"#utility.yul\":4566:4684   */\n    tag_52:\n        /* \"#utility.yul\":4653:4677   */\n      tag_105\n        /* \"#utility.yul\":4671:4676   */\n      dup2\n        /* \"#utility.yul\":4653:4677   */\n      tag_51\n      jump\t// in\n    tag_105:\n        /* \"#utility.yul\":4648:4651   */\n      dup3\n        /* \"#utility.yul\":4641:4678   */\n      mstore\n        /* \"#utility.yul\":4566:4684   */\n      pop\n      pop\n      jump\t// out\n        /* \"#utility.yul\":4690:5022   */\n    tag_23:\n        /* \"#utility.yul\":4811:4815   */\n      0x00\n        /* \"#utility.yul\":4849:4851   */\n      0x40\n        /* \"#utility.yul\":4838:4847   */\n      dup3\n        /* \"#utility.yul\":4834:4852   */\n      add\n        /* \"#utility.yul\":4826:4852   */\n      swap1\n      pop\n        /* \"#utility.yul\":4862:4933   */\n      tag_107\n        /* \"#utility.yul\":4930:4931   */\n      0x00\n        /* \"#utility.yul\":4919:4928   */\n      dup4\n        /* \"#utility.yul\":4915:4932   */\n      add\n        /* \"#utility.yul\":4906:4912   */\n      dup6\n        /* \"#utility.yul\":4862:4933   */\n      tag_50\n      jump\t// in\n    tag_107:\n        /* \"#utility.yul\":4943:5015   */\n      tag_108\n        /* \"#utility.yul\":5011:5013   */\n      0x20\n        /* \"#utility.yul\":5000:5009   */\n      dup4\n        /* \"#utility.yul\":4996:5014   */\n      add\n        /* \"#utility.yul\":4987:4993   */\n      dup5\n        /* \"#utility.yul\":4943:5015   */\n      tag_52\n      jump\t// in\n    tag_108:\n        /* \"#utility.yul\":4690:5022   */\n      swap4\n      swap3\n      pop\n      pop\n      pop\n      jump\t// out\n    stop\n\n    sub_0: assembly {\n            /* \"Campaign.sol\":412:2392  contract Campaign {... */\n          mstore(0x40, 0x80)\n            /* \"Campaign.sol\":874:993  constructor(uint256 minimum, address creator) {... */\n          callvalue\n          dup1\n          iszero\n          tag_1\n          jumpi\n          0x00\n          dup1\n          revert\n        tag_1:\n          pop\n          mload(0x40)\n          sub(codesize, bytecodeSize)\n          dup1\n          bytecodeSize\n          dup4\n          codecopy\n          dup2\n          dup2\n          add\n          0x40\n          mstore\n          dup2\n          add\n          swap1\n          tag_2\n          swap2\n          swap1\n          tag_3\n          jump\t// in\n        tag_2:\n            /* \"Campaign.sol\":940:947  creator */\n          dup1\n            /* \"Campaign.sol\":930:937  manager */\n          0x00\n          dup1\n            /* \"Campaign.sol\":930:947  manager = creator */\n          0x0100\n          exp\n          dup2\n          sload\n          dup2\n          0xffffffffffffffffffffffffffffffffffffffff\n          mul\n          not\n          and\n          swap1\n          dup4\n          0xffffffffffffffffffffffffffffffffffffffff\n          and\n          mul\n          or\n          swap1\n          sstore\n          pop\n            /* \"Campaign.sol\":979:986  minimum */\n          dup2\n            /* \"Campaign.sol\":957:976  minimumContribution */\n          0x01\n            /* \"Campaign.sol\":957:986  minimumContribution = minimum */\n          dup2\n          swap1\n          sstore\n          pop\n            /* \"Campaign.sol\":874:993  constructor(uint256 minimum, address creator) {... */\n          pop\n          pop\n            /* \"Campaign.sol\":412:2392  contract Campaign {... */\n          jump(tag_6)\n            /* \"#utility.yul\":88:205   */\n        tag_8:\n            /* \"#utility.yul\":197:198   */\n          0x00\n            /* \"#utility.yul\":194:195   */\n          dup1\n            /* \"#utility.yul\":187:199   */\n          revert\n            /* \"#utility.yul\":334:411   */\n        tag_10:\n            /* \"#utility.yul\":371:378   */\n          0x00\n            /* \"#utility.yul\":400:405   */\n          dup2\n            /* \"#utility.yul\":389:405   */\n          swap1\n          pop\n            /* \"#utility.yul\":334:411   */\n          swap2\n          swap1\n          pop\n          jump\t// out\n            /* \"#utility.yul\":417:539   */\n        tag_11:\n            /* \"#utility.yul\":490:514   */\n          tag_23\n            /* \"#utility.yul\":508:513   */\n          dup2\n            /* \"#utility.yul\":490:514   */\n          tag_10\n          jump\t// in\n        tag_23:\n            /* \"#utility.yul\":483:488   */\n          dup2\n            /* \"#utility.yul\":480:515   */\n          eq\n            /* \"#utility.yul\":470:533   */\n          tag_24\n          jumpi\n            /* \"#utility.yul\":529:530   */\n          0x00\n            /* \"#utility.yul\":526:527   */\n          dup1\n            /* \"#utility.yul\":519:531   */\n          revert\n            /* \"#utility.yul\":470:533   */\n        tag_24:\n            /* \"#utility.yul\":417:539   */\n          pop\n          jump\t// out\n            /* \"#utility.yul\":545:688   */\n        tag_12:\n            /* \"#utility.yul\":602:607   */\n          0x00\n            /* \"#utility.yul\":633:639   */\n          dup2\n            /* \"#utility.yul\":627:640   */\n          mload\n            /* \"#utility.yul\":618:640   */\n          swap1\n          pop\n            /* \"#utility.yul\":649:682   */\n          tag_26\n            /* \"#utility.yul\":676:681   */\n          dup2\n            /* \"#utility.yul\":649:682   */\n          tag_11\n          jump\t// in\n        tag_26:\n            /* \"#utility.yul\":545:688   */\n          swap3\n          swap2\n          pop\n          pop\n          jump\t// out\n            /* \"#utility.yul\":694:820   */\n        tag_13:\n            /* \"#utility.yul\":731:738   */\n          0x00\n            /* \"#utility.yul\":771:813   */\n          0xffffffffffffffffffffffffffffffffffffffff\n            /* \"#utility.yul\":764:769   */\n          dup3\n            /* \"#utility.yul\":760:814   */\n          and\n            /* \"#utility.yul\":749:814   */\n          swap1\n          pop\n            /* \"#utility.yul\":694:820   */\n          swap2\n          swap1\n          pop\n          jump\t// out\n            /* \"#utility.yul\":826:922   */\n        tag_14:\n            /* \"#utility.yul\":863:870   */\n          0x00\n            /* \"#utility.yul\":892:916   */\n          tag_29\n            /* \"#utility.yul\":910:915   */\n          dup3\n            /* \"#utility.yul\":892:916   */\n          tag_13\n          jump\t// in\n        tag_29:\n            /* \"#utility.yul\":881:916   */\n          swap1\n          pop\n            /* \"#utility.yul\":826:922   */\n          swap2\n          swap1\n          pop\n          jump\t// out\n            /* \"#utility.yul\":928:1050   */\n        tag_15:\n            /* \"#utility.yul\":1001:1025   */\n          tag_31\n            /* \"#utility.yul\":1019:1024   */\n          dup2\n            /* \"#utility.yul\":1001:1025   */\n          tag_14\n          jump\t// in\n        tag_31:\n            /* \"#utility.yul\":994:999   */\n          dup2\n            /* \"#utility.yul\":991:1026   */\n          eq\n            /* \"#utility.yul\":981:1044   */\n          tag_32\n          jumpi\n            /* \"#utility.yul\":1040:1041   */\n          0x00\n            /* \"#utility.yul\":1037:1038   */\n          dup1\n            /* \"#utility.yul\":1030:1042   */\n          revert\n            /* \"#utility.yul\":981:1044   */\n        tag_32:\n            /* \"#utility.yul\":928:1050   */\n          pop\n          jump\t// out\n            /* \"#utility.yul\":1056:1199   */\n        tag_16:\n            /* \"#utility.yul\":1113:1118   */\n          0x00\n            /* \"#utility.yul\":1144:1150   */\n          dup2\n            /* \"#utility.yul\":1138:1151   */\n          mload\n            /* \"#utility.yul\":1129:1151   */\n          swap1\n          pop\n            /* \"#utility.yul\":1160:1193   */\n          tag_34\n            /* \"#utility.yul\":1187:1192   */\n          dup2\n            /* \"#utility.yul\":1160:1193   */\n          tag_15\n          jump\t// in\n        tag_34:\n            /* \"#utility.yul\":1056:1199   */\n          swap3\n          swap2\n          pop\n          pop\n          jump\t// out\n            /* \"#utility.yul\":1205:1712   */\n        tag_3:\n            /* \"#utility.yul\":1284:1290   */\n          0x00\n            /* \"#utility.yul\":1292:1298   */\n          dup1\n            /* \"#utility.yul\":1341:1343   */\n          0x40\n            /* \"#utility.yul\":1329:1338   */\n          dup4\n            /* \"#utility.yul\":1320:1327   */\n          dup6\n            /* \"#utility.yul\":1316:1339   */\n          sub\n            /* \"#utility.yul\":1312:1344   */\n          slt\n            /* \"#utility.yul\":1309:1428   */\n          iszero\n          tag_36\n          jumpi\n            /* \"#utility.yul\":1347:1426   */\n          tag_37\n          tag_8\n          jump\t// in\n        tag_37:\n            /* \"#utility.yul\":1309:1428   */\n        tag_36:\n            /* \"#utility.yul\":1467:1468   */\n          0x00\n            /* \"#utility.yul\":1492:1556   */\n          tag_38\n            /* \"#utility.yul\":1548:1555   */\n          dup6\n            /* \"#utility.yul\":1539:1545   */\n          dup3\n            /* \"#utility.yul\":1528:1537   */\n          dup7\n            /* \"#utility.yul\":1524:1546   */\n          add\n            /* \"#utility.yul\":1492:1556   */\n          tag_12\n          jump\t// in\n        tag_38:\n            /* \"#utility.yul\":1482:1556   */\n          swap3\n          pop\n            /* \"#utility.yul\":1438:1566   */\n          pop\n            /* \"#utility.yul\":1605:1607   */\n          0x20\n            /* \"#utility.yul\":1631:1695   */\n          tag_39\n            /* \"#utility.yul\":1687:1694   */\n          dup6\n            /* \"#utility.yul\":1678:1684   */\n          dup3\n            /* \"#utility.yul\":1667:1676   */\n          dup7\n            /* \"#utility.yul\":1663:1685   */\n          add\n            /* \"#utility.yul\":1631:1695   */\n          tag_16\n          jump\t// in\n        tag_39:\n            /* \"#utility.yul\":1621:1695   */\n          swap2\n          pop\n            /* \"#utility.yul\":1576:1705   */\n          pop\n            /* \"#utility.yul\":1205:1712   */\n          swap3\n          pop\n          swap3\n          swap1\n          pop\n          jump\t// out\n            /* \"Campaign.sol\":412:2392  contract Campaign {... */\n        tag_6:\n          dataSize(sub_0)\n          dup1\n          dataOffset(sub_0)\n          0x00\n          codecopy\n          0x00\n          return\n        stop\n\n        sub_0: assembly {\n                /* \"Campaign.sol\":412:2392  contract Campaign {... */\n              mstore(0x40, 0x80)\n              jumpi(tag_1, lt(calldatasize, 0x04))\n              shr(0xe0, calldataload(0x00))\n              dup1\n              0x937e09b1\n              gt\n              tag_11\n              jumpi\n              dup1\n              0x937e09b1\n              eq\n              tag_6\n              jumpi\n              dup1\n              0x9fb42b1f\n              eq\n              tag_7\n              jumpi\n              dup1\n              0xd7bb99ba\n              eq\n              tag_8\n              jumpi\n              dup1\n              0xd7d1bbdb\n              eq\n              tag_9\n              jumpi\n              dup1\n              0xf00a7f4f\n              eq\n              tag_10\n              jumpi\n              jump(tag_1)\n            tag_11:\n              dup1\n              0x0a144391\n              eq\n              tag_2\n              jumpi\n              dup1\n              0x481c6a75\n              eq\n              tag_3\n              jumpi\n              dup1\n              0x82fde093\n              eq\n              tag_4\n              jumpi\n              dup1\n              0x8a9cfd55\n              eq\n              tag_5\n              jumpi\n            tag_1:\n              0x00\n              dup1\n              revert\n                /* \"Campaign.sol\":716:757  mapping(address => bool) public approvers */\n            tag_2:\n              callvalue\n              dup1\n              iszero\n              tag_12\n              jumpi\n              0x00\n              dup1\n              revert\n            tag_12:\n              pop\n              tag_13\n              0x04\n              dup1\n              calldatasize\n              sub\n              dup2\n              add\n              swap1\n              tag_14\n              swap2\n              swap1\n              tag_15\n              jump\t// in\n            tag_14:\n              tag_16\n              jump\t// in\n            tag_13:\n              mload(0x40)\n              tag_17\n              swap2\n              swap1\n              tag_18\n              jump\t// in\n            tag_17:\n              mload(0x40)\n              dup1\n              swap2\n              sub\n              swap1\n              return\n                /* \"Campaign.sol\":648:670  address public manager */\n            tag_3:\n              callvalue\n              dup1\n              iszero\n              tag_19\n              jumpi\n              0x00\n              dup1\n              revert\n            tag_19:\n              pop\n              tag_20\n              tag_21\n              jump\t// in\n            tag_20:\n              mload(0x40)\n              tag_22\n              swap2\n              swap1\n              tag_23\n              jump\t// in\n            tag_22:\n              mload(0x40)\n              dup1\n              swap2\n              sub\n              swap1\n              return\n                /* \"Campaign.sol\":763:792  uint256 public approversCount */\n            tag_4:\n              callvalue\n              dup1\n              iszero\n              tag_24\n              jumpi\n              0x00\n              dup1\n              revert\n            tag_24:\n              pop\n              tag_25\n              tag_26\n              jump\t// in\n            tag_25:\n              mload(0x40)\n              tag_27\n              swap2\n              swap1\n              tag_28\n              jump\t// in\n            tag_27:\n              mload(0x40)\n              dup1\n              swap2\n              sub\n              swap1\n              return\n                /* \"Campaign.sol\":1249:1601  function createRequest(... */\n            tag_5:\n              callvalue\n              dup1\n              iszero\n              tag_29\n              jumpi\n              0x00\n              dup1\n              revert\n            tag_29:\n              pop\n              tag_30\n              0x04\n              dup1\n              calldatasize\n              sub\n              dup2\n              add\n              swap1\n              tag_31\n              swap2\n              swap1\n              tag_32\n              jump\t// in\n            tag_31:\n              tag_33\n              jump\t// in\n            tag_30:\n              stop\n                /* \"Campaign.sol\":676:710  uint256 public minimumContribution */\n            tag_6:\n              callvalue\n              dup1\n              iszero\n              tag_34\n              jumpi\n              0x00\n              dup1\n              revert\n            tag_34:\n              pop\n              tag_35\n              tag_36\n              jump\t// in\n            tag_35:\n              mload(0x40)\n              tag_37\n              swap2\n              swap1\n              tag_28\n              jump\t// in\n            tag_37:\n              mload(0x40)\n              dup1\n              swap2\n              sub\n              swap1\n              return\n                /* \"Campaign.sol\":799:825  uint256 public numRequests */\n            tag_7:\n              callvalue\n              dup1\n              iszero\n              tag_38\n              jumpi\n              0x00\n              dup1\n              revert\n            tag_38:\n              pop\n              tag_39\n              tag_40\n              jump\t// in\n            tag_39:\n              mload(0x40)\n              tag_41\n              swap2\n              swap1\n              tag_28\n              jump\t// in\n            tag_41:\n              mload(0x40)\n              dup1\n              swap2\n              sub\n              swap1\n              return\n                /* \"Campaign.sol\":1085:1243  function contribute() public payable {... */\n            tag_8:\n              tag_42\n              tag_43\n              jump\t// in\n            tag_42:\n              stop\n                /* \"Campaign.sol\":1607:1982  function approveRequest(uint256 index) public {... */\n            tag_9:\n              callvalue\n              dup1\n              iszero\n              tag_44\n              jumpi\n              0x00\n              dup1\n              revert\n            tag_44:\n              pop\n              tag_45\n              0x04\n              dup1\n              calldatasize\n              sub\n              dup2\n              add\n              swap1\n              tag_46\n              swap2\n              swap1\n              tag_47\n              jump\t// in\n            tag_46:\n              tag_48\n              jump\t// in\n            tag_45:\n              stop\n                /* \"Campaign.sol\":1988:2390  function finalizeApprove(uint256 index) public restricted {... */\n            tag_10:\n              callvalue\n              dup1\n              iszero\n              tag_49\n              jumpi\n              0x00\n              dup1\n              revert\n            tag_49:\n              pop\n              tag_50\n              0x04\n              dup1\n              calldatasize\n              sub\n              dup2\n              add\n              swap1\n              tag_51\n              swap2\n              swap1\n              tag_47\n              jump\t// in\n            tag_51:\n              tag_52\n              jump\t// in\n            tag_50:\n              stop\n                /* \"Campaign.sol\":716:757  mapping(address => bool) public approvers */\n            tag_16:\n              mstore(0x20, 0x02)\n              dup1\n              0x00\n              mstore\n              keccak256(0x00, 0x40)\n              0x00\n              swap2\n              pop\n              sload\n              swap1\n              0x0100\n              exp\n              swap1\n              div\n              0xff\n              and\n              dup2\n              jump\t// out\n                /* \"Campaign.sol\":648:670  address public manager */\n            tag_21:\n              0x00\n              dup1\n              sload\n              swap1\n              0x0100\n              exp\n              swap1\n              div\n              0xffffffffffffffffffffffffffffffffffffffff\n              and\n              dup2\n              jump\t// out\n                /* \"Campaign.sol\":763:792  uint256 public approversCount */\n            tag_26:\n              sload(0x03)\n              dup2\n              jump\t// out\n                /* \"Campaign.sol\":1249:1601  function createRequest(... */\n            tag_33:\n                /* \"Campaign.sol\":1053:1060  manager */\n              0x00\n              dup1\n              sload\n              swap1\n              0x0100\n              exp\n              swap1\n              div\n              0xffffffffffffffffffffffffffffffffffffffff\n              and\n                /* \"Campaign.sol\":1039:1060  msg.sender == manager */\n              0xffffffffffffffffffffffffffffffffffffffff\n              and\n                /* \"Campaign.sol\":1039:1049  msg.sender */\n              caller\n                /* \"Campaign.sol\":1039:1060  msg.sender == manager */\n              0xffffffffffffffffffffffffffffffffffffffff\n              and\n              eq\n                /* \"Campaign.sol\":1031:1061  require(msg.sender == manager) */\n              tag_54\n              jumpi\n              0x00\n              dup1\n              revert\n            tag_54:\n                /* \"Campaign.sol\":1399:1416  Request storage r */\n              0x00\n                /* \"Campaign.sol\":1419:1427  requests */\n              0x05\n                /* \"Campaign.sol\":1419:1442  requests[numRequests++] */\n              0x00\n                /* \"Campaign.sol\":1428:1439  numRequests */\n              0x04\n              0x00\n                /* \"Campaign.sol\":1428:1441  numRequests++ */\n              dup2\n              sload\n              dup1\n              swap3\n              swap2\n              swap1\n              tag_56\n              swap1\n              tag_57\n              jump\t// in\n            tag_56:\n              swap2\n              swap1\n              pop\n              sstore\n                /* \"Campaign.sol\":1419:1442  requests[numRequests++] */\n              dup2\n              mstore\n              0x20\n              add\n              swap1\n              dup2\n              mstore\n              0x20\n              add\n              0x00\n              keccak256\n                /* \"Campaign.sol\":1399:1442  Request storage r = requests[numRequests++] */\n              swap1\n              pop\n                /* \"Campaign.sol\":1468:1479  description */\n              dup4\n                /* \"Campaign.sol\":1452:1453  r */\n              dup2\n                /* \"Campaign.sol\":1452:1465  r.description */\n              0x00\n              add\n                /* \"Campaign.sol\":1452:1479  r.description = description */\n              swap1\n              dup1\n              mload\n              swap1\n              0x20\n              add\n              swap1\n              tag_58\n              swap3\n              swap2\n              swap1\n              tag_59\n              jump\t// in\n            tag_58:\n              pop\n                /* \"Campaign.sol\":1499:1504  value */\n              dup3\n                /* \"Campaign.sol\":1489:1490  r */\n              dup2\n                /* \"Campaign.sol\":1489:1496  r.value */\n              0x01\n              add\n                /* \"Campaign.sol\":1489:1504  r.value = value */\n              dup2\n              swap1\n              sstore\n              pop\n                /* \"Campaign.sol\":1528:1537  recipient */\n              dup2\n                /* \"Campaign.sol\":1514:1515  r */\n              dup2\n                /* \"Campaign.sol\":1514:1525  r.recipient */\n              0x02\n              add\n              0x00\n                /* \"Campaign.sol\":1514:1537  r.recipient = recipient */\n              0x0100\n              exp\n              dup2\n              sload\n              dup2\n              0xffffffffffffffffffffffffffffffffffffffff\n              mul\n              not\n              and\n              swap1\n              dup4\n              0xffffffffffffffffffffffffffffffffffffffff\n              and\n              mul\n              or\n              swap1\n              sstore\n              pop\n                /* \"Campaign.sol\":1560:1565  false */\n              0x00\n                /* \"Campaign.sol\":1547:1548  r */\n              dup2\n                /* \"Campaign.sol\":1547:1557  r.complete */\n              0x02\n              add\n              0x14\n                /* \"Campaign.sol\":1547:1565  r.complete = false */\n              0x0100\n              exp\n              dup2\n              sload\n              dup2\n              0xff\n              mul\n              not\n              and\n              swap1\n              dup4\n              iszero\n              iszero\n              mul\n              or\n              swap1\n              sstore\n              pop\n                /* \"Campaign.sol\":1593:1594  0 */\n              0x00\n                /* \"Campaign.sol\":1575:1576  r */\n              dup2\n                /* \"Campaign.sol\":1575:1590  r.approvalCount */\n              0x04\n              add\n                /* \"Campaign.sol\":1575:1594  r.approvalCount = 0 */\n              dup2\n              swap1\n              sstore\n              pop\n                /* \"Campaign.sol\":1389:1601  {... */\n              pop\n                /* \"Campaign.sol\":1249:1601  function createRequest(... */\n              pop\n              pop\n              pop\n              jump\t// out\n                /* \"Campaign.sol\":676:710  uint256 public minimumContribution */\n            tag_36:\n              sload(0x01)\n              dup2\n              jump\t// out\n                /* \"Campaign.sol\":799:825  uint256 public numRequests */\n            tag_40:\n              sload(0x04)\n              dup2\n              jump\t// out\n                /* \"Campaign.sol\":1085:1243  function contribute() public payable {... */\n            tag_43:\n                /* \"Campaign.sol\":1162:1171  msg.value */\n              callvalue\n                /* \"Campaign.sol\":1140:1159  minimumContribution */\n              sload(0x01)\n                /* \"Campaign.sol\":1140:1171  minimumContribution < msg.value */\n              lt\n                /* \"Campaign.sol\":1132:1172  require(minimumContribution < msg.value) */\n              tag_61\n              jumpi\n              0x00\n              dup1\n              revert\n            tag_61:\n                /* \"Campaign.sol\":1206:1210  true */\n              0x01\n                /* \"Campaign.sol\":1182:1191  approvers */\n              0x02\n                /* \"Campaign.sol\":1182:1203  approvers[msg.sender] */\n              0x00\n                /* \"Campaign.sol\":1192:1202  msg.sender */\n              caller\n                /* \"Campaign.sol\":1182:1203  approvers[msg.sender] */\n              0xffffffffffffffffffffffffffffffffffffffff\n              and\n              0xffffffffffffffffffffffffffffffffffffffff\n              and\n              dup2\n              mstore\n              0x20\n              add\n              swap1\n              dup2\n              mstore\n              0x20\n              add\n              0x00\n              keccak256\n              0x00\n                /* \"Campaign.sol\":1182:1210  approvers[msg.sender] = true */\n              0x0100\n              exp\n              dup2\n              sload\n              dup2\n              0xff\n              mul\n              not\n              and\n              swap1\n              dup4\n              iszero\n              iszero\n              mul\n              or\n              swap1\n              sstore\n              pop\n                /* \"Campaign.sol\":1220:1234  approversCount */\n              0x03\n              0x00\n                /* \"Campaign.sol\":1220:1236  approversCount++ */\n              dup2\n              sload\n              dup1\n              swap3\n              swap2\n              swap1\n              tag_62\n              swap1\n              tag_57\n              jump\t// in\n            tag_62:\n              swap2\n              swap1\n              pop\n              sstore\n              pop\n                /* \"Campaign.sol\":1085:1243  function contribute() public payable {... */\n              jump\t// out\n                /* \"Campaign.sol\":1607:1982  function approveRequest(uint256 index) public {... */\n            tag_48:\n                /* \"Campaign.sol\":1663:1686  Request storage request */\n              0x00\n                /* \"Campaign.sol\":1689:1697  requests */\n              0x05\n                /* \"Campaign.sol\":1689:1704  requests[index] */\n              0x00\n                /* \"Campaign.sol\":1698:1703  index */\n              dup4\n                /* \"Campaign.sol\":1689:1704  requests[index] */\n              dup2\n              mstore\n              0x20\n              add\n              swap1\n              dup2\n              mstore\n              0x20\n              add\n              0x00\n              keccak256\n                /* \"Campaign.sol\":1663:1704  Request storage request = requests[index] */\n              swap1\n              pop\n                /* \"Campaign.sol\":1735:1744  approvers */\n              0x02\n                /* \"Campaign.sol\":1735:1756  approvers[msg.sender] */\n              0x00\n                /* \"Campaign.sol\":1745:1755  msg.sender */\n              caller\n                /* \"Campaign.sol\":1735:1756  approvers[msg.sender] */\n              0xffffffffffffffffffffffffffffffffffffffff\n              and\n              0xffffffffffffffffffffffffffffffffffffffff\n              and\n              dup2\n              mstore\n              0x20\n              add\n              swap1\n              dup2\n              mstore\n              0x20\n              add\n              0x00\n              keccak256\n              0x00\n              swap1\n              sload\n              swap1\n              0x0100\n              exp\n              swap1\n              div\n              0xff\n              and\n                /* \"Campaign.sol\":1714:1820  require(... */\n              tag_64\n              jumpi\n              mload(0x40)\n              0x08c379a000000000000000000000000000000000000000000000000000000000\n              dup2\n              mstore\n              0x04\n              add\n              tag_65\n              swap1\n              tag_66\n              jump\t// in\n            tag_65:\n              mload(0x40)\n              dup1\n              swap2\n              sub\n              swap1\n              revert\n            tag_64:\n                /* \"Campaign.sol\":1839:1846  request */\n              dup1\n                /* \"Campaign.sol\":1839:1856  request.approvals */\n              0x03\n              add\n                /* \"Campaign.sol\":1839:1868  request.approvals[msg.sender] */\n              0x00\n                /* \"Campaign.sol\":1857:1867  msg.sender */\n              caller\n                /* \"Campaign.sol\":1839:1868  request.approvals[msg.sender] */\n              0xffffffffffffffffffffffffffffffffffffffff\n              and\n              0xffffffffffffffffffffffffffffffffffffffff\n              and\n              dup2\n              mstore\n              0x20\n              add\n              swap1\n              dup2\n              mstore\n              0x20\n              add\n              0x00\n              keccak256\n              0x00\n              swap1\n              sload\n              swap1\n              0x0100\n              exp\n              swap1\n              div\n              0xff\n              and\n                /* \"Campaign.sol\":1838:1868  !request.approvals[msg.sender] */\n              iszero\n                /* \"Campaign.sol\":1830:1895  require(!request.approvals[msg.sender], \"You can vote only once\") */\n              tag_67\n              jumpi\n              mload(0x40)\n              0x08c379a000000000000000000000000000000000000000000000000000000000\n              dup2\n              mstore\n              0x04\n              add\n              tag_68\n              swap1\n              tag_69\n              jump\t// in\n            tag_68:\n              mload(0x40)\n              dup1\n              swap2\n              sub\n              swap1\n              revert\n            tag_67:\n                /* \"Campaign.sol\":1938:1942  true */\n              0x01\n                /* \"Campaign.sol\":1906:1913  request */\n              dup2\n                /* \"Campaign.sol\":1906:1923  request.approvals */\n              0x03\n              add\n                /* \"Campaign.sol\":1906:1935  request.approvals[msg.sender] */\n              0x00\n                /* \"Campaign.sol\":1924:1934  msg.sender */\n              caller\n                /* \"Campaign.sol\":1906:1935  request.approvals[msg.sender] */\n              0xffffffffffffffffffffffffffffffffffffffff\n              and\n              0xffffffffffffffffffffffffffffffffffffffff\n              and\n              dup2\n              mstore\n              0x20\n              add\n              swap1\n              dup2\n              mstore\n              0x20\n              add\n              0x00\n              keccak256\n              0x00\n                /* \"Campaign.sol\":1906:1942  request.approvals[msg.sender] = true */\n              0x0100\n              exp\n              dup2\n              sload\n              dup2\n              0xff\n              mul\n              not\n              and\n              swap1\n              dup4\n              iszero\n              iszero\n              mul\n              or\n              swap1\n              sstore\n              pop\n                /* \"Campaign.sol\":1952:1959  request */\n              dup1\n                /* \"Campaign.sol\":1952:1973  request.approvalCount */\n              0x04\n              add\n              0x00\n                /* \"Campaign.sol\":1952:1975  request.approvalCount++ */\n              dup2\n              sload\n              dup1\n              swap3\n              swap2\n              swap1\n              tag_70\n              swap1\n              tag_57\n              jump\t// in\n            tag_70:\n              swap2\n              swap1\n              pop\n              sstore\n              pop\n                /* \"Campaign.sol\":1653:1982  {... */\n              pop\n                /* \"Campaign.sol\":1607:1982  function approveRequest(uint256 index) public {... */\n              pop\n              jump\t// out\n                /* \"Campaign.sol\":1988:2390  function finalizeApprove(uint256 index) public restricted {... */\n            tag_52:\n                /* \"Campaign.sol\":1053:1060  manager */\n              0x00\n              dup1\n              sload\n              swap1\n              0x0100\n              exp\n              swap1\n              div\n              0xffffffffffffffffffffffffffffffffffffffff\n              and\n                /* \"Campaign.sol\":1039:1060  msg.sender == manager */\n              0xffffffffffffffffffffffffffffffffffffffff\n              and\n                /* \"Campaign.sol\":1039:1049  msg.sender */\n              caller\n                /* \"Campaign.sol\":1039:1060  msg.sender == manager */\n              0xffffffffffffffffffffffffffffffffffffffff\n              and\n              eq\n                /* \"Campaign.sol\":1031:1061  require(msg.sender == manager) */\n              tag_72\n              jumpi\n              0x00\n              dup1\n              revert\n            tag_72:\n                /* \"Campaign.sol\":2056:2079  Request storage request */\n              0x00\n                /* \"Campaign.sol\":2082:2090  requests */\n              0x05\n                /* \"Campaign.sol\":2082:2097  requests[index] */\n              0x00\n                /* \"Campaign.sol\":2091:2096  index */\n              dup4\n                /* \"Campaign.sol\":2082:2097  requests[index] */\n              dup2\n              mstore\n              0x20\n              add\n              swap1\n              dup2\n              mstore\n              0x20\n              add\n              0x00\n              keccak256\n                /* \"Campaign.sol\":2056:2097  Request storage request = requests[index] */\n              swap1\n              pop\n                /* \"Campaign.sol\":2170:2171  2 */\n              0x02\n                /* \"Campaign.sol\":2153:2167  approversCount */\n              sload(0x03)\n                /* \"Campaign.sol\":2153:2171  approversCount / 2 */\n              tag_74\n              swap2\n              swap1\n              tag_75\n              jump\t// in\n            tag_74:\n                /* \"Campaign.sol\":2128:2135  request */\n              dup2\n                /* \"Campaign.sol\":2128:2149  request.approvalCount */\n              0x04\n              add\n              sload\n                /* \"Campaign.sol\":2128:2172  request.approvalCount > (approversCount / 2) */\n              gt\n                /* \"Campaign.sol\":2107:2233  require(... */\n              tag_76\n              jumpi\n              mload(0x40)\n              0x08c379a000000000000000000000000000000000000000000000000000000000\n              dup2\n              mstore\n              0x04\n              add\n              tag_77\n              swap1\n              tag_78\n              jump\t// in\n            tag_77:\n              mload(0x40)\n              dup1\n              swap2\n              sub\n              swap1\n              revert\n            tag_76:\n                /* \"Campaign.sol\":2252:2259  request */\n              dup1\n                /* \"Campaign.sol\":2252:2268  request.complete */\n              0x02\n              add\n              0x14\n              swap1\n              sload\n              swap1\n              0x0100\n              exp\n              swap1\n              div\n              0xff\n              and\n                /* \"Campaign.sol\":2251:2268  !request.complete */\n              iszero\n                /* \"Campaign.sol\":2243:2298  require(!request.complete, \"Request already completed\") */\n              tag_79\n              jumpi\n              mload(0x40)\n              0x08c379a000000000000000000000000000000000000000000000000000000000\n              dup2\n              mstore\n              0x04\n              add\n              tag_80\n              swap1\n              tag_81\n              jump\t// in\n            tag_80:\n              mload(0x40)\n              dup1\n              swap2\n              sub\n              swap1\n              revert\n            tag_79:\n                /* \"Campaign.sol\":2309:2316  request */\n              dup1\n                /* \"Campaign.sol\":2309:2326  request.recipient */\n              0x02\n              add\n              0x00\n              swap1\n              sload\n              swap1\n              0x0100\n              exp\n              swap1\n              div\n              0xffffffffffffffffffffffffffffffffffffffff\n              and\n                /* \"Campaign.sol\":2309:2335  request.recipient.transfer */\n              0xffffffffffffffffffffffffffffffffffffffff\n              and\n                /* \"Campaign.sol\":2309:2350  request.recipient.transfer(request.value) */\n              0x08fc\n                /* \"Campaign.sol\":2336:2343  request */\n              dup3\n                /* \"Campaign.sol\":2336:2349  request.value */\n              0x01\n              add\n              sload\n                /* \"Campaign.sol\":2309:2350  request.recipient.transfer(request.value) */\n              swap1\n              dup2\n              iszero\n              mul\n              swap1\n              mload(0x40)\n              0x00\n              mload(0x40)\n              dup1\n              dup4\n              sub\n              dup2\n              dup6\n              dup9\n              dup9\n              call\n              swap4\n              pop\n              pop\n              pop\n              pop\n              iszero\n              dup1\n              iszero\n              tag_83\n              jumpi\n              returndatasize\n              0x00\n              dup1\n              returndatacopy\n              revert(0x00, returndatasize)\n            tag_83:\n              pop\n                /* \"Campaign.sol\":2379:2383  true */\n              0x01\n                /* \"Campaign.sol\":2360:2367  request */\n              dup2\n                /* \"Campaign.sol\":2360:2376  request.complete */\n              0x02\n              add\n              0x14\n                /* \"Campaign.sol\":2360:2383  request.complete = true */\n              0x0100\n              exp\n              dup2\n              sload\n              dup2\n              0xff\n              mul\n              not\n              and\n              swap1\n              dup4\n              iszero\n              iszero\n              mul\n              or\n              swap1\n              sstore\n              pop\n                /* \"Campaign.sol\":2046:2390  {... */\n              pop\n                /* \"Campaign.sol\":1988:2390  function finalizeApprove(uint256 index) public restricted {... */\n              pop\n              jump\t// out\n            tag_59:\n              dup3\n              dup1\n              sload\n              tag_84\n              swap1\n              tag_85\n              jump\t// in\n            tag_84:\n              swap1\n              0x00\n              mstore\n              keccak256(0x00, 0x20)\n              swap1\n              0x1f\n              add\n              0x20\n              swap1\n              div\n              dup2\n              add\n              swap3\n              dup3\n              tag_87\n              jumpi\n              0x00\n              dup6\n              sstore\n              jump(tag_86)\n            tag_87:\n              dup3\n              0x1f\n              lt\n              tag_88\n              jumpi\n              dup1\n              mload\n              not(0xff)\n              and\n              dup4\n              dup1\n              add\n              or\n              dup6\n              sstore\n              jump(tag_86)\n            tag_88:\n              dup3\n              dup1\n              add\n              0x01\n              add\n              dup6\n              sstore\n              dup3\n              iszero\n              tag_86\n              jumpi\n              swap2\n              dup3\n              add\n            tag_89:\n              dup3\n              dup2\n              gt\n              iszero\n              tag_90\n              jumpi\n              dup3\n              mload\n              dup3\n              sstore\n              swap2\n              0x20\n              add\n              swap2\n              swap1\n              0x01\n              add\n              swap1\n              jump(tag_89)\n            tag_90:\n            tag_86:\n              pop\n              swap1\n              pop\n              tag_91\n              swap2\n              swap1\n              tag_92\n              jump\t// in\n            tag_91:\n              pop\n              swap1\n              jump\t// out\n            tag_92:\n            tag_93:\n              dup1\n              dup3\n              gt\n              iszero\n              tag_94\n              jumpi\n              0x00\n              dup2\n              0x00\n              swap1\n              sstore\n              pop\n              0x01\n              add\n              jump(tag_93)\n            tag_94:\n              pop\n              swap1\n              jump\t// out\n                /* \"#utility.yul\":7:82   */\n            tag_95:\n                /* \"#utility.yul\":40:46   */\n              0x00\n                /* \"#utility.yul\":73:75   */\n              0x40\n                /* \"#utility.yul\":67:76   */\n              mload\n                /* \"#utility.yul\":57:76   */\n              swap1\n              pop\n                /* \"#utility.yul\":7:82   */\n              swap1\n              jump\t// out\n                /* \"#utility.yul\":88:205   */\n            tag_96:\n                /* \"#utility.yul\":197:198   */\n              0x00\n                /* \"#utility.yul\":194:195   */\n              dup1\n                /* \"#utility.yul\":187:199   */\n              revert\n                /* \"#utility.yul\":211:328   */\n            tag_97:\n                /* \"#utility.yul\":320:321   */\n              0x00\n                /* \"#utility.yul\":317:318   */\n              dup1\n                /* \"#utility.yul\":310:322   */\n              revert\n                /* \"#utility.yul\":334:460   */\n            tag_98:\n                /* \"#utility.yul\":371:378   */\n              0x00\n                /* \"#utility.yul\":411:453   */\n              0xffffffffffffffffffffffffffffffffffffffff\n                /* \"#utility.yul\":404:409   */\n              dup3\n                /* \"#utility.yul\":400:454   */\n              and\n                /* \"#utility.yul\":389:454   */\n              swap1\n              pop\n                /* \"#utility.yul\":334:460   */\n              swap2\n              swap1\n              pop\n              jump\t// out\n                /* \"#utility.yul\":466:562   */\n            tag_99:\n                /* \"#utility.yul\":503:510   */\n              0x00\n                /* \"#utility.yul\":532:556   */\n              tag_140\n                /* \"#utility.yul\":550:555   */\n              dup3\n                /* \"#utility.yul\":532:556   */\n              tag_98\n              jump\t// in\n            tag_140:\n                /* \"#utility.yul\":521:556   */\n              swap1\n              pop\n                /* \"#utility.yul\":466:562   */\n              swap2\n              swap1\n              pop\n              jump\t// out\n                /* \"#utility.yul\":568:690   */\n            tag_100:\n                /* \"#utility.yul\":641:665   */\n              tag_142\n                /* \"#utility.yul\":659:664   */\n              dup2\n                /* \"#utility.yul\":641:665   */\n              tag_99\n              jump\t// in\n            tag_142:\n                /* \"#utility.yul\":634:639   */\n              dup2\n                /* \"#utility.yul\":631:666   */\n              eq\n                /* \"#utility.yul\":621:684   */\n              tag_143\n              jumpi\n                /* \"#utility.yul\":680:681   */\n              0x00\n                /* \"#utility.yul\":677:678   */\n              dup1\n                /* \"#utility.yul\":670:682   */\n              revert\n                /* \"#utility.yul\":621:684   */\n            tag_143:\n                /* \"#utility.yul\":568:690   */\n              pop\n              jump\t// out\n                /* \"#utility.yul\":696:835   */\n            tag_101:\n                /* \"#utility.yul\":742:747   */\n              0x00\n                /* \"#utility.yul\":780:786   */\n              dup2\n                /* \"#utility.yul\":767:787   */\n              calldataload\n                /* \"#utility.yul\":758:787   */\n              swap1\n              pop\n                /* \"#utility.yul\":796:829   */\n              tag_145\n                /* \"#utility.yul\":823:828   */\n              dup2\n                /* \"#utility.yul\":796:829   */\n              tag_100\n              jump\t// in\n            tag_145:\n                /* \"#utility.yul\":696:835   */\n              swap3\n              swap2\n              pop\n              pop\n              jump\t// out\n                /* \"#utility.yul\":841:1170   */\n            tag_15:\n                /* \"#utility.yul\":900:906   */\n              0x00\n                /* \"#utility.yul\":949:951   */\n              0x20\n                /* \"#utility.yul\":937:946   */\n              dup3\n                /* \"#utility.yul\":928:935   */\n              dup5\n                /* \"#utility.yul\":924:947   */\n              sub\n                /* \"#utility.yul\":920:952   */\n              slt\n                /* \"#utility.yul\":917:1036   */\n              iszero\n              tag_147\n              jumpi\n                /* \"#utility.yul\":955:1034   */\n              tag_148\n              tag_96\n              jump\t// in\n            tag_148:\n                /* \"#utility.yul\":917:1036   */\n            tag_147:\n                /* \"#utility.yul\":1075:1076   */\n              0x00\n                /* \"#utility.yul\":1100:1153   */\n              tag_149\n                /* \"#utility.yul\":1145:1152   */\n              dup5\n                /* \"#utility.yul\":1136:1142   */\n              dup3\n                /* \"#utility.yul\":1125:1134   */\n              dup6\n                /* \"#utility.yul\":1121:1143   */\n              add\n                /* \"#utility.yul\":1100:1153   */\n              tag_101\n              jump\t// in\n            tag_149:\n                /* \"#utility.yul\":1090:1153   */\n              swap2\n              pop\n                /* \"#utility.yul\":1046:1163   */\n              pop\n                /* \"#utility.yul\":841:1170   */\n              swap3\n              swap2\n              pop\n              pop\n              jump\t// out\n                /* \"#utility.yul\":1176:1266   */\n            tag_102:\n                /* \"#utility.yul\":1210:1217   */\n              0x00\n                /* \"#utility.yul\":1253:1258   */\n              dup2\n                /* \"#utility.yul\":1246:1259   */\n              iszero\n                /* \"#utility.yul\":1239:1260   */\n              iszero\n                /* \"#utility.yul\":1228:1260   */\n              swap1\n              pop\n                /* \"#utility.yul\":1176:1266   */\n              swap2\n              swap1\n              pop\n              jump\t// out\n                /* \"#utility.yul\":1272:1381   */\n            tag_103:\n                /* \"#utility.yul\":1353:1374   */\n              tag_152\n                /* \"#utility.yul\":1368:1373   */\n              dup2\n                /* \"#utility.yul\":1353:1374   */\n              tag_102\n              jump\t// in\n            tag_152:\n                /* \"#utility.yul\":1348:1351   */\n              dup3\n                /* \"#utility.yul\":1341:1375   */\n              mstore\n                /* \"#utility.yul\":1272:1381   */\n              pop\n              pop\n              jump\t// out\n                /* \"#utility.yul\":1387:1597   */\n            tag_18:\n                /* \"#utility.yul\":1474:1478   */\n              0x00\n                /* \"#utility.yul\":1512:1514   */\n              0x20\n                /* \"#utility.yul\":1501:1510   */\n              dup3\n                /* \"#utility.yul\":1497:1515   */\n              add\n                /* \"#utility.yul\":1489:1515   */\n              swap1\n              pop\n                /* \"#utility.yul\":1525:1590   */\n              tag_154\n                /* \"#utility.yul\":1587:1588   */\n              0x00\n                /* \"#utility.yul\":1576:1585   */\n              dup4\n                /* \"#utility.yul\":1572:1589   */\n              add\n                /* \"#utility.yul\":1563:1569   */\n              dup5\n                /* \"#utility.yul\":1525:1590   */\n              tag_103\n              jump\t// in\n            tag_154:\n                /* \"#utility.yul\":1387:1597   */\n              swap3\n              swap2\n              pop\n              pop\n              jump\t// out\n                /* \"#utility.yul\":1603:1721   */\n            tag_104:\n                /* \"#utility.yul\":1690:1714   */\n              tag_156\n                /* \"#utility.yul\":1708:1713   */\n              dup2\n                /* \"#utility.yul\":1690:1714   */\n              tag_99\n              jump\t// in\n            tag_156:\n                /* \"#utility.yul\":1685:1688   */\n              dup3\n                /* \"#utility.yul\":1678:1715   */\n              mstore\n                /* \"#utility.yul\":1603:1721   */\n              pop\n              pop\n              jump\t// out\n                /* \"#utility.yul\":1727:1949   */\n            tag_23:\n                /* \"#utility.yul\":1820:1824   */\n              0x00\n                /* \"#utility.yul\":1858:1860   */\n              0x20\n                /* \"#utility.yul\":1847:1856   */\n              dup3\n                /* \"#utility.yul\":1843:1861   */\n              add\n                /* \"#utility.yul\":1835:1861   */\n              swap1\n              pop\n                /* \"#utility.yul\":1871:1942   */\n              tag_158\n                /* \"#utility.yul\":1939:1940   */\n              0x00\n                /* \"#utility.yul\":1928:1937   */\n              dup4\n                /* \"#utility.yul\":1924:1941   */\n              add\n                /* \"#utility.yul\":1915:1921   */\n              dup5\n                /* \"#utility.yul\":1871:1942   */\n              tag_104\n              jump\t// in\n            tag_158:\n                /* \"#utility.yul\":1727:1949   */\n              swap3\n              swap2\n              pop\n              pop\n              jump\t// out\n                /* \"#utility.yul\":1955:2032   */\n            tag_105:\n                /* \"#utility.yul\":1992:1999   */\n              0x00\n                /* \"#utility.yul\":2021:2026   */\n              dup2\n                /* \"#utility.yul\":2010:2026   */\n              swap1\n              pop\n                /* \"#utility.yul\":1955:2032   */\n              swap2\n              swap1\n              pop\n              jump\t// out\n                /* \"#utility.yul\":2038:2156   */\n            tag_106:\n                /* \"#utility.yul\":2125:2149   */\n              tag_161\n                /* \"#utility.yul\":2143:2148   */\n              dup2\n                /* \"#utility.yul\":2125:2149   */\n              tag_105\n              jump\t// in\n            tag_161:\n                /* \"#utility.yul\":2120:2123   */\n              dup3\n                /* \"#utility.yul\":2113:2150   */\n              mstore\n                /* \"#utility.yul\":2038:2156   */\n              pop\n              pop\n              jump\t// out\n                /* \"#utility.yul\":2162:2384   */\n            tag_28:\n                /* \"#utility.yul\":2255:2259   */\n              0x00\n                /* \"#utility.yul\":2293:2295   */\n              0x20\n                /* \"#utility.yul\":2282:2291   */\n              dup3\n                /* \"#utility.yul\":2278:2296   */\n              add\n                /* \"#utility.yul\":2270:2296   */\n              swap1\n              pop\n                /* \"#utility.yul\":2306:2377   */\n              tag_163\n                /* \"#utility.yul\":2374:2375   */\n              0x00\n                /* \"#utility.yul\":2363:2372   */\n              dup4\n                /* \"#utility.yul\":2359:2376   */\n              add\n                /* \"#utility.yul\":2350:2356   */\n              dup5\n                /* \"#utility.yul\":2306:2377   */\n              tag_106\n              jump\t// in\n            tag_163:\n                /* \"#utility.yul\":2162:2384   */\n              swap3\n              swap2\n              pop\n              pop\n              jump\t// out\n                /* \"#utility.yul\":2390:2507   */\n            tag_107:\n                /* \"#utility.yul\":2499:2500   */\n              0x00\n                /* \"#utility.yul\":2496:2497   */\n              dup1\n                /* \"#utility.yul\":2489:2501   */\n              revert\n                /* \"#utility.yul\":2513:2630   */\n            tag_108:\n                /* \"#utility.yul\":2622:2623   */\n              0x00\n                /* \"#utility.yul\":2619:2620   */\n              dup1\n                /* \"#utility.yul\":2612:2624   */\n              revert\n                /* \"#utility.yul\":2636:2738   */\n            tag_109:\n                /* \"#utility.yul\":2677:2683   */\n              0x00\n                /* \"#utility.yul\":2728:2730   */\n              0x1f\n                /* \"#utility.yul\":2724:2731   */\n              not\n                /* \"#utility.yul\":2719:2721   */\n              0x1f\n                /* \"#utility.yul\":2712:2717   */\n              dup4\n                /* \"#utility.yul\":2708:2722   */\n              add\n                /* \"#utility.yul\":2704:2732   */\n              and\n                /* \"#utility.yul\":2694:2732   */\n              swap1\n              pop\n                /* \"#utility.yul\":2636:2738   */\n              swap2\n              swap1\n              pop\n              jump\t// out\n                /* \"#utility.yul\":2744:2924   */\n            tag_110:\n                /* \"#utility.yul\":2792:2869   */\n              0x4e487b7100000000000000000000000000000000000000000000000000000000\n                /* \"#utility.yul\":2789:2790   */\n              0x00\n                /* \"#utility.yul\":2782:2870   */\n              mstore\n                /* \"#utility.yul\":2889:2893   */\n              0x41\n                /* \"#utility.yul\":2886:2887   */\n              0x04\n                /* \"#utility.yul\":2879:2894   */\n              mstore\n                /* \"#utility.yul\":2913:2917   */\n              0x24\n                /* \"#utility.yul\":2910:2911   */\n              0x00\n                /* \"#utility.yul\":2903:2918   */\n              revert\n                /* \"#utility.yul\":2930:3211   */\n            tag_111:\n                /* \"#utility.yul\":3013:3040   */\n              tag_169\n                /* \"#utility.yul\":3035:3039   */\n              dup3\n                /* \"#utility.yul\":3013:3040   */\n              tag_109\n              jump\t// in\n            tag_169:\n                /* \"#utility.yul\":3005:3011   */\n              dup2\n                /* \"#utility.yul\":3001:3041   */\n              add\n                /* \"#utility.yul\":3143:3149   */\n              dup2\n                /* \"#utility.yul\":3131:3141   */\n              dup2\n                /* \"#utility.yul\":3128:3150   */\n              lt\n                /* \"#utility.yul\":3107:3125   */\n              0xffffffffffffffff\n                /* \"#utility.yul\":3095:3105   */\n              dup3\n                /* \"#utility.yul\":3092:3126   */\n              gt\n                /* \"#utility.yul\":3089:3151   */\n              or\n                /* \"#utility.yul\":3086:3174   */\n              iszero\n              tag_170\n              jumpi\n                /* \"#utility.yul\":3154:3172   */\n              tag_171\n              tag_110\n              jump\t// in\n            tag_171:\n                /* \"#utility.yul\":3086:3174   */\n            tag_170:\n                /* \"#utility.yul\":3194:3204   */\n              dup1\n                /* \"#utility.yul\":3190:3192   */\n              0x40\n                /* \"#utility.yul\":3183:3205   */\n              mstore\n                /* \"#utility.yul\":2973:3211   */\n              pop\n                /* \"#utility.yul\":2930:3211   */\n              pop\n              pop\n              jump\t// out\n                /* \"#utility.yul\":3217:3346   */\n            tag_112:\n                /* \"#utility.yul\":3251:3257   */\n              0x00\n                /* \"#utility.yul\":3278:3298   */\n              tag_173\n              tag_95\n              jump\t// in\n            tag_173:\n                /* \"#utility.yul\":3268:3298   */\n              swap1\n              pop\n                /* \"#utility.yul\":3307:3340   */\n              tag_174\n                /* \"#utility.yul\":3335:3339   */\n              dup3\n                /* \"#utility.yul\":3327:3333   */\n              dup3\n                /* \"#utility.yul\":3307:3340   */\n              tag_111\n              jump\t// in\n            tag_174:\n                /* \"#utility.yul\":3217:3346   */\n              swap2\n              swap1\n              pop\n              jump\t// out\n                /* \"#utility.yul\":3352:3660   */\n            tag_113:\n                /* \"#utility.yul\":3414:3418   */\n              0x00\n                /* \"#utility.yul\":3504:3522   */\n              0xffffffffffffffff\n                /* \"#utility.yul\":3496:3502   */\n              dup3\n                /* \"#utility.yul\":3493:3523   */\n              gt\n                /* \"#utility.yul\":3490:3546   */\n              iszero\n              tag_176\n              jumpi\n                /* \"#utility.yul\":3526:3544   */\n              tag_177\n              tag_110\n              jump\t// in\n            tag_177:\n                /* \"#utility.yul\":3490:3546   */\n            tag_176:\n                /* \"#utility.yul\":3564:3593   */\n              tag_178\n                /* \"#utility.yul\":3586:3592   */\n              dup3\n                /* \"#utility.yul\":3564:3593   */\n              tag_109\n              jump\t// in\n            tag_178:\n                /* \"#utility.yul\":3556:3593   */\n              swap1\n              pop\n                /* \"#utility.yul\":3648:3652   */\n              0x20\n                /* \"#utility.yul\":3642:3646   */\n              dup2\n                /* \"#utility.yul\":3638:3653   */\n              add\n                /* \"#utility.yul\":3630:3653   */\n              swap1\n              pop\n                /* \"#utility.yul\":3352:3660   */\n              swap2\n              swap1\n              pop\n              jump\t// out\n                /* \"#utility.yul\":3666:3820   */\n            tag_114:\n                /* \"#utility.yul\":3750:3756   */\n              dup3\n                /* \"#utility.yul\":3745:3748   */\n              dup2\n                /* \"#utility.yul\":3740:3743   */\n              dup4\n                /* \"#utility.yul\":3727:3757   */\n              calldatacopy\n                /* \"#utility.yul\":3812:3813   */\n              0x00\n                /* \"#utility.yul\":3803:3809   */\n              dup4\n                /* \"#utility.yul\":3798:3801   */\n              dup4\n                /* \"#utility.yul\":3794:3810   */\n              add\n                /* \"#utility.yul\":3787:3814   */\n              mstore\n                /* \"#utility.yul\":3666:3820   */\n              pop\n              pop\n              pop\n              jump\t// out\n                /* \"#utility.yul\":3826:4238   */\n            tag_115:\n                /* \"#utility.yul\":3904:3909   */\n              0x00\n                /* \"#utility.yul\":3929:3995   */\n              tag_181\n                /* \"#utility.yul\":3945:3994   */\n              tag_182\n                /* \"#utility.yul\":3987:3993   */\n              dup5\n                /* \"#utility.yul\":3945:3994   */\n              tag_113\n              jump\t// in\n            tag_182:\n                /* \"#utility.yul\":3929:3995   */\n              tag_112\n              jump\t// in\n            tag_181:\n                /* \"#utility.yul\":3920:3995   */\n              swap1\n              pop\n                /* \"#utility.yul\":4018:4024   */\n              dup3\n                /* \"#utility.yul\":4011:4016   */\n              dup2\n                /* \"#utility.yul\":4004:4025   */\n              mstore\n                /* \"#utility.yul\":4056:4060   */\n              0x20\n                /* \"#utility.yul\":4049:4054   */\n              dup2\n                /* \"#utility.yul\":4045:4061   */\n              add\n                /* \"#utility.yul\":4094:4097   */\n              dup5\n                /* \"#utility.yul\":4085:4091   */\n              dup5\n                /* \"#utility.yul\":4080:4083   */\n              dup5\n                /* \"#utility.yul\":4076:4092   */\n              add\n                /* \"#utility.yul\":4073:4098   */\n              gt\n                /* \"#utility.yul\":4070:4182   */\n              iszero\n              tag_183\n              jumpi\n                /* \"#utility.yul\":4101:4180   */\n              tag_184\n              tag_108\n              jump\t// in\n            tag_184:\n                /* \"#utility.yul\":4070:4182   */\n            tag_183:\n                /* \"#utility.yul\":4191:4232   */\n              tag_185\n                /* \"#utility.yul\":4225:4231   */\n              dup5\n                /* \"#utility.yul\":4220:4223   */\n              dup3\n                /* \"#utility.yul\":4215:4218   */\n              dup6\n                /* \"#utility.yul\":4191:4232   */\n              tag_114\n              jump\t// in\n            tag_185:\n                /* \"#utility.yul\":3910:4238   */\n              pop\n                /* \"#utility.yul\":3826:4238   */\n              swap4\n              swap3\n              pop\n              pop\n              pop\n              jump\t// out\n                /* \"#utility.yul\":4258:4598   */\n            tag_116:\n                /* \"#utility.yul\":4314:4319   */\n              0x00\n                /* \"#utility.yul\":4363:4366   */\n              dup3\n                /* \"#utility.yul\":4356:4360   */\n              0x1f\n                /* \"#utility.yul\":4348:4354   */\n              dup4\n                /* \"#utility.yul\":4344:4361   */\n              add\n                /* \"#utility.yul\":4340:4367   */\n              slt\n                /* \"#utility.yul\":4330:4452   */\n              tag_187\n              jumpi\n                /* \"#utility.yul\":4371:4450   */\n              tag_188\n              tag_107\n              jump\t// in\n            tag_188:\n                /* \"#utility.yul\":4330:4452   */\n            tag_187:\n                /* \"#utility.yul\":4488:4494   */\n              dup2\n                /* \"#utility.yul\":4475:4495   */\n              calldataload\n                /* \"#utility.yul\":4513:4592   */\n              tag_189\n                /* \"#utility.yul\":4588:4591   */\n              dup5\n                /* \"#utility.yul\":4580:4586   */\n              dup3\n                /* \"#utility.yul\":4573:4577   */\n              0x20\n                /* \"#utility.yul\":4565:4571   */\n              dup7\n                /* \"#utility.yul\":4561:4578   */\n              add\n                /* \"#utility.yul\":4513:4592   */\n              tag_115\n              jump\t// in\n            tag_189:\n                /* \"#utility.yul\":4504:4592   */\n              swap2\n              pop\n                /* \"#utility.yul\":4320:4598   */\n              pop\n                /* \"#utility.yul\":4258:4598   */\n              swap3\n              swap2\n              pop\n              pop\n              jump\t// out\n                /* \"#utility.yul\":4604:4726   */\n            tag_117:\n                /* \"#utility.yul\":4677:4701   */\n              tag_191\n                /* \"#utility.yul\":4695:4700   */\n              dup2\n                /* \"#utility.yul\":4677:4701   */\n              tag_105\n              jump\t// in\n            tag_191:\n                /* \"#utility.yul\":4670:4675   */\n              dup2\n                /* \"#utility.yul\":4667:4702   */\n              eq\n                /* \"#utility.yul\":4657:4720   */\n              tag_192\n              jumpi\n                /* \"#utility.yul\":4716:4717   */\n              0x00\n                /* \"#utility.yul\":4713:4714   */\n              dup1\n                /* \"#utility.yul\":4706:4718   */\n              revert\n                /* \"#utility.yul\":4657:4720   */\n            tag_192:\n                /* \"#utility.yul\":4604:4726   */\n              pop\n              jump\t// out\n                /* \"#utility.yul\":4732:4871   */\n            tag_118:\n                /* \"#utility.yul\":4778:4783   */\n              0x00\n                /* \"#utility.yul\":4816:4822   */\n              dup2\n                /* \"#utility.yul\":4803:4823   */\n              calldataload\n                /* \"#utility.yul\":4794:4823   */\n              swap1\n              pop\n                /* \"#utility.yul\":4832:4865   */\n              tag_194\n                /* \"#utility.yul\":4859:4864   */\n              dup2\n                /* \"#utility.yul\":4832:4865   */\n              tag_117\n              jump\t// in\n            tag_194:\n                /* \"#utility.yul\":4732:4871   */\n              swap3\n              swap2\n              pop\n              pop\n              jump\t// out\n                /* \"#utility.yul\":4877:4981   */\n            tag_119:\n                /* \"#utility.yul\":4922:4929   */\n              0x00\n                /* \"#utility.yul\":4951:4975   */\n              tag_196\n                /* \"#utility.yul\":4969:4974   */\n              dup3\n                /* \"#utility.yul\":4951:4975   */\n              tag_98\n              jump\t// in\n            tag_196:\n                /* \"#utility.yul\":4940:4975   */\n              swap1\n              pop\n                /* \"#utility.yul\":4877:4981   */\n              swap2\n              swap1\n              pop\n              jump\t// out\n                /* \"#utility.yul\":4987:5125   */\n            tag_120:\n                /* \"#utility.yul\":5068:5100   */\n              tag_198\n                /* \"#utility.yul\":5094:5099   */\n              dup2\n                /* \"#utility.yul\":5068:5100   */\n              tag_119\n              jump\t// in\n            tag_198:\n                /* \"#utility.yul\":5061:5066   */\n              dup2\n                /* \"#utility.yul\":5058:5101   */\n              eq\n                /* \"#utility.yul\":5048:5119   */\n              tag_199\n              jumpi\n                /* \"#utility.yul\":5115:5116   */\n              0x00\n                /* \"#utility.yul\":5112:5113   */\n              dup1\n                /* \"#utility.yul\":5105:5117   */\n              revert\n                /* \"#utility.yul\":5048:5119   */\n            tag_199:\n                /* \"#utility.yul\":4987:5125   */\n              pop\n              jump\t// out\n                /* \"#utility.yul\":5131:5286   */\n            tag_121:\n                /* \"#utility.yul\":5185:5190   */\n              0x00\n                /* \"#utility.yul\":5223:5229   */\n              dup2\n                /* \"#utility.yul\":5210:5230   */\n              calldataload\n                /* \"#utility.yul\":5201:5230   */\n              swap1\n              pop\n                /* \"#utility.yul\":5239:5280   */\n              tag_201\n                /* \"#utility.yul\":5274:5279   */\n              dup2\n                /* \"#utility.yul\":5239:5280   */\n              tag_120\n              jump\t// in\n            tag_201:\n                /* \"#utility.yul\":5131:5286   */\n              swap3\n              swap2\n              pop\n              pop\n              jump\t// out\n                /* \"#utility.yul\":5292:6107   */\n            tag_32:\n                /* \"#utility.yul\":5387:5393   */\n              0x00\n                /* \"#utility.yul\":5395:5401   */\n              dup1\n                /* \"#utility.yul\":5403:5409   */\n              0x00\n                /* \"#utility.yul\":5452:5454   */\n              0x60\n                /* \"#utility.yul\":5440:5449   */\n              dup5\n                /* \"#utility.yul\":5431:5438   */\n              dup7\n                /* \"#utility.yul\":5427:5450   */\n              sub\n                /* \"#utility.yul\":5423:5455   */\n              slt\n                /* \"#utility.yul\":5420:5539   */\n              iszero\n              tag_203\n              jumpi\n                /* \"#utility.yul\":5458:5537   */\n              tag_204\n              tag_96\n              jump\t// in\n            tag_204:\n                /* \"#utility.yul\":5420:5539   */\n            tag_203:\n                /* \"#utility.yul\":5606:5607   */\n              0x00\n                /* \"#utility.yul\":5595:5604   */\n              dup5\n                /* \"#utility.yul\":5591:5608   */\n              add\n                /* \"#utility.yul\":5578:5609   */\n              calldataload\n                /* \"#utility.yul\":5636:5654   */\n              0xffffffffffffffff\n                /* \"#utility.yul\":5628:5634   */\n              dup2\n                /* \"#utility.yul\":5625:5655   */\n              gt\n                /* \"#utility.yul\":5622:5739   */\n              iszero\n              tag_205\n              jumpi\n                /* \"#utility.yul\":5658:5737   */\n              tag_206\n              tag_97\n              jump\t// in\n            tag_206:\n                /* \"#utility.yul\":5622:5739   */\n            tag_205:\n                /* \"#utility.yul\":5763:5826   */\n              tag_207\n                /* \"#utility.yul\":5818:5825   */\n              dup7\n                /* \"#utility.yul\":5809:5815   */\n              dup3\n                /* \"#utility.yul\":5798:5807   */\n              dup8\n                /* \"#utility.yul\":5794:5816   */\n              add\n                /* \"#utility.yul\":5763:5826   */\n              tag_116\n              jump\t// in\n            tag_207:\n                /* \"#utility.yul\":5753:5826   */\n              swap4\n              pop\n                /* \"#utility.yul\":5549:5836   */\n              pop\n                /* \"#utility.yul\":5875:5877   */\n              0x20\n                /* \"#utility.yul\":5901:5954   */\n              tag_208\n                /* \"#utility.yul\":5946:5953   */\n              dup7\n                /* \"#utility.yul\":5937:5943   */\n              dup3\n                /* \"#utility.yul\":5926:5935   */\n              dup8\n                /* \"#utility.yul\":5922:5944   */\n              add\n                /* \"#utility.yul\":5901:5954   */\n              tag_118\n              jump\t// in\n            tag_208:\n                /* \"#utility.yul\":5891:5954   */\n              swap3\n              pop\n                /* \"#utility.yul\":5846:5964   */\n              pop\n                /* \"#utility.yul\":6003:6005   */\n              0x40\n                /* \"#utility.yul\":6029:6090   */\n              tag_209\n                /* \"#utility.yul\":6082:6089   */\n              dup7\n                /* \"#utility.yul\":6073:6079   */\n              dup3\n                /* \"#utility.yul\":6062:6071   */\n              dup8\n                /* \"#utility.yul\":6058:6080   */\n              add\n                /* \"#utility.yul\":6029:6090   */\n              tag_121\n              jump\t// in\n            tag_209:\n                /* \"#utility.yul\":6019:6090   */\n              swap2\n              pop\n                /* \"#utility.yul\":5974:6100   */\n              pop\n                /* \"#utility.yul\":5292:6107   */\n              swap3\n              pop\n              swap3\n              pop\n              swap3\n              jump\t// out\n                /* \"#utility.yul\":6113:6442   */\n            tag_47:\n                /* \"#utility.yul\":6172:6178   */\n              0x00\n                /* \"#utility.yul\":6221:6223   */\n              0x20\n                /* \"#utility.yul\":6209:6218   */\n              dup3\n                /* \"#utility.yul\":6200:6207   */\n              dup5\n                /* \"#utility.yul\":6196:6219   */\n              sub\n                /* \"#utility.yul\":6192:6224   */\n              slt\n                /* \"#utility.yul\":6189:6308   */\n              iszero\n              tag_211\n              jumpi\n                /* \"#utility.yul\":6227:6306   */\n              tag_212\n              tag_96\n              jump\t// in\n            tag_212:\n                /* \"#utility.yul\":6189:6308   */\n            tag_211:\n                /* \"#utility.yul\":6347:6348   */\n              0x00\n                /* \"#utility.yul\":6372:6425   */\n              tag_213\n                /* \"#utility.yul\":6417:6424   */\n              dup5\n                /* \"#utility.yul\":6408:6414   */\n              dup3\n                /* \"#utility.yul\":6397:6406   */\n              dup6\n                /* \"#utility.yul\":6393:6415   */\n              add\n                /* \"#utility.yul\":6372:6425   */\n              tag_118\n              jump\t// in\n            tag_213:\n                /* \"#utility.yul\":6362:6425   */\n              swap2\n              pop\n                /* \"#utility.yul\":6318:6435   */\n              pop\n                /* \"#utility.yul\":6113:6442   */\n              swap3\n              swap2\n              pop\n              pop\n              jump\t// out\n                /* \"#utility.yul\":6448:6628   */\n            tag_122:\n                /* \"#utility.yul\":6496:6573   */\n              0x4e487b7100000000000000000000000000000000000000000000000000000000\n                /* \"#utility.yul\":6493:6494   */\n              0x00\n                /* \"#utility.yul\":6486:6574   */\n              mstore\n                /* \"#utility.yul\":6593:6597   */\n              0x11\n                /* \"#utility.yul\":6590:6591   */\n              0x04\n                /* \"#utility.yul\":6583:6598   */\n              mstore\n                /* \"#utility.yul\":6617:6621   */\n              0x24\n                /* \"#utility.yul\":6614:6615   */\n              0x00\n                /* \"#utility.yul\":6607:6622   */\n              revert\n                /* \"#utility.yul\":6634:6867   */\n            tag_57:\n                /* \"#utility.yul\":6673:6676   */\n              0x00\n                /* \"#utility.yul\":6696:6720   */\n              tag_216\n                /* \"#utility.yul\":6714:6719   */\n              dup3\n                /* \"#utility.yul\":6696:6720   */\n              tag_105\n              jump\t// in\n            tag_216:\n                /* \"#utility.yul\":6687:6720   */\n              swap2\n              pop\n                /* \"#utility.yul\":6742:6808   */\n              0xffffffffffffffffffffffffffffffffffffffffffffffffffffffffffffffff\n                /* \"#utility.yul\":6735:6740   */\n              dup3\n                /* \"#utility.yul\":6732:6809   */\n              eq\n                /* \"#utility.yul\":6729:6832   */\n              iszero\n              tag_217\n              jumpi\n                /* \"#utility.yul\":6812:6830   */\n              tag_218\n              tag_122\n              jump\t// in\n            tag_218:\n                /* \"#utility.yul\":6729:6832   */\n            tag_217:\n                /* \"#utility.yul\":6859:6860   */\n              0x01\n                /* \"#utility.yul\":6852:6857   */\n              dup3\n                /* \"#utility.yul\":6848:6861   */\n              add\n                /* \"#utility.yul\":6841:6861   */\n              swap1\n              pop\n                /* \"#utility.yul\":6634:6867   */\n              swap2\n              swap1\n              pop\n              jump\t// out\n                /* \"#utility.yul\":6873:7042   */\n            tag_123:\n                /* \"#utility.yul\":6957:6968   */\n              0x00\n                /* \"#utility.yul\":6991:6997   */\n              dup3\n                /* \"#utility.yul\":6986:6989   */\n              dup3\n                /* \"#utility.yul\":6979:6998   */\n              mstore\n                /* \"#utility.yul\":7031:7035   */\n              0x20\n                /* \"#utility.yul\":7026:7029   */\n              dup3\n                /* \"#utility.yul\":7022:7036   */\n              add\n                /* \"#utility.yul\":7007:7036   */\n              swap1\n              pop\n                /* \"#utility.yul\":6873:7042   */\n              swap3\n              swap2\n              pop\n              pop\n              jump\t// out\n                /* \"#utility.yul\":7048:7273   */\n            tag_124:\n                /* \"#utility.yul\":7188:7222   */\n              0x546f20617070726f76652072657175657374206e6565647320746f2061206170\n                /* \"#utility.yul\":7184:7185   */\n              0x00\n                /* \"#utility.yul\":7176:7182   */\n              dup3\n                /* \"#utility.yul\":7172:7186   */\n              add\n                /* \"#utility.yul\":7165:7223   */\n              mstore\n                /* \"#utility.yul\":7257:7265   */\n              0x70726f7665720000000000000000000000000000000000000000000000000000\n                /* \"#utility.yul\":7252:7254   */\n              0x20\n                /* \"#utility.yul\":7244:7250   */\n              dup3\n                /* \"#utility.yul\":7240:7255   */\n              add\n                /* \"#utility.yul\":7233:7266   */\n              mstore\n                /* \"#utility.yul\":7048:7273   */\n              pop\n              jump\t// out\n                /* \"#utility.yul\":7279:7645   */\n            tag_125:\n                /* \"#utility.yul\":7421:7424   */\n              0x00\n                /* \"#utility.yul\":7442:7509   */\n              tag_222\n                /* \"#utility.yul\":7506:7508   */\n              0x26\n                /* \"#utility.yul\":7501:7504   */\n              dup4\n                /* \"#utility.yul\":7442:7509   */\n              tag_123\n              jump\t// in\n            tag_222:\n                /* \"#utility.yul\":7435:7509   */\n              swap2\n              pop\n                /* \"#utility.yul\":7518:7611   */\n              tag_223\n                /* \"#utility.yul\":7607:7610   */\n              dup3\n                /* \"#utility.yul\":7518:7611   */\n              tag_124\n              jump\t// in\n            tag_223:\n                /* \"#utility.yul\":7636:7638   */\n              0x40\n                /* \"#utility.yul\":7631:7634   */\n              dup3\n                /* \"#utility.yul\":7627:7639   */\n              add\n                /* \"#utility.yul\":7620:7639   */\n              swap1\n              pop\n                /* \"#utility.yul\":7279:7645   */\n              swap2\n              swap1\n              pop\n              jump\t// out\n                /* \"#utility.yul\":7651:8070   */\n            tag_66:\n                /* \"#utility.yul\":7817:7821   */\n              0x00\n                /* \"#utility.yul\":7855:7857   */\n              0x20\n                /* \"#utility.yul\":7844:7853   */\n              dup3\n                /* \"#utility.yul\":7840:7858   */\n              add\n                /* \"#utility.yul\":7832:7858   */\n              swap1\n              pop\n                /* \"#utility.yul\":7904:7913   */\n              dup2\n                /* \"#utility.yul\":7898:7902   */\n              dup2\n                /* \"#utility.yul\":7894:7914   */\n              sub\n                /* \"#utility.yul\":7890:7891   */\n              0x00\n                /* \"#utility.yul\":7879:7888   */\n              dup4\n                /* \"#utility.yul\":7875:7892   */\n              add\n                /* \"#utility.yul\":7868:7915   */\n              mstore\n                /* \"#utility.yul\":7932:8063   */\n              tag_225\n                /* \"#utility.yul\":8058:8062   */\n              dup2\n                /* \"#utility.yul\":7932:8063   */\n              tag_125\n              jump\t// in\n            tag_225:\n                /* \"#utility.yul\":7924:8063   */\n              swap1\n              pop\n                /* \"#utility.yul\":7651:8070   */\n              swap2\n              swap1\n              pop\n              jump\t// out\n                /* \"#utility.yul\":8076:8248   */\n            tag_126:\n                /* \"#utility.yul\":8216:8240   */\n              0x596f752063616e20766f7465206f6e6c79206f6e636500000000000000000000\n                /* \"#utility.yul\":8212:8213   */\n              0x00\n                /* \"#utility.yul\":8204:8210   */\n              dup3\n                /* \"#utility.yul\":8200:8214   */\n              add\n                /* \"#utility.yul\":8193:8241   */\n              mstore\n                /* \"#utility.yul\":8076:8248   */\n              pop\n              jump\t// out\n                /* \"#utility.yul\":8254:8620   */\n            tag_127:\n                /* \"#utility.yul\":8396:8399   */\n              0x00\n                /* \"#utility.yul\":8417:8484   */\n              tag_228\n                /* \"#utility.yul\":8481:8483   */\n              0x16\n                /* \"#utility.yul\":8476:8479   */\n              dup4\n                /* \"#utility.yul\":8417:8484   */\n              tag_123\n              jump\t// in\n            tag_228:\n                /* \"#utility.yul\":8410:8484   */\n              swap2\n              pop\n                /* \"#utility.yul\":8493:8586   */\n              tag_229\n                /* \"#utility.yul\":8582:8585   */\n              dup3\n                /* \"#utility.yul\":8493:8586   */\n              tag_126\n              jump\t// in\n            tag_229:\n                /* \"#utility.yul\":8611:8613   */\n              0x20\n                /* \"#utility.yul\":8606:8609   */\n              dup3\n                /* \"#utility.yul\":8602:8614   */\n              add\n                /* \"#utility.yul\":8595:8614   */\n              swap1\n              pop\n                /* \"#utility.yul\":8254:8620   */\n              swap2\n              swap1\n              pop\n              jump\t// out\n                /* \"#utility.yul\":8626:9045   */\n            tag_69:\n                /* \"#utility.yul\":8792:8796   */\n              0x00\n                /* \"#utility.yul\":8830:8832   */\n              0x20\n                /* \"#utility.yul\":8819:8828   */\n              dup3\n                /* \"#utility.yul\":8815:8833   */\n              add\n                /* \"#utility.yul\":8807:8833   */\n              swap1\n              pop\n                /* \"#utility.yul\":8879:8888   */\n              dup2\n                /* \"#utility.yul\":8873:8877   */\n              dup2\n                /* \"#utility.yul\":8869:8889   */\n              sub\n                /* \"#utility.yul\":8865:8866   */\n              0x00\n                /* \"#utility.yul\":8854:8863   */\n              dup4\n                /* \"#utility.yul\":8850:8867   */\n              add\n                /* \"#utility.yul\":8843:8890   */\n              mstore\n                /* \"#utility.yul\":8907:9038   */\n              tag_231\n                /* \"#utility.yul\":9033:9037   */\n              dup2\n                /* \"#utility.yul\":8907:9038   */\n              tag_127\n              jump\t// in\n            tag_231:\n                /* \"#utility.yul\":8899:9038   */\n              swap1\n              pop\n                /* \"#utility.yul\":8626:9045   */\n              swap2\n              swap1\n              pop\n              jump\t// out\n                /* \"#utility.yul\":9051:9231   */\n            tag_128:\n                /* \"#utility.yul\":9099:9176   */\n              0x4e487b7100000000000000000000000000000000000000000000000000000000\n                /* \"#utility.yul\":9096:9097   */\n              0x00\n                /* \"#utility.yul\":9089:9177   */\n              mstore\n                /* \"#utility.yul\":9196:9200   */\n              0x12\n                /* \"#utility.yul\":9193:9194   */\n              0x04\n                /* \"#utility.yul\":9186:9201   */\n              mstore\n                /* \"#utility.yul\":9220:9224   */\n              0x24\n                /* \"#utility.yul\":9217:9218   */\n              0x00\n                /* \"#utility.yul\":9210:9225   */\n              revert\n                /* \"#utility.yul\":9237:9422   */\n            tag_75:\n                /* \"#utility.yul\":9277:9278   */\n              0x00\n                /* \"#utility.yul\":9294:9314   */\n              tag_234\n                /* \"#utility.yul\":9312:9313   */\n              dup3\n                /* \"#utility.yul\":9294:9314   */\n              tag_105\n              jump\t// in\n            tag_234:\n                /* \"#utility.yul\":9289:9314   */\n              swap2\n              pop\n                /* \"#utility.yul\":9328:9348   */\n              tag_235\n                /* \"#utility.yul\":9346:9347   */\n              dup4\n                /* \"#utility.yul\":9328:9348   */\n              tag_105\n              jump\t// in\n            tag_235:\n                /* \"#utility.yul\":9323:9348   */\n              swap3\n              pop\n                /* \"#utility.yul\":9367:9368   */\n              dup3\n                /* \"#utility.yul\":9357:9392   */\n              tag_236\n              jumpi\n                /* \"#utility.yul\":9372:9390   */\n              tag_237\n              tag_128\n              jump\t// in\n            tag_237:\n                /* \"#utility.yul\":9357:9392   */\n            tag_236:\n                /* \"#utility.yul\":9414:9415   */\n              dup3\n                /* \"#utility.yul\":9411:9412   */\n              dup3\n                /* \"#utility.yul\":9407:9416   */\n              div\n                /* \"#utility.yul\":9402:9416   */\n              swap1\n              pop\n                /* \"#utility.yul\":9237:9422   */\n              swap3\n              swap2\n              pop\n              pop\n              jump\t// out\n                /* \"#utility.yul\":9428:9650   */\n            tag_129:\n                /* \"#utility.yul\":9568:9602   */\n              0x4e656564732061746c656173742068616c66206d656d6265727320617070726f\n                /* \"#utility.yul\":9564:9565   */\n              0x00\n                /* \"#utility.yul\":9556:9562   */\n              dup3\n                /* \"#utility.yul\":9552:9566   */\n              add\n                /* \"#utility.yul\":9545:9603   */\n              mstore\n                /* \"#utility.yul\":9637:9642   */\n              0x76616c0000000000000000000000000000000000000000000000000000000000\n                /* \"#utility.yul\":9632:9634   */\n              0x20\n                /* \"#utility.yul\":9624:9630   */\n              dup3\n                /* \"#utility.yul\":9620:9635   */\n              add\n                /* \"#utility.yul\":9613:9643   */\n              mstore\n                /* \"#utility.yul\":9428:9650   */\n              pop\n              jump\t// out\n                /* \"#utility.yul\":9656:10022   */\n            tag_130:\n                /* \"#utility.yul\":9798:9801   */\n              0x00\n                /* \"#utility.yul\":9819:9886   */\n              tag_240\n                /* \"#utility.yul\":9883:9885   */\n              0x23\n                /* \"#utility.yul\":9878:9881   */\n              dup4\n                /* \"#utility.yul\":9819:9886   */\n              tag_123\n              jump\t// in\n            tag_240:\n                /* \"#utility.yul\":9812:9886   */\n              swap2\n              pop\n                /* \"#utility.yul\":9895:9988   */\n              tag_241\n                /* \"#utility.yul\":9984:9987   */\n              dup3\n                /* \"#utility.yul\":9895:9988   */\n              tag_129\n              jump\t// in\n            tag_241:\n                /* \"#utility.yul\":10013:10015   */\n              0x40\n                /* \"#utility.yul\":10008:10011   */\n              dup3\n                /* \"#utility.yul\":10004:10016   */\n              add\n                /* \"#utility.yul\":9997:10016   */\n              swap1\n              pop\n                /* \"#utility.yul\":9656:10022   */\n              swap2\n              swap1\n              pop\n              jump\t// out\n                /* \"#utility.yul\":10028:10447   */\n            tag_78:\n                /* \"#utility.yul\":10194:10198   */\n              0x00\n                /* \"#utility.yul\":10232:10234   */\n              0x20\n                /* \"#utility.yul\":10221:10230   */\n              dup3\n                /* \"#utility.yul\":10217:10235   */\n              add\n                /* \"#utility.yul\":10209:10235   */\n              swap1\n              pop\n                /* \"#utility.yul\":10281:10290   */\n              dup2\n                /* \"#utility.yul\":10275:10279   */\n              dup2\n                /* \"#utility.yul\":10271:10291   */\n              sub\n                /* \"#utility.yul\":10267:10268   */\n              0x00\n                /* \"#utility.yul\":10256:10265   */\n              dup4\n                /* \"#utility.yul\":10252:10269   */\n              add\n                /* \"#utility.yul\":10245:10292   */\n              mstore\n                /* \"#utility.yul\":10309:10440   */\n              tag_243\n                /* \"#utility.yul\":10435:10439   */\n              dup2\n                /* \"#utility.yul\":10309:10440   */\n              tag_130\n              jump\t// in\n            tag_243:\n                /* \"#utility.yul\":10301:10440   */\n              swap1\n              pop\n                /* \"#utility.yul\":10028:10447   */\n              swap2\n              swap1\n              pop\n              jump\t// out\n                /* \"#utility.yul\":10453:10628   */\n            tag_131:\n                /* \"#utility.yul\":10593:10620   */\n              0x5265717565737420616c726561647920636f6d706c6574656400000000000000\n                /* \"#utility.yul\":10589:10590   */\n              0x00\n                /* \"#utility.yul\":10581:10587   */\n              dup3\n                /* \"#utility.yul\":10577:10591   */\n              add\n                /* \"#utility.yul\":10570:10621   */\n              mstore\n                /* \"#utility.yul\":10453:10628   */\n              pop\n              jump\t// out\n                /* \"#utility.yul\":10634:11000   */\n            tag_132:\n                /* \"#utility.yul\":10776:10779   */\n              0x00\n                /* \"#utility.yul\":10797:10864   */\n              tag_246\n                /* \"#utility.yul\":10861:10863   */\n              0x19\n                /* \"#utility.yul\":10856:10859   */\n              dup4\n                /* \"#utility.yul\":10797:10864   */\n              tag_123\n              jump\t// in\n            tag_246:\n                /* \"#utility.yul\":10790:10864   */\n              swap2\n              pop\n                /* \"#utility.yul\":10873:10966   */\n              tag_247\n                /* \"#utility.yul\":10962:10965   */\n              dup3\n                /* \"#utility.yul\":10873:10966   */\n              tag_131\n              jump\t// in\n            tag_247:\n                /* \"#utility.yul\":10991:10993   */\n              0x20\n                /* \"#utility.yul\":10986:10989   */\n              dup3\n                /* \"#utility.yul\":10982:10994   */\n              add\n                /* \"#utility.yul\":10975:10994   */\n              swap1\n              pop\n                /* \"#utility.yul\":10634:11000   */\n              swap2\n              swap1\n              pop\n              jump\t// out\n                /* \"#utility.yul\":11006:11425   */\n            tag_81:\n                /* \"#utility.yul\":11172:11176   */\n              0x00\n                /* \"#utility.yul\":11210:11212   */\n              0x20\n                /* \"#utility.yul\":11199:11208   */\n              dup3\n                /* \"#utility.yul\":11195:11213   */\n              add\n                /* \"#utility.yul\":11187:11213   */\n              swap1\n              pop\n                /* \"#utility.yul\":11259:11268   */\n              dup2\n                /* \"#utility.yul\":11253:11257   */\n              dup2\n                /* \"#utility.yul\":11249:11269   */\n              sub\n                /* \"#utility.yul\":11245:11246   */\n              0x00\n                /* \"#utility.yul\":11234:11243   */\n              dup4\n                /* \"#utility.yul\":11230:11247   */\n              add\n                /* \"#utility.yul\":11223:11270   */\n              mstore\n                /* \"#utility.yul\":11287:11418   */\n              tag_249\n                /* \"#utility.yul\":11413:11417   */\n              dup2\n                /* \"#utility.yul\":11287:11418   */\n              tag_132\n              jump\t// in\n            tag_249:\n                /* \"#utility.yul\":11279:11418   */\n              swap1\n              pop\n                /* \"#utility.yul\":11006:11425   */\n              swap2\n              swap1\n              pop\n              jump\t// out\n                /* \"#utility.yul\":11431:11611   */\n            tag_133:\n                /* \"#utility.yul\":11479:11556   */\n              0x4e487b7100000000000000000000000000000000000000000000000000000000\n                /* \"#utility.yul\":11476:11477   */\n              0x00\n                /* \"#utility.yul\":11469:11557   */\n              mstore\n                /* \"#utility.yul\":11576:11580   */\n              0x22\n                /* \"#utility.yul\":11573:11574   */\n              0x04\n                /* \"#utility.yul\":11566:11581   */\n              mstore\n                /* \"#utility.yul\":11600:11604   */\n              0x24\n                /* \"#utility.yul\":11597:11598   */\n              0x00\n                /* \"#utility.yul\":11590:11605   */\n              revert\n                /* \"#utility.yul\":11617:11937   */\n            tag_85:\n                /* \"#utility.yul\":11661:11667   */\n              0x00\n                /* \"#utility.yul\":11698:11699   */\n              0x02\n                /* \"#utility.yul\":11692:11696   */\n              dup3\n                /* \"#utility.yul\":11688:11700   */\n              div\n                /* \"#utility.yul\":11678:11700   */\n              swap1\n              pop\n                /* \"#utility.yul\":11745:11746   */\n              0x01\n                /* \"#utility.yul\":11739:11743   */\n              dup3\n                /* \"#utility.yul\":11735:11747   */\n              and\n                /* \"#utility.yul\":11766:11784   */\n              dup1\n                /* \"#utility.yul\":11756:11837   */\n              tag_252\n              jumpi\n                /* \"#utility.yul\":11822:11826   */\n              0x7f\n                /* \"#utility.yul\":11814:11820   */\n              dup3\n                /* \"#utility.yul\":11810:11827   */\n              and\n                /* \"#utility.yul\":11800:11827   */\n              swap2\n              pop\n                /* \"#utility.yul\":11756:11837   */\n            tag_252:\n                /* \"#utility.yul\":11884:11886   */\n              0x20\n                /* \"#utility.yul\":11876:11882   */\n              dup3\n                /* \"#utility.yul\":11873:11887   */\n              lt\n                /* \"#utility.yul\":11853:11871   */\n              dup2\n                /* \"#utility.yul\":11850:11888   */\n              eq\n                /* \"#utility.yul\":11847:11931   */\n              iszero\n              tag_253\n              jumpi\n                /* \"#utility.yul\":11903:11921   */\n              tag_254\n              tag_133\n              jump\t// in\n            tag_254:\n                /* \"#utility.yul\":11847:11931   */\n            tag_253:\n                /* \"#utility.yul\":11668:11937   */\n              pop\n                /* \"#utility.yul\":11617:11937   */\n              swap2\n              swap1\n              pop\n              jump\t// out\n\n            auxdata: 0xa2646970667358221220c9964f0f6e03acba3095e3e57120b97deefcbbac09b316415f3a788e522fd0f464736f6c634300080b0033\n        }\n    }\n\n    auxdata: 0xa26469706673582212202026387aafcae0e9300a4221cc0e200e3edabbf7b8345f9abac6759b7afabdaf64736f6c634300080b0033\n}\n","bytecode":{"linkReferences":{},"object":"608060405234801561001057600080fd5b506114f1806100206000396000f3fe608060405234801561001057600080fd5b50600436106100415760003560e01c8063a3303a7514610046578063a6b0363314610062578063c3d4450614610080575b600080fd5b610060600480360381019061005b9190610266565b6100b0565b005b61006a610151565b60405161007791906103c1565b60405180910390f35b61009a60048036038101906100959190610266565b6101df565b6040516100a791906103f2565b60405180910390f35b600081336040516100c09061021e565b6100cb92919061043d565b604051809103906000f0801580156100e7573d6000803e3d6000fd5b5090506000819080600181540180825580915050600190039060005260206000200160009091909190916101000a81548173ffffffffffffffffffffffffffffffffffffffff021916908373ffffffffffffffffffffffffffffffffffffffff1602179055505050565b606060008054806020026020016040519081016040528092919081815260200182805480156101d557602002820191906000526020600020905b8160009054906101000a900473ffffffffffffffffffffffffffffffffffffffff1673ffffffffffffffffffffffffffffffffffffffff168152602001906001019080831161018b575b5050505050905090565b600081815481106101ef57600080fd5b906000526020600020016000915054906101000a900473ffffffffffffffffffffffffffffffffffffffff1681565b6110558061046783390190565b600080fd5b6000819050919050565b61024381610230565b811461024e57600080fd5b50565b6000813590506102608161023a565b92915050565b60006020828403121561027c5761027b61022b565b5b600061028a84828501610251565b91505092915050565b600081519050919050565b600082825260208201905092915050565b6000819050602082019050919050565b600073ffffffffffffffffffffffffffffffffffffffff82169050919050565b6000819050919050565b60006103046102ff6102fa846102bf565b6102df565b6102bf565b9050919050565b6000610316826102e9565b9050919050565b60006103288261030b565b9050919050565b6103388161031d565b82525050565b600061034a838361032f565b60208301905092915050565b6000602082019050919050565b600061036e82610293565b610378818561029e565b9350610383836102af565b8060005b838110156103b457815161039b888261033e565b97506103a683610356565b925050600181019050610387565b5085935050505092915050565b600060208201905081810360008301526103db8184610363565b905092915050565b6103ec8161031d565b82525050565b600060208201905061040760008301846103e3565b92915050565b61041681610230565b82525050565b6000610427826102bf565b9050919050565b6104378161041c565b82525050565b6000604082019050610452600083018561040d565b61045f602083018461042e565b939250505056fe60806040523480156200001157600080fd5b50604051620010553803806200105583398181016040528101906200003791906200012b565b806000806101000a81548173ffffffffffffffffffffffffffffffffffffffff021916908373ffffffffffffffffffffffffffffffffffffffff16021790555081600181905550505062000172565b600080fd5b6000819050919050565b620000a0816200008b565b8114620000ac57600080fd5b50565b600081519050620000c08162000095565b92915050565b600073ffffffffffffffffffffffffffffffffffffffff82169050919050565b6000620000f382620000c6565b9050919050565b6200010581620000e6565b81146200011157600080fd5b50565b6000815190506200012581620000fa565b92915050565b6000806040838503121562000145576200014462000086565b5b60006200015585828601620000af565b9250506020620001688582860162000114565b9150509250929050565b610ed380620001826000396000f3fe6080604052600436106100865760003560e01c8063937e09b111610059578063937e09b1146101475780639fb42b1f14610172578063d7bb99ba1461019d578063d7d1bbdb146101a7578063f00a7f4f146101d057610086565b80630a1443911461008b578063481c6a75146100c857806382fde093146100f35780638a9cfd551461011e575b600080fd5b34801561009757600080fd5b506100b260048036038101906100ad919061084a565b6101f9565b6040516100bf9190610892565b60405180910390f35b3480156100d457600080fd5b506100dd610219565b6040516100ea91906108bc565b60405180910390f35b3480156100ff57600080fd5b5061010861023d565b60405161011591906108f0565b60405180910390f35b34801561012a57600080fd5b5061014560048036038101906101409190610abb565b610243565b005b34801561015357600080fd5b5061015c61035a565b60405161016991906108f0565b60405180910390f35b34801561017e57600080fd5b50610187610360565b60405161019491906108f0565b60405180910390f35b6101a5610366565b005b3480156101b357600080fd5b506101ce60048036038101906101c99190610b2a565b6103e6565b005b3480156101dc57600080fd5b506101f760048036038101906101f29190610b2a565b610590565b005b60026020528060005260406000206000915054906101000a900460ff1681565b60008054906101000a900473ffffffffffffffffffffffffffffffffffffffff1681565b60035481565b60008054906101000a900473ffffffffffffffffffffffffffffffffffffffff1673ffffffffffffffffffffffffffffffffffffffff163373ffffffffffffffffffffffffffffffffffffffff161461029b57600080fd5b600060056000600460008154809291906102b490610b86565b9190505581526020019081526020016000209050838160000190805190602001906102e0929190610735565b50828160010181905550818160020160006101000a81548173ffffffffffffffffffffffffffffffffffffffff021916908373ffffffffffffffffffffffffffffffffffffffff16021790555060008160020160146101000a81548160ff0219169083151502179055506000816004018190555050505050565b60015481565b60045481565b346001541061037457600080fd5b6001600260003373ffffffffffffffffffffffffffffffffffffffff1673ffffffffffffffffffffffffffffffffffffffff16815260200190815260200160002060006101000a81548160ff021916908315150217905550600360008154809291906103df90610b86565b9190505550565b6000600560008381526020019081526020016000209050600260003373ffffffffffffffffffffffffffffffffffffffff1673ffffffffffffffffffffffffffffffffffffffff16815260200190815260200160002060009054906101000a900460ff16610489576040517f08c379a000000000000000000000000000000000000000000000000000000000815260040161048090610c52565b60405180910390fd5b8060030160003373ffffffffffffffffffffffffffffffffffffffff1673ffffffffffffffffffffffffffffffffffffffff16815260200190815260200160002060009054906101000a900460ff1615610518576040517f08c379a000000000000000000000000000000000000000000000000000000000815260040161050f90610cbe565b60405180910390fd5b60018160030160003373ffffffffffffffffffffffffffffffffffffffff1673ffffffffffffffffffffffffffffffffffffffff16815260200190815260200160002060006101000a81548160ff02191690831515021790555080600401600081548092919061058790610b86565b91905055505050565b60008054906101000a900473ffffffffffffffffffffffffffffffffffffffff1673ffffffffffffffffffffffffffffffffffffffff163373ffffffffffffffffffffffffffffffffffffffff16146105e857600080fd5b6000600560008381526020019081526020016000209050600260035461060e9190610d0d565b816004015411610653576040517f08c379a000000000000000000000000000000000000000000000000000000000815260040161064a90610db0565b60405180910390fd5b8060020160149054906101000a900460ff16156106a5576040517f08c379a000000000000000000000000000000000000000000000000000000000815260040161069c90610e1c565b60405180910390fd5b8060020160009054906101000a900473ffffffffffffffffffffffffffffffffffffffff1673ffffffffffffffffffffffffffffffffffffffff166108fc82600101549081150290604051600060405180830381858888f19350505050158015610713573d6000803e3d6000fd5b5060018160020160146101000a81548160ff0219169083151502179055505050565b82805461074190610e6b565b90600052602060002090601f01602090048101928261076357600085556107aa565b82601f1061077c57805160ff19168380011785556107aa565b828001600101855582156107aa579182015b828111156107a957825182559160200191906001019061078e565b5b5090506107b791906107bb565b5090565b5b808211156107d45760008160009055506001016107bc565b5090565b6000604051905090565b600080fd5b600080fd5b600073ffffffffffffffffffffffffffffffffffffffff82169050919050565b6000610817826107ec565b9050919050565b6108278161080c565b811461083257600080fd5b50565b6000813590506108448161081e565b92915050565b6000602082840312156108605761085f6107e2565b5b600061086e84828501610835565b91505092915050565b60008115159050919050565b61088c81610877565b82525050565b60006020820190506108a76000830184610883565b92915050565b6108b68161080c565b82525050565b60006020820190506108d160008301846108ad565b92915050565b6000819050919050565b6108ea816108d7565b82525050565b600060208201905061090560008301846108e1565b92915050565b600080fd5b600080fd5b6000601f19601f8301169050919050565b7f4e487b7100000000000000000000000000000000000000000000000000000000600052604160045260246000fd5b61095e82610915565b810181811067ffffffffffffffff8211171561097d5761097c610926565b5b80604052505050565b60006109906107d8565b905061099c8282610955565b919050565b600067ffffffffffffffff8211156109bc576109bb610926565b5b6109c582610915565b9050602081019050919050565b82818337600083830152505050565b60006109f46109ef846109a1565b610986565b905082815260208101848484011115610a1057610a0f610910565b5b610a1b8482856109d2565b509392505050565b600082601f830112610a3857610a3761090b565b5b8135610a488482602086016109e1565b91505092915050565b610a5a816108d7565b8114610a6557600080fd5b50565b600081359050610a7781610a51565b92915050565b6000610a88826107ec565b9050919050565b610a9881610a7d565b8114610aa357600080fd5b50565b600081359050610ab581610a8f565b92915050565b600080600060608486031215610ad457610ad36107e2565b5b600084013567ffffffffffffffff811115610af257610af16107e7565b5b610afe86828701610a23565b9350506020610b0f86828701610a68565b9250506040610b2086828701610aa6565b9150509250925092565b600060208284031215610b4057610b3f6107e2565b5b6000610b4e84828501610a68565b91505092915050565b7f4e487b7100000000000000000000000000000000000000000000000000000000600052601160045260246000fd5b6000610b91826108d7565b91507fffffffffffffffffffffffffffffffffffffffffffffffffffffffffffffffff821415610bc457610bc3610b57565b5b600182019050919050565b600082825260208201905092915050565b7f546f20617070726f76652072657175657374206e6565647320746f206120617060008201527f70726f7665720000000000000000000000000000000000000000000000000000602082015250565b6000610c3c602683610bcf565b9150610c4782610be0565b604082019050919050565b60006020820190508181036000830152610c6b81610c2f565b9050919050565b7f596f752063616e20766f7465206f6e6c79206f6e636500000000000000000000600082015250565b6000610ca8601683610bcf565b9150610cb382610c72565b602082019050919050565b60006020820190508181036000830152610cd781610c9b565b9050919050565b7f4e487b7100000000000000000000000000000000000000000000000000000000600052601260045260246000fd5b6000610d18826108d7565b9150610d23836108d7565b925082610d3357610d32610cde565b5b828204905092915050565b7f4e656564732061746c656173742068616c66206d656d6265727320617070726f60008201527f76616c0000000000000000000000000000000000000000000000000000000000602082015250565b6000610d9a602383610bcf565b9150610da582610d3e565b604082019050919050565b60006020820190508181036000830152610dc981610d8d565b9050919050565b7f5265717565737420616c726561647920636f6d706c6574656400000000000000600082015250565b6000610e06601983610bcf565b9150610e1182610dd0565b602082019050919050565b60006020820190508181036000830152610e3581610df9565b9050919050565b7f4e487b7100000000000000000000000000000000000000000000000000000000600052602260045260246000fd5b60006002820490506001821680610e8357607f821691505b60208210811415610e9757610e96610e3c565b5b5091905056fea2646970667358221220c9964f0f6e03acba3095e3e57120b97deefcbbac09b316415f3a788e522fd0f464736f6c634300080b0033a26469706673582212202026387aafcae0e9300a4221cc0e200e3edabbf7b8345f9abac6759b7afabdaf64736f6c634300080b0033","opcodes":"PUSH1 0x80 PUSH1 0x40 MSTORE CALLVALUE DUP1 ISZERO PUSH2 0x10 JUMPI PUSH1 0x0 DUP1 REVERT JUMPDEST POP PUSH2 0x14F1 DUP1 PUSH2 0x20 PUSH1 0x0 CODECOPY PUSH1 0x0 RETURN INVALID PUSH1 0x80 PUSH1 0x40 MSTORE CALLVALUE DUP1 ISZERO PUSH2 0x10 JUMPI PUSH1 0x0 DUP1 REVERT JUMPDEST POP PUSH1 0x4 CALLDATASIZE LT PUSH2 0x41 JUMPI PUSH1 0x0 CALLDATALOAD PUSH1 0xE0 SHR DUP1 PUSH4 0xA3303A75 EQ PUSH2 0x46 JUMPI DUP1 PUSH4 0xA6B03633 EQ PUSH2 0x62 JUMPI DUP1 PUSH4 0xC3D44506 EQ PUSH2 0x80 JUMPI JUMPDEST PUSH1 0x0 DUP1 REVERT JUMPDEST PUSH2 0x60 PUSH1 0x4 DUP1 CALLDATASIZE SUB DUP2 ADD SWAP1 PUSH2 0x5B SWAP2 SWAP1 PUSH2 0x266 JUMP JUMPDEST PUSH2 0xB0 JUMP JUMPDEST STOP JUMPDEST PUSH2 0x6A PUSH2 0x151 JUMP JUMPDEST PUSH1 0x40 MLOAD PUSH2 0x77 SWAP2 SWAP1 PUSH2 0x3C1 JUMP JUMPDEST PUSH1 0x40 MLOAD DUP1 SWAP2 SUB SWAP1 RETURN JUMPDEST PUSH2 0x9A PUSH1 0x4 DUP1 CALLDATASIZE SUB DUP2 ADD SWAP1 PUSH2 0x95 SWAP2 SWAP1 PUSH2 0x266 JUMP JUMPDEST PUSH2 0x1DF JUMP JUMPDEST PUSH1 0x40 MLOAD PUSH2 0xA7 SWAP2 SWAP1 PUSH2 0x3F2 JUMP JUMPDEST PUSH1 0x40 MLOAD DUP1 SWAP2 SUB SWAP1 RETURN JUMPDEST PUSH1 0x0 DUP2 CALLER PUSH1 0x40 MLOAD PUSH2 0xC0 SWAP1 PUSH2 0x21E JUMP JUMPDEST PUSH2 0xCB SWAP3 SWAP2 SWAP1 PUSH2 0x43D JUMP JUMPDEST PUSH1 0x40 MLOAD DUP1 SWAP2 SUB SWAP1 PUSH1 0x0 CREATE DUP1 ISZERO DUP1 ISZERO PUSH2 0xE7 JUMPI RETURNDATASIZE PUSH1 0x0 DUP1 RETURNDATACOPY RETURNDATASIZE PUSH1 0x0 REVERT JUMPDEST POP SWAP1 POP PUSH1 0x0 DUP2 SWAP1 DUP1 PUSH1 0x1 DUP2 SLOAD ADD DUP1 DUP3 SSTORE DUP1 SWAP2 POP POP PUSH1 0x1 SWAP1 SUB SWAP1 PUSH1 0x0 MSTORE PUSH1 0x20 PUSH1 0x0 KECCAK256 ADD PUSH1 0x0 SWAP1 SWAP2 SWAP1 SWAP2 SWAP1 SWAP2 PUSH2 0x100 EXP DUP2 SLOAD DUP2 PUSH20 0xFFFFFFFFFFFFFFFFFFFFFFFFFFFFFFFFFFFFFFFF MUL NOT AND SWAP1 DUP4 PUSH20 0xFFFFFFFFFFFFFFFFFFFFFFFFFFFFFFFFFFFFFFFF AND MUL OR SWAP1 SSTORE POP POP POP JUMP JUMPDEST PUSH1 0x60 PUSH1 0x0 DUP1 SLOAD DUP1 PUSH1 0x20 MUL PUSH1 0x20 ADD PUSH1 0x40 MLOAD SWAP1 DUP2 ADD PUSH1 0x40 MSTORE DUP1 SWAP3 SWAP2 SWAP1 DUP2 DUP2 MSTORE PUSH1 0x20 ADD DUP3 DUP1 SLOAD DUP1 ISZERO PUSH2 0x1D5 JUMPI PUSH1 0x20 MUL DUP3 ADD SWAP2 SWAP1 PUSH1 0x0 MSTORE PUSH1 0x20 PUSH1 0x0 KECCAK256 SWAP1 JUMPDEST DUP2 PUSH1 0x0 SWAP1 SLOAD SWAP1 PUSH2 0x100 EXP SWAP1 DIV PUSH20 0xFFFFFFFFFFFFFFFFFFFFFFFFFFFFFFFFFFFFFFFF AND PUSH20 0xFFFFFFFFFFFFFFFFFFFFFFFFFFFFFFFFFFFFFFFF AND DUP2 MSTORE PUSH1 0x20 ADD SWAP1 PUSH1 0x1 ADD SWAP1 DUP1 DUP4 GT PUSH2 0x18B JUMPI JUMPDEST POP POP POP POP POP SWAP1 POP SWAP1 JUMP JUMPDEST PUSH1 0x0 DUP2 DUP2 SLOAD DUP2 LT PUSH2 0x1EF JUMPI PUSH1 0x0 DUP1 REVERT JUMPDEST SWAP1 PUSH1 0x0 MSTORE PUSH1 0x20 PUSH1 0x0 KECCAK256 ADD PUSH1 0x0 SWAP2 POP SLOAD SWAP1 PUSH2 0x100 EXP SWAP1 DIV PUSH20 0xFFFFFFFFFFFFFFFFFFFFFFFFFFFFFFFFFFFFFFFF AND DUP2 JUMP JUMPDEST PUSH2 0x1055 DUP1 PUSH2 0x467 DUP4 CODECOPY ADD SWAP1 JUMP JUMPDEST PUSH1 0x0 DUP1 REVERT JUMPDEST PUSH1 0x0 DUP2 SWAP1 POP SWAP2 SWAP1 POP JUMP JUMPDEST PUSH2 0x243 DUP2 PUSH2 0x230 JUMP JUMPDEST DUP2 EQ PUSH2 0x24E JUMPI PUSH1 0x0 DUP1 REVERT JUMPDEST POP JUMP JUMPDEST PUSH1 0x0 DUP2 CALLDATALOAD SWAP1 POP PUSH2 0x260 DUP2 PUSH2 0x23A JUMP JUMPDEST SWAP3 SWAP2 POP POP JUMP JUMPDEST PUSH1 0x0 PUSH1 0x20 DUP3 DUP5 SUB SLT ISZERO PUSH2 0x27C JUMPI PUSH2 0x27B PUSH2 0x22B JUMP JUMPDEST JUMPDEST PUSH1 0x0 PUSH2 0x28A DUP5 DUP3 DUP6 ADD PUSH2 0x251 JUMP JUMPDEST SWAP2 POP POP SWAP3 SWAP2 POP POP JUMP JUMPDEST PUSH1 0x0 DUP2 MLOAD SWAP1 POP SWAP2 SWAP1 POP JUMP JUMPDEST PUSH1 0x0 DUP3 DUP3 MSTORE PUSH1 0x20 DUP3 ADD SWAP1 POP SWAP3 SWAP2 POP POP JUMP JUMPDEST PUSH1 0x0 DUP2 SWAP1 POP PUSH1 0x20 DUP3 ADD SWAP1 POP SWAP2 SWAP1 POP JUMP JUMPDEST PUSH1 0x0 PUSH20 0xFFFFFFFFFFFFFFFFFFFFFFFFFFFFFFFFFFFFFFFF DUP3 AND SWAP1 POP SWAP2 SWAP1 POP JUMP JUMPDEST PUSH1 0x0 DUP2 SWAP1 POP SWAP2 SWAP1 POP JUMP JUMPDEST PUSH1 0x0 PUSH2 0x304 PUSH2 0x2FF PUSH2 0x2FA DUP5 PUSH2 0x2BF JUMP JUMPDEST PUSH2 0x2DF JUMP JUMPDEST PUSH2 0x2BF JUMP JUMPDEST SWAP1 POP SWAP2 SWAP1 POP JUMP JUMPDEST PUSH1 0x0 PUSH2 0x316 DUP3 PUSH2 0x2E9 JUMP JUMPDEST SWAP1 POP SWAP2 SWAP1 POP JUMP JUMPDEST PUSH1 0x0 PUSH2 0x328 DUP3 PUSH2 0x30B JUMP JUMPDEST SWAP1 POP SWAP2 SWAP1 POP JUMP JUMPDEST PUSH2 0x338 DUP2 PUSH2 0x31D JUMP JUMPDEST DUP3 MSTORE POP POP JUMP JUMPDEST PUSH1 0x0 PUSH2 0x34A DUP4 DUP4 PUSH2 0x32F JUMP JUMPDEST PUSH1 0x20 DUP4 ADD SWAP1 POP SWAP3 SWAP2 POP POP JUMP JUMPDEST PUSH1 0x0 PUSH1 0x20 DUP3 ADD SWAP1 POP SWAP2 SWAP1 POP JUMP JUMPDEST PUSH1 0x0 PUSH2 0x36E DUP3 PUSH2 0x293 JUMP JUMPDEST PUSH2 0x378 DUP2 DUP6 PUSH2 0x29E JUMP JUMPDEST SWAP4 POP PUSH2 0x383 DUP4 PUSH2 0x2AF JUMP JUMPDEST DUP1 PUSH1 0x0 JUMPDEST DUP4 DUP2 LT ISZERO PUSH2 0x3B4 JUMPI DUP2 MLOAD PUSH2 0x39B DUP9 DUP3 PUSH2 0x33E JUMP JUMPDEST SWAP8 POP PUSH2 0x3A6 DUP4 PUSH2 0x356 JUMP JUMPDEST SWAP3 POP POP PUSH1 0x1 DUP2 ADD SWAP1 POP PUSH2 0x387 JUMP JUMPDEST POP DUP6 SWAP4 POP POP POP POP SWAP3 SWAP2 POP POP JUMP JUMPDEST PUSH1 0x0 PUSH1 0x20 DUP3 ADD SWAP1 POP DUP2 DUP2 SUB PUSH1 0x0 DUP4 ADD MSTORE PUSH2 0x3DB DUP2 DUP5 PUSH2 0x363 JUMP JUMPDEST SWAP1 POP SWAP3 SWAP2 POP POP JUMP JUMPDEST PUSH2 0x3EC DUP2 PUSH2 0x31D JUMP JUMPDEST DUP3 MSTORE POP POP JUMP JUMPDEST PUSH1 0x0 PUSH1 0x20 DUP3 ADD SWAP1 POP PUSH2 0x407 PUSH1 0x0 DUP4 ADD DUP5 PUSH2 0x3E3 JUMP JUMPDEST SWAP3 SWAP2 POP POP JUMP JUMPDEST PUSH2 0x416 DUP2 PUSH2 0x230 JUMP JUMPDEST DUP3 MSTORE POP POP JUMP JUMPDEST PUSH1 0x0 PUSH2 0x427 DUP3 PUSH2 0x2BF JUMP JUMPDEST SWAP1 POP SWAP2 SWAP1 POP JUMP JUMPDEST PUSH2 0x437 DUP2 PUSH2 0x41C JUMP JUMPDEST DUP3 MSTORE POP POP JUMP JUMPDEST PUSH1 0x0 PUSH1 0x40 DUP3 ADD SWAP1 POP PUSH2 0x452 PUSH1 0x0 DUP4 ADD DUP6 PUSH2 0x40D JUMP JUMPDEST PUSH2 0x45F PUSH1 0x20 DUP4 ADD DUP5 PUSH2 0x42E JUMP JUMPDEST SWAP4 SWAP3 POP POP POP JUMP INVALID PUSH1 0x80 PUSH1 0x40 MSTORE CALLVALUE DUP1 ISZERO PUSH3 0x11 JUMPI PUSH1 0x0 DUP1 REVERT JUMPDEST POP PUSH1 0x40 MLOAD PUSH3 0x1055 CODESIZE SUB DUP1 PUSH3 0x1055 DUP4 CODECOPY DUP2 DUP2 ADD PUSH1 0x40 MSTORE DUP2 ADD SWAP1 PUSH3 0x37 SWAP2 SWAP1 PUSH3 0x12B JUMP JUMPDEST DUP1 PUSH1 0x0 DUP1 PUSH2 0x100 EXP DUP2 SLOAD DUP2 PUSH20 0xFFFFFFFFFFFFFFFFFFFFFFFFFFFFFFFFFFFFFFFF MUL NOT AND SWAP1 DUP4 PUSH20 0xFFFFFFFFFFFFFFFFFFFFFFFFFFFFFFFFFFFFFFFF AND MUL OR SWAP1 SSTORE POP DUP2 PUSH1 0x1 DUP2 SWAP1 SSTORE POP POP POP PUSH3 0x172 JUMP JUMPDEST PUSH1 0x0 DUP1 REVERT JUMPDEST PUSH1 0x0 DUP2 SWAP1 POP SWAP2 SWAP1 POP JUMP JUMPDEST PUSH3 0xA0 DUP2 PUSH3 0x8B JUMP JUMPDEST DUP2 EQ PUSH3 0xAC JUMPI PUSH1 0x0 DUP1 REVERT JUMPDEST POP JUMP JUMPDEST PUSH1 0x0 DUP2 MLOAD SWAP1 POP PUSH3 0xC0 DUP2 PUSH3 0x95 JUMP JUMPDEST SWAP3 SWAP2 POP POP JUMP JUMPDEST PUSH1 0x0 PUSH20 0xFFFFFFFFFFFFFFFFFFFFFFFFFFFFFFFFFFFFFFFF DUP3 AND SWAP1 POP SWAP2 SWAP1 POP JUMP JUMPDEST PUSH1 0x0 PUSH3 0xF3 DUP3 PUSH3 0xC6 JUMP JUMPDEST SWAP1 POP SWAP2 SWAP1 POP JUMP JUMPDEST PUSH3 0x105 DUP2 PUSH3 0xE6 JUMP JUMPDEST DUP2 EQ PUSH3 0x111 JUMPI PUSH1 0x0 DUP1 REVERT JUMPDEST POP JUMP JUMPDEST PUSH1 0x0 DUP2 MLOAD SWAP1 POP PUSH3 0x125 DUP2 PUSH3 0xFA JUMP JUMPDEST SWAP3 SWAP2 POP POP JUMP JUMPDEST PUSH1 0x0 DUP1 PUSH1 0x40 DUP4 DUP6 SUB SLT ISZERO PUSH3 0x145 JUMPI PUSH3 0x144 PUSH3 0x86 JUMP JUMPDEST JUMPDEST PUSH1 0x0 PUSH3 0x155 DUP6 DUP3 DUP7 ADD PUSH3 0xAF JUMP JUMPDEST SWAP3 POP POP PUSH1 0x20 PUSH3 0x168 DUP6 DUP3 DUP7 ADD PUSH3 0x114 JUMP JUMPDEST SWAP2 POP POP SWAP3 POP SWAP3 SWAP1 POP JUMP JUMPDEST PUSH2 0xED3 DUP1 PUSH3 0x182 PUSH1 0x0 CODECOPY PUSH1 0x0 RETURN INVALID PUSH1 0x80 PUSH1 0x40 MSTORE PUSH1 0x4 CALLDATASIZE LT PUSH2 0x86 JUMPI PUSH1 0x0 CALLDATALOAD PUSH1 0xE0 SHR DUP1 PUSH4 0x937E09B1 GT PUSH2 0x59 JUMPI DUP1 PUSH4 0x937E09B1 EQ PUSH2 0x147 JUMPI DUP1 PUSH4 0x9FB42B1F EQ PUSH2 0x172 JUMPI DUP1 PUSH4 0xD7BB99BA EQ PUSH2 0x19D JUMPI DUP1 PUSH4 0xD7D1BBDB EQ PUSH2 0x1A7 JUMPI DUP1 PUSH4 0xF00A7F4F EQ PUSH2 0x1D0 JUMPI PUSH2 0x86 JUMP JUMPDEST DUP1 PUSH4 0xA144391 EQ PUSH2 0x8B JUMPI DUP1 PUSH4 0x481C6A75 EQ PUSH2 0xC8 JUMPI DUP1 PUSH4 0x82FDE093 EQ PUSH2 0xF3 JUMPI DUP1 PUSH4 0x8A9CFD55 EQ PUSH2 0x11E JUMPI JUMPDEST PUSH1 0x0 DUP1 REVERT JUMPDEST CALLVALUE DUP1 ISZERO PUSH2 0x97 JUMPI PUSH1 0x0 DUP1 REVERT JUMPDEST POP PUSH2 0xB2 PUSH1 0x4 DUP1 CALLDATASIZE SUB DUP2 ADD SWAP1 PUSH2 0xAD SWAP2 SWAP1 PUSH2 0x84A JUMP JUMPDEST PUSH2 0x1F9 JUMP JUMPDEST PUSH1 0x40 MLOAD PUSH2 0xBF SWAP2 SWAP1 PUSH2 0x892 JUMP JUMPDEST PUSH1 0x40 MLOAD DUP1 SWAP2 SUB SWAP1 RETURN JUMPDEST CALLVALUE DUP1 ISZERO PUSH2 0xD4 JUMPI PUSH1 0x0 DUP1 REVERT JUMPDEST POP PUSH2 0xDD PUSH2 0x219 JUMP JUMPDEST PUSH1 0x40 MLOAD PUSH2 0xEA SWAP2 SWAP1 PUSH2 0x8BC JUMP JUMPDEST PUSH1 0x40 MLOAD DUP1 SWAP2 SUB SWAP1 RETURN JUMPDEST CALLVALUE DUP1 ISZERO PUSH2 0xFF JUMPI PUSH1 0x0 DUP1 REVERT JUMPDEST POP PUSH2 0x108 PUSH2 0x23D JUMP JUMPDEST PUSH1 0x40 MLOAD PUSH2 0x115 SWAP2 SWAP1 PUSH2 0x8F0 JUMP JUMPDEST PUSH1 0x40 MLOAD DUP1 SWAP2 SUB SWAP1 RETURN JUMPDEST CALLVALUE DUP1 ISZERO PUSH2 0x12A JUMPI PUSH1 0x0 DUP1 REVERT JUMPDEST POP PUSH2 0x145 PUSH1 0x4 DUP1 CALLDATASIZE SUB DUP2 ADD SWAP1 PUSH2 0x140 SWAP2 SWAP1 PUSH2 0xABB JUMP JUMPDEST PUSH2 0x243 JUMP JUMPDEST STOP JUMPDEST CALLVALUE DUP1 ISZERO PUSH2 0x153 JUMPI PUSH1 0x0 DUP1 REVERT JUMPDEST POP PUSH2 0x15C PUSH2 0x35A JUMP JUMPDEST PUSH1 0x40 MLOAD PUSH2 0x169 SWAP2 SWAP1 PUSH2 0x8F0 JUMP JUMPDEST PUSH1 0x40 MLOAD DUP1 SWAP2 SUB SWAP1 RETURN JUMPDEST CALLVALUE DUP1 ISZERO PUSH2 0x17E JUMPI PUSH1 0x0 DUP1 REVERT JUMPDEST POP PUSH2 0x187 PUSH2 0x360 JUMP JUMPDEST PUSH1 0x40 MLOAD PUSH2 0x194 SWAP2 SWAP1 PUSH2 0x8F0 JUMP JUMPDEST PUSH1 0x40 MLOAD DUP1 SWAP2 SUB SWAP1 RETURN JUMPDEST PUSH2 0x1A5 PUSH2 0x366 JUMP JUMPDEST STOP JUMPDEST CALLVALUE DUP1 ISZERO PUSH2 0x1B3 JUMPI PUSH1 0x0 DUP1 REVERT JUMPDEST POP PUSH2 0x1CE PUSH1 0x4 DUP1 CALLDATASIZE SUB DUP2 ADD SWAP1 PUSH2 0x1C9 SWAP2 SWAP1 PUSH2 0xB2A JUMP JUMPDEST PUSH2 0x3E6 JUMP JUMPDEST STOP JUMPDEST CALLVALUE DUP1 ISZERO PUSH2 0x1DC JUMPI PUSH1 0x0 DUP1 REVERT JUMPDEST POP PUSH2 0x1F7 PUSH1 0x4 DUP1 CALLDATASIZE SUB DUP2 ADD SWAP1 PUSH2 0x1F2 SWAP2 SWAP1 PUSH2 0xB2A JUMP JUMPDEST PUSH2 0x590 JUMP JUMPDEST STOP JUMPDEST PUSH1 0x2 PUSH1 0x20 MSTORE DUP1 PUSH1 0x0 MSTORE PUSH1 0x40 PUSH1 0x0 KECCAK256 PUSH1 0x0 SWAP2 POP SLOAD SWAP1 PUSH2 0x100 EXP SWAP1 DIV PUSH1 0xFF AND DUP2 JUMP JUMPDEST PUSH1 0x0 DUP1 SLOAD SWAP1 PUSH2 0x100 EXP SWAP1 DIV PUSH20 0xFFFFFFFFFFFFFFFFFFFFFFFFFFFFFFFFFFFFFFFF AND DUP2 JUMP JUMPDEST PUSH1 0x3 SLOAD DUP2 JUMP JUMPDEST PUSH1 0x0 DUP1 SLOAD SWAP1 PUSH2 0x100 EXP SWAP1 DIV PUSH20 0xFFFFFFFFFFFFFFFFFFFFFFFFFFFFFFFFFFFFFFFF AND PUSH20 0xFFFFFFFFFFFFFFFFFFFFFFFFFFFFFFFFFFFFFFFF AND CALLER PUSH20 0xFFFFFFFFFFFFFFFFFFFFFFFFFFFFFFFFFFFFFFFF AND EQ PUSH2 0x29B JUMPI PUSH1 0x0 DUP1 REVERT JUMPDEST PUSH1 0x0 PUSH1 0x5 PUSH1 0x0 PUSH1 0x4 PUSH1 0x0 DUP2 SLOAD DUP1 SWAP3 SWAP2 SWAP1 PUSH2 0x2B4 SWAP1 PUSH2 0xB86 JUMP JUMPDEST SWAP2 SWAP1 POP SSTORE DUP2 MSTORE PUSH1 0x20 ADD SWAP1 DUP2 MSTORE PUSH1 0x20 ADD PUSH1 0x0 KECCAK256 SWAP1 POP DUP4 DUP2 PUSH1 0x0 ADD SWAP1 DUP1 MLOAD SWAP1 PUSH1 0x20 ADD SWAP1 PUSH2 0x2E0 SWAP3 SWAP2 SWAP1 PUSH2 0x735 JUMP JUMPDEST POP DUP3 DUP2 PUSH1 0x1 ADD DUP2 SWAP1 SSTORE POP DUP2 DUP2 PUSH1 0x2 ADD PUSH1 0x0 PUSH2 0x100 EXP DUP2 SLOAD DUP2 PUSH20 0xFFFFFFFFFFFFFFFFFFFFFFFFFFFFFFFFFFFFFFFF MUL NOT AND SWAP1 DUP4 PUSH20 0xFFFFFFFFFFFFFFFFFFFFFFFFFFFFFFFFFFFFFFFF AND MUL OR SWAP1 SSTORE POP PUSH1 0x0 DUP2 PUSH1 0x2 ADD PUSH1 0x14 PUSH2 0x100 EXP DUP2 SLOAD DUP2 PUSH1 0xFF MUL NOT AND SWAP1 DUP4 ISZERO ISZERO MUL OR SWAP1 SSTORE POP PUSH1 0x0 DUP2 PUSH1 0x4 ADD DUP2 SWAP1 SSTORE POP POP POP POP POP JUMP JUMPDEST PUSH1 0x1 SLOAD DUP2 JUMP JUMPDEST PUSH1 0x4 SLOAD DUP2 JUMP JUMPDEST CALLVALUE PUSH1 0x1 SLOAD LT PUSH2 0x374 JUMPI PUSH1 0x0 DUP1 REVERT JUMPDEST PUSH1 0x1 PUSH1 0x2 PUSH1 0x0 CALLER PUSH20 0xFFFFFFFFFFFFFFFFFFFFFFFFFFFFFFFFFFFFFFFF AND PUSH20 0xFFFFFFFFFFFFFFFFFFFFFFFFFFFFFFFFFFFFFFFF AND DUP2 MSTORE PUSH1 0x20 ADD SWAP1 DUP2 MSTORE PUSH1 0x20 ADD PUSH1 0x0 KECCAK256 PUSH1 0x0 PUSH2 0x100 EXP DUP2 SLOAD DUP2 PUSH1 0xFF MUL NOT AND SWAP1 DUP4 ISZERO ISZERO MUL OR SWAP1 SSTORE POP PUSH1 0x3 PUSH1 0x0 DUP2 SLOAD DUP1 SWAP3 SWAP2 SWAP1 PUSH2 0x3DF SWAP1 PUSH2 0xB86 JUMP JUMPDEST SWAP2 SWAP1 POP SSTORE POP JUMP JUMPDEST PUSH1 0x0 PUSH1 0x5 PUSH1 0x0 DUP4 DUP2 MSTORE PUSH1 0x20 ADD SWAP1 DUP2 MSTORE PUSH1 0x20 ADD PUSH1 0x0 KECCAK256 SWAP1 POP PUSH1 0x2 PUSH1 0x0 CALLER PUSH20 0xFFFFFFFFFFFFFFFFFFFFFFFFFFFFFFFFFFFFFFFF AND PUSH20 0xFFFFFFFFFFFFFFFFFFFFFFFFFFFFFFFFFFFFFFFF AND DUP2 MSTORE PUSH1 0x20 ADD SWAP1 DUP2 MSTORE PUSH1 0x20 ADD PUSH1 0x0 KECCAK256 PUSH1 0x0 SWAP1 SLOAD SWAP1 PUSH2 0x100 EXP SWAP1 DIV PUSH1 0xFF AND PUSH2 0x489 JUMPI PUSH1 0x40 MLOAD PUSH32 0x8C379A000000000000000000000000000000000000000000000000000000000 DUP2 MSTORE PUSH1 0x4 ADD PUSH2 0x480 SWAP1 PUSH2 0xC52 JUMP JUMPDEST PUSH1 0x40 MLOAD DUP1 SWAP2 SUB SWAP1 REVERT JUMPDEST DUP1 PUSH1 0x3 ADD PUSH1 0x0 CALLER PUSH20 0xFFFFFFFFFFFFFFFFFFFFFFFFFFFFFFFFFFFFFFFF AND PUSH20 0xFFFFFFFFFFFFFFFFFFFFFFFFFFFFFFFFFFFFFFFF AND DUP2 MSTORE PUSH1 0x20 ADD SWAP1 DUP2 MSTORE PUSH1 0x20 ADD PUSH1 0x0 KECCAK256 PUSH1 0x0 SWAP1 SLOAD SWAP1 PUSH2 0x100 EXP SWAP1 DIV PUSH1 0xFF AND ISZERO PUSH2 0x518 JUMPI PUSH1 0x40 MLOAD PUSH32 0x8C379A000000000000000000000000000000000000000000000000000000000 DUP2 MSTORE PUSH1 0x4 ADD PUSH2 0x50F SWAP1 PUSH2 0xCBE JUMP JUMPDEST PUSH1 0x40 MLOAD DUP1 SWAP2 SUB SWAP1 REVERT JUMPDEST PUSH1 0x1 DUP2 PUSH1 0x3 ADD PUSH1 0x0 CALLER PUSH20 0xFFFFFFFFFFFFFFFFFFFFFFFFFFFFFFFFFFFFFFFF AND PUSH20 0xFFFFFFFFFFFFFFFFFFFFFFFFFFFFFFFFFFFFFFFF AND DUP2 MSTORE PUSH1 0x20 ADD SWAP1 DUP2 MSTORE PUSH1 0x20 ADD PUSH1 0x0 KECCAK256 PUSH1 0x0 PUSH2 0x100 EXP DUP2 SLOAD DUP2 PUSH1 0xFF MUL NOT AND SWAP1 DUP4 ISZERO ISZERO MUL OR SWAP1 SSTORE POP DUP1 PUSH1 0x4 ADD PUSH1 0x0 DUP2 SLOAD DUP1 SWAP3 SWAP2 SWAP1 PUSH2 0x587 SWAP1 PUSH2 0xB86 JUMP JUMPDEST SWAP2 SWAP1 POP SSTORE POP POP POP JUMP JUMPDEST PUSH1 0x0 DUP1 SLOAD SWAP1 PUSH2 0x100 EXP SWAP1 DIV PUSH20 0xFFFFFFFFFFFFFFFFFFFFFFFFFFFFFFFFFFFFFFFF AND PUSH20 0xFFFFFFFFFFFFFFFFFFFFFFFFFFFFFFFFFFFFFFFF AND CALLER PUSH20 0xFFFFFFFFFFFFFFFFFFFFFFFFFFFFFFFFFFFFFFFF AND EQ PUSH2 0x5E8 JUMPI PUSH1 0x0 DUP1 REVERT JUMPDEST PUSH1 0x0 PUSH1 0x5 PUSH1 0x0 DUP4 DUP2 MSTORE PUSH1 0x20 ADD SWAP1 DUP2 MSTORE PUSH1 0x20 ADD PUSH1 0x0 KECCAK256 SWAP1 POP PUSH1 0x2 PUSH1 0x3 SLOAD PUSH2 0x60E SWAP2 SWAP1 PUSH2 0xD0D JUMP JUMPDEST DUP2 PUSH1 0x4 ADD SLOAD GT PUSH2 0x653 JUMPI PUSH1 0x40 MLOAD PUSH32 0x8C379A000000000000000000000000000000000000000000000000000000000 DUP2 MSTORE PUSH1 0x4 ADD PUSH2 0x64A SWAP1 PUSH2 0xDB0 JUMP JUMPDEST PUSH1 0x40 MLOAD DUP1 SWAP2 SUB SWAP1 REVERT JUMPDEST DUP1 PUSH1 0x2 ADD PUSH1 0x14 SWAP1 SLOAD SWAP1 PUSH2 0x100 EXP SWAP1 DIV PUSH1 0xFF AND ISZERO PUSH2 0x6A5 JUMPI PUSH1 0x40 MLOAD PUSH32 0x8C379A000000000000000000000000000000000000000000000000000000000 DUP2 MSTORE PUSH1 0x4 ADD PUSH2 0x69C SWAP1 PUSH2 0xE1C JUMP JUMPDEST PUSH1 0x40 MLOAD DUP1 SWAP2 SUB SWAP1 REVERT JUMPDEST DUP1 PUSH1 0x2 ADD PUSH1 0x0 SWAP1 SLOAD SWAP1 PUSH2 0x100 EXP SWAP1 DIV PUSH20 0xFFFFFFFFFFFFFFFFFFFFFFFFFFFFFFFFFFFFFFFF AND PUSH20 0xFFFFFFFFFFFFFFFFFFFFFFFFFFFFFFFFFFFFFFFF AND PUSH2 0x8FC DUP3 PUSH1 0x1 ADD SLOAD SWAP1 DUP2 ISZERO MUL SWAP1 PUSH1 0x40 MLOAD PUSH1 0x0 PUSH1 0x40 MLOAD DUP1 DUP4 SUB DUP2 DUP6 DUP9 DUP9 CALL SWAP4 POP POP POP POP ISZERO DUP1 ISZERO PUSH2 0x713 JUMPI RETURNDATASIZE PUSH1 0x0 DUP1 RETURNDATACOPY RETURNDATASIZE PUSH1 0x0 REVERT JUMPDEST POP PUSH1 0x1 DUP2 PUSH1 0x2 ADD PUSH1 0x14 PUSH2 0x100 EXP DUP2 SLOAD DUP2 PUSH1 0xFF MUL NOT AND SWAP1 DUP4 ISZERO ISZERO MUL OR SWAP1 SSTORE POP POP POP JUMP JUMPDEST DUP3 DUP1 SLOAD PUSH2 0x741 SWAP1 PUSH2 0xE6B JUMP JUMPDEST SWAP1 PUSH1 0x0 MSTORE PUSH1 0x20 PUSH1 0x0 KECCAK256 SWAP1 PUSH1 0x1F ADD PUSH1 0x20 SWAP1 DIV DUP2 ADD SWAP3 DUP3 PUSH2 0x763 JUMPI PUSH1 0x0 DUP6 SSTORE PUSH2 0x7AA JUMP JUMPDEST DUP3 PUSH1 0x1F LT PUSH2 0x77C JUMPI DUP1 MLOAD PUSH1 0xFF NOT AND DUP4 DUP1 ADD OR DUP6 SSTORE PUSH2 0x7AA JUMP JUMPDEST DUP3 DUP1 ADD PUSH1 0x1 ADD DUP6 SSTORE DUP3 ISZERO PUSH2 0x7AA JUMPI SWAP2 DUP3 ADD JUMPDEST DUP3 DUP2 GT ISZERO PUSH2 0x7A9 JUMPI DUP3 MLOAD DUP3 SSTORE SWAP2 PUSH1 0x20 ADD SWAP2 SWAP1 PUSH1 0x1 ADD SWAP1 PUSH2 0x78E JUMP JUMPDEST JUMPDEST POP SWAP1 POP PUSH2 0x7B7 SWAP2 SWAP1 PUSH2 0x7BB JUMP JUMPDEST POP SWAP1 JUMP JUMPDEST JUMPDEST DUP1 DUP3 GT ISZERO PUSH2 0x7D4 JUMPI PUSH1 0x0 DUP2 PUSH1 0x0 SWAP1 SSTORE POP PUSH1 0x1 ADD PUSH2 0x7BC JUMP JUMPDEST POP SWAP1 JUMP JUMPDEST PUSH1 0x0 PUSH1 0x40 MLOAD SWAP1 POP SWAP1 JUMP JUMPDEST PUSH1 0x0 DUP1 REVERT JUMPDEST PUSH1 0x0 DUP1 REVERT JUMPDEST PUSH1 0x0 PUSH20 0xFFFFFFFFFFFFFFFFFFFFFFFFFFFFFFFFFFFFFFFF DUP3 AND SWAP1 POP SWAP2 SWAP1 POP JUMP JUMPDEST PUSH1 0x0 PUSH2 0x817 DUP3 PUSH2 0x7EC JUMP JUMPDEST SWAP1 POP SWAP2 SWAP1 POP JUMP JUMPDEST PUSH2 0x827 DUP2 PUSH2 0x80C JUMP JUMPDEST DUP2 EQ PUSH2 0x832 JUMPI PUSH1 0x0 DUP1 REVERT JUMPDEST POP JUMP JUMPDEST PUSH1 0x0 DUP2 CALLDATALOAD SWAP1 POP PUSH2 0x844 DUP2 PUSH2 0x81E JUMP JUMPDEST SWAP3 SWAP2 POP POP JUMP JUMPDEST PUSH1 0x0 PUSH1 0x20 DUP3 DUP5 SUB SLT ISZERO PUSH2 0x860 JUMPI PUSH2 0x85F PUSH2 0x7E2 JUMP JUMPDEST JUMPDEST PUSH1 0x0 PUSH2 0x86E DUP5 DUP3 DUP6 ADD PUSH2 0x835 JUMP JUMPDEST SWAP2 POP POP SWAP3 SWAP2 POP POP JUMP JUMPDEST PUSH1 0x0 DUP2 ISZERO ISZERO SWAP1 POP SWAP2 SWAP1 POP JUMP JUMPDEST PUSH2 0x88C DUP2 PUSH2 0x877 JUMP JUMPDEST DUP3 MSTORE POP POP JUMP JUMPDEST PUSH1 0x0 PUSH1 0x20 DUP3 ADD SWAP1 POP PUSH2 0x8A7 PUSH1 0x0 DUP4 ADD DUP5 PUSH2 0x883 JUMP JUMPDEST SWAP3 SWAP2 POP POP JUMP JUMPDEST PUSH2 0x8B6 DUP2 PUSH2 0x80C JUMP JUMPDEST DUP3 MSTORE POP POP JUMP JUMPDEST PUSH1 0x0 PUSH1 0x20 DUP3 ADD SWAP1 POP PUSH2 0x8D1 PUSH1 0x0 DUP4 ADD DUP5 PUSH2 0x8AD JUMP JUMPDEST SWAP3 SWAP2 POP POP JUMP JUMPDEST PUSH1 0x0 DUP2 SWAP1 POP SWAP2 SWAP1 POP JUMP JUMPDEST PUSH2 0x8EA DUP2 PUSH2 0x8D7 JUMP JUMPDEST DUP3 MSTORE POP POP JUMP JUMPDEST PUSH1 0x0 PUSH1 0x20 DUP3 ADD SWAP1 POP PUSH2 0x905 PUSH1 0x0 DUP4 ADD DUP5 PUSH2 0x8E1 JUMP JUMPDEST SWAP3 SWAP2 POP POP JUMP JUMPDEST PUSH1 0x0 DUP1 REVERT JUMPDEST PUSH1 0x0 DUP1 REVERT JUMPDEST PUSH1 0x0 PUSH1 0x1F NOT PUSH1 0x1F DUP4 ADD AND SWAP1 POP SWAP2 SWAP1 POP JUMP JUMPDEST PUSH32 0x4E487B7100000000000000000000000000000000000000000000000000000000 PUSH1 0x0 MSTORE PUSH1 0x41 PUSH1 0x4 MSTORE PUSH1 0x24 PUSH1 0x0 REVERT JUMPDEST PUSH2 0x95E DUP3 PUSH2 0x915 JUMP JUMPDEST DUP2 ADD DUP2 DUP2 LT PUSH8 0xFFFFFFFFFFFFFFFF DUP3 GT OR ISZERO PUSH2 0x97D JUMPI PUSH2 0x97C PUSH2 0x926 JUMP JUMPDEST JUMPDEST DUP1 PUSH1 0x40 MSTORE POP POP POP JUMP JUMPDEST PUSH1 0x0 PUSH2 0x990 PUSH2 0x7D8 JUMP JUMPDEST SWAP1 POP PUSH2 0x99C DUP3 DUP3 PUSH2 0x955 JUMP JUMPDEST SWAP2 SWAP1 POP JUMP JUMPDEST PUSH1 0x0 PUSH8 0xFFFFFFFFFFFFFFFF DUP3 GT ISZERO PUSH2 0x9BC JUMPI PUSH2 0x9BB PUSH2 0x926 JUMP JUMPDEST JUMPDEST PUSH2 0x9C5 DUP3 PUSH2 0x915 JUMP JUMPDEST SWAP1 POP PUSH1 0x20 DUP2 ADD SWAP1 POP SWAP2 SWAP1 POP JUMP JUMPDEST DUP3 DUP2 DUP4 CALLDATACOPY PUSH1 0x0 DUP4 DUP4 ADD MSTORE POP POP POP JUMP JUMPDEST PUSH1 0x0 PUSH2 0x9F4 PUSH2 0x9EF DUP5 PUSH2 0x9A1 JUMP JUMPDEST PUSH2 0x986 JUMP JUMPDEST SWAP1 POP DUP3 DUP2 MSTORE PUSH1 0x20 DUP2 ADD DUP5 DUP5 DUP5 ADD GT ISZERO PUSH2 0xA10 JUMPI PUSH2 0xA0F PUSH2 0x910 JUMP JUMPDEST JUMPDEST PUSH2 0xA1B DUP5 DUP3 DUP6 PUSH2 0x9D2 JUMP JUMPDEST POP SWAP4 SWAP3 POP POP POP JUMP JUMPDEST PUSH1 0x0 DUP3 PUSH1 0x1F DUP4 ADD SLT PUSH2 0xA38 JUMPI PUSH2 0xA37 PUSH2 0x90B JUMP JUMPDEST JUMPDEST DUP2 CALLDATALOAD PUSH2 0xA48 DUP5 DUP3 PUSH1 0x20 DUP7 ADD PUSH2 0x9E1 JUMP JUMPDEST SWAP2 POP POP SWAP3 SWAP2 POP POP JUMP JUMPDEST PUSH2 0xA5A DUP2 PUSH2 0x8D7 JUMP JUMPDEST DUP2 EQ PUSH2 0xA65 JUMPI PUSH1 0x0 DUP1 REVERT JUMPDEST POP JUMP JUMPDEST PUSH1 0x0 DUP2 CALLDATALOAD SWAP1 POP PUSH2 0xA77 DUP2 PUSH2 0xA51 JUMP JUMPDEST SWAP3 SWAP2 POP POP JUMP JUMPDEST PUSH1 0x0 PUSH2 0xA88 DUP3 PUSH2 0x7EC JUMP JUMPDEST SWAP1 POP SWAP2 SWAP1 POP JUMP JUMPDEST PUSH2 0xA98 DUP2 PUSH2 0xA7D JUMP JUMPDEST DUP2 EQ PUSH2 0xAA3 JUMPI PUSH1 0x0 DUP1 REVERT JUMPDEST POP JUMP JUMPDEST PUSH1 0x0 DUP2 CALLDATALOAD SWAP1 POP PUSH2 0xAB5 DUP2 PUSH2 0xA8F JUMP JUMPDEST SWAP3 SWAP2 POP POP JUMP JUMPDEST PUSH1 0x0 DUP1 PUSH1 0x0 PUSH1 0x60 DUP5 DUP7 SUB SLT ISZERO PUSH2 0xAD4 JUMPI PUSH2 0xAD3 PUSH2 0x7E2 JUMP JUMPDEST JUMPDEST PUSH1 0x0 DUP5 ADD CALLDATALOAD PUSH8 0xFFFFFFFFFFFFFFFF DUP2 GT ISZERO PUSH2 0xAF2 JUMPI PUSH2 0xAF1 PUSH2 0x7E7 JUMP JUMPDEST JUMPDEST PUSH2 0xAFE DUP7 DUP3 DUP8 ADD PUSH2 0xA23 JUMP JUMPDEST SWAP4 POP POP PUSH1 0x20 PUSH2 0xB0F DUP7 DUP3 DUP8 ADD PUSH2 0xA68 JUMP JUMPDEST SWAP3 POP POP PUSH1 0x40 PUSH2 0xB20 DUP7 DUP3 DUP8 ADD PUSH2 0xAA6 JUMP JUMPDEST SWAP2 POP POP SWAP3 POP SWAP3 POP SWAP3 JUMP JUMPDEST PUSH1 0x0 PUSH1 0x20 DUP3 DUP5 SUB SLT ISZERO PUSH2 0xB40 JUMPI PUSH2 0xB3F PUSH2 0x7E2 JUMP JUMPDEST JUMPDEST PUSH1 0x0 PUSH2 0xB4E DUP5 DUP3 DUP6 ADD PUSH2 0xA68 JUMP JUMPDEST SWAP2 POP POP SWAP3 SWAP2 POP POP JUMP JUMPDEST PUSH32 0x4E487B7100000000000000000000000000000000000000000000000000000000 PUSH1 0x0 MSTORE PUSH1 0x11 PUSH1 0x4 MSTORE PUSH1 0x24 PUSH1 0x0 REVERT JUMPDEST PUSH1 0x0 PUSH2 0xB91 DUP3 PUSH2 0x8D7 JUMP JUMPDEST SWAP2 POP PUSH32 0xFFFFFFFFFFFFFFFFFFFFFFFFFFFFFFFFFFFFFFFFFFFFFFFFFFFFFFFFFFFFFFFF DUP3 EQ ISZERO PUSH2 0xBC4 JUMPI PUSH2 0xBC3 PUSH2 0xB57 JUMP JUMPDEST JUMPDEST PUSH1 0x1 DUP3 ADD SWAP1 POP SWAP2 SWAP1 POP JUMP JUMPDEST PUSH1 0x0 DUP3 DUP3 MSTORE PUSH1 0x20 DUP3 ADD SWAP1 POP SWAP3 SWAP2 POP POP JUMP JUMPDEST PUSH32 0x546F20617070726F76652072657175657374206E6565647320746F2061206170 PUSH1 0x0 DUP3 ADD MSTORE PUSH32 0x70726F7665720000000000000000000000000000000000000000000000000000 PUSH1 0x20 DUP3 ADD MSTORE POP JUMP JUMPDEST PUSH1 0x0 PUSH2 0xC3C PUSH1 0x26 DUP4 PUSH2 0xBCF JUMP JUMPDEST SWAP2 POP PUSH2 0xC47 DUP3 PUSH2 0xBE0 JUMP JUMPDEST PUSH1 0x40 DUP3 ADD SWAP1 POP SWAP2 SWAP1 POP JUMP JUMPDEST PUSH1 0x0 PUSH1 0x20 DUP3 ADD SWAP1 POP DUP2 DUP2 SUB PUSH1 0x0 DUP4 ADD MSTORE PUSH2 0xC6B DUP2 PUSH2 0xC2F JUMP JUMPDEST SWAP1 POP SWAP2 SWAP1 POP JUMP JUMPDEST PUSH32 0x596F752063616E20766F7465206F6E6C79206F6E636500000000000000000000 PUSH1 0x0 DUP3 ADD MSTORE POP JUMP JUMPDEST PUSH1 0x0 PUSH2 0xCA8 PUSH1 0x16 DUP4 PUSH2 0xBCF JUMP JUMPDEST SWAP2 POP PUSH2 0xCB3 DUP3 PUSH2 0xC72 JUMP JUMPDEST PUSH1 0x20 DUP3 ADD SWAP1 POP SWAP2 SWAP1 POP JUMP JUMPDEST PUSH1 0x0 PUSH1 0x20 DUP3 ADD SWAP1 POP DUP2 DUP2 SUB PUSH1 0x0 DUP4 ADD MSTORE PUSH2 0xCD7 DUP2 PUSH2 0xC9B JUMP JUMPDEST SWAP1 POP SWAP2 SWAP1 POP JUMP JUMPDEST PUSH32 0x4E487B7100000000000000000000000000000000000000000000000000000000 PUSH1 0x0 MSTORE PUSH1 0x12 PUSH1 0x4 MSTORE PUSH1 0x24 PUSH1 0x0 REVERT JUMPDEST PUSH1 0x0 PUSH2 0xD18 DUP3 PUSH2 0x8D7 JUMP JUMPDEST SWAP2 POP PUSH2 0xD23 DUP4 PUSH2 0x8D7 JUMP JUMPDEST SWAP3 POP DUP3 PUSH2 0xD33 JUMPI PUSH2 0xD32 PUSH2 0xCDE JUMP JUMPDEST JUMPDEST DUP3 DUP3 DIV SWAP1 POP SWAP3 SWAP2 POP POP JUMP JUMPDEST PUSH32 0x4E656564732061746C656173742068616C66206D656D6265727320617070726F PUSH1 0x0 DUP3 ADD MSTORE PUSH32 0x76616C0000000000000000000000000000000000000000000000000000000000 PUSH1 0x20 DUP3 ADD MSTORE POP JUMP JUMPDEST PUSH1 0x0 PUSH2 0xD9A PUSH1 0x23 DUP4 PUSH2 0xBCF JUMP JUMPDEST SWAP2 POP PUSH2 0xDA5 DUP3 PUSH2 0xD3E JUMP JUMPDEST PUSH1 0x40 DUP3 ADD SWAP1 POP SWAP2 SWAP1 POP JUMP JUMPDEST PUSH1 0x0 PUSH1 0x20 DUP3 ADD SWAP1 POP DUP2 DUP2 SUB PUSH1 0x0 DUP4 ADD MSTORE PUSH2 0xDC9 DUP2 PUSH2 0xD8D JUMP JUMPDEST SWAP1 POP SWAP2 SWAP1 POP JUMP JUMPDEST PUSH32 0x5265717565737420616C726561647920636F6D706C6574656400000000000000 PUSH1 0x0 DUP3 ADD MSTORE POP JUMP JUMPDEST PUSH1 0x0 PUSH2 0xE06 PUSH1 0x19 DUP4 PUSH2 0xBCF JUMP JUMPDEST SWAP2 POP PUSH2 0xE11 DUP3 PUSH2 0xDD0 JUMP JUMPDEST PUSH1 0x20 DUP3 ADD SWAP1 POP SWAP2 SWAP1 POP JUMP JUMPDEST PUSH1 0x0 PUSH1 0x20 DUP3 ADD SWAP1 POP DUP2 DUP2 SUB PUSH1 0x0 DUP4 ADD MSTORE PUSH2 0xE35 DUP2 PUSH2 0xDF9 JUMP JUMPDEST SWAP1 POP SWAP2 SWAP1 POP JUMP JUMPDEST PUSH32 0x4E487B7100000000000000000000000000000000000000000000000000000000 PUSH1 0x0 MSTORE PUSH1 0x22 PUSH1 0x4 MSTORE PUSH1 0x24 PUSH1 0x0 REVERT JUMPDEST PUSH1 0x0 PUSH1 0x2 DUP3 DIV SWAP1 POP PUSH1 0x1 DUP3 AND DUP1 PUSH2 0xE83 JUMPI PUSH1 0x7F DUP3 AND SWAP2 POP JUMPDEST PUSH1 0x20 DUP3 LT DUP2 EQ ISZERO PUSH2 0xE97 JUMPI PUSH2 0xE96 PUSH2 0xE3C JUMP JUMPDEST JUMPDEST POP SWAP2 SWAP1 POP JUMP INVALID LOG2 PUSH5 0x6970667358 0x22 SLT KECCAK256 0xC9 SWAP7 0x4F 0xF PUSH15 0x3ACBA3095E3E57120B97DEEFCBBAC MULMOD 0xB3 AND COINBASE 0x5F GASPRICE PUSH25 0x8E522FD0F464736F6C634300080B0033A26469706673582212 KECCAK256 KECCAK256 0x26 CODESIZE PUSH27 0xAFCAE0E9300A4221CC0E200E3EDABBF7B8345F9ABAC6759B7AFABD 0xAF PUSH5 0x736F6C6343 STOP ADDMOD SIGNEXTEND STOP CALLER "},"gasEstimates":{"creation":{"codeDepositCost":"1072200","executionCost":"1114","totalCost":"1073314"},"external":{"campaignsList(uint256)":"infinite","createCampaign(uint256)":"infinite","getCampaigns()":"infinite"}},"methodIdentifiers":{"campaignsList(uint256)":"c3d44506","createCampaign(uint256)":"a3303a75","getCampaigns()":"a6b03633"}},"storageLayout":{"storage":[{"astId":5,"contract":"Campaign.sol:CampaignFactory","label":"campaignsList","offset":0,"slot":"0","type":"t_array(t_contract(Campaign)263)dyn_storage"}],"types":{"t_array(t_contract(Campaign)263)dyn_storage":{"base":"t_contract(Campaign)263","encoding":"dynamic_array","label":"contract Campaign[]","numberOfBytes":"32"},"t_contract(Campaign)263":{"encoding":"inplace","label":"contract Campaign","numberOfBytes":"20"}}},"userdoc":{"kind":"user","methods":{},"version":1}}