{"abi":[{"inputs":[{"internalType":"uint256","name":"","type":"uint256"}],"name":"campaignsList","outputs":[{"internalType":"contract Campaign","name":"","type":"address"}],"stateMutability":"view","type":"function"},{"inputs":[{"internalType":"uint256","name":"minimum","type":"uint256"}],"name":"createCampaign","outputs":[],"stateMutability":"nonpayable","type":"function"},{"inputs":[],"name":"getDeployedCampaigns","outputs":[{"internalType":"contract Campaign[]","name":"","type":"address[]"}],"stateMutability":"view","type":"function"}],"devdoc":{"kind":"dev","methods":{},"version":1},"evm":{"assembly":"    /* \"Campaign.sol\":70:418  contract CampaignFactory {... */\n  mstore(0x40, 0x80)\n  callvalue\n  dup1\n  iszero\n  tag_1\n  jumpi\n  0x00\n  dup1\n  revert\ntag_1:\n  pop\n  dataSize(sub_0)\n  dup1\n  dataOffset(sub_0)\n  0x00\n  codecopy\n  0x00\n  return\nstop\n\nsub_0: assembly {\n        /* \"Campaign.sol\":70:418  contract CampaignFactory {... */\n      mstore(0x40, 0x80)\n      callvalue\n      dup1\n      iszero\n      tag_1\n      jumpi\n      0x00\n      dup1\n      revert\n    tag_1:\n      pop\n      jumpi(tag_2, lt(calldatasize, 0x04))\n      shr(0xe0, calldataload(0x00))\n      dup1\n      0x4acb9d4f\n      eq\n      tag_3\n      jumpi\n      dup1\n      0xa3303a75\n      eq\n      tag_4\n      jumpi\n      dup1\n      0xc3d44506\n      eq\n      tag_5\n      jumpi\n    tag_2:\n      0x00\n      dup1\n      revert\n        /* \"Campaign.sol\":307:416  function getDeployedCampaigns() public view returns (Campaign[] memory) {... */\n    tag_3:\n      tag_6\n      tag_7\n      jump\t// in\n    tag_6:\n      mload(0x40)\n      tag_8\n      swap2\n      swap1\n      tag_9\n      jump\t// in\n    tag_8:\n      mload(0x40)\n      dup1\n      swap2\n      sub\n      swap1\n      return\n        /* \"Campaign.sol\":139:301  function createCampaign(uint256 minimum) public {... */\n    tag_4:\n      tag_10\n      0x04\n      dup1\n      calldatasize\n      sub\n      dup2\n      add\n      swap1\n      tag_11\n      swap2\n      swap1\n      tag_12\n      jump\t// in\n    tag_11:\n      tag_13\n      jump\t// in\n    tag_10:\n      stop\n        /* \"Campaign.sol\":101:132  Campaign[] public campaignsList */\n    tag_5:\n      tag_14\n      0x04\n      dup1\n      calldatasize\n      sub\n      dup2\n      add\n      swap1\n      tag_15\n      swap2\n      swap1\n      tag_12\n      jump\t// in\n    tag_15:\n      tag_16\n      jump\t// in\n    tag_14:\n      mload(0x40)\n      tag_17\n      swap2\n      swap1\n      tag_18\n      jump\t// in\n    tag_17:\n      mload(0x40)\n      dup1\n      swap2\n      sub\n      swap1\n      return\n        /* \"Campaign.sol\":307:416  function getDeployedCampaigns() public view returns (Campaign[] memory) {... */\n    tag_7:\n        /* \"Campaign.sol\":360:377  Campaign[] memory */\n      0x60\n        /* \"Campaign.sol\":396:409  campaignsList */\n      0x00\n        /* \"Campaign.sol\":389:409  return campaignsList */\n      dup1\n      sload\n      dup1\n      0x20\n      mul\n      0x20\n      add\n      mload(0x40)\n      swap1\n      dup2\n      add\n      0x40\n      mstore\n      dup1\n      swap3\n      swap2\n      swap1\n      dup2\n      dup2\n      mstore\n      0x20\n      add\n      dup3\n      dup1\n      sload\n      dup1\n      iszero\n      tag_20\n      jumpi\n      0x20\n      mul\n      dup3\n      add\n      swap2\n      swap1\n      0x00\n      mstore\n      keccak256(0x00, 0x20)\n      swap1\n    tag_21:\n      dup2\n      0x00\n      swap1\n      sload\n      swap1\n      0x0100\n      exp\n      swap1\n      div\n      0xffffffffffffffffffffffffffffffffffffffff\n      and\n      0xffffffffffffffffffffffffffffffffffffffff\n      and\n      dup2\n      mstore\n      0x20\n      add\n      swap1\n      0x01\n      add\n      swap1\n      dup1\n      dup4\n      gt\n      tag_21\n      jumpi\n    tag_20:\n      pop\n      pop\n      pop\n      pop\n      pop\n      swap1\n      pop\n        /* \"Campaign.sol\":307:416  function getDeployedCampaigns() public view returns (Campaign[] memory) {... */\n      swap1\n      jump\t// out\n        /* \"Campaign.sol\":139:301  function createCampaign(uint256 minimum) public {... */\n    tag_13:\n        /* \"Campaign.sol\":197:217  Campaign newCampaign */\n      0x00\n        /* \"Campaign.sol\":233:240  minimum */\n      dup2\n        /* \"Campaign.sol\":242:252  msg.sender */\n      caller\n        /* \"Campaign.sol\":220:253  new Campaign(minimum, msg.sender) */\n      mload(0x40)\n      tag_23\n      swap1\n      tag_24\n      jump\t// in\n    tag_23:\n      tag_25\n      swap3\n      swap2\n      swap1\n      tag_26\n      jump\t// in\n    tag_25:\n      mload(0x40)\n      dup1\n      swap2\n      sub\n      swap1\n      0x00\n      create\n      dup1\n      iszero\n      dup1\n      iszero\n      tag_27\n      jumpi\n      returndatasize\n      0x00\n      dup1\n      returndatacopy\n      revert(0x00, returndatasize)\n    tag_27:\n      pop\n        /* \"Campaign.sol\":197:253  Campaign newCampaign = new Campaign(minimum, msg.sender) */\n      swap1\n      pop\n        /* \"Campaign.sol\":263:276  campaignsList */\n      0x00\n        /* \"Campaign.sol\":282:293  newCampaign */\n      dup2\n        /* \"Campaign.sol\":263:294  campaignsList.push(newCampaign) */\n      swap1\n      dup1\n      0x01\n      dup2\n      sload\n      add\n      dup1\n      dup3\n      sstore\n      dup1\n      swap2\n      pop\n      pop\n      0x01\n      swap1\n      sub\n      swap1\n      0x00\n      mstore\n      keccak256(0x00, 0x20)\n      add\n      0x00\n      swap1\n      swap2\n      swap1\n      swap2\n      swap1\n      swap2\n      0x0100\n      exp\n      dup2\n      sload\n      dup2\n      0xffffffffffffffffffffffffffffffffffffffff\n      mul\n      not\n      and\n      swap1\n      dup4\n      0xffffffffffffffffffffffffffffffffffffffff\n      and\n      mul\n      or\n      swap1\n      sstore\n      pop\n        /* \"Campaign.sol\":187:301  {... */\n      pop\n        /* \"Campaign.sol\":139:301  function createCampaign(uint256 minimum) public {... */\n      pop\n      jump\t// out\n        /* \"Campaign.sol\":101:132  Campaign[] public campaignsList */\n    tag_16:\n      0x00\n      dup2\n      dup2\n      sload\n      dup2\n      lt\n      tag_29\n      jumpi\n      0x00\n      dup1\n      revert\n    tag_29:\n      swap1\n      0x00\n      mstore\n      keccak256(0x00, 0x20)\n      add\n      0x00\n      swap2\n      pop\n      sload\n      swap1\n      0x0100\n      exp\n      swap1\n      div\n      0xffffffffffffffffffffffffffffffffffffffff\n      and\n      dup2\n      jump\t// out\n    tag_24:\n      dataSize(sub_0)\n      dup1\n      dataOffset(sub_0)\n      dup4\n      codecopy\n      add\n      swap1\n      jump\t// out\n        /* \"#utility.yul\":7:137   */\n    tag_31:\n        /* \"#utility.yul\":90:96   */\n      0x00\n        /* \"#utility.yul\":124:129   */\n      dup2\n        /* \"#utility.yul\":118:130   */\n      mload\n        /* \"#utility.yul\":108:130   */\n      swap1\n      pop\n        /* \"#utility.yul\":7:137   */\n      swap2\n      swap1\n      pop\n      jump\t// out\n        /* \"#utility.yul\":143:327   */\n    tag_32:\n        /* \"#utility.yul\":242:253   */\n      0x00\n        /* \"#utility.yul\":276:282   */\n      dup3\n        /* \"#utility.yul\":271:274   */\n      dup3\n        /* \"#utility.yul\":264:283   */\n      mstore\n        /* \"#utility.yul\":316:320   */\n      0x20\n        /* \"#utility.yul\":311:314   */\n      dup3\n        /* \"#utility.yul\":307:321   */\n      add\n        /* \"#utility.yul\":292:321   */\n      swap1\n      pop\n        /* \"#utility.yul\":143:327   */\n      swap3\n      swap2\n      pop\n      pop\n      jump\t// out\n        /* \"#utility.yul\":333:481   */\n    tag_33:\n        /* \"#utility.yul\":416:420   */\n      0x00\n        /* \"#utility.yul\":439:442   */\n      dup2\n        /* \"#utility.yul\":431:442   */\n      swap1\n      pop\n        /* \"#utility.yul\":469:473   */\n      0x20\n        /* \"#utility.yul\":464:467   */\n      dup3\n        /* \"#utility.yul\":460:474   */\n      add\n        /* \"#utility.yul\":452:474   */\n      swap1\n      pop\n        /* \"#utility.yul\":333:481   */\n      swap2\n      swap1\n      pop\n      jump\t// out\n        /* \"#utility.yul\":487:613   */\n    tag_34:\n        /* \"#utility.yul\":524:531   */\n      0x00\n        /* \"#utility.yul\":564:606   */\n      0xffffffffffffffffffffffffffffffffffffffff\n        /* \"#utility.yul\":557:562   */\n      dup3\n        /* \"#utility.yul\":553:607   */\n      and\n        /* \"#utility.yul\":542:607   */\n      swap1\n      pop\n        /* \"#utility.yul\":487:613   */\n      swap2\n      swap1\n      pop\n      jump\t// out\n        /* \"#utility.yul\":619:679   */\n    tag_35:\n        /* \"#utility.yul\":647:650   */\n      0x00\n        /* \"#utility.yul\":668:673   */\n      dup2\n        /* \"#utility.yul\":661:673   */\n      swap1\n      pop\n        /* \"#utility.yul\":619:679   */\n      swap2\n      swap1\n      pop\n      jump\t// out\n        /* \"#utility.yul\":685:827   */\n    tag_36:\n        /* \"#utility.yul\":735:744   */\n      0x00\n        /* \"#utility.yul\":768:821   */\n      tag_60\n        /* \"#utility.yul\":786:820   */\n      tag_61\n        /* \"#utility.yul\":795:819   */\n      tag_62\n        /* \"#utility.yul\":813:818   */\n      dup5\n        /* \"#utility.yul\":795:819   */\n      tag_34\n      jump\t// in\n    tag_62:\n        /* \"#utility.yul\":786:820   */\n      tag_35\n      jump\t// in\n    tag_61:\n        /* \"#utility.yul\":768:821   */\n      tag_34\n      jump\t// in\n    tag_60:\n        /* \"#utility.yul\":755:821   */\n      swap1\n      pop\n        /* \"#utility.yul\":685:827   */\n      swap2\n      swap1\n      pop\n      jump\t// out\n        /* \"#utility.yul\":833:959   */\n    tag_37:\n        /* \"#utility.yul\":883:892   */\n      0x00\n        /* \"#utility.yul\":916:953   */\n      tag_64\n        /* \"#utility.yul\":947:952   */\n      dup3\n        /* \"#utility.yul\":916:953   */\n      tag_36\n      jump\t// in\n    tag_64:\n        /* \"#utility.yul\":903:953   */\n      swap1\n      pop\n        /* \"#utility.yul\":833:959   */\n      swap2\n      swap1\n      pop\n      jump\t// out\n        /* \"#utility.yul\":965:1107   */\n    tag_38:\n        /* \"#utility.yul\":1031:1040   */\n      0x00\n        /* \"#utility.yul\":1064:1101   */\n      tag_66\n        /* \"#utility.yul\":1095:1100   */\n      dup3\n        /* \"#utility.yul\":1064:1101   */\n      tag_37\n      jump\t// in\n    tag_66:\n        /* \"#utility.yul\":1051:1101   */\n      swap1\n      pop\n        /* \"#utility.yul\":965:1107   */\n      swap2\n      swap1\n      pop\n      jump\t// out\n        /* \"#utility.yul\":1113:1266   */\n    tag_39:\n        /* \"#utility.yul\":1206:1259   */\n      tag_68\n        /* \"#utility.yul\":1253:1258   */\n      dup2\n        /* \"#utility.yul\":1206:1259   */\n      tag_38\n      jump\t// in\n    tag_68:\n        /* \"#utility.yul\":1201:1204   */\n      dup3\n        /* \"#utility.yul\":1194:1260   */\n      mstore\n        /* \"#utility.yul\":1113:1266   */\n      pop\n      pop\n      jump\t// out\n        /* \"#utility.yul\":1272:1483   */\n    tag_40:\n        /* \"#utility.yul\":1357:1367   */\n      0x00\n        /* \"#utility.yul\":1378:1440   */\n      tag_70\n        /* \"#utility.yul\":1436:1439   */\n      dup4\n        /* \"#utility.yul\":1428:1434   */\n      dup4\n        /* \"#utility.yul\":1378:1440   */\n      tag_39\n      jump\t// in\n    tag_70:\n        /* \"#utility.yul\":1472:1476   */\n      0x20\n        /* \"#utility.yul\":1467:1470   */\n      dup4\n        /* \"#utility.yul\":1463:1477   */\n      add\n        /* \"#utility.yul\":1449:1477   */\n      swap1\n      pop\n        /* \"#utility.yul\":1272:1483   */\n      swap3\n      swap2\n      pop\n      pop\n      jump\t// out\n        /* \"#utility.yul\":1489:1618   */\n    tag_41:\n        /* \"#utility.yul\":1575:1579   */\n      0x00\n        /* \"#utility.yul\":1607:1611   */\n      0x20\n        /* \"#utility.yul\":1602:1605   */\n      dup3\n        /* \"#utility.yul\":1598:1612   */\n      add\n        /* \"#utility.yul\":1590:1612   */\n      swap1\n      pop\n        /* \"#utility.yul\":1489:1618   */\n      swap2\n      swap1\n      pop\n      jump\t// out\n        /* \"#utility.yul\":1664:2476   */\n    tag_42:\n        /* \"#utility.yul\":1799:1802   */\n      0x00\n        /* \"#utility.yul\":1828:1898   */\n      tag_73\n        /* \"#utility.yul\":1892:1897   */\n      dup3\n        /* \"#utility.yul\":1828:1898   */\n      tag_31\n      jump\t// in\n    tag_73:\n        /* \"#utility.yul\":1914:2000   */\n      tag_74\n        /* \"#utility.yul\":1993:1999   */\n      dup2\n        /* \"#utility.yul\":1988:1991   */\n      dup6\n        /* \"#utility.yul\":1914:2000   */\n      tag_32\n      jump\t// in\n    tag_74:\n        /* \"#utility.yul\":1907:2000   */\n      swap4\n      pop\n        /* \"#utility.yul\":2024:2096   */\n      tag_75\n        /* \"#utility.yul\":2090:2095   */\n      dup4\n        /* \"#utility.yul\":2024:2096   */\n      tag_33\n      jump\t// in\n    tag_75:\n        /* \"#utility.yul\":2119:2126   */\n      dup1\n        /* \"#utility.yul\":2150:2151   */\n      0x00\n        /* \"#utility.yul\":2135:2451   */\n    tag_76:\n        /* \"#utility.yul\":2160:2166   */\n      dup4\n        /* \"#utility.yul\":2157:2158   */\n      dup2\n        /* \"#utility.yul\":2154:2167   */\n      lt\n        /* \"#utility.yul\":2135:2451   */\n      iszero\n      tag_78\n      jumpi\n        /* \"#utility.yul\":2236:2242   */\n      dup2\n        /* \"#utility.yul\":2230:2243   */\n      mload\n        /* \"#utility.yul\":2263:2342   */\n      tag_79\n        /* \"#utility.yul\":2338:2341   */\n      dup9\n        /* \"#utility.yul\":2323:2336   */\n      dup3\n        /* \"#utility.yul\":2263:2342   */\n      tag_40\n      jump\t// in\n    tag_79:\n        /* \"#utility.yul\":2256:2342   */\n      swap8\n      pop\n        /* \"#utility.yul\":2365:2441   */\n      tag_80\n        /* \"#utility.yul\":2434:2440   */\n      dup4\n        /* \"#utility.yul\":2365:2441   */\n      tag_41\n      jump\t// in\n    tag_80:\n        /* \"#utility.yul\":2355:2441   */\n      swap3\n      pop\n        /* \"#utility.yul\":2195:2451   */\n      pop\n        /* \"#utility.yul\":2182:2183   */\n      0x01\n        /* \"#utility.yul\":2179:2180   */\n      dup2\n        /* \"#utility.yul\":2175:2184   */\n      add\n        /* \"#utility.yul\":2170:2184   */\n      swap1\n      pop\n        /* \"#utility.yul\":2135:2451   */\n      jump(tag_76)\n    tag_78:\n        /* \"#utility.yul\":2139:2153   */\n      pop\n        /* \"#utility.yul\":2467:2470   */\n      dup6\n        /* \"#utility.yul\":2460:2470   */\n      swap4\n      pop\n        /* \"#utility.yul\":1804:2476   */\n      pop\n      pop\n      pop\n        /* \"#utility.yul\":1664:2476   */\n      swap3\n      swap2\n      pop\n      pop\n      jump\t// out\n        /* \"#utility.yul\":2482:2887   */\n    tag_9:\n        /* \"#utility.yul\":2641:2645   */\n      0x00\n        /* \"#utility.yul\":2679:2681   */\n      0x20\n        /* \"#utility.yul\":2668:2677   */\n      dup3\n        /* \"#utility.yul\":2664:2682   */\n      add\n        /* \"#utility.yul\":2656:2682   */\n      swap1\n      pop\n        /* \"#utility.yul\":2728:2737   */\n      dup2\n        /* \"#utility.yul\":2722:2726   */\n      dup2\n        /* \"#utility.yul\":2718:2738   */\n      sub\n        /* \"#utility.yul\":2714:2715   */\n      0x00\n        /* \"#utility.yul\":2703:2712   */\n      dup4\n        /* \"#utility.yul\":2699:2716   */\n      add\n        /* \"#utility.yul\":2692:2739   */\n      mstore\n        /* \"#utility.yul\":2756:2880   */\n      tag_82\n        /* \"#utility.yul\":2875:2879   */\n      dup2\n        /* \"#utility.yul\":2866:2872   */\n      dup5\n        /* \"#utility.yul\":2756:2880   */\n      tag_42\n      jump\t// in\n    tag_82:\n        /* \"#utility.yul\":2748:2880   */\n      swap1\n      pop\n        /* \"#utility.yul\":2482:2887   */\n      swap3\n      swap2\n      pop\n      pop\n      jump\t// out\n        /* \"#utility.yul\":2974:3091   */\n    tag_44:\n        /* \"#utility.yul\":3083:3084   */\n      0x00\n        /* \"#utility.yul\":3080:3081   */\n      dup1\n        /* \"#utility.yul\":3073:3085   */\n      revert\n        /* \"#utility.yul\":3220:3297   */\n    tag_46:\n        /* \"#utility.yul\":3257:3264   */\n      0x00\n        /* \"#utility.yul\":3286:3291   */\n      dup2\n        /* \"#utility.yul\":3275:3291   */\n      swap1\n      pop\n        /* \"#utility.yul\":3220:3297   */\n      swap2\n      swap1\n      pop\n      jump\t// out\n        /* \"#utility.yul\":3303:3425   */\n    tag_47:\n        /* \"#utility.yul\":3376:3400   */\n      tag_88\n        /* \"#utility.yul\":3394:3399   */\n      dup2\n        /* \"#utility.yul\":3376:3400   */\n      tag_46\n      jump\t// in\n    tag_88:\n        /* \"#utility.yul\":3369:3374   */\n      dup2\n        /* \"#utility.yul\":3366:3401   */\n      eq\n        /* \"#utility.yul\":3356:3419   */\n      tag_89\n      jumpi\n        /* \"#utility.yul\":3415:3416   */\n      0x00\n        /* \"#utility.yul\":3412:3413   */\n      dup1\n        /* \"#utility.yul\":3405:3417   */\n      revert\n        /* \"#utility.yul\":3356:3419   */\n    tag_89:\n        /* \"#utility.yul\":3303:3425   */\n      pop\n      jump\t// out\n        /* \"#utility.yul\":3431:3570   */\n    tag_48:\n        /* \"#utility.yul\":3477:3482   */\n      0x00\n        /* \"#utility.yul\":3515:3521   */\n      dup2\n        /* \"#utility.yul\":3502:3522   */\n      calldataload\n        /* \"#utility.yul\":3493:3522   */\n      swap1\n      pop\n        /* \"#utility.yul\":3531:3564   */\n      tag_91\n        /* \"#utility.yul\":3558:3563   */\n      dup2\n        /* \"#utility.yul\":3531:3564   */\n      tag_47\n      jump\t// in\n    tag_91:\n        /* \"#utility.yul\":3431:3570   */\n      swap3\n      swap2\n      pop\n      pop\n      jump\t// out\n        /* \"#utility.yul\":3576:3905   */\n    tag_12:\n        /* \"#utility.yul\":3635:3641   */\n      0x00\n        /* \"#utility.yul\":3684:3686   */\n      0x20\n        /* \"#utility.yul\":3672:3681   */\n      dup3\n        /* \"#utility.yul\":3663:3670   */\n      dup5\n        /* \"#utility.yul\":3659:3682   */\n      sub\n        /* \"#utility.yul\":3655:3687   */\n      slt\n        /* \"#utility.yul\":3652:3771   */\n      iszero\n      tag_93\n      jumpi\n        /* \"#utility.yul\":3690:3769   */\n      tag_94\n      tag_44\n      jump\t// in\n    tag_94:\n        /* \"#utility.yul\":3652:3771   */\n    tag_93:\n        /* \"#utility.yul\":3810:3811   */\n      0x00\n        /* \"#utility.yul\":3835:3888   */\n      tag_95\n        /* \"#utility.yul\":3880:3887   */\n      dup5\n        /* \"#utility.yul\":3871:3877   */\n      dup3\n        /* \"#utility.yul\":3860:3869   */\n      dup6\n        /* \"#utility.yul\":3856:3878   */\n      add\n        /* \"#utility.yul\":3835:3888   */\n      tag_48\n      jump\t// in\n    tag_95:\n        /* \"#utility.yul\":3825:3888   */\n      swap2\n      pop\n        /* \"#utility.yul\":3781:3898   */\n      pop\n        /* \"#utility.yul\":3576:3905   */\n      swap3\n      swap2\n      pop\n      pop\n      jump\t// out\n        /* \"#utility.yul\":3911:4074   */\n    tag_49:\n        /* \"#utility.yul\":4014:4067   */\n      tag_97\n        /* \"#utility.yul\":4061:4066   */\n      dup2\n        /* \"#utility.yul\":4014:4067   */\n      tag_38\n      jump\t// in\n    tag_97:\n        /* \"#utility.yul\":4009:4012   */\n      dup3\n        /* \"#utility.yul\":4002:4068   */\n      mstore\n        /* \"#utility.yul\":3911:4074   */\n      pop\n      pop\n      jump\t// out\n        /* \"#utility.yul\":4080:4334   */\n    tag_18:\n        /* \"#utility.yul\":4189:4193   */\n      0x00\n        /* \"#utility.yul\":4227:4229   */\n      0x20\n        /* \"#utility.yul\":4216:4225   */\n      dup3\n        /* \"#utility.yul\":4212:4230   */\n      add\n        /* \"#utility.yul\":4204:4230   */\n      swap1\n      pop\n        /* \"#utility.yul\":4240:4327   */\n      tag_99\n        /* \"#utility.yul\":4324:4325   */\n      0x00\n        /* \"#utility.yul\":4313:4322   */\n      dup4\n        /* \"#utility.yul\":4309:4326   */\n      add\n        /* \"#utility.yul\":4300:4306   */\n      dup5\n        /* \"#utility.yul\":4240:4327   */\n      tag_49\n      jump\t// in\n    tag_99:\n        /* \"#utility.yul\":4080:4334   */\n      swap3\n      swap2\n      pop\n      pop\n      jump\t// out\n        /* \"#utility.yul\":4340:4458   */\n    tag_50:\n        /* \"#utility.yul\":4427:4451   */\n      tag_101\n        /* \"#utility.yul\":4445:4450   */\n      dup2\n        /* \"#utility.yul\":4427:4451   */\n      tag_46\n      jump\t// in\n    tag_101:\n        /* \"#utility.yul\":4422:4425   */\n      dup3\n        /* \"#utility.yul\":4415:4452   */\n      mstore\n        /* \"#utility.yul\":4340:4458   */\n      pop\n      pop\n      jump\t// out\n        /* \"#utility.yul\":4464:4560   */\n    tag_51:\n        /* \"#utility.yul\":4501:4508   */\n      0x00\n        /* \"#utility.yul\":4530:4554   */\n      tag_103\n        /* \"#utility.yul\":4548:4553   */\n      dup3\n        /* \"#utility.yul\":4530:4554   */\n      tag_34\n      jump\t// in\n    tag_103:\n        /* \"#utility.yul\":4519:4554   */\n      swap1\n      pop\n        /* \"#utility.yul\":4464:4560   */\n      swap2\n      swap1\n      pop\n      jump\t// out\n        /* \"#utility.yul\":4566:4684   */\n    tag_52:\n        /* \"#utility.yul\":4653:4677   */\n      tag_105\n        /* \"#utility.yul\":4671:4676   */\n      dup2\n        /* \"#utility.yul\":4653:4677   */\n      tag_51\n      jump\t// in\n    tag_105:\n        /* \"#utility.yul\":4648:4651   */\n      dup3\n        /* \"#utility.yul\":4641:4678   */\n      mstore\n        /* \"#utility.yul\":4566:4684   */\n      pop\n      pop\n      jump\t// out\n        /* \"#utility.yul\":4690:5022   */\n    tag_26:\n        /* \"#utility.yul\":4811:4815   */\n      0x00\n        /* \"#utility.yul\":4849:4851   */\n      0x40\n        /* \"#utility.yul\":4838:4847   */\n      dup3\n        /* \"#utility.yul\":4834:4852   */\n      add\n        /* \"#utility.yul\":4826:4852   */\n      swap1\n      pop\n        /* \"#utility.yul\":4862:4933   */\n      tag_107\n        /* \"#utility.yul\":4930:4931   */\n      0x00\n        /* \"#utility.yul\":4919:4928   */\n      dup4\n        /* \"#utility.yul\":4915:4932   */\n      add\n        /* \"#utility.yul\":4906:4912   */\n      dup6\n        /* \"#utility.yul\":4862:4933   */\n      tag_50\n      jump\t// in\n    tag_107:\n        /* \"#utility.yul\":4943:5015   */\n      tag_108\n        /* \"#utility.yul\":5011:5013   */\n      0x20\n        /* \"#utility.yul\":5000:5009   */\n      dup4\n        /* \"#utility.yul\":4996:5014   */\n      add\n        /* \"#utility.yul\":4987:4993   */\n      dup5\n        /* \"#utility.yul\":4943:5015   */\n      tag_52\n      jump\t// in\n    tag_108:\n        /* \"#utility.yul\":4690:5022   */\n      swap4\n      swap3\n      pop\n      pop\n      pop\n      jump\t// out\n    stop\n\n    sub_0: assembly {\n            /* \"Campaign.sol\":420:2482  contract Campaign {... */\n          mstore(0x40, 0x80)\n            /* \"Campaign.sol\":889:1008  constructor(uint256 minimum, address creator) {... */\n          callvalue\n          dup1\n          iszero\n          tag_1\n          jumpi\n          0x00\n          dup1\n          revert\n        tag_1:\n          pop\n          mload(0x40)\n          sub(codesize, bytecodeSize)\n          dup1\n          bytecodeSize\n          dup4\n          codecopy\n          dup2\n          dup2\n          add\n          0x40\n          mstore\n          dup2\n          add\n          swap1\n          tag_2\n          swap2\n          swap1\n          tag_3\n          jump\t// in\n        tag_2:\n            /* \"Campaign.sol\":955:962  creator */\n          dup1\n            /* \"Campaign.sol\":945:952  manager */\n          0x00\n          dup1\n            /* \"Campaign.sol\":945:962  manager = creator */\n          0x0100\n          exp\n          dup2\n          sload\n          dup2\n          0xffffffffffffffffffffffffffffffffffffffff\n          mul\n          not\n          and\n          swap1\n          dup4\n          0xffffffffffffffffffffffffffffffffffffffff\n          and\n          mul\n          or\n          swap1\n          sstore\n          pop\n            /* \"Campaign.sol\":994:1001  minimum */\n          dup2\n            /* \"Campaign.sol\":972:991  minimumContribution */\n          0x01\n            /* \"Campaign.sol\":972:1001  minimumContribution = minimum */\n          dup2\n          swap1\n          sstore\n          pop\n            /* \"Campaign.sol\":889:1008  constructor(uint256 minimum, address creator) {... */\n          pop\n          pop\n            /* \"Campaign.sol\":420:2482  contract Campaign {... */\n          jump(tag_6)\n            /* \"#utility.yul\":88:205   */\n        tag_8:\n            /* \"#utility.yul\":197:198   */\n          0x00\n            /* \"#utility.yul\":194:195   */\n          dup1\n            /* \"#utility.yul\":187:199   */\n          revert\n            /* \"#utility.yul\":334:411   */\n        tag_10:\n            /* \"#utility.yul\":371:378   */\n          0x00\n            /* \"#utility.yul\":400:405   */\n          dup2\n            /* \"#utility.yul\":389:405   */\n          swap1\n          pop\n            /* \"#utility.yul\":334:411   */\n          swap2\n          swap1\n          pop\n          jump\t// out\n            /* \"#utility.yul\":417:539   */\n        tag_11:\n            /* \"#utility.yul\":490:514   */\n          tag_23\n            /* \"#utility.yul\":508:513   */\n          dup2\n            /* \"#utility.yul\":490:514   */\n          tag_10\n          jump\t// in\n        tag_23:\n            /* \"#utility.yul\":483:488   */\n          dup2\n            /* \"#utility.yul\":480:515   */\n          eq\n            /* \"#utility.yul\":470:533   */\n          tag_24\n          jumpi\n            /* \"#utility.yul\":529:530   */\n          0x00\n            /* \"#utility.yul\":526:527   */\n          dup1\n            /* \"#utility.yul\":519:531   */\n          revert\n            /* \"#utility.yul\":470:533   */\n        tag_24:\n            /* \"#utility.yul\":417:539   */\n          pop\n          jump\t// out\n            /* \"#utility.yul\":545:688   */\n        tag_12:\n            /* \"#utility.yul\":602:607   */\n          0x00\n            /* \"#utility.yul\":633:639   */\n          dup2\n            /* \"#utility.yul\":627:640   */\n          mload\n            /* \"#utility.yul\":618:640   */\n          swap1\n          pop\n            /* \"#utility.yul\":649:682   */\n          tag_26\n            /* \"#utility.yul\":676:681   */\n          dup2\n            /* \"#utility.yul\":649:682   */\n          tag_11\n          jump\t// in\n        tag_26:\n            /* \"#utility.yul\":545:688   */\n          swap3\n          swap2\n          pop\n          pop\n          jump\t// out\n            /* \"#utility.yul\":694:820   */\n        tag_13:\n            /* \"#utility.yul\":731:738   */\n          0x00\n            /* \"#utility.yul\":771:813   */\n          0xffffffffffffffffffffffffffffffffffffffff\n            /* \"#utility.yul\":764:769   */\n          dup3\n            /* \"#utility.yul\":760:814   */\n          and\n            /* \"#utility.yul\":749:814   */\n          swap1\n          pop\n            /* \"#utility.yul\":694:820   */\n          swap2\n          swap1\n          pop\n          jump\t// out\n            /* \"#utility.yul\":826:922   */\n        tag_14:\n            /* \"#utility.yul\":863:870   */\n          0x00\n            /* \"#utility.yul\":892:916   */\n          tag_29\n            /* \"#utility.yul\":910:915   */\n          dup3\n            /* \"#utility.yul\":892:916   */\n          tag_13\n          jump\t// in\n        tag_29:\n            /* \"#utility.yul\":881:916   */\n          swap1\n          pop\n            /* \"#utility.yul\":826:922   */\n          swap2\n          swap1\n          pop\n          jump\t// out\n            /* \"#utility.yul\":928:1050   */\n        tag_15:\n            /* \"#utility.yul\":1001:1025   */\n          tag_31\n            /* \"#utility.yul\":1019:1024   */\n          dup2\n            /* \"#utility.yul\":1001:1025   */\n          tag_14\n          jump\t// in\n        tag_31:\n            /* \"#utility.yul\":994:999   */\n          dup2\n            /* \"#utility.yul\":991:1026   */\n          eq\n            /* \"#utility.yul\":981:1044   */\n          tag_32\n          jumpi\n            /* \"#utility.yul\":1040:1041   */\n          0x00\n            /* \"#utility.yul\":1037:1038   */\n          dup1\n            /* \"#utility.yul\":1030:1042   */\n          revert\n            /* \"#utility.yul\":981:1044   */\n        tag_32:\n            /* \"#utility.yul\":928:1050   */\n          pop\n          jump\t// out\n            /* \"#utility.yul\":1056:1199   */\n        tag_16:\n            /* \"#utility.yul\":1113:1118   */\n          0x00\n            /* \"#utility.yul\":1144:1150   */\n          dup2\n            /* \"#utility.yul\":1138:1151   */\n          mload\n            /* \"#utility.yul\":1129:1151   */\n          swap1\n          pop\n            /* \"#utility.yul\":1160:1193   */\n          tag_34\n            /* \"#utility.yul\":1187:1192   */\n          dup2\n            /* \"#utility.yul\":1160:1193   */\n          tag_15\n          jump\t// in\n        tag_34:\n            /* \"#utility.yul\":1056:1199   */\n          swap3\n          swap2\n          pop\n          pop\n          jump\t// out\n            /* \"#utility.yul\":1205:1712   */\n        tag_3:\n            /* \"#utility.yul\":1284:1290   */\n          0x00\n            /* \"#utility.yul\":1292:1298   */\n          dup1\n            /* \"#utility.yul\":1341:1343   */\n          0x40\n            /* \"#utility.yul\":1329:1338   */\n          dup4\n            /* \"#utility.yul\":1320:1327   */\n          dup6\n            /* \"#utility.yul\":1316:1339   */\n          sub\n            /* \"#utility.yul\":1312:1344   */\n          slt\n            /* \"#utility.yul\":1309:1428   */\n          iszero\n          tag_36\n          jumpi\n            /* \"#utility.yul\":1347:1426   */\n          tag_37\n          tag_8\n          jump\t// in\n        tag_37:\n            /* \"#utility.yul\":1309:1428   */\n        tag_36:\n            /* \"#utility.yul\":1467:1468   */\n          0x00\n            /* \"#utility.yul\":1492:1556   */\n          tag_38\n            /* \"#utility.yul\":1548:1555   */\n          dup6\n            /* \"#utility.yul\":1539:1545   */\n          dup3\n            /* \"#utility.yul\":1528:1537   */\n          dup7\n            /* \"#utility.yul\":1524:1546   */\n          add\n            /* \"#utility.yul\":1492:1556   */\n          tag_12\n          jump\t// in\n        tag_38:\n            /* \"#utility.yul\":1482:1556   */\n          swap3\n          pop\n            /* \"#utility.yul\":1438:1566   */\n          pop\n            /* \"#utility.yul\":1605:1607   */\n          0x20\n            /* \"#utility.yul\":1631:1695   */\n          tag_39\n            /* \"#utility.yul\":1687:1694   */\n          dup6\n            /* \"#utility.yul\":1678:1684   */\n          dup3\n            /* \"#utility.yul\":1667:1676   */\n          dup7\n            /* \"#utility.yul\":1663:1685   */\n          add\n            /* \"#utility.yul\":1631:1695   */\n          tag_16\n          jump\t// in\n        tag_39:\n            /* \"#utility.yul\":1621:1695   */\n          swap2\n          pop\n            /* \"#utility.yul\":1576:1705   */\n          pop\n            /* \"#utility.yul\":1205:1712   */\n          swap3\n          pop\n          swap3\n          swap1\n          pop\n          jump\t// out\n            /* \"Campaign.sol\":420:2482  contract Campaign {... */\n        tag_6:\n          dataSize(sub_0)\n          dup1\n          dataOffset(sub_0)\n          0x00\n          codecopy\n          0x00\n          return\n        stop\n\n        sub_0: assembly {\n                /* \"Campaign.sol\":420:2482  contract Campaign {... */\n              mstore(0x40, 0x80)\n              jumpi(tag_1, lt(calldatasize, 0x04))\n              shr(0xe0, calldataload(0x00))\n              dup1\n              0x937e09b1\n              gt\n              tag_12\n              jumpi\n              dup1\n              0x937e09b1\n              eq\n              tag_7\n              jumpi\n              dup1\n              0x9fb42b1f\n              eq\n              tag_8\n              jumpi\n              dup1\n              0xd7bb99ba\n              eq\n              tag_9\n              jumpi\n              dup1\n              0xd7d1bbdb\n              eq\n              tag_10\n              jumpi\n              dup1\n              0xf00a7f4f\n              eq\n              tag_11\n              jumpi\n              jump(tag_1)\n            tag_12:\n              dup1\n              0x0a144391\n              eq\n              tag_2\n              jumpi\n              dup1\n              0x481c6a75\n              eq\n              tag_3\n              jumpi\n              dup1\n              0x81d12c58\n              eq\n              tag_4\n              jumpi\n              dup1\n              0x82fde093\n              eq\n              tag_5\n              jumpi\n              dup1\n              0x8a9cfd55\n              eq\n              tag_6\n              jumpi\n            tag_1:\n              0x00\n              dup1\n              revert\n                /* \"Campaign.sol\":724:765  mapping(address => bool) public approvers */\n            tag_2:\n              callvalue\n              dup1\n              iszero\n              tag_13\n              jumpi\n              0x00\n              dup1\n              revert\n            tag_13:\n              pop\n              tag_14\n              0x04\n              dup1\n              calldatasize\n              sub\n              dup2\n              add\n              swap1\n              tag_15\n              swap2\n              swap1\n              tag_16\n              jump\t// in\n            tag_15:\n              tag_17\n              jump\t// in\n            tag_14:\n              mload(0x40)\n              tag_18\n              swap2\n              swap1\n              tag_19\n              jump\t// in\n            tag_18:\n              mload(0x40)\n              dup1\n              swap2\n              sub\n              swap1\n              return\n                /* \"Campaign.sol\":656:678  address public manager */\n            tag_3:\n              callvalue\n              dup1\n              iszero\n              tag_20\n              jumpi\n              0x00\n              dup1\n              revert\n            tag_20:\n              pop\n              tag_21\n              tag_22\n              jump\t// in\n            tag_21:\n              mload(0x40)\n              tag_23\n              swap2\n              swap1\n              tag_24\n              jump\t// in\n            tag_23:\n              mload(0x40)\n              dup1\n              swap2\n              sub\n              swap1\n              return\n                /* \"Campaign.sol\":839:882  mapping(uint256 => Request) public requests */\n            tag_4:\n              callvalue\n              dup1\n              iszero\n              tag_25\n              jumpi\n              0x00\n              dup1\n              revert\n            tag_25:\n              pop\n              tag_26\n              0x04\n              dup1\n              calldatasize\n              sub\n              dup2\n              add\n              swap1\n              tag_27\n              swap2\n              swap1\n              tag_28\n              jump\t// in\n            tag_27:\n              tag_29\n              jump\t// in\n            tag_26:\n              mload(0x40)\n              tag_30\n              swap6\n              swap5\n              swap4\n              swap3\n              swap2\n              swap1\n              tag_31\n              jump\t// in\n            tag_30:\n              mload(0x40)\n              dup1\n              swap2\n              sub\n              swap1\n              return\n                /* \"Campaign.sol\":771:800  uint256 public approversCount */\n            tag_5:\n              callvalue\n              dup1\n              iszero\n              tag_32\n              jumpi\n              0x00\n              dup1\n              revert\n            tag_32:\n              pop\n              tag_33\n              tag_34\n              jump\t// in\n            tag_33:\n              mload(0x40)\n              tag_35\n              swap2\n              swap1\n              tag_36\n              jump\t// in\n            tag_35:\n              mload(0x40)\n              dup1\n              swap2\n              sub\n              swap1\n              return\n                /* \"Campaign.sol\":1339:1691  function createRequest(... */\n            tag_6:\n              callvalue\n              dup1\n              iszero\n              tag_37\n              jumpi\n              0x00\n              dup1\n              revert\n            tag_37:\n              pop\n              tag_38\n              0x04\n              dup1\n              calldatasize\n              sub\n              dup2\n              add\n              swap1\n              tag_39\n              swap2\n              swap1\n              tag_40\n              jump\t// in\n            tag_39:\n              tag_41\n              jump\t// in\n            tag_38:\n              stop\n                /* \"Campaign.sol\":684:718  uint256 public minimumContribution */\n            tag_7:\n              callvalue\n              dup1\n              iszero\n              tag_42\n              jumpi\n              0x00\n              dup1\n              revert\n            tag_42:\n              pop\n              tag_43\n              tag_44\n              jump\t// in\n            tag_43:\n              mload(0x40)\n              tag_45\n              swap2\n              swap1\n              tag_36\n              jump\t// in\n            tag_45:\n              mload(0x40)\n              dup1\n              swap2\n              sub\n              swap1\n              return\n                /* \"Campaign.sol\":807:833  uint256 public numRequests */\n            tag_8:\n              callvalue\n              dup1\n              iszero\n              tag_46\n              jumpi\n              0x00\n              dup1\n              revert\n            tag_46:\n              pop\n              tag_47\n              tag_48\n              jump\t// in\n            tag_47:\n              mload(0x40)\n              tag_49\n              swap2\n              swap1\n              tag_36\n              jump\t// in\n            tag_49:\n              mload(0x40)\n              dup1\n              swap2\n              sub\n              swap1\n              return\n                /* \"Campaign.sol\":1100:1333  function contribute() public payable {... */\n            tag_9:\n              tag_50\n              tag_51\n              jump\t// in\n            tag_50:\n              stop\n                /* \"Campaign.sol\":1697:2072  function approveRequest(uint256 index) public {... */\n            tag_10:\n              callvalue\n              dup1\n              iszero\n              tag_52\n              jumpi\n              0x00\n              dup1\n              revert\n            tag_52:\n              pop\n              tag_53\n              0x04\n              dup1\n              calldatasize\n              sub\n              dup2\n              add\n              swap1\n              tag_54\n              swap2\n              swap1\n              tag_28\n              jump\t// in\n            tag_54:\n              tag_55\n              jump\t// in\n            tag_53:\n              stop\n                /* \"Campaign.sol\":2078:2480  function finalizeApprove(uint256 index) public restricted {... */\n            tag_11:\n              callvalue\n              dup1\n              iszero\n              tag_56\n              jumpi\n              0x00\n              dup1\n              revert\n            tag_56:\n              pop\n              tag_57\n              0x04\n              dup1\n              calldatasize\n              sub\n              dup2\n              add\n              swap1\n              tag_58\n              swap2\n              swap1\n              tag_28\n              jump\t// in\n            tag_58:\n              tag_59\n              jump\t// in\n            tag_57:\n              stop\n                /* \"Campaign.sol\":724:765  mapping(address => bool) public approvers */\n            tag_17:\n              mstore(0x20, 0x02)\n              dup1\n              0x00\n              mstore\n              keccak256(0x00, 0x40)\n              0x00\n              swap2\n              pop\n              sload\n              swap1\n              0x0100\n              exp\n              swap1\n              div\n              0xff\n              and\n              dup2\n              jump\t// out\n                /* \"Campaign.sol\":656:678  address public manager */\n            tag_22:\n              0x00\n              dup1\n              sload\n              swap1\n              0x0100\n              exp\n              swap1\n              div\n              0xffffffffffffffffffffffffffffffffffffffff\n              and\n              dup2\n              jump\t// out\n                /* \"Campaign.sol\":839:882  mapping(uint256 => Request) public requests */\n            tag_29:\n              mstore(0x20, 0x05)\n              dup1\n              0x00\n              mstore\n              keccak256(0x00, 0x40)\n              0x00\n              swap2\n              pop\n              swap1\n              pop\n              dup1\n              0x00\n              add\n              dup1\n              sload\n              tag_60\n              swap1\n              tag_61\n              jump\t// in\n            tag_60:\n              dup1\n              0x1f\n              add\n              0x20\n              dup1\n              swap2\n              div\n              mul\n              0x20\n              add\n              mload(0x40)\n              swap1\n              dup2\n              add\n              0x40\n              mstore\n              dup1\n              swap3\n              swap2\n              swap1\n              dup2\n              dup2\n              mstore\n              0x20\n              add\n              dup3\n              dup1\n              sload\n              tag_62\n              swap1\n              tag_61\n              jump\t// in\n            tag_62:\n              dup1\n              iszero\n              tag_63\n              jumpi\n              dup1\n              0x1f\n              lt\n              tag_64\n              jumpi\n              0x0100\n              dup1\n              dup4\n              sload\n              div\n              mul\n              dup4\n              mstore\n              swap2\n              0x20\n              add\n              swap2\n              jump(tag_63)\n            tag_64:\n              dup3\n              add\n              swap2\n              swap1\n              0x00\n              mstore\n              keccak256(0x00, 0x20)\n              swap1\n            tag_65:\n              dup2\n              sload\n              dup2\n              mstore\n              swap1\n              0x01\n              add\n              swap1\n              0x20\n              add\n              dup1\n              dup4\n              gt\n              tag_65\n              jumpi\n              dup3\n              swap1\n              sub\n              0x1f\n              and\n              dup3\n              add\n              swap2\n            tag_63:\n              pop\n              pop\n              pop\n              pop\n              pop\n              swap1\n              dup1\n              0x01\n              add\n              sload\n              swap1\n              dup1\n              0x02\n              add\n              0x00\n              swap1\n              sload\n              swap1\n              0x0100\n              exp\n              swap1\n              div\n              0xffffffffffffffffffffffffffffffffffffffff\n              and\n              swap1\n              dup1\n              0x02\n              add\n              0x14\n              swap1\n              sload\n              swap1\n              0x0100\n              exp\n              swap1\n              div\n              0xff\n              and\n              swap1\n              dup1\n              0x04\n              add\n              sload\n              swap1\n              pop\n              dup6\n              jump\t// out\n                /* \"Campaign.sol\":771:800  uint256 public approversCount */\n            tag_34:\n              sload(0x03)\n              dup2\n              jump\t// out\n                /* \"Campaign.sol\":1339:1691  function createRequest(... */\n            tag_41:\n                /* \"Campaign.sol\":1068:1075  manager */\n              0x00\n              dup1\n              sload\n              swap1\n              0x0100\n              exp\n              swap1\n              div\n              0xffffffffffffffffffffffffffffffffffffffff\n              and\n                /* \"Campaign.sol\":1054:1075  msg.sender == manager */\n              0xffffffffffffffffffffffffffffffffffffffff\n              and\n                /* \"Campaign.sol\":1054:1064  msg.sender */\n              caller\n                /* \"Campaign.sol\":1054:1075  msg.sender == manager */\n              0xffffffffffffffffffffffffffffffffffffffff\n              and\n              eq\n                /* \"Campaign.sol\":1046:1076  require(msg.sender == manager) */\n              tag_67\n              jumpi\n              0x00\n              dup1\n              revert\n            tag_67:\n                /* \"Campaign.sol\":1489:1506  Request storage r */\n              0x00\n                /* \"Campaign.sol\":1509:1517  requests */\n              0x05\n                /* \"Campaign.sol\":1509:1532  requests[numRequests++] */\n              0x00\n                /* \"Campaign.sol\":1518:1529  numRequests */\n              0x04\n              0x00\n                /* \"Campaign.sol\":1518:1531  numRequests++ */\n              dup2\n              sload\n              dup1\n              swap3\n              swap2\n              swap1\n              tag_69\n              swap1\n              tag_70\n              jump\t// in\n            tag_69:\n              swap2\n              swap1\n              pop\n              sstore\n                /* \"Campaign.sol\":1509:1532  requests[numRequests++] */\n              dup2\n              mstore\n              0x20\n              add\n              swap1\n              dup2\n              mstore\n              0x20\n              add\n              0x00\n              keccak256\n                /* \"Campaign.sol\":1489:1532  Request storage r = requests[numRequests++] */\n              swap1\n              pop\n                /* \"Campaign.sol\":1558:1569  description */\n              dup4\n                /* \"Campaign.sol\":1542:1543  r */\n              dup2\n                /* \"Campaign.sol\":1542:1555  r.description */\n              0x00\n              add\n                /* \"Campaign.sol\":1542:1569  r.description = description */\n              swap1\n              dup1\n              mload\n              swap1\n              0x20\n              add\n              swap1\n              tag_71\n              swap3\n              swap2\n              swap1\n              tag_72\n              jump\t// in\n            tag_71:\n              pop\n                /* \"Campaign.sol\":1589:1594  value */\n              dup3\n                /* \"Campaign.sol\":1579:1580  r */\n              dup2\n                /* \"Campaign.sol\":1579:1586  r.value */\n              0x01\n              add\n                /* \"Campaign.sol\":1579:1594  r.value = value */\n              dup2\n              swap1\n              sstore\n              pop\n                /* \"Campaign.sol\":1618:1627  recipient */\n              dup2\n                /* \"Campaign.sol\":1604:1605  r */\n              dup2\n                /* \"Campaign.sol\":1604:1615  r.recipient */\n              0x02\n              add\n              0x00\n                /* \"Campaign.sol\":1604:1627  r.recipient = recipient */\n              0x0100\n              exp\n              dup2\n              sload\n              dup2\n              0xffffffffffffffffffffffffffffffffffffffff\n              mul\n              not\n              and\n              swap1\n              dup4\n              0xffffffffffffffffffffffffffffffffffffffff\n              and\n              mul\n              or\n              swap1\n              sstore\n              pop\n                /* \"Campaign.sol\":1650:1655  false */\n              0x00\n                /* \"Campaign.sol\":1637:1638  r */\n              dup2\n                /* \"Campaign.sol\":1637:1647  r.complete */\n              0x02\n              add\n              0x14\n                /* \"Campaign.sol\":1637:1655  r.complete = false */\n              0x0100\n              exp\n              dup2\n              sload\n              dup2\n              0xff\n              mul\n              not\n              and\n              swap1\n              dup4\n              iszero\n              iszero\n              mul\n              or\n              swap1\n              sstore\n              pop\n                /* \"Campaign.sol\":1683:1684  0 */\n              0x00\n                /* \"Campaign.sol\":1665:1666  r */\n              dup2\n                /* \"Campaign.sol\":1665:1680  r.approvalCount */\n              0x04\n              add\n                /* \"Campaign.sol\":1665:1684  r.approvalCount = 0 */\n              dup2\n              swap1\n              sstore\n              pop\n                /* \"Campaign.sol\":1479:1691  {... */\n              pop\n                /* \"Campaign.sol\":1339:1691  function createRequest(... */\n              pop\n              pop\n              pop\n              jump\t// out\n                /* \"Campaign.sol\":684:718  uint256 public minimumContribution */\n            tag_44:\n              sload(0x01)\n              dup2\n              jump\t// out\n                /* \"Campaign.sol\":807:833  uint256 public numRequests */\n            tag_48:\n              sload(0x04)\n              dup2\n              jump\t// out\n                /* \"Campaign.sol\":1100:1333  function contribute() public payable {... */\n            tag_51:\n                /* \"Campaign.sol\":1190:1199  msg.value */\n              callvalue\n                /* \"Campaign.sol\":1168:1187  minimumContribution */\n              sload(0x01)\n                /* \"Campaign.sol\":1168:1199  minimumContribution < msg.value */\n              lt\n                /* \"Campaign.sol\":1147:1262  require(... */\n              tag_74\n              jumpi\n              mload(0x40)\n              0x08c379a000000000000000000000000000000000000000000000000000000000\n              dup2\n              mstore\n              0x04\n              add\n              tag_75\n              swap1\n              tag_76\n              jump\t// in\n            tag_75:\n              mload(0x40)\n              dup1\n              swap2\n              sub\n              swap1\n              revert\n            tag_74:\n                /* \"Campaign.sol\":1296:1300  true */\n              0x01\n                /* \"Campaign.sol\":1272:1281  approvers */\n              0x02\n                /* \"Campaign.sol\":1272:1293  approvers[msg.sender] */\n              0x00\n                /* \"Campaign.sol\":1282:1292  msg.sender */\n              caller\n                /* \"Campaign.sol\":1272:1293  approvers[msg.sender] */\n              0xffffffffffffffffffffffffffffffffffffffff\n              and\n              0xffffffffffffffffffffffffffffffffffffffff\n              and\n              dup2\n              mstore\n              0x20\n              add\n              swap1\n              dup2\n              mstore\n              0x20\n              add\n              0x00\n              keccak256\n              0x00\n                /* \"Campaign.sol\":1272:1300  approvers[msg.sender] = true */\n              0x0100\n              exp\n              dup2\n              sload\n              dup2\n              0xff\n              mul\n              not\n              and\n              swap1\n              dup4\n              iszero\n              iszero\n              mul\n              or\n              swap1\n              sstore\n              pop\n                /* \"Campaign.sol\":1310:1324  approversCount */\n              0x03\n              0x00\n                /* \"Campaign.sol\":1310:1326  approversCount++ */\n              dup2\n              sload\n              dup1\n              swap3\n              swap2\n              swap1\n              tag_77\n              swap1\n              tag_70\n              jump\t// in\n            tag_77:\n              swap2\n              swap1\n              pop\n              sstore\n              pop\n                /* \"Campaign.sol\":1100:1333  function contribute() public payable {... */\n              jump\t// out\n                /* \"Campaign.sol\":1697:2072  function approveRequest(uint256 index) public {... */\n            tag_55:\n                /* \"Campaign.sol\":1753:1776  Request storage request */\n              0x00\n                /* \"Campaign.sol\":1779:1787  requests */\n              0x05\n                /* \"Campaign.sol\":1779:1794  requests[index] */\n              0x00\n                /* \"Campaign.sol\":1788:1793  index */\n              dup4\n                /* \"Campaign.sol\":1779:1794  requests[index] */\n              dup2\n              mstore\n              0x20\n              add\n              swap1\n              dup2\n              mstore\n              0x20\n              add\n              0x00\n              keccak256\n                /* \"Campaign.sol\":1753:1794  Request storage request = requests[index] */\n              swap1\n              pop\n                /* \"Campaign.sol\":1825:1834  approvers */\n              0x02\n                /* \"Campaign.sol\":1825:1846  approvers[msg.sender] */\n              0x00\n                /* \"Campaign.sol\":1835:1845  msg.sender */\n              caller\n                /* \"Campaign.sol\":1825:1846  approvers[msg.sender] */\n              0xffffffffffffffffffffffffffffffffffffffff\n              and\n              0xffffffffffffffffffffffffffffffffffffffff\n              and\n              dup2\n              mstore\n              0x20\n              add\n              swap1\n              dup2\n              mstore\n              0x20\n              add\n              0x00\n              keccak256\n              0x00\n              swap1\n              sload\n              swap1\n              0x0100\n              exp\n              swap1\n              div\n              0xff\n              and\n                /* \"Campaign.sol\":1804:1910  require(... */\n              tag_79\n              jumpi\n              mload(0x40)\n              0x08c379a000000000000000000000000000000000000000000000000000000000\n              dup2\n              mstore\n              0x04\n              add\n              tag_80\n              swap1\n              tag_81\n              jump\t// in\n            tag_80:\n              mload(0x40)\n              dup1\n              swap2\n              sub\n              swap1\n              revert\n            tag_79:\n                /* \"Campaign.sol\":1929:1936  request */\n              dup1\n                /* \"Campaign.sol\":1929:1946  request.approvals */\n              0x03\n              add\n                /* \"Campaign.sol\":1929:1958  request.approvals[msg.sender] */\n              0x00\n                /* \"Campaign.sol\":1947:1957  msg.sender */\n              caller\n                /* \"Campaign.sol\":1929:1958  request.approvals[msg.sender] */\n              0xffffffffffffffffffffffffffffffffffffffff\n              and\n              0xffffffffffffffffffffffffffffffffffffffff\n              and\n              dup2\n              mstore\n              0x20\n              add\n              swap1\n              dup2\n              mstore\n              0x20\n              add\n              0x00\n              keccak256\n              0x00\n              swap1\n              sload\n              swap1\n              0x0100\n              exp\n              swap1\n              div\n              0xff\n              and\n                /* \"Campaign.sol\":1928:1958  !request.approvals[msg.sender] */\n              iszero\n                /* \"Campaign.sol\":1920:1985  require(!request.approvals[msg.sender], \"You can vote only once\") */\n              tag_82\n              jumpi\n              mload(0x40)\n              0x08c379a000000000000000000000000000000000000000000000000000000000\n              dup2\n              mstore\n              0x04\n              add\n              tag_83\n              swap1\n              tag_84\n              jump\t// in\n            tag_83:\n              mload(0x40)\n              dup1\n              swap2\n              sub\n              swap1\n              revert\n            tag_82:\n                /* \"Campaign.sol\":2028:2032  true */\n              0x01\n                /* \"Campaign.sol\":1996:2003  request */\n              dup2\n                /* \"Campaign.sol\":1996:2013  request.approvals */\n              0x03\n              add\n                /* \"Campaign.sol\":1996:2025  request.approvals[msg.sender] */\n              0x00\n                /* \"Campaign.sol\":2014:2024  msg.sender */\n              caller\n                /* \"Campaign.sol\":1996:2025  request.approvals[msg.sender] */\n              0xffffffffffffffffffffffffffffffffffffffff\n              and\n              0xffffffffffffffffffffffffffffffffffffffff\n              and\n              dup2\n              mstore\n              0x20\n              add\n              swap1\n              dup2\n              mstore\n              0x20\n              add\n              0x00\n              keccak256\n              0x00\n                /* \"Campaign.sol\":1996:2032  request.approvals[msg.sender] = true */\n              0x0100\n              exp\n              dup2\n              sload\n              dup2\n              0xff\n              mul\n              not\n              and\n              swap1\n              dup4\n              iszero\n              iszero\n              mul\n              or\n              swap1\n              sstore\n              pop\n                /* \"Campaign.sol\":2042:2049  request */\n              dup1\n                /* \"Campaign.sol\":2042:2063  request.approvalCount */\n              0x04\n              add\n              0x00\n                /* \"Campaign.sol\":2042:2065  request.approvalCount++ */\n              dup2\n              sload\n              dup1\n              swap3\n              swap2\n              swap1\n              tag_85\n              swap1\n              tag_70\n              jump\t// in\n            tag_85:\n              swap2\n              swap1\n              pop\n              sstore\n              pop\n                /* \"Campaign.sol\":1743:2072  {... */\n              pop\n                /* \"Campaign.sol\":1697:2072  function approveRequest(uint256 index) public {... */\n              pop\n              jump\t// out\n                /* \"Campaign.sol\":2078:2480  function finalizeApprove(uint256 index) public restricted {... */\n            tag_59:\n                /* \"Campaign.sol\":1068:1075  manager */\n              0x00\n              dup1\n              sload\n              swap1\n              0x0100\n              exp\n              swap1\n              div\n              0xffffffffffffffffffffffffffffffffffffffff\n              and\n                /* \"Campaign.sol\":1054:1075  msg.sender == manager */\n              0xffffffffffffffffffffffffffffffffffffffff\n              and\n                /* \"Campaign.sol\":1054:1064  msg.sender */\n              caller\n                /* \"Campaign.sol\":1054:1075  msg.sender == manager */\n              0xffffffffffffffffffffffffffffffffffffffff\n              and\n              eq\n                /* \"Campaign.sol\":1046:1076  require(msg.sender == manager) */\n              tag_87\n              jumpi\n              0x00\n              dup1\n              revert\n            tag_87:\n                /* \"Campaign.sol\":2146:2169  Request storage request */\n              0x00\n                /* \"Campaign.sol\":2172:2180  requests */\n              0x05\n                /* \"Campaign.sol\":2172:2187  requests[index] */\n              0x00\n                /* \"Campaign.sol\":2181:2186  index */\n              dup4\n                /* \"Campaign.sol\":2172:2187  requests[index] */\n              dup2\n              mstore\n              0x20\n              add\n              swap1\n              dup2\n              mstore\n              0x20\n              add\n              0x00\n              keccak256\n                /* \"Campaign.sol\":2146:2187  Request storage request = requests[index] */\n              swap1\n              pop\n                /* \"Campaign.sol\":2260:2261  2 */\n              0x02\n                /* \"Campaign.sol\":2243:2257  approversCount */\n              sload(0x03)\n                /* \"Campaign.sol\":2243:2261  approversCount / 2 */\n              tag_89\n              swap2\n              swap1\n              tag_90\n              jump\t// in\n            tag_89:\n                /* \"Campaign.sol\":2218:2225  request */\n              dup2\n                /* \"Campaign.sol\":2218:2239  request.approvalCount */\n              0x04\n              add\n              sload\n                /* \"Campaign.sol\":2218:2262  request.approvalCount > (approversCount / 2) */\n              gt\n                /* \"Campaign.sol\":2197:2323  require(... */\n              tag_91\n              jumpi\n              mload(0x40)\n              0x08c379a000000000000000000000000000000000000000000000000000000000\n              dup2\n              mstore\n              0x04\n              add\n              tag_92\n              swap1\n              tag_93\n              jump\t// in\n            tag_92:\n              mload(0x40)\n              dup1\n              swap2\n              sub\n              swap1\n              revert\n            tag_91:\n                /* \"Campaign.sol\":2342:2349  request */\n              dup1\n                /* \"Campaign.sol\":2342:2358  request.complete */\n              0x02\n              add\n              0x14\n              swap1\n              sload\n              swap1\n              0x0100\n              exp\n              swap1\n              div\n              0xff\n              and\n                /* \"Campaign.sol\":2341:2358  !request.complete */\n              iszero\n                /* \"Campaign.sol\":2333:2388  require(!request.complete, \"Request already completed\") */\n              tag_94\n              jumpi\n              mload(0x40)\n              0x08c379a000000000000000000000000000000000000000000000000000000000\n              dup2\n              mstore\n              0x04\n              add\n              tag_95\n              swap1\n              tag_96\n              jump\t// in\n            tag_95:\n              mload(0x40)\n              dup1\n              swap2\n              sub\n              swap1\n              revert\n            tag_94:\n                /* \"Campaign.sol\":2399:2406  request */\n              dup1\n                /* \"Campaign.sol\":2399:2416  request.recipient */\n              0x02\n              add\n              0x00\n              swap1\n              sload\n              swap1\n              0x0100\n              exp\n              swap1\n              div\n              0xffffffffffffffffffffffffffffffffffffffff\n              and\n                /* \"Campaign.sol\":2399:2425  request.recipient.transfer */\n              0xffffffffffffffffffffffffffffffffffffffff\n              and\n                /* \"Campaign.sol\":2399:2440  request.recipient.transfer(request.value) */\n              0x08fc\n                /* \"Campaign.sol\":2426:2433  request */\n              dup3\n                /* \"Campaign.sol\":2426:2439  request.value */\n              0x01\n              add\n              sload\n                /* \"Campaign.sol\":2399:2440  request.recipient.transfer(request.value) */\n              swap1\n              dup2\n              iszero\n              mul\n              swap1\n              mload(0x40)\n              0x00\n              mload(0x40)\n              dup1\n              dup4\n              sub\n              dup2\n              dup6\n              dup9\n              dup9\n              call\n              swap4\n              pop\n              pop\n              pop\n              pop\n              iszero\n              dup1\n              iszero\n              tag_98\n              jumpi\n              returndatasize\n              0x00\n              dup1\n              returndatacopy\n              revert(0x00, returndatasize)\n            tag_98:\n              pop\n                /* \"Campaign.sol\":2469:2473  true */\n              0x01\n                /* \"Campaign.sol\":2450:2457  request */\n              dup2\n                /* \"Campaign.sol\":2450:2466  request.complete */\n              0x02\n              add\n              0x14\n                /* \"Campaign.sol\":2450:2473  request.complete = true */\n              0x0100\n              exp\n              dup2\n              sload\n              dup2\n              0xff\n              mul\n              not\n              and\n              swap1\n              dup4\n              iszero\n              iszero\n              mul\n              or\n              swap1\n              sstore\n              pop\n                /* \"Campaign.sol\":2136:2480  {... */\n              pop\n                /* \"Campaign.sol\":2078:2480  function finalizeApprove(uint256 index) public restricted {... */\n              pop\n              jump\t// out\n            tag_72:\n              dup3\n              dup1\n              sload\n              tag_99\n              swap1\n              tag_61\n              jump\t// in\n            tag_99:\n              swap1\n              0x00\n              mstore\n              keccak256(0x00, 0x20)\n              swap1\n              0x1f\n              add\n              0x20\n              swap1\n              div\n              dup2\n              add\n              swap3\n              dup3\n              tag_101\n              jumpi\n              0x00\n              dup6\n              sstore\n              jump(tag_100)\n            tag_101:\n              dup3\n              0x1f\n              lt\n              tag_102\n              jumpi\n              dup1\n              mload\n              not(0xff)\n              and\n              dup4\n              dup1\n              add\n              or\n              dup6\n              sstore\n              jump(tag_100)\n            tag_102:\n              dup3\n              dup1\n              add\n              0x01\n              add\n              dup6\n              sstore\n              dup3\n              iszero\n              tag_100\n              jumpi\n              swap2\n              dup3\n              add\n            tag_103:\n              dup3\n              dup2\n              gt\n              iszero\n              tag_104\n              jumpi\n              dup3\n              mload\n              dup3\n              sstore\n              swap2\n              0x20\n              add\n              swap2\n              swap1\n              0x01\n              add\n              swap1\n              jump(tag_103)\n            tag_104:\n            tag_100:\n              pop\n              swap1\n              pop\n              tag_105\n              swap2\n              swap1\n              tag_106\n              jump\t// in\n            tag_105:\n              pop\n              swap1\n              jump\t// out\n            tag_106:\n            tag_107:\n              dup1\n              dup3\n              gt\n              iszero\n              tag_108\n              jumpi\n              0x00\n              dup2\n              0x00\n              swap1\n              sstore\n              pop\n              0x01\n              add\n              jump(tag_107)\n            tag_108:\n              pop\n              swap1\n              jump\t// out\n                /* \"#utility.yul\":7:82   */\n            tag_109:\n                /* \"#utility.yul\":40:46   */\n              0x00\n                /* \"#utility.yul\":73:75   */\n              0x40\n                /* \"#utility.yul\":67:76   */\n              mload\n                /* \"#utility.yul\":57:76   */\n              swap1\n              pop\n                /* \"#utility.yul\":7:82   */\n              swap1\n              jump\t// out\n                /* \"#utility.yul\":88:205   */\n            tag_110:\n                /* \"#utility.yul\":197:198   */\n              0x00\n                /* \"#utility.yul\":194:195   */\n              dup1\n                /* \"#utility.yul\":187:199   */\n              revert\n                /* \"#utility.yul\":211:328   */\n            tag_111:\n                /* \"#utility.yul\":320:321   */\n              0x00\n                /* \"#utility.yul\":317:318   */\n              dup1\n                /* \"#utility.yul\":310:322   */\n              revert\n                /* \"#utility.yul\":334:460   */\n            tag_112:\n                /* \"#utility.yul\":371:378   */\n              0x00\n                /* \"#utility.yul\":411:453   */\n              0xffffffffffffffffffffffffffffffffffffffff\n                /* \"#utility.yul\":404:409   */\n              dup3\n                /* \"#utility.yul\":400:454   */\n              and\n                /* \"#utility.yul\":389:454   */\n              swap1\n              pop\n                /* \"#utility.yul\":334:460   */\n              swap2\n              swap1\n              pop\n              jump\t// out\n                /* \"#utility.yul\":466:562   */\n            tag_113:\n                /* \"#utility.yul\":503:510   */\n              0x00\n                /* \"#utility.yul\":532:556   */\n              tag_160\n                /* \"#utility.yul\":550:555   */\n              dup3\n                /* \"#utility.yul\":532:556   */\n              tag_112\n              jump\t// in\n            tag_160:\n                /* \"#utility.yul\":521:556   */\n              swap1\n              pop\n                /* \"#utility.yul\":466:562   */\n              swap2\n              swap1\n              pop\n              jump\t// out\n                /* \"#utility.yul\":568:690   */\n            tag_114:\n                /* \"#utility.yul\":641:665   */\n              tag_162\n                /* \"#utility.yul\":659:664   */\n              dup2\n                /* \"#utility.yul\":641:665   */\n              tag_113\n              jump\t// in\n            tag_162:\n                /* \"#utility.yul\":634:639   */\n              dup2\n                /* \"#utility.yul\":631:666   */\n              eq\n                /* \"#utility.yul\":621:684   */\n              tag_163\n              jumpi\n                /* \"#utility.yul\":680:681   */\n              0x00\n                /* \"#utility.yul\":677:678   */\n              dup1\n                /* \"#utility.yul\":670:682   */\n              revert\n                /* \"#utility.yul\":621:684   */\n            tag_163:\n                /* \"#utility.yul\":568:690   */\n              pop\n              jump\t// out\n                /* \"#utility.yul\":696:835   */\n            tag_115:\n                /* \"#utility.yul\":742:747   */\n              0x00\n                /* \"#utility.yul\":780:786   */\n              dup2\n                /* \"#utility.yul\":767:787   */\n              calldataload\n                /* \"#utility.yul\":758:787   */\n              swap1\n              pop\n                /* \"#utility.yul\":796:829   */\n              tag_165\n                /* \"#utility.yul\":823:828   */\n              dup2\n                /* \"#utility.yul\":796:829   */\n              tag_114\n              jump\t// in\n            tag_165:\n                /* \"#utility.yul\":696:835   */\n              swap3\n              swap2\n              pop\n              pop\n              jump\t// out\n                /* \"#utility.yul\":841:1170   */\n            tag_16:\n                /* \"#utility.yul\":900:906   */\n              0x00\n                /* \"#utility.yul\":949:951   */\n              0x20\n                /* \"#utility.yul\":937:946   */\n              dup3\n                /* \"#utility.yul\":928:935   */\n              dup5\n                /* \"#utility.yul\":924:947   */\n              sub\n                /* \"#utility.yul\":920:952   */\n              slt\n                /* \"#utility.yul\":917:1036   */\n              iszero\n              tag_167\n              jumpi\n                /* \"#utility.yul\":955:1034   */\n              tag_168\n              tag_110\n              jump\t// in\n            tag_168:\n                /* \"#utility.yul\":917:1036   */\n            tag_167:\n                /* \"#utility.yul\":1075:1076   */\n              0x00\n                /* \"#utility.yul\":1100:1153   */\n              tag_169\n                /* \"#utility.yul\":1145:1152   */\n              dup5\n                /* \"#utility.yul\":1136:1142   */\n              dup3\n                /* \"#utility.yul\":1125:1134   */\n              dup6\n                /* \"#utility.yul\":1121:1143   */\n              add\n                /* \"#utility.yul\":1100:1153   */\n              tag_115\n              jump\t// in\n            tag_169:\n                /* \"#utility.yul\":1090:1153   */\n              swap2\n              pop\n                /* \"#utility.yul\":1046:1163   */\n              pop\n                /* \"#utility.yul\":841:1170   */\n              swap3\n              swap2\n              pop\n              pop\n              jump\t// out\n                /* \"#utility.yul\":1176:1266   */\n            tag_116:\n                /* \"#utility.yul\":1210:1217   */\n              0x00\n                /* \"#utility.yul\":1253:1258   */\n              dup2\n                /* \"#utility.yul\":1246:1259   */\n              iszero\n                /* \"#utility.yul\":1239:1260   */\n              iszero\n                /* \"#utility.yul\":1228:1260   */\n              swap1\n              pop\n                /* \"#utility.yul\":1176:1266   */\n              swap2\n              swap1\n              pop\n              jump\t// out\n                /* \"#utility.yul\":1272:1381   */\n            tag_117:\n                /* \"#utility.yul\":1353:1374   */\n              tag_172\n                /* \"#utility.yul\":1368:1373   */\n              dup2\n                /* \"#utility.yul\":1353:1374   */\n              tag_116\n              jump\t// in\n            tag_172:\n                /* \"#utility.yul\":1348:1351   */\n              dup3\n                /* \"#utility.yul\":1341:1375   */\n              mstore\n                /* \"#utility.yul\":1272:1381   */\n              pop\n              pop\n              jump\t// out\n                /* \"#utility.yul\":1387:1597   */\n            tag_19:\n                /* \"#utility.yul\":1474:1478   */\n              0x00\n                /* \"#utility.yul\":1512:1514   */\n              0x20\n                /* \"#utility.yul\":1501:1510   */\n              dup3\n                /* \"#utility.yul\":1497:1515   */\n              add\n                /* \"#utility.yul\":1489:1515   */\n              swap1\n              pop\n                /* \"#utility.yul\":1525:1590   */\n              tag_174\n                /* \"#utility.yul\":1587:1588   */\n              0x00\n                /* \"#utility.yul\":1576:1585   */\n              dup4\n                /* \"#utility.yul\":1572:1589   */\n              add\n                /* \"#utility.yul\":1563:1569   */\n              dup5\n                /* \"#utility.yul\":1525:1590   */\n              tag_117\n              jump\t// in\n            tag_174:\n                /* \"#utility.yul\":1387:1597   */\n              swap3\n              swap2\n              pop\n              pop\n              jump\t// out\n                /* \"#utility.yul\":1603:1721   */\n            tag_118:\n                /* \"#utility.yul\":1690:1714   */\n              tag_176\n                /* \"#utility.yul\":1708:1713   */\n              dup2\n                /* \"#utility.yul\":1690:1714   */\n              tag_113\n              jump\t// in\n            tag_176:\n                /* \"#utility.yul\":1685:1688   */\n              dup3\n                /* \"#utility.yul\":1678:1715   */\n              mstore\n                /* \"#utility.yul\":1603:1721   */\n              pop\n              pop\n              jump\t// out\n                /* \"#utility.yul\":1727:1949   */\n            tag_24:\n                /* \"#utility.yul\":1820:1824   */\n              0x00\n                /* \"#utility.yul\":1858:1860   */\n              0x20\n                /* \"#utility.yul\":1847:1856   */\n              dup3\n                /* \"#utility.yul\":1843:1861   */\n              add\n                /* \"#utility.yul\":1835:1861   */\n              swap1\n              pop\n                /* \"#utility.yul\":1871:1942   */\n              tag_178\n                /* \"#utility.yul\":1939:1940   */\n              0x00\n                /* \"#utility.yul\":1928:1937   */\n              dup4\n                /* \"#utility.yul\":1924:1941   */\n              add\n                /* \"#utility.yul\":1915:1921   */\n              dup5\n                /* \"#utility.yul\":1871:1942   */\n              tag_118\n              jump\t// in\n            tag_178:\n                /* \"#utility.yul\":1727:1949   */\n              swap3\n              swap2\n              pop\n              pop\n              jump\t// out\n                /* \"#utility.yul\":1955:2032   */\n            tag_119:\n                /* \"#utility.yul\":1992:1999   */\n              0x00\n                /* \"#utility.yul\":2021:2026   */\n              dup2\n                /* \"#utility.yul\":2010:2026   */\n              swap1\n              pop\n                /* \"#utility.yul\":1955:2032   */\n              swap2\n              swap1\n              pop\n              jump\t// out\n                /* \"#utility.yul\":2038:2160   */\n            tag_120:\n                /* \"#utility.yul\":2111:2135   */\n              tag_181\n                /* \"#utility.yul\":2129:2134   */\n              dup2\n                /* \"#utility.yul\":2111:2135   */\n              tag_119\n              jump\t// in\n            tag_181:\n                /* \"#utility.yul\":2104:2109   */\n              dup2\n                /* \"#utility.yul\":2101:2136   */\n              eq\n                /* \"#utility.yul\":2091:2154   */\n              tag_182\n              jumpi\n                /* \"#utility.yul\":2150:2151   */\n              0x00\n                /* \"#utility.yul\":2147:2148   */\n              dup1\n                /* \"#utility.yul\":2140:2152   */\n              revert\n                /* \"#utility.yul\":2091:2154   */\n            tag_182:\n                /* \"#utility.yul\":2038:2160   */\n              pop\n              jump\t// out\n                /* \"#utility.yul\":2166:2305   */\n            tag_121:\n                /* \"#utility.yul\":2212:2217   */\n              0x00\n                /* \"#utility.yul\":2250:2256   */\n              dup2\n                /* \"#utility.yul\":2237:2257   */\n              calldataload\n                /* \"#utility.yul\":2228:2257   */\n              swap1\n              pop\n                /* \"#utility.yul\":2266:2299   */\n              tag_184\n                /* \"#utility.yul\":2293:2298   */\n              dup2\n                /* \"#utility.yul\":2266:2299   */\n              tag_120\n              jump\t// in\n            tag_184:\n                /* \"#utility.yul\":2166:2305   */\n              swap3\n              swap2\n              pop\n              pop\n              jump\t// out\n                /* \"#utility.yul\":2311:2640   */\n            tag_28:\n                /* \"#utility.yul\":2370:2376   */\n              0x00\n                /* \"#utility.yul\":2419:2421   */\n              0x20\n                /* \"#utility.yul\":2407:2416   */\n              dup3\n                /* \"#utility.yul\":2398:2405   */\n              dup5\n                /* \"#utility.yul\":2394:2417   */\n              sub\n                /* \"#utility.yul\":2390:2422   */\n              slt\n                /* \"#utility.yul\":2387:2506   */\n              iszero\n              tag_186\n              jumpi\n                /* \"#utility.yul\":2425:2504   */\n              tag_187\n              tag_110\n              jump\t// in\n            tag_187:\n                /* \"#utility.yul\":2387:2506   */\n            tag_186:\n                /* \"#utility.yul\":2545:2546   */\n              0x00\n                /* \"#utility.yul\":2570:2623   */\n              tag_188\n                /* \"#utility.yul\":2615:2622   */\n              dup5\n                /* \"#utility.yul\":2606:2612   */\n              dup3\n                /* \"#utility.yul\":2595:2604   */\n              dup6\n                /* \"#utility.yul\":2591:2613   */\n              add\n                /* \"#utility.yul\":2570:2623   */\n              tag_121\n              jump\t// in\n            tag_188:\n                /* \"#utility.yul\":2560:2623   */\n              swap2\n              pop\n                /* \"#utility.yul\":2516:2633   */\n              pop\n                /* \"#utility.yul\":2311:2640   */\n              swap3\n              swap2\n              pop\n              pop\n              jump\t// out\n                /* \"#utility.yul\":2646:2745   */\n            tag_122:\n                /* \"#utility.yul\":2698:2704   */\n              0x00\n                /* \"#utility.yul\":2732:2737   */\n              dup2\n                /* \"#utility.yul\":2726:2738   */\n              mload\n                /* \"#utility.yul\":2716:2738   */\n              swap1\n              pop\n                /* \"#utility.yul\":2646:2745   */\n              swap2\n              swap1\n              pop\n              jump\t// out\n                /* \"#utility.yul\":2751:2920   */\n            tag_123:\n                /* \"#utility.yul\":2835:2846   */\n              0x00\n                /* \"#utility.yul\":2869:2875   */\n              dup3\n                /* \"#utility.yul\":2864:2867   */\n              dup3\n                /* \"#utility.yul\":2857:2876   */\n              mstore\n                /* \"#utility.yul\":2909:2913   */\n              0x20\n                /* \"#utility.yul\":2904:2907   */\n              dup3\n                /* \"#utility.yul\":2900:2914   */\n              add\n                /* \"#utility.yul\":2885:2914   */\n              swap1\n              pop\n                /* \"#utility.yul\":2751:2920   */\n              swap3\n              swap2\n              pop\n              pop\n              jump\t// out\n                /* \"#utility.yul\":2926:3233   */\n            tag_124:\n                /* \"#utility.yul\":2994:2995   */\n              0x00\n                /* \"#utility.yul\":3004:3117   */\n            tag_192:\n                /* \"#utility.yul\":3018:3024   */\n              dup4\n                /* \"#utility.yul\":3015:3016   */\n              dup2\n                /* \"#utility.yul\":3012:3025   */\n              lt\n                /* \"#utility.yul\":3004:3117   */\n              iszero\n              tag_194\n              jumpi\n                /* \"#utility.yul\":3103:3104   */\n              dup1\n                /* \"#utility.yul\":3098:3101   */\n              dup3\n                /* \"#utility.yul\":3094:3105   */\n              add\n                /* \"#utility.yul\":3088:3106   */\n              mload\n                /* \"#utility.yul\":3084:3085   */\n              dup2\n                /* \"#utility.yul\":3079:3082   */\n              dup5\n                /* \"#utility.yul\":3075:3086   */\n              add\n                /* \"#utility.yul\":3068:3107   */\n              mstore\n                /* \"#utility.yul\":3040:3042   */\n              0x20\n                /* \"#utility.yul\":3037:3038   */\n              dup2\n                /* \"#utility.yul\":3033:3043   */\n              add\n                /* \"#utility.yul\":3028:3043   */\n              swap1\n              pop\n                /* \"#utility.yul\":3004:3117   */\n              jump(tag_192)\n            tag_194:\n                /* \"#utility.yul\":3135:3141   */\n              dup4\n                /* \"#utility.yul\":3132:3133   */\n              dup2\n                /* \"#utility.yul\":3129:3142   */\n              gt\n                /* \"#utility.yul\":3126:3227   */\n              iszero\n              tag_195\n              jumpi\n                /* \"#utility.yul\":3215:3216   */\n              0x00\n                /* \"#utility.yul\":3206:3212   */\n              dup5\n                /* \"#utility.yul\":3201:3204   */\n              dup5\n                /* \"#utility.yul\":3197:3213   */\n              add\n                /* \"#utility.yul\":3190:3217   */\n              mstore\n                /* \"#utility.yul\":3126:3227   */\n            tag_195:\n                /* \"#utility.yul\":2975:3233   */\n              pop\n                /* \"#utility.yul\":2926:3233   */\n              pop\n              pop\n              pop\n              jump\t// out\n                /* \"#utility.yul\":3239:3341   */\n            tag_125:\n                /* \"#utility.yul\":3280:3286   */\n              0x00\n                /* \"#utility.yul\":3331:3333   */\n              0x1f\n                /* \"#utility.yul\":3327:3334   */\n              not\n                /* \"#utility.yul\":3322:3324   */\n              0x1f\n                /* \"#utility.yul\":3315:3320   */\n              dup4\n                /* \"#utility.yul\":3311:3325   */\n              add\n                /* \"#utility.yul\":3307:3335   */\n              and\n                /* \"#utility.yul\":3297:3335   */\n              swap1\n              pop\n                /* \"#utility.yul\":3239:3341   */\n              swap2\n              swap1\n              pop\n              jump\t// out\n                /* \"#utility.yul\":3347:3711   */\n            tag_126:\n                /* \"#utility.yul\":3435:3438   */\n              0x00\n                /* \"#utility.yul\":3463:3502   */\n              tag_198\n                /* \"#utility.yul\":3496:3501   */\n              dup3\n                /* \"#utility.yul\":3463:3502   */\n              tag_122\n              jump\t// in\n            tag_198:\n                /* \"#utility.yul\":3518:3589   */\n              tag_199\n                /* \"#utility.yul\":3582:3588   */\n              dup2\n                /* \"#utility.yul\":3577:3580   */\n              dup6\n                /* \"#utility.yul\":3518:3589   */\n              tag_123\n              jump\t// in\n            tag_199:\n                /* \"#utility.yul\":3511:3589   */\n              swap4\n              pop\n                /* \"#utility.yul\":3598:3650   */\n              tag_200\n                /* \"#utility.yul\":3643:3649   */\n              dup2\n                /* \"#utility.yul\":3638:3641   */\n              dup6\n                /* \"#utility.yul\":3631:3635   */\n              0x20\n                /* \"#utility.yul\":3624:3629   */\n              dup7\n                /* \"#utility.yul\":3620:3636   */\n              add\n                /* \"#utility.yul\":3598:3650   */\n              tag_124\n              jump\t// in\n            tag_200:\n                /* \"#utility.yul\":3675:3704   */\n              tag_201\n                /* \"#utility.yul\":3697:3703   */\n              dup2\n                /* \"#utility.yul\":3675:3704   */\n              tag_125\n              jump\t// in\n            tag_201:\n                /* \"#utility.yul\":3670:3673   */\n              dup5\n                /* \"#utility.yul\":3666:3705   */\n              add\n                /* \"#utility.yul\":3659:3705   */\n              swap2\n              pop\n                /* \"#utility.yul\":3439:3711   */\n              pop\n                /* \"#utility.yul\":3347:3711   */\n              swap3\n              swap2\n              pop\n              pop\n              jump\t// out\n                /* \"#utility.yul\":3717:3835   */\n            tag_127:\n                /* \"#utility.yul\":3804:3828   */\n              tag_203\n                /* \"#utility.yul\":3822:3827   */\n              dup2\n                /* \"#utility.yul\":3804:3828   */\n              tag_119\n              jump\t// in\n            tag_203:\n                /* \"#utility.yul\":3799:3802   */\n              dup3\n                /* \"#utility.yul\":3792:3829   */\n              mstore\n                /* \"#utility.yul\":3717:3835   */\n              pop\n              pop\n              jump\t// out\n                /* \"#utility.yul\":3841:3945   */\n            tag_128:\n                /* \"#utility.yul\":3886:3893   */\n              0x00\n                /* \"#utility.yul\":3915:3939   */\n              tag_205\n                /* \"#utility.yul\":3933:3938   */\n              dup3\n                /* \"#utility.yul\":3915:3939   */\n              tag_112\n              jump\t// in\n            tag_205:\n                /* \"#utility.yul\":3904:3939   */\n              swap1\n              pop\n                /* \"#utility.yul\":3841:3945   */\n              swap2\n              swap1\n              pop\n              jump\t// out\n                /* \"#utility.yul\":3951:4093   */\n            tag_129:\n                /* \"#utility.yul\":4054:4086   */\n              tag_207\n                /* \"#utility.yul\":4080:4085   */\n              dup2\n                /* \"#utility.yul\":4054:4086   */\n              tag_128\n              jump\t// in\n            tag_207:\n                /* \"#utility.yul\":4049:4052   */\n              dup3\n                /* \"#utility.yul\":4042:4087   */\n              mstore\n                /* \"#utility.yul\":3951:4093   */\n              pop\n              pop\n              jump\t// out\n                /* \"#utility.yul\":4099:4874   */\n            tag_31:\n                /* \"#utility.yul\":4334:4338   */\n              0x00\n                /* \"#utility.yul\":4372:4375   */\n              0xa0\n                /* \"#utility.yul\":4361:4370   */\n              dup3\n                /* \"#utility.yul\":4357:4376   */\n              add\n                /* \"#utility.yul\":4349:4376   */\n              swap1\n              pop\n                /* \"#utility.yul\":4422:4431   */\n              dup2\n                /* \"#utility.yul\":4416:4420   */\n              dup2\n                /* \"#utility.yul\":4412:4432   */\n              sub\n                /* \"#utility.yul\":4408:4409   */\n              0x00\n                /* \"#utility.yul\":4397:4406   */\n              dup4\n                /* \"#utility.yul\":4393:4410   */\n              add\n                /* \"#utility.yul\":4386:4433   */\n              mstore\n                /* \"#utility.yul\":4450:4528   */\n              tag_209\n                /* \"#utility.yul\":4523:4527   */\n              dup2\n                /* \"#utility.yul\":4514:4520   */\n              dup9\n                /* \"#utility.yul\":4450:4528   */\n              tag_126\n              jump\t// in\n            tag_209:\n                /* \"#utility.yul\":4442:4528   */\n              swap1\n              pop\n                /* \"#utility.yul\":4538:4610   */\n              tag_210\n                /* \"#utility.yul\":4606:4608   */\n              0x20\n                /* \"#utility.yul\":4595:4604   */\n              dup4\n                /* \"#utility.yul\":4591:4609   */\n              add\n                /* \"#utility.yul\":4582:4588   */\n              dup8\n                /* \"#utility.yul\":4538:4610   */\n              tag_127\n              jump\t// in\n            tag_210:\n                /* \"#utility.yul\":4620:4708   */\n              tag_211\n                /* \"#utility.yul\":4704:4706   */\n              0x40\n                /* \"#utility.yul\":4693:4702   */\n              dup4\n                /* \"#utility.yul\":4689:4707   */\n              add\n                /* \"#utility.yul\":4680:4686   */\n              dup7\n                /* \"#utility.yul\":4620:4708   */\n              tag_129\n              jump\t// in\n            tag_211:\n                /* \"#utility.yul\":4718:4784   */\n              tag_212\n                /* \"#utility.yul\":4780:4782   */\n              0x60\n                /* \"#utility.yul\":4769:4778   */\n              dup4\n                /* \"#utility.yul\":4765:4783   */\n              add\n                /* \"#utility.yul\":4756:4762   */\n              dup6\n                /* \"#utility.yul\":4718:4784   */\n              tag_117\n              jump\t// in\n            tag_212:\n                /* \"#utility.yul\":4794:4867   */\n              tag_213\n                /* \"#utility.yul\":4862:4865   */\n              0x80\n                /* \"#utility.yul\":4851:4860   */\n              dup4\n                /* \"#utility.yul\":4847:4866   */\n              add\n                /* \"#utility.yul\":4838:4844   */\n              dup5\n                /* \"#utility.yul\":4794:4867   */\n              tag_127\n              jump\t// in\n            tag_213:\n                /* \"#utility.yul\":4099:4874   */\n              swap7\n              swap6\n              pop\n              pop\n              pop\n              pop\n              pop\n              pop\n              jump\t// out\n                /* \"#utility.yul\":4880:5102   */\n            tag_36:\n                /* \"#utility.yul\":4973:4977   */\n              0x00\n                /* \"#utility.yul\":5011:5013   */\n              0x20\n                /* \"#utility.yul\":5000:5009   */\n              dup3\n                /* \"#utility.yul\":4996:5014   */\n              add\n                /* \"#utility.yul\":4988:5014   */\n              swap1\n              pop\n                /* \"#utility.yul\":5024:5095   */\n              tag_215\n                /* \"#utility.yul\":5092:5093   */\n              0x00\n                /* \"#utility.yul\":5081:5090   */\n              dup4\n                /* \"#utility.yul\":5077:5094   */\n              add\n                /* \"#utility.yul\":5068:5074   */\n              dup5\n                /* \"#utility.yul\":5024:5095   */\n              tag_127\n              jump\t// in\n            tag_215:\n                /* \"#utility.yul\":4880:5102   */\n              swap3\n              swap2\n              pop\n              pop\n              jump\t// out\n                /* \"#utility.yul\":5108:5225   */\n            tag_130:\n                /* \"#utility.yul\":5217:5218   */\n              0x00\n                /* \"#utility.yul\":5214:5215   */\n              dup1\n                /* \"#utility.yul\":5207:5219   */\n              revert\n                /* \"#utility.yul\":5231:5348   */\n            tag_131:\n                /* \"#utility.yul\":5340:5341   */\n              0x00\n                /* \"#utility.yul\":5337:5338   */\n              dup1\n                /* \"#utility.yul\":5330:5342   */\n              revert\n                /* \"#utility.yul\":5354:5534   */\n            tag_132:\n                /* \"#utility.yul\":5402:5479   */\n              0x4e487b7100000000000000000000000000000000000000000000000000000000\n                /* \"#utility.yul\":5399:5400   */\n              0x00\n                /* \"#utility.yul\":5392:5480   */\n              mstore\n                /* \"#utility.yul\":5499:5503   */\n              0x41\n                /* \"#utility.yul\":5496:5497   */\n              0x04\n                /* \"#utility.yul\":5489:5504   */\n              mstore\n                /* \"#utility.yul\":5523:5527   */\n              0x24\n                /* \"#utility.yul\":5520:5521   */\n              0x00\n                /* \"#utility.yul\":5513:5528   */\n              revert\n                /* \"#utility.yul\":5540:5821   */\n            tag_133:\n                /* \"#utility.yul\":5623:5650   */\n              tag_220\n                /* \"#utility.yul\":5645:5649   */\n              dup3\n                /* \"#utility.yul\":5623:5650   */\n              tag_125\n              jump\t// in\n            tag_220:\n                /* \"#utility.yul\":5615:5621   */\n              dup2\n                /* \"#utility.yul\":5611:5651   */\n              add\n                /* \"#utility.yul\":5753:5759   */\n              dup2\n                /* \"#utility.yul\":5741:5751   */\n              dup2\n                /* \"#utility.yul\":5738:5760   */\n              lt\n                /* \"#utility.yul\":5717:5735   */\n              0xffffffffffffffff\n                /* \"#utility.yul\":5705:5715   */\n              dup3\n                /* \"#utility.yul\":5702:5736   */\n              gt\n                /* \"#utility.yul\":5699:5761   */\n              or\n                /* \"#utility.yul\":5696:5784   */\n              iszero\n              tag_221\n              jumpi\n                /* \"#utility.yul\":5764:5782   */\n              tag_222\n              tag_132\n              jump\t// in\n            tag_222:\n                /* \"#utility.yul\":5696:5784   */\n            tag_221:\n                /* \"#utility.yul\":5804:5814   */\n              dup1\n                /* \"#utility.yul\":5800:5802   */\n              0x40\n                /* \"#utility.yul\":5793:5815   */\n              mstore\n                /* \"#utility.yul\":5583:5821   */\n              pop\n                /* \"#utility.yul\":5540:5821   */\n              pop\n              pop\n              jump\t// out\n                /* \"#utility.yul\":5827:5956   */\n            tag_134:\n                /* \"#utility.yul\":5861:5867   */\n              0x00\n                /* \"#utility.yul\":5888:5908   */\n              tag_224\n              tag_109\n              jump\t// in\n            tag_224:\n                /* \"#utility.yul\":5878:5908   */\n              swap1\n              pop\n                /* \"#utility.yul\":5917:5950   */\n              tag_225\n                /* \"#utility.yul\":5945:5949   */\n              dup3\n                /* \"#utility.yul\":5937:5943   */\n              dup3\n                /* \"#utility.yul\":5917:5950   */\n              tag_133\n              jump\t// in\n            tag_225:\n                /* \"#utility.yul\":5827:5956   */\n              swap2\n              swap1\n              pop\n              jump\t// out\n                /* \"#utility.yul\":5962:6270   */\n            tag_135:\n                /* \"#utility.yul\":6024:6028   */\n              0x00\n                /* \"#utility.yul\":6114:6132   */\n              0xffffffffffffffff\n                /* \"#utility.yul\":6106:6112   */\n              dup3\n                /* \"#utility.yul\":6103:6133   */\n              gt\n                /* \"#utility.yul\":6100:6156   */\n              iszero\n              tag_227\n              jumpi\n                /* \"#utility.yul\":6136:6154   */\n              tag_228\n              tag_132\n              jump\t// in\n            tag_228:\n                /* \"#utility.yul\":6100:6156   */\n            tag_227:\n                /* \"#utility.yul\":6174:6203   */\n              tag_229\n                /* \"#utility.yul\":6196:6202   */\n              dup3\n                /* \"#utility.yul\":6174:6203   */\n              tag_125\n              jump\t// in\n            tag_229:\n                /* \"#utility.yul\":6166:6203   */\n              swap1\n              pop\n                /* \"#utility.yul\":6258:6262   */\n              0x20\n                /* \"#utility.yul\":6252:6256   */\n              dup2\n                /* \"#utility.yul\":6248:6263   */\n              add\n                /* \"#utility.yul\":6240:6263   */\n              swap1\n              pop\n                /* \"#utility.yul\":5962:6270   */\n              swap2\n              swap1\n              pop\n              jump\t// out\n                /* \"#utility.yul\":6276:6430   */\n            tag_136:\n                /* \"#utility.yul\":6360:6366   */\n              dup3\n                /* \"#utility.yul\":6355:6358   */\n              dup2\n                /* \"#utility.yul\":6350:6353   */\n              dup4\n                /* \"#utility.yul\":6337:6367   */\n              calldatacopy\n                /* \"#utility.yul\":6422:6423   */\n              0x00\n                /* \"#utility.yul\":6413:6419   */\n              dup4\n                /* \"#utility.yul\":6408:6411   */\n              dup4\n                /* \"#utility.yul\":6404:6420   */\n              add\n                /* \"#utility.yul\":6397:6424   */\n              mstore\n                /* \"#utility.yul\":6276:6430   */\n              pop\n              pop\n              pop\n              jump\t// out\n                /* \"#utility.yul\":6436:6848   */\n            tag_137:\n                /* \"#utility.yul\":6514:6519   */\n              0x00\n                /* \"#utility.yul\":6539:6605   */\n              tag_232\n                /* \"#utility.yul\":6555:6604   */\n              tag_233\n                /* \"#utility.yul\":6597:6603   */\n              dup5\n                /* \"#utility.yul\":6555:6604   */\n              tag_135\n              jump\t// in\n            tag_233:\n                /* \"#utility.yul\":6539:6605   */\n              tag_134\n              jump\t// in\n            tag_232:\n                /* \"#utility.yul\":6530:6605   */\n              swap1\n              pop\n                /* \"#utility.yul\":6628:6634   */\n              dup3\n                /* \"#utility.yul\":6621:6626   */\n              dup2\n                /* \"#utility.yul\":6614:6635   */\n              mstore\n                /* \"#utility.yul\":6666:6670   */\n              0x20\n                /* \"#utility.yul\":6659:6664   */\n              dup2\n                /* \"#utility.yul\":6655:6671   */\n              add\n                /* \"#utility.yul\":6704:6707   */\n              dup5\n                /* \"#utility.yul\":6695:6701   */\n              dup5\n                /* \"#utility.yul\":6690:6693   */\n              dup5\n                /* \"#utility.yul\":6686:6702   */\n              add\n                /* \"#utility.yul\":6683:6708   */\n              gt\n                /* \"#utility.yul\":6680:6792   */\n              iszero\n              tag_234\n              jumpi\n                /* \"#utility.yul\":6711:6790   */\n              tag_235\n              tag_131\n              jump\t// in\n            tag_235:\n                /* \"#utility.yul\":6680:6792   */\n            tag_234:\n                /* \"#utility.yul\":6801:6842   */\n              tag_236\n                /* \"#utility.yul\":6835:6841   */\n              dup5\n                /* \"#utility.yul\":6830:6833   */\n              dup3\n                /* \"#utility.yul\":6825:6828   */\n              dup6\n                /* \"#utility.yul\":6801:6842   */\n              tag_136\n              jump\t// in\n            tag_236:\n                /* \"#utility.yul\":6520:6848   */\n              pop\n                /* \"#utility.yul\":6436:6848   */\n              swap4\n              swap3\n              pop\n              pop\n              pop\n              jump\t// out\n                /* \"#utility.yul\":6868:7208   */\n            tag_138:\n                /* \"#utility.yul\":6924:6929   */\n              0x00\n                /* \"#utility.yul\":6973:6976   */\n              dup3\n                /* \"#utility.yul\":6966:6970   */\n              0x1f\n                /* \"#utility.yul\":6958:6964   */\n              dup4\n                /* \"#utility.yul\":6954:6971   */\n              add\n                /* \"#utility.yul\":6950:6977   */\n              slt\n                /* \"#utility.yul\":6940:7062   */\n              tag_238\n              jumpi\n                /* \"#utility.yul\":6981:7060   */\n              tag_239\n              tag_130\n              jump\t// in\n            tag_239:\n                /* \"#utility.yul\":6940:7062   */\n            tag_238:\n                /* \"#utility.yul\":7098:7104   */\n              dup2\n                /* \"#utility.yul\":7085:7105   */\n              calldataload\n                /* \"#utility.yul\":7123:7202   */\n              tag_240\n                /* \"#utility.yul\":7198:7201   */\n              dup5\n                /* \"#utility.yul\":7190:7196   */\n              dup3\n                /* \"#utility.yul\":7183:7187   */\n              0x20\n                /* \"#utility.yul\":7175:7181   */\n              dup7\n                /* \"#utility.yul\":7171:7188   */\n              add\n                /* \"#utility.yul\":7123:7202   */\n              tag_137\n              jump\t// in\n            tag_240:\n                /* \"#utility.yul\":7114:7202   */\n              swap2\n              pop\n                /* \"#utility.yul\":6930:7208   */\n              pop\n                /* \"#utility.yul\":6868:7208   */\n              swap3\n              swap2\n              pop\n              pop\n              jump\t// out\n                /* \"#utility.yul\":7214:7352   */\n            tag_139:\n                /* \"#utility.yul\":7295:7327   */\n              tag_242\n                /* \"#utility.yul\":7321:7326   */\n              dup2\n                /* \"#utility.yul\":7295:7327   */\n              tag_128\n              jump\t// in\n            tag_242:\n                /* \"#utility.yul\":7288:7293   */\n              dup2\n                /* \"#utility.yul\":7285:7328   */\n              eq\n                /* \"#utility.yul\":7275:7346   */\n              tag_243\n              jumpi\n                /* \"#utility.yul\":7342:7343   */\n              0x00\n                /* \"#utility.yul\":7339:7340   */\n              dup1\n                /* \"#utility.yul\":7332:7344   */\n              revert\n                /* \"#utility.yul\":7275:7346   */\n            tag_243:\n                /* \"#utility.yul\":7214:7352   */\n              pop\n              jump\t// out\n                /* \"#utility.yul\":7358:7513   */\n            tag_140:\n                /* \"#utility.yul\":7412:7417   */\n              0x00\n                /* \"#utility.yul\":7450:7456   */\n              dup2\n                /* \"#utility.yul\":7437:7457   */\n              calldataload\n                /* \"#utility.yul\":7428:7457   */\n              swap1\n              pop\n                /* \"#utility.yul\":7466:7507   */\n              tag_245\n                /* \"#utility.yul\":7501:7506   */\n              dup2\n                /* \"#utility.yul\":7466:7507   */\n              tag_139\n              jump\t// in\n            tag_245:\n                /* \"#utility.yul\":7358:7513   */\n              swap3\n              swap2\n              pop\n              pop\n              jump\t// out\n                /* \"#utility.yul\":7519:8334   */\n            tag_40:\n                /* \"#utility.yul\":7614:7620   */\n              0x00\n                /* \"#utility.yul\":7622:7628   */\n              dup1\n                /* \"#utility.yul\":7630:7636   */\n              0x00\n                /* \"#utility.yul\":7679:7681   */\n              0x60\n                /* \"#utility.yul\":7667:7676   */\n              dup5\n                /* \"#utility.yul\":7658:7665   */\n              dup7\n                /* \"#utility.yul\":7654:7677   */\n              sub\n                /* \"#utility.yul\":7650:7682   */\n              slt\n                /* \"#utility.yul\":7647:7766   */\n              iszero\n              tag_247\n              jumpi\n                /* \"#utility.yul\":7685:7764   */\n              tag_248\n              tag_110\n              jump\t// in\n            tag_248:\n                /* \"#utility.yul\":7647:7766   */\n            tag_247:\n                /* \"#utility.yul\":7833:7834   */\n              0x00\n                /* \"#utility.yul\":7822:7831   */\n              dup5\n                /* \"#utility.yul\":7818:7835   */\n              add\n                /* \"#utility.yul\":7805:7836   */\n              calldataload\n                /* \"#utility.yul\":7863:7881   */\n              0xffffffffffffffff\n                /* \"#utility.yul\":7855:7861   */\n              dup2\n                /* \"#utility.yul\":7852:7882   */\n              gt\n                /* \"#utility.yul\":7849:7966   */\n              iszero\n              tag_249\n              jumpi\n                /* \"#utility.yul\":7885:7964   */\n              tag_250\n              tag_111\n              jump\t// in\n            tag_250:\n                /* \"#utility.yul\":7849:7966   */\n            tag_249:\n                /* \"#utility.yul\":7990:8053   */\n              tag_251\n                /* \"#utility.yul\":8045:8052   */\n              dup7\n                /* \"#utility.yul\":8036:8042   */\n              dup3\n                /* \"#utility.yul\":8025:8034   */\n              dup8\n                /* \"#utility.yul\":8021:8043   */\n              add\n                /* \"#utility.yul\":7990:8053   */\n              tag_138\n              jump\t// in\n            tag_251:\n                /* \"#utility.yul\":7980:8053   */\n              swap4\n              pop\n                /* \"#utility.yul\":7776:8063   */\n              pop\n                /* \"#utility.yul\":8102:8104   */\n              0x20\n                /* \"#utility.yul\":8128:8181   */\n              tag_252\n                /* \"#utility.yul\":8173:8180   */\n              dup7\n                /* \"#utility.yul\":8164:8170   */\n              dup3\n                /* \"#utility.yul\":8153:8162   */\n              dup8\n                /* \"#utility.yul\":8149:8171   */\n              add\n                /* \"#utility.yul\":8128:8181   */\n              tag_121\n              jump\t// in\n            tag_252:\n                /* \"#utility.yul\":8118:8181   */\n              swap3\n              pop\n                /* \"#utility.yul\":8073:8191   */\n              pop\n                /* \"#utility.yul\":8230:8232   */\n              0x40\n                /* \"#utility.yul\":8256:8317   */\n              tag_253\n                /* \"#utility.yul\":8309:8316   */\n              dup7\n                /* \"#utility.yul\":8300:8306   */\n              dup3\n                /* \"#utility.yul\":8289:8298   */\n              dup8\n                /* \"#utility.yul\":8285:8307   */\n              add\n                /* \"#utility.yul\":8256:8317   */\n              tag_140\n              jump\t// in\n            tag_253:\n                /* \"#utility.yul\":8246:8317   */\n              swap2\n              pop\n                /* \"#utility.yul\":8201:8327   */\n              pop\n                /* \"#utility.yul\":7519:8334   */\n              swap3\n              pop\n              swap3\n              pop\n              swap3\n              jump\t// out\n                /* \"#utility.yul\":8340:8520   */\n            tag_141:\n                /* \"#utility.yul\":8388:8465   */\n              0x4e487b7100000000000000000000000000000000000000000000000000000000\n                /* \"#utility.yul\":8385:8386   */\n              0x00\n                /* \"#utility.yul\":8378:8466   */\n              mstore\n                /* \"#utility.yul\":8485:8489   */\n              0x22\n                /* \"#utility.yul\":8482:8483   */\n              0x04\n                /* \"#utility.yul\":8475:8490   */\n              mstore\n                /* \"#utility.yul\":8509:8513   */\n              0x24\n                /* \"#utility.yul\":8506:8507   */\n              0x00\n                /* \"#utility.yul\":8499:8514   */\n              revert\n                /* \"#utility.yul\":8526:8846   */\n            tag_61:\n                /* \"#utility.yul\":8570:8576   */\n              0x00\n                /* \"#utility.yul\":8607:8608   */\n              0x02\n                /* \"#utility.yul\":8601:8605   */\n              dup3\n                /* \"#utility.yul\":8597:8609   */\n              div\n                /* \"#utility.yul\":8587:8609   */\n              swap1\n              pop\n                /* \"#utility.yul\":8654:8655   */\n              0x01\n                /* \"#utility.yul\":8648:8652   */\n              dup3\n                /* \"#utility.yul\":8644:8656   */\n              and\n                /* \"#utility.yul\":8675:8693   */\n              dup1\n                /* \"#utility.yul\":8665:8746   */\n              tag_256\n              jumpi\n                /* \"#utility.yul\":8731:8735   */\n              0x7f\n                /* \"#utility.yul\":8723:8729   */\n              dup3\n                /* \"#utility.yul\":8719:8736   */\n              and\n                /* \"#utility.yul\":8709:8736   */\n              swap2\n              pop\n                /* \"#utility.yul\":8665:8746   */\n            tag_256:\n                /* \"#utility.yul\":8793:8795   */\n              0x20\n                /* \"#utility.yul\":8785:8791   */\n              dup3\n                /* \"#utility.yul\":8782:8796   */\n              lt\n                /* \"#utility.yul\":8762:8780   */\n              dup2\n                /* \"#utility.yul\":8759:8797   */\n              eq\n                /* \"#utility.yul\":8756:8840   */\n              iszero\n              tag_257\n              jumpi\n                /* \"#utility.yul\":8812:8830   */\n              tag_258\n              tag_141\n              jump\t// in\n            tag_258:\n                /* \"#utility.yul\":8756:8840   */\n            tag_257:\n                /* \"#utility.yul\":8577:8846   */\n              pop\n                /* \"#utility.yul\":8526:8846   */\n              swap2\n              swap1\n              pop\n              jump\t// out\n                /* \"#utility.yul\":8852:9032   */\n            tag_142:\n                /* \"#utility.yul\":8900:8977   */\n              0x4e487b7100000000000000000000000000000000000000000000000000000000\n                /* \"#utility.yul\":8897:8898   */\n              0x00\n                /* \"#utility.yul\":8890:8978   */\n              mstore\n                /* \"#utility.yul\":8997:9001   */\n              0x11\n                /* \"#utility.yul\":8994:8995   */\n              0x04\n                /* \"#utility.yul\":8987:9002   */\n              mstore\n                /* \"#utility.yul\":9021:9025   */\n              0x24\n                /* \"#utility.yul\":9018:9019   */\n              0x00\n                /* \"#utility.yul\":9011:9026   */\n              revert\n                /* \"#utility.yul\":9038:9271   */\n            tag_70:\n                /* \"#utility.yul\":9077:9080   */\n              0x00\n                /* \"#utility.yul\":9100:9124   */\n              tag_261\n                /* \"#utility.yul\":9118:9123   */\n              dup3\n                /* \"#utility.yul\":9100:9124   */\n              tag_119\n              jump\t// in\n            tag_261:\n                /* \"#utility.yul\":9091:9124   */\n              swap2\n              pop\n                /* \"#utility.yul\":9146:9212   */\n              0xffffffffffffffffffffffffffffffffffffffffffffffffffffffffffffffff\n                /* \"#utility.yul\":9139:9144   */\n              dup3\n                /* \"#utility.yul\":9136:9213   */\n              eq\n                /* \"#utility.yul\":9133:9236   */\n              iszero\n              tag_262\n              jumpi\n                /* \"#utility.yul\":9216:9234   */\n              tag_263\n              tag_142\n              jump\t// in\n            tag_263:\n                /* \"#utility.yul\":9133:9236   */\n            tag_262:\n                /* \"#utility.yul\":9263:9264   */\n              0x01\n                /* \"#utility.yul\":9256:9261   */\n              dup3\n                /* \"#utility.yul\":9252:9265   */\n              add\n                /* \"#utility.yul\":9245:9265   */\n              swap1\n              pop\n                /* \"#utility.yul\":9038:9271   */\n              swap2\n              swap1\n              pop\n              jump\t// out\n                /* \"#utility.yul\":9277:9501   */\n            tag_143:\n                /* \"#utility.yul\":9417:9451   */\n              0x4e6565647320746f2070726f76696465206d696e696d756d20636f6e74726962\n                /* \"#utility.yul\":9413:9414   */\n              0x00\n                /* \"#utility.yul\":9405:9411   */\n              dup3\n                /* \"#utility.yul\":9401:9415   */\n              add\n                /* \"#utility.yul\":9394:9452   */\n              mstore\n                /* \"#utility.yul\":9486:9493   */\n              0x7574696f6e000000000000000000000000000000000000000000000000000000\n                /* \"#utility.yul\":9481:9483   */\n              0x20\n                /* \"#utility.yul\":9473:9479   */\n              dup3\n                /* \"#utility.yul\":9469:9484   */\n              add\n                /* \"#utility.yul\":9462:9494   */\n              mstore\n                /* \"#utility.yul\":9277:9501   */\n              pop\n              jump\t// out\n                /* \"#utility.yul\":9507:9873   */\n            tag_144:\n                /* \"#utility.yul\":9649:9652   */\n              0x00\n                /* \"#utility.yul\":9670:9737   */\n              tag_266\n                /* \"#utility.yul\":9734:9736   */\n              0x25\n                /* \"#utility.yul\":9729:9732   */\n              dup4\n                /* \"#utility.yul\":9670:9737   */\n              tag_123\n              jump\t// in\n            tag_266:\n                /* \"#utility.yul\":9663:9737   */\n              swap2\n              pop\n                /* \"#utility.yul\":9746:9839   */\n              tag_267\n                /* \"#utility.yul\":9835:9838   */\n              dup3\n                /* \"#utility.yul\":9746:9839   */\n              tag_143\n              jump\t// in\n            tag_267:\n                /* \"#utility.yul\":9864:9866   */\n              0x40\n                /* \"#utility.yul\":9859:9862   */\n              dup3\n                /* \"#utility.yul\":9855:9867   */\n              add\n                /* \"#utility.yul\":9848:9867   */\n              swap1\n              pop\n                /* \"#utility.yul\":9507:9873   */\n              swap2\n              swap1\n              pop\n              jump\t// out\n                /* \"#utility.yul\":9879:10298   */\n            tag_76:\n                /* \"#utility.yul\":10045:10049   */\n              0x00\n                /* \"#utility.yul\":10083:10085   */\n              0x20\n                /* \"#utility.yul\":10072:10081   */\n              dup3\n                /* \"#utility.yul\":10068:10086   */\n              add\n                /* \"#utility.yul\":10060:10086   */\n              swap1\n              pop\n                /* \"#utility.yul\":10132:10141   */\n              dup2\n                /* \"#utility.yul\":10126:10130   */\n              dup2\n                /* \"#utility.yul\":10122:10142   */\n              sub\n                /* \"#utility.yul\":10118:10119   */\n              0x00\n                /* \"#utility.yul\":10107:10116   */\n              dup4\n                /* \"#utility.yul\":10103:10120   */\n              add\n                /* \"#utility.yul\":10096:10143   */\n              mstore\n                /* \"#utility.yul\":10160:10291   */\n              tag_269\n                /* \"#utility.yul\":10286:10290   */\n              dup2\n                /* \"#utility.yul\":10160:10291   */\n              tag_144\n              jump\t// in\n            tag_269:\n                /* \"#utility.yul\":10152:10291   */\n              swap1\n              pop\n                /* \"#utility.yul\":9879:10298   */\n              swap2\n              swap1\n              pop\n              jump\t// out\n                /* \"#utility.yul\":10304:10529   */\n            tag_145:\n                /* \"#utility.yul\":10444:10478   */\n              0x546f20617070726f76652072657175657374206e6565647320746f2061206170\n                /* \"#utility.yul\":10440:10441   */\n              0x00\n                /* \"#utility.yul\":10432:10438   */\n              dup3\n                /* \"#utility.yul\":10428:10442   */\n              add\n                /* \"#utility.yul\":10421:10479   */\n              mstore\n                /* \"#utility.yul\":10513:10521   */\n              0x70726f7665720000000000000000000000000000000000000000000000000000\n                /* \"#utility.yul\":10508:10510   */\n              0x20\n                /* \"#utility.yul\":10500:10506   */\n              dup3\n                /* \"#utility.yul\":10496:10511   */\n              add\n                /* \"#utility.yul\":10489:10522   */\n              mstore\n                /* \"#utility.yul\":10304:10529   */\n              pop\n              jump\t// out\n                /* \"#utility.yul\":10535:10901   */\n            tag_146:\n                /* \"#utility.yul\":10677:10680   */\n              0x00\n                /* \"#utility.yul\":10698:10765   */\n              tag_272\n                /* \"#utility.yul\":10762:10764   */\n              0x26\n                /* \"#utility.yul\":10757:10760   */\n              dup4\n                /* \"#utility.yul\":10698:10765   */\n              tag_123\n              jump\t// in\n            tag_272:\n                /* \"#utility.yul\":10691:10765   */\n              swap2\n              pop\n                /* \"#utility.yul\":10774:10867   */\n              tag_273\n                /* \"#utility.yul\":10863:10866   */\n              dup3\n                /* \"#utility.yul\":10774:10867   */\n              tag_145\n              jump\t// in\n            tag_273:\n                /* \"#utility.yul\":10892:10894   */\n              0x40\n                /* \"#utility.yul\":10887:10890   */\n              dup3\n                /* \"#utility.yul\":10883:10895   */\n              add\n                /* \"#utility.yul\":10876:10895   */\n              swap1\n              pop\n                /* \"#utility.yul\":10535:10901   */\n              swap2\n              swap1\n              pop\n              jump\t// out\n                /* \"#utility.yul\":10907:11326   */\n            tag_81:\n                /* \"#utility.yul\":11073:11077   */\n              0x00\n                /* \"#utility.yul\":11111:11113   */\n              0x20\n                /* \"#utility.yul\":11100:11109   */\n              dup3\n                /* \"#utility.yul\":11096:11114   */\n              add\n                /* \"#utility.yul\":11088:11114   */\n              swap1\n              pop\n                /* \"#utility.yul\":11160:11169   */\n              dup2\n                /* \"#utility.yul\":11154:11158   */\n              dup2\n                /* \"#utility.yul\":11150:11170   */\n              sub\n                /* \"#utility.yul\":11146:11147   */\n              0x00\n                /* \"#utility.yul\":11135:11144   */\n              dup4\n                /* \"#utility.yul\":11131:11148   */\n              add\n                /* \"#utility.yul\":11124:11171   */\n              mstore\n                /* \"#utility.yul\":11188:11319   */\n              tag_275\n                /* \"#utility.yul\":11314:11318   */\n              dup2\n                /* \"#utility.yul\":11188:11319   */\n              tag_146\n              jump\t// in\n            tag_275:\n                /* \"#utility.yul\":11180:11319   */\n              swap1\n              pop\n                /* \"#utility.yul\":10907:11326   */\n              swap2\n              swap1\n              pop\n              jump\t// out\n                /* \"#utility.yul\":11332:11504   */\n            tag_147:\n                /* \"#utility.yul\":11472:11496   */\n              0x596f752063616e20766f7465206f6e6c79206f6e636500000000000000000000\n                /* \"#utility.yul\":11468:11469   */\n              0x00\n                /* \"#utility.yul\":11460:11466   */\n              dup3\n                /* \"#utility.yul\":11456:11470   */\n              add\n                /* \"#utility.yul\":11449:11497   */\n              mstore\n                /* \"#utility.yul\":11332:11504   */\n              pop\n              jump\t// out\n                /* \"#utility.yul\":11510:11876   */\n            tag_148:\n                /* \"#utility.yul\":11652:11655   */\n              0x00\n                /* \"#utility.yul\":11673:11740   */\n              tag_278\n                /* \"#utility.yul\":11737:11739   */\n              0x16\n                /* \"#utility.yul\":11732:11735   */\n              dup4\n                /* \"#utility.yul\":11673:11740   */\n              tag_123\n              jump\t// in\n            tag_278:\n                /* \"#utility.yul\":11666:11740   */\n              swap2\n              pop\n                /* \"#utility.yul\":11749:11842   */\n              tag_279\n                /* \"#utility.yul\":11838:11841   */\n              dup3\n                /* \"#utility.yul\":11749:11842   */\n              tag_147\n              jump\t// in\n            tag_279:\n                /* \"#utility.yul\":11867:11869   */\n              0x20\n                /* \"#utility.yul\":11862:11865   */\n              dup3\n                /* \"#utility.yul\":11858:11870   */\n              add\n                /* \"#utility.yul\":11851:11870   */\n              swap1\n              pop\n                /* \"#utility.yul\":11510:11876   */\n              swap2\n              swap1\n              pop\n              jump\t// out\n                /* \"#utility.yul\":11882:12301   */\n            tag_84:\n                /* \"#utility.yul\":12048:12052   */\n              0x00\n                /* \"#utility.yul\":12086:12088   */\n              0x20\n                /* \"#utility.yul\":12075:12084   */\n              dup3\n                /* \"#utility.yul\":12071:12089   */\n              add\n                /* \"#utility.yul\":12063:12089   */\n              swap1\n              pop\n                /* \"#utility.yul\":12135:12144   */\n              dup2\n                /* \"#utility.yul\":12129:12133   */\n              dup2\n                /* \"#utility.yul\":12125:12145   */\n              sub\n                /* \"#utility.yul\":12121:12122   */\n              0x00\n                /* \"#utility.yul\":12110:12119   */\n              dup4\n                /* \"#utility.yul\":12106:12123   */\n              add\n                /* \"#utility.yul\":12099:12146   */\n              mstore\n                /* \"#utility.yul\":12163:12294   */\n              tag_281\n                /* \"#utility.yul\":12289:12293   */\n              dup2\n                /* \"#utility.yul\":12163:12294   */\n              tag_148\n              jump\t// in\n            tag_281:\n                /* \"#utility.yul\":12155:12294   */\n              swap1\n              pop\n                /* \"#utility.yul\":11882:12301   */\n              swap2\n              swap1\n              pop\n              jump\t// out\n                /* \"#utility.yul\":12307:12487   */\n            tag_149:\n                /* \"#utility.yul\":12355:12432   */\n              0x4e487b7100000000000000000000000000000000000000000000000000000000\n                /* \"#utility.yul\":12352:12353   */\n              0x00\n                /* \"#utility.yul\":12345:12433   */\n              mstore\n                /* \"#utility.yul\":12452:12456   */\n              0x12\n                /* \"#utility.yul\":12449:12450   */\n              0x04\n                /* \"#utility.yul\":12442:12457   */\n              mstore\n                /* \"#utility.yul\":12476:12480   */\n              0x24\n                /* \"#utility.yul\":12473:12474   */\n              0x00\n                /* \"#utility.yul\":12466:12481   */\n              revert\n                /* \"#utility.yul\":12493:12678   */\n            tag_90:\n                /* \"#utility.yul\":12533:12534   */\n              0x00\n                /* \"#utility.yul\":12550:12570   */\n              tag_284\n                /* \"#utility.yul\":12568:12569   */\n              dup3\n                /* \"#utility.yul\":12550:12570   */\n              tag_119\n              jump\t// in\n            tag_284:\n                /* \"#utility.yul\":12545:12570   */\n              swap2\n              pop\n                /* \"#utility.yul\":12584:12604   */\n              tag_285\n                /* \"#utility.yul\":12602:12603   */\n              dup4\n                /* \"#utility.yul\":12584:12604   */\n              tag_119\n              jump\t// in\n            tag_285:\n                /* \"#utility.yul\":12579:12604   */\n              swap3\n              pop\n                /* \"#utility.yul\":12623:12624   */\n              dup3\n                /* \"#utility.yul\":12613:12648   */\n              tag_286\n              jumpi\n                /* \"#utility.yul\":12628:12646   */\n              tag_287\n              tag_149\n              jump\t// in\n            tag_287:\n                /* \"#utility.yul\":12613:12648   */\n            tag_286:\n                /* \"#utility.yul\":12670:12671   */\n              dup3\n                /* \"#utility.yul\":12667:12668   */\n              dup3\n                /* \"#utility.yul\":12663:12672   */\n              div\n                /* \"#utility.yul\":12658:12672   */\n              swap1\n              pop\n                /* \"#utility.yul\":12493:12678   */\n              swap3\n              swap2\n              pop\n              pop\n              jump\t// out\n                /* \"#utility.yul\":12684:12906   */\n            tag_150:\n                /* \"#utility.yul\":12824:12858   */\n              0x4e656564732061746c656173742068616c66206d656d6265727320617070726f\n                /* \"#utility.yul\":12820:12821   */\n              0x00\n                /* \"#utility.yul\":12812:12818   */\n              dup3\n                /* \"#utility.yul\":12808:12822   */\n              add\n                /* \"#utility.yul\":12801:12859   */\n              mstore\n                /* \"#utility.yul\":12893:12898   */\n              0x76616c0000000000000000000000000000000000000000000000000000000000\n                /* \"#utility.yul\":12888:12890   */\n              0x20\n                /* \"#utility.yul\":12880:12886   */\n              dup3\n                /* \"#utility.yul\":12876:12891   */\n              add\n                /* \"#utility.yul\":12869:12899   */\n              mstore\n                /* \"#utility.yul\":12684:12906   */\n              pop\n              jump\t// out\n                /* \"#utility.yul\":12912:13278   */\n            tag_151:\n                /* \"#utility.yul\":13054:13057   */\n              0x00\n                /* \"#utility.yul\":13075:13142   */\n              tag_290\n                /* \"#utility.yul\":13139:13141   */\n              0x23\n                /* \"#utility.yul\":13134:13137   */\n              dup4\n                /* \"#utility.yul\":13075:13142   */\n              tag_123\n              jump\t// in\n            tag_290:\n                /* \"#utility.yul\":13068:13142   */\n              swap2\n              pop\n                /* \"#utility.yul\":13151:13244   */\n              tag_291\n                /* \"#utility.yul\":13240:13243   */\n              dup3\n                /* \"#utility.yul\":13151:13244   */\n              tag_150\n              jump\t// in\n            tag_291:\n                /* \"#utility.yul\":13269:13271   */\n              0x40\n                /* \"#utility.yul\":13264:13267   */\n              dup3\n                /* \"#utility.yul\":13260:13272   */\n              add\n                /* \"#utility.yul\":13253:13272   */\n              swap1\n              pop\n                /* \"#utility.yul\":12912:13278   */\n              swap2\n              swap1\n              pop\n              jump\t// out\n                /* \"#utility.yul\":13284:13703   */\n            tag_93:\n                /* \"#utility.yul\":13450:13454   */\n              0x00\n                /* \"#utility.yul\":13488:13490   */\n              0x20\n                /* \"#utility.yul\":13477:13486   */\n              dup3\n                /* \"#utility.yul\":13473:13491   */\n              add\n                /* \"#utility.yul\":13465:13491   */\n              swap1\n              pop\n                /* \"#utility.yul\":13537:13546   */\n              dup2\n                /* \"#utility.yul\":13531:13535   */\n              dup2\n                /* \"#utility.yul\":13527:13547   */\n              sub\n                /* \"#utility.yul\":13523:13524   */\n              0x00\n                /* \"#utility.yul\":13512:13521   */\n              dup4\n                /* \"#utility.yul\":13508:13525   */\n              add\n                /* \"#utility.yul\":13501:13548   */\n              mstore\n                /* \"#utility.yul\":13565:13696   */\n              tag_293\n                /* \"#utility.yul\":13691:13695   */\n              dup2\n                /* \"#utility.yul\":13565:13696   */\n              tag_151\n              jump\t// in\n            tag_293:\n                /* \"#utility.yul\":13557:13696   */\n              swap1\n              pop\n                /* \"#utility.yul\":13284:13703   */\n              swap2\n              swap1\n              pop\n              jump\t// out\n                /* \"#utility.yul\":13709:13884   */\n            tag_152:\n                /* \"#utility.yul\":13849:13876   */\n              0x5265717565737420616c726561647920636f6d706c6574656400000000000000\n                /* \"#utility.yul\":13845:13846   */\n              0x00\n                /* \"#utility.yul\":13837:13843   */\n              dup3\n                /* \"#utility.yul\":13833:13847   */\n              add\n                /* \"#utility.yul\":13826:13877   */\n              mstore\n                /* \"#utility.yul\":13709:13884   */\n              pop\n              jump\t// out\n                /* \"#utility.yul\":13890:14256   */\n            tag_153:\n                /* \"#utility.yul\":14032:14035   */\n              0x00\n                /* \"#utility.yul\":14053:14120   */\n              tag_296\n                /* \"#utility.yul\":14117:14119   */\n              0x19\n                /* \"#utility.yul\":14112:14115   */\n              dup4\n                /* \"#utility.yul\":14053:14120   */\n              tag_123\n              jump\t// in\n            tag_296:\n                /* \"#utility.yul\":14046:14120   */\n              swap2\n              pop\n                /* \"#utility.yul\":14129:14222   */\n              tag_297\n                /* \"#utility.yul\":14218:14221   */\n              dup3\n                /* \"#utility.yul\":14129:14222   */\n              tag_152\n              jump\t// in\n            tag_297:\n                /* \"#utility.yul\":14247:14249   */\n              0x20\n                /* \"#utility.yul\":14242:14245   */\n              dup3\n                /* \"#utility.yul\":14238:14250   */\n              add\n                /* \"#utility.yul\":14231:14250   */\n              swap1\n              pop\n                /* \"#utility.yul\":13890:14256   */\n              swap2\n              swap1\n              pop\n              jump\t// out\n                /* \"#utility.yul\":14262:14681   */\n            tag_96:\n                /* \"#utility.yul\":14428:14432   */\n              0x00\n                /* \"#utility.yul\":14466:14468   */\n              0x20\n                /* \"#utility.yul\":14455:14464   */\n              dup3\n                /* \"#utility.yul\":14451:14469   */\n              add\n                /* \"#utility.yul\":14443:14469   */\n              swap1\n              pop\n                /* \"#utility.yul\":14515:14524   */\n              dup2\n                /* \"#utility.yul\":14509:14513   */\n              dup2\n                /* \"#utility.yul\":14505:14525   */\n              sub\n                /* \"#utility.yul\":14501:14502   */\n              0x00\n                /* \"#utility.yul\":14490:14499   */\n              dup4\n                /* \"#utility.yul\":14486:14503   */\n              add\n                /* \"#utility.yul\":14479:14526   */\n              mstore\n                /* \"#utility.yul\":14543:14674   */\n              tag_299\n                /* \"#utility.yul\":14669:14673   */\n              dup2\n                /* \"#utility.yul\":14543:14674   */\n              tag_153\n              jump\t// in\n            tag_299:\n                /* \"#utility.yul\":14535:14674   */\n              swap1\n              pop\n                /* \"#utility.yul\":14262:14681   */\n              swap2\n              swap1\n              pop\n              jump\t// out\n\n            auxdata: 0xa2646970667358221220f1953e5d968d1befd123886fb4393a7d387a7e68de224dab1e50f3307e1448ac64736f6c634300080b0033\n        }\n    }\n\n    auxdata: 0xa2646970667358221220c09db2a621d900e1ebd33619b1c739a3cefabe2221d2c96a6cb6758afcb912d364736f6c634300080b0033\n}\n","bytecode":{"linkReferences":{},"object":"608060405234801561001057600080fd5b506117d0806100206000396000f3fe608060405234801561001057600080fd5b50600436106100415760003560e01c80634acb9d4f14610046578063a3303a7514610064578063c3d4450614610080575b600080fd5b61004e6100b0565b60405161005b9190610359565b60405180910390f35b61007e600480360381019061007991906103b6565b61013e565b005b61009a600480360381019061009591906103b6565b6101df565b6040516100a791906103f2565b60405180910390f35b6060600080548060200260200160405190810160405280929190818152602001828054801561013457602002820191906000526020600020905b8160009054906101000a900473ffffffffffffffffffffffffffffffffffffffff1673ffffffffffffffffffffffffffffffffffffffff16815260200190600101908083116100ea575b5050505050905090565b6000813360405161014e9061021e565b61015992919061043d565b604051809103906000f080158015610175573d6000803e3d6000fd5b5090506000819080600181540180825580915050600190039060005260206000200160009091909190916101000a81548173ffffffffffffffffffffffffffffffffffffffff021916908373ffffffffffffffffffffffffffffffffffffffff1602179055505050565b600081815481106101ef57600080fd5b906000526020600020016000915054906101000a900473ffffffffffffffffffffffffffffffffffffffff1681565b6113348061046783390190565b600081519050919050565b600082825260208201905092915050565b6000819050602082019050919050565b600073ffffffffffffffffffffffffffffffffffffffff82169050919050565b6000819050919050565b600061029c61029761029284610257565b610277565b610257565b9050919050565b60006102ae82610281565b9050919050565b60006102c0826102a3565b9050919050565b6102d0816102b5565b82525050565b60006102e283836102c7565b60208301905092915050565b6000602082019050919050565b60006103068261022b565b6103108185610236565b935061031b83610247565b8060005b8381101561034c57815161033388826102d6565b975061033e836102ee565b92505060018101905061031f565b5085935050505092915050565b6000602082019050818103600083015261037381846102fb565b905092915050565b600080fd5b6000819050919050565b61039381610380565b811461039e57600080fd5b50565b6000813590506103b08161038a565b92915050565b6000602082840312156103cc576103cb61037b565b5b60006103da848285016103a1565b91505092915050565b6103ec816102b5565b82525050565b600060208201905061040760008301846103e3565b92915050565b61041681610380565b82525050565b600061042782610257565b9050919050565b6104378161041c565b82525050565b6000604082019050610452600083018561040d565b61045f602083018461042e565b939250505056fe60806040523480156200001157600080fd5b50604051620013343803806200133483398181016040528101906200003791906200012b565b806000806101000a81548173ffffffffffffffffffffffffffffffffffffffff021916908373ffffffffffffffffffffffffffffffffffffffff16021790555081600181905550505062000172565b600080fd5b6000819050919050565b620000a0816200008b565b8114620000ac57600080fd5b50565b600081519050620000c08162000095565b92915050565b600073ffffffffffffffffffffffffffffffffffffffff82169050919050565b6000620000f382620000c6565b9050919050565b6200010581620000e6565b81146200011157600080fd5b50565b6000815190506200012581620000fa565b92915050565b6000806040838503121562000145576200014462000086565b5b60006200015585828601620000af565b9250506020620001688582860162000114565b9150509250929050565b6111b280620001826000396000f3fe6080604052600436106100915760003560e01c8063937e09b111610059578063937e09b1146101935780639fb42b1f146101be578063d7bb99ba146101e9578063d7d1bbdb146101f3578063f00a7f4f1461021c57610091565b80630a14439114610096578063481c6a75146100d357806381d12c58146100fe57806382fde0931461013f5780638a9cfd551461016a575b600080fd5b3480156100a257600080fd5b506100bd60048036038101906100b891906109b7565b610245565b6040516100ca91906109ff565b60405180910390f35b3480156100df57600080fd5b506100e8610265565b6040516100f59190610a29565b60405180910390f35b34801561010a57600080fd5b5061012560048036038101906101209190610a7a565b610289565b604051610136959493929190610b70565b60405180910390f35b34801561014b57600080fd5b50610154610374565b6040516101619190610bca565b60405180910390f35b34801561017657600080fd5b50610191600480360381019061018c9190610d46565b61037a565b005b34801561019f57600080fd5b506101a8610491565b6040516101b59190610bca565b60405180910390f35b3480156101ca57600080fd5b506101d3610497565b6040516101e09190610bca565b60405180910390f35b6101f161049d565b005b3480156101ff57600080fd5b5061021a60048036038101906102159190610a7a565b610553565b005b34801561022857600080fd5b50610243600480360381019061023e9190610a7a565b6106fd565b005b60026020528060005260406000206000915054906101000a900460ff1681565b60008054906101000a900473ffffffffffffffffffffffffffffffffffffffff1681565b60056020528060005260406000206000915090508060000180546102ac90610de4565b80601f01602080910402602001604051908101604052809291908181526020018280546102d890610de4565b80156103255780601f106102fa57610100808354040283529160200191610325565b820191906000526020600020905b81548152906001019060200180831161030857829003601f168201915b5050505050908060010154908060020160009054906101000a900473ffffffffffffffffffffffffffffffffffffffff16908060020160149054906101000a900460ff16908060040154905085565b60035481565b60008054906101000a900473ffffffffffffffffffffffffffffffffffffffff1673ffffffffffffffffffffffffffffffffffffffff163373ffffffffffffffffffffffffffffffffffffffff16146103d257600080fd5b600060056000600460008154809291906103eb90610e45565b9190505581526020019081526020016000209050838160000190805190602001906104179291906108a2565b50828160010181905550818160020160006101000a81548173ffffffffffffffffffffffffffffffffffffffff021916908373ffffffffffffffffffffffffffffffffffffffff16021790555060008160020160146101000a81548160ff0219169083151502179055506000816004018190555050505050565b60015481565b60045481565b34600154106104e1576040517f08c379a00000000000000000000000000000000000000000000000000000000081526004016104d890610f00565b60405180910390fd5b6001600260003373ffffffffffffffffffffffffffffffffffffffff1673ffffffffffffffffffffffffffffffffffffffff16815260200190815260200160002060006101000a81548160ff0219169083151502179055506003600081548092919061054c90610e45565b9190505550565b6000600560008381526020019081526020016000209050600260003373ffffffffffffffffffffffffffffffffffffffff1673ffffffffffffffffffffffffffffffffffffffff16815260200190815260200160002060009054906101000a900460ff166105f6576040517f08c379a00000000000000000000000000000000000000000000000000000000081526004016105ed90610f92565b60405180910390fd5b8060030160003373ffffffffffffffffffffffffffffffffffffffff1673ffffffffffffffffffffffffffffffffffffffff16815260200190815260200160002060009054906101000a900460ff1615610685576040517f08c379a000000000000000000000000000000000000000000000000000000000815260040161067c90610ffe565b60405180910390fd5b60018160030160003373ffffffffffffffffffffffffffffffffffffffff1673ffffffffffffffffffffffffffffffffffffffff16815260200190815260200160002060006101000a81548160ff0219169083151502179055508060040160008154809291906106f490610e45565b91905055505050565b60008054906101000a900473ffffffffffffffffffffffffffffffffffffffff1673ffffffffffffffffffffffffffffffffffffffff163373ffffffffffffffffffffffffffffffffffffffff161461075557600080fd5b6000600560008381526020019081526020016000209050600260035461077b919061104d565b8160040154116107c0576040517f08c379a00000000000000000000000000000000000000000000000000000000081526004016107b7906110f0565b60405180910390fd5b8060020160149054906101000a900460ff1615610812576040517f08c379a00000000000000000000000000000000000000000000000000000000081526004016108099061115c565b60405180910390fd5b8060020160009054906101000a900473ffffffffffffffffffffffffffffffffffffffff1673ffffffffffffffffffffffffffffffffffffffff166108fc82600101549081150290604051600060405180830381858888f19350505050158015610880573d6000803e3d6000fd5b5060018160020160146101000a81548160ff0219169083151502179055505050565b8280546108ae90610de4565b90600052602060002090601f0160209004810192826108d05760008555610917565b82601f106108e957805160ff1916838001178555610917565b82800160010185558215610917579182015b828111156109165782518255916020019190600101906108fb565b5b5090506109249190610928565b5090565b5b80821115610941576000816000905550600101610929565b5090565b6000604051905090565b600080fd5b600080fd5b600073ffffffffffffffffffffffffffffffffffffffff82169050919050565b600061098482610959565b9050919050565b61099481610979565b811461099f57600080fd5b50565b6000813590506109b18161098b565b92915050565b6000602082840312156109cd576109cc61094f565b5b60006109db848285016109a2565b91505092915050565b60008115159050919050565b6109f9816109e4565b82525050565b6000602082019050610a1460008301846109f0565b92915050565b610a2381610979565b82525050565b6000602082019050610a3e6000830184610a1a565b92915050565b6000819050919050565b610a5781610a44565b8114610a6257600080fd5b50565b600081359050610a7481610a4e565b92915050565b600060208284031215610a9057610a8f61094f565b5b6000610a9e84828501610a65565b91505092915050565b600081519050919050565b600082825260208201905092915050565b60005b83811015610ae1578082015181840152602081019050610ac6565b83811115610af0576000848401525b50505050565b6000601f19601f8301169050919050565b6000610b1282610aa7565b610b1c8185610ab2565b9350610b2c818560208601610ac3565b610b3581610af6565b840191505092915050565b610b4981610a44565b82525050565b6000610b5a82610959565b9050919050565b610b6a81610b4f565b82525050565b600060a0820190508181036000830152610b8a8188610b07565b9050610b996020830187610b40565b610ba66040830186610b61565b610bb360608301856109f0565b610bc06080830184610b40565b9695505050505050565b6000602082019050610bdf6000830184610b40565b92915050565b600080fd5b600080fd5b7f4e487b7100000000000000000000000000000000000000000000000000000000600052604160045260246000fd5b610c2782610af6565b810181811067ffffffffffffffff82111715610c4657610c45610bef565b5b80604052505050565b6000610c59610945565b9050610c658282610c1e565b919050565b600067ffffffffffffffff821115610c8557610c84610bef565b5b610c8e82610af6565b9050602081019050919050565b82818337600083830152505050565b6000610cbd610cb884610c6a565b610c4f565b905082815260208101848484011115610cd957610cd8610bea565b5b610ce4848285610c9b565b509392505050565b600082601f830112610d0157610d00610be5565b5b8135610d11848260208601610caa565b91505092915050565b610d2381610b4f565b8114610d2e57600080fd5b50565b600081359050610d4081610d1a565b92915050565b600080600060608486031215610d5f57610d5e61094f565b5b600084013567ffffffffffffffff811115610d7d57610d7c610954565b5b610d8986828701610cec565b9350506020610d9a86828701610a65565b9250506040610dab86828701610d31565b9150509250925092565b7f4e487b7100000000000000000000000000000000000000000000000000000000600052602260045260246000fd5b60006002820490506001821680610dfc57607f821691505b60208210811415610e1057610e0f610db5565b5b50919050565b7f4e487b7100000000000000000000000000000000000000000000000000000000600052601160045260246000fd5b6000610e5082610a44565b91507fffffffffffffffffffffffffffffffffffffffffffffffffffffffffffffffff821415610e8357610e82610e16565b5b600182019050919050565b7f4e6565647320746f2070726f76696465206d696e696d756d20636f6e7472696260008201527f7574696f6e000000000000000000000000000000000000000000000000000000602082015250565b6000610eea602583610ab2565b9150610ef582610e8e565b604082019050919050565b60006020820190508181036000830152610f1981610edd565b9050919050565b7f546f20617070726f76652072657175657374206e6565647320746f206120617060008201527f70726f7665720000000000000000000000000000000000000000000000000000602082015250565b6000610f7c602683610ab2565b9150610f8782610f20565b604082019050919050565b60006020820190508181036000830152610fab81610f6f565b9050919050565b7f596f752063616e20766f7465206f6e6c79206f6e636500000000000000000000600082015250565b6000610fe8601683610ab2565b9150610ff382610fb2565b602082019050919050565b6000602082019050818103600083015261101781610fdb565b9050919050565b7f4e487b7100000000000000000000000000000000000000000000000000000000600052601260045260246000fd5b600061105882610a44565b915061106383610a44565b9250826110735761107261101e565b5b828204905092915050565b7f4e656564732061746c656173742068616c66206d656d6265727320617070726f60008201527f76616c0000000000000000000000000000000000000000000000000000000000602082015250565b60006110da602383610ab2565b91506110e58261107e565b604082019050919050565b60006020820190508181036000830152611109816110cd565b9050919050565b7f5265717565737420616c726561647920636f6d706c6574656400000000000000600082015250565b6000611146601983610ab2565b915061115182611110565b602082019050919050565b6000602082019050818103600083015261117581611139565b905091905056fea2646970667358221220f1953e5d968d1befd123886fb4393a7d387a7e68de224dab1e50f3307e1448ac64736f6c634300080b0033a2646970667358221220c09db2a621d900e1ebd33619b1c739a3cefabe2221d2c96a6cb6758afcb912d364736f6c634300080b0033","opcodes":"PUSH1 0x80 PUSH1 0x40 MSTORE CALLVALUE DUP1 ISZERO PUSH2 0x10 JUMPI PUSH1 0x0 DUP1 REVERT JUMPDEST POP PUSH2 0x17D0 DUP1 PUSH2 0x20 PUSH1 0x0 CODECOPY PUSH1 0x0 RETURN INVALID PUSH1 0x80 PUSH1 0x40 MSTORE CALLVALUE DUP1 ISZERO PUSH2 0x10 JUMPI PUSH1 0x0 DUP1 REVERT JUMPDEST POP PUSH1 0x4 CALLDATASIZE LT PUSH2 0x41 JUMPI PUSH1 0x0 CALLDATALOAD PUSH1 0xE0 SHR DUP1 PUSH4 0x4ACB9D4F EQ PUSH2 0x46 JUMPI DUP1 PUSH4 0xA3303A75 EQ PUSH2 0x64 JUMPI DUP1 PUSH4 0xC3D44506 EQ PUSH2 0x80 JUMPI JUMPDEST PUSH1 0x0 DUP1 REVERT JUMPDEST PUSH2 0x4E PUSH2 0xB0 JUMP JUMPDEST PUSH1 0x40 MLOAD PUSH2 0x5B SWAP2 SWAP1 PUSH2 0x359 JUMP JUMPDEST PUSH1 0x40 MLOAD DUP1 SWAP2 SUB SWAP1 RETURN JUMPDEST PUSH2 0x7E PUSH1 0x4 DUP1 CALLDATASIZE SUB DUP2 ADD SWAP1 PUSH2 0x79 SWAP2 SWAP1 PUSH2 0x3B6 JUMP JUMPDEST PUSH2 0x13E JUMP JUMPDEST STOP JUMPDEST PUSH2 0x9A PUSH1 0x4 DUP1 CALLDATASIZE SUB DUP2 ADD SWAP1 PUSH2 0x95 SWAP2 SWAP1 PUSH2 0x3B6 JUMP JUMPDEST PUSH2 0x1DF JUMP JUMPDEST PUSH1 0x40 MLOAD PUSH2 0xA7 SWAP2 SWAP1 PUSH2 0x3F2 JUMP JUMPDEST PUSH1 0x40 MLOAD DUP1 SWAP2 SUB SWAP1 RETURN JUMPDEST PUSH1 0x60 PUSH1 0x0 DUP1 SLOAD DUP1 PUSH1 0x20 MUL PUSH1 0x20 ADD PUSH1 0x40 MLOAD SWAP1 DUP2 ADD PUSH1 0x40 MSTORE DUP1 SWAP3 SWAP2 SWAP1 DUP2 DUP2 MSTORE PUSH1 0x20 ADD DUP3 DUP1 SLOAD DUP1 ISZERO PUSH2 0x134 JUMPI PUSH1 0x20 MUL DUP3 ADD SWAP2 SWAP1 PUSH1 0x0 MSTORE PUSH1 0x20 PUSH1 0x0 KECCAK256 SWAP1 JUMPDEST DUP2 PUSH1 0x0 SWAP1 SLOAD SWAP1 PUSH2 0x100 EXP SWAP1 DIV PUSH20 0xFFFFFFFFFFFFFFFFFFFFFFFFFFFFFFFFFFFFFFFF AND PUSH20 0xFFFFFFFFFFFFFFFFFFFFFFFFFFFFFFFFFFFFFFFF AND DUP2 MSTORE PUSH1 0x20 ADD SWAP1 PUSH1 0x1 ADD SWAP1 DUP1 DUP4 GT PUSH2 0xEA JUMPI JUMPDEST POP POP POP POP POP SWAP1 POP SWAP1 JUMP JUMPDEST PUSH1 0x0 DUP2 CALLER PUSH1 0x40 MLOAD PUSH2 0x14E SWAP1 PUSH2 0x21E JUMP JUMPDEST PUSH2 0x159 SWAP3 SWAP2 SWAP1 PUSH2 0x43D JUMP JUMPDEST PUSH1 0x40 MLOAD DUP1 SWAP2 SUB SWAP1 PUSH1 0x0 CREATE DUP1 ISZERO DUP1 ISZERO PUSH2 0x175 JUMPI RETURNDATASIZE PUSH1 0x0 DUP1 RETURNDATACOPY RETURNDATASIZE PUSH1 0x0 REVERT JUMPDEST POP SWAP1 POP PUSH1 0x0 DUP2 SWAP1 DUP1 PUSH1 0x1 DUP2 SLOAD ADD DUP1 DUP3 SSTORE DUP1 SWAP2 POP POP PUSH1 0x1 SWAP1 SUB SWAP1 PUSH1 0x0 MSTORE PUSH1 0x20 PUSH1 0x0 KECCAK256 ADD PUSH1 0x0 SWAP1 SWAP2 SWAP1 SWAP2 SWAP1 SWAP2 PUSH2 0x100 EXP DUP2 SLOAD DUP2 PUSH20 0xFFFFFFFFFFFFFFFFFFFFFFFFFFFFFFFFFFFFFFFF MUL NOT AND SWAP1 DUP4 PUSH20 0xFFFFFFFFFFFFFFFFFFFFFFFFFFFFFFFFFFFFFFFF AND MUL OR SWAP1 SSTORE POP POP POP JUMP JUMPDEST PUSH1 0x0 DUP2 DUP2 SLOAD DUP2 LT PUSH2 0x1EF JUMPI PUSH1 0x0 DUP1 REVERT JUMPDEST SWAP1 PUSH1 0x0 MSTORE PUSH1 0x20 PUSH1 0x0 KECCAK256 ADD PUSH1 0x0 SWAP2 POP SLOAD SWAP1 PUSH2 0x100 EXP SWAP1 DIV PUSH20 0xFFFFFFFFFFFFFFFFFFFFFFFFFFFFFFFFFFFFFFFF AND DUP2 JUMP JUMPDEST PUSH2 0x1334 DUP1 PUSH2 0x467 DUP4 CODECOPY ADD SWAP1 JUMP JUMPDEST PUSH1 0x0 DUP2 MLOAD SWAP1 POP SWAP2 SWAP1 POP JUMP JUMPDEST PUSH1 0x0 DUP3 DUP3 MSTORE PUSH1 0x20 DUP3 ADD SWAP1 POP SWAP3 SWAP2 POP POP JUMP JUMPDEST PUSH1 0x0 DUP2 SWAP1 POP PUSH1 0x20 DUP3 ADD SWAP1 POP SWAP2 SWAP1 POP JUMP JUMPDEST PUSH1 0x0 PUSH20 0xFFFFFFFFFFFFFFFFFFFFFFFFFFFFFFFFFFFFFFFF DUP3 AND SWAP1 POP SWAP2 SWAP1 POP JUMP JUMPDEST PUSH1 0x0 DUP2 SWAP1 POP SWAP2 SWAP1 POP JUMP JUMPDEST PUSH1 0x0 PUSH2 0x29C PUSH2 0x297 PUSH2 0x292 DUP5 PUSH2 0x257 JUMP JUMPDEST PUSH2 0x277 JUMP JUMPDEST PUSH2 0x257 JUMP JUMPDEST SWAP1 POP SWAP2 SWAP1 POP JUMP JUMPDEST PUSH1 0x0 PUSH2 0x2AE DUP3 PUSH2 0x281 JUMP JUMPDEST SWAP1 POP SWAP2 SWAP1 POP JUMP JUMPDEST PUSH1 0x0 PUSH2 0x2C0 DUP3 PUSH2 0x2A3 JUMP JUMPDEST SWAP1 POP SWAP2 SWAP1 POP JUMP JUMPDEST PUSH2 0x2D0 DUP2 PUSH2 0x2B5 JUMP JUMPDEST DUP3 MSTORE POP POP JUMP JUMPDEST PUSH1 0x0 PUSH2 0x2E2 DUP4 DUP4 PUSH2 0x2C7 JUMP JUMPDEST PUSH1 0x20 DUP4 ADD SWAP1 POP SWAP3 SWAP2 POP POP JUMP JUMPDEST PUSH1 0x0 PUSH1 0x20 DUP3 ADD SWAP1 POP SWAP2 SWAP1 POP JUMP JUMPDEST PUSH1 0x0 PUSH2 0x306 DUP3 PUSH2 0x22B JUMP JUMPDEST PUSH2 0x310 DUP2 DUP6 PUSH2 0x236 JUMP JUMPDEST SWAP4 POP PUSH2 0x31B DUP4 PUSH2 0x247 JUMP JUMPDEST DUP1 PUSH1 0x0 JUMPDEST DUP4 DUP2 LT ISZERO PUSH2 0x34C JUMPI DUP2 MLOAD PUSH2 0x333 DUP9 DUP3 PUSH2 0x2D6 JUMP JUMPDEST SWAP8 POP PUSH2 0x33E DUP4 PUSH2 0x2EE JUMP JUMPDEST SWAP3 POP POP PUSH1 0x1 DUP2 ADD SWAP1 POP PUSH2 0x31F JUMP JUMPDEST POP DUP6 SWAP4 POP POP POP POP SWAP3 SWAP2 POP POP JUMP JUMPDEST PUSH1 0x0 PUSH1 0x20 DUP3 ADD SWAP1 POP DUP2 DUP2 SUB PUSH1 0x0 DUP4 ADD MSTORE PUSH2 0x373 DUP2 DUP5 PUSH2 0x2FB JUMP JUMPDEST SWAP1 POP SWAP3 SWAP2 POP POP JUMP JUMPDEST PUSH1 0x0 DUP1 REVERT JUMPDEST PUSH1 0x0 DUP2 SWAP1 POP SWAP2 SWAP1 POP JUMP JUMPDEST PUSH2 0x393 DUP2 PUSH2 0x380 JUMP JUMPDEST DUP2 EQ PUSH2 0x39E JUMPI PUSH1 0x0 DUP1 REVERT JUMPDEST POP JUMP JUMPDEST PUSH1 0x0 DUP2 CALLDATALOAD SWAP1 POP PUSH2 0x3B0 DUP2 PUSH2 0x38A JUMP JUMPDEST SWAP3 SWAP2 POP POP JUMP JUMPDEST PUSH1 0x0 PUSH1 0x20 DUP3 DUP5 SUB SLT ISZERO PUSH2 0x3CC JUMPI PUSH2 0x3CB PUSH2 0x37B JUMP JUMPDEST JUMPDEST PUSH1 0x0 PUSH2 0x3DA DUP5 DUP3 DUP6 ADD PUSH2 0x3A1 JUMP JUMPDEST SWAP2 POP POP SWAP3 SWAP2 POP POP JUMP JUMPDEST PUSH2 0x3EC DUP2 PUSH2 0x2B5 JUMP JUMPDEST DUP3 MSTORE POP POP JUMP JUMPDEST PUSH1 0x0 PUSH1 0x20 DUP3 ADD SWAP1 POP PUSH2 0x407 PUSH1 0x0 DUP4 ADD DUP5 PUSH2 0x3E3 JUMP JUMPDEST SWAP3 SWAP2 POP POP JUMP JUMPDEST PUSH2 0x416 DUP2 PUSH2 0x380 JUMP JUMPDEST DUP3 MSTORE POP POP JUMP JUMPDEST PUSH1 0x0 PUSH2 0x427 DUP3 PUSH2 0x257 JUMP JUMPDEST SWAP1 POP SWAP2 SWAP1 POP JUMP JUMPDEST PUSH2 0x437 DUP2 PUSH2 0x41C JUMP JUMPDEST DUP3 MSTORE POP POP JUMP JUMPDEST PUSH1 0x0 PUSH1 0x40 DUP3 ADD SWAP1 POP PUSH2 0x452 PUSH1 0x0 DUP4 ADD DUP6 PUSH2 0x40D JUMP JUMPDEST PUSH2 0x45F PUSH1 0x20 DUP4 ADD DUP5 PUSH2 0x42E JUMP JUMPDEST SWAP4 SWAP3 POP POP POP JUMP INVALID PUSH1 0x80 PUSH1 0x40 MSTORE CALLVALUE DUP1 ISZERO PUSH3 0x11 JUMPI PUSH1 0x0 DUP1 REVERT JUMPDEST POP PUSH1 0x40 MLOAD PUSH3 0x1334 CODESIZE SUB DUP1 PUSH3 0x1334 DUP4 CODECOPY DUP2 DUP2 ADD PUSH1 0x40 MSTORE DUP2 ADD SWAP1 PUSH3 0x37 SWAP2 SWAP1 PUSH3 0x12B JUMP JUMPDEST DUP1 PUSH1 0x0 DUP1 PUSH2 0x100 EXP DUP2 SLOAD DUP2 PUSH20 0xFFFFFFFFFFFFFFFFFFFFFFFFFFFFFFFFFFFFFFFF MUL NOT AND SWAP1 DUP4 PUSH20 0xFFFFFFFFFFFFFFFFFFFFFFFFFFFFFFFFFFFFFFFF AND MUL OR SWAP1 SSTORE POP DUP2 PUSH1 0x1 DUP2 SWAP1 SSTORE POP POP POP PUSH3 0x172 JUMP JUMPDEST PUSH1 0x0 DUP1 REVERT JUMPDEST PUSH1 0x0 DUP2 SWAP1 POP SWAP2 SWAP1 POP JUMP JUMPDEST PUSH3 0xA0 DUP2 PUSH3 0x8B JUMP JUMPDEST DUP2 EQ PUSH3 0xAC JUMPI PUSH1 0x0 DUP1 REVERT JUMPDEST POP JUMP JUMPDEST PUSH1 0x0 DUP2 MLOAD SWAP1 POP PUSH3 0xC0 DUP2 PUSH3 0x95 JUMP JUMPDEST SWAP3 SWAP2 POP POP JUMP JUMPDEST PUSH1 0x0 PUSH20 0xFFFFFFFFFFFFFFFFFFFFFFFFFFFFFFFFFFFFFFFF DUP3 AND SWAP1 POP SWAP2 SWAP1 POP JUMP JUMPDEST PUSH1 0x0 PUSH3 0xF3 DUP3 PUSH3 0xC6 JUMP JUMPDEST SWAP1 POP SWAP2 SWAP1 POP JUMP JUMPDEST PUSH3 0x105 DUP2 PUSH3 0xE6 JUMP JUMPDEST DUP2 EQ PUSH3 0x111 JUMPI PUSH1 0x0 DUP1 REVERT JUMPDEST POP JUMP JUMPDEST PUSH1 0x0 DUP2 MLOAD SWAP1 POP PUSH3 0x125 DUP2 PUSH3 0xFA JUMP JUMPDEST SWAP3 SWAP2 POP POP JUMP JUMPDEST PUSH1 0x0 DUP1 PUSH1 0x40 DUP4 DUP6 SUB SLT ISZERO PUSH3 0x145 JUMPI PUSH3 0x144 PUSH3 0x86 JUMP JUMPDEST JUMPDEST PUSH1 0x0 PUSH3 0x155 DUP6 DUP3 DUP7 ADD PUSH3 0xAF JUMP JUMPDEST SWAP3 POP POP PUSH1 0x20 PUSH3 0x168 DUP6 DUP3 DUP7 ADD PUSH3 0x114 JUMP JUMPDEST SWAP2 POP POP SWAP3 POP SWAP3 SWAP1 POP JUMP JUMPDEST PUSH2 0x11B2 DUP1 PUSH3 0x182 PUSH1 0x0 CODECOPY PUSH1 0x0 RETURN INVALID PUSH1 0x80 PUSH1 0x40 MSTORE PUSH1 0x4 CALLDATASIZE LT PUSH2 0x91 JUMPI PUSH1 0x0 CALLDATALOAD PUSH1 0xE0 SHR DUP1 PUSH4 0x937E09B1 GT PUSH2 0x59 JUMPI DUP1 PUSH4 0x937E09B1 EQ PUSH2 0x193 JUMPI DUP1 PUSH4 0x9FB42B1F EQ PUSH2 0x1BE JUMPI DUP1 PUSH4 0xD7BB99BA EQ PUSH2 0x1E9 JUMPI DUP1 PUSH4 0xD7D1BBDB EQ PUSH2 0x1F3 JUMPI DUP1 PUSH4 0xF00A7F4F EQ PUSH2 0x21C JUMPI PUSH2 0x91 JUMP JUMPDEST DUP1 PUSH4 0xA144391 EQ PUSH2 0x96 JUMPI DUP1 PUSH4 0x481C6A75 EQ PUSH2 0xD3 JUMPI DUP1 PUSH4 0x81D12C58 EQ PUSH2 0xFE JUMPI DUP1 PUSH4 0x82FDE093 EQ PUSH2 0x13F JUMPI DUP1 PUSH4 0x8A9CFD55 EQ PUSH2 0x16A JUMPI JUMPDEST PUSH1 0x0 DUP1 REVERT JUMPDEST CALLVALUE DUP1 ISZERO PUSH2 0xA2 JUMPI PUSH1 0x0 DUP1 REVERT JUMPDEST POP PUSH2 0xBD PUSH1 0x4 DUP1 CALLDATASIZE SUB DUP2 ADD SWAP1 PUSH2 0xB8 SWAP2 SWAP1 PUSH2 0x9B7 JUMP JUMPDEST PUSH2 0x245 JUMP JUMPDEST PUSH1 0x40 MLOAD PUSH2 0xCA SWAP2 SWAP1 PUSH2 0x9FF JUMP JUMPDEST PUSH1 0x40 MLOAD DUP1 SWAP2 SUB SWAP1 RETURN JUMPDEST CALLVALUE DUP1 ISZERO PUSH2 0xDF JUMPI PUSH1 0x0 DUP1 REVERT JUMPDEST POP PUSH2 0xE8 PUSH2 0x265 JUMP JUMPDEST PUSH1 0x40 MLOAD PUSH2 0xF5 SWAP2 SWAP1 PUSH2 0xA29 JUMP JUMPDEST PUSH1 0x40 MLOAD DUP1 SWAP2 SUB SWAP1 RETURN JUMPDEST CALLVALUE DUP1 ISZERO PUSH2 0x10A JUMPI PUSH1 0x0 DUP1 REVERT JUMPDEST POP PUSH2 0x125 PUSH1 0x4 DUP1 CALLDATASIZE SUB DUP2 ADD SWAP1 PUSH2 0x120 SWAP2 SWAP1 PUSH2 0xA7A JUMP JUMPDEST PUSH2 0x289 JUMP JUMPDEST PUSH1 0x40 MLOAD PUSH2 0x136 SWAP6 SWAP5 SWAP4 SWAP3 SWAP2 SWAP1 PUSH2 0xB70 JUMP JUMPDEST PUSH1 0x40 MLOAD DUP1 SWAP2 SUB SWAP1 RETURN JUMPDEST CALLVALUE DUP1 ISZERO PUSH2 0x14B JUMPI PUSH1 0x0 DUP1 REVERT JUMPDEST POP PUSH2 0x154 PUSH2 0x374 JUMP JUMPDEST PUSH1 0x40 MLOAD PUSH2 0x161 SWAP2 SWAP1 PUSH2 0xBCA JUMP JUMPDEST PUSH1 0x40 MLOAD DUP1 SWAP2 SUB SWAP1 RETURN JUMPDEST CALLVALUE DUP1 ISZERO PUSH2 0x176 JUMPI PUSH1 0x0 DUP1 REVERT JUMPDEST POP PUSH2 0x191 PUSH1 0x4 DUP1 CALLDATASIZE SUB DUP2 ADD SWAP1 PUSH2 0x18C SWAP2 SWAP1 PUSH2 0xD46 JUMP JUMPDEST PUSH2 0x37A JUMP JUMPDEST STOP JUMPDEST CALLVALUE DUP1 ISZERO PUSH2 0x19F JUMPI PUSH1 0x0 DUP1 REVERT JUMPDEST POP PUSH2 0x1A8 PUSH2 0x491 JUMP JUMPDEST PUSH1 0x40 MLOAD PUSH2 0x1B5 SWAP2 SWAP1 PUSH2 0xBCA JUMP JUMPDEST PUSH1 0x40 MLOAD DUP1 SWAP2 SUB SWAP1 RETURN JUMPDEST CALLVALUE DUP1 ISZERO PUSH2 0x1CA JUMPI PUSH1 0x0 DUP1 REVERT JUMPDEST POP PUSH2 0x1D3 PUSH2 0x497 JUMP JUMPDEST PUSH1 0x40 MLOAD PUSH2 0x1E0 SWAP2 SWAP1 PUSH2 0xBCA JUMP JUMPDEST PUSH1 0x40 MLOAD DUP1 SWAP2 SUB SWAP1 RETURN JUMPDEST PUSH2 0x1F1 PUSH2 0x49D JUMP JUMPDEST STOP JUMPDEST CALLVALUE DUP1 ISZERO PUSH2 0x1FF JUMPI PUSH1 0x0 DUP1 REVERT JUMPDEST POP PUSH2 0x21A PUSH1 0x4 DUP1 CALLDATASIZE SUB DUP2 ADD SWAP1 PUSH2 0x215 SWAP2 SWAP1 PUSH2 0xA7A JUMP JUMPDEST PUSH2 0x553 JUMP JUMPDEST STOP JUMPDEST CALLVALUE DUP1 ISZERO PUSH2 0x228 JUMPI PUSH1 0x0 DUP1 REVERT JUMPDEST POP PUSH2 0x243 PUSH1 0x4 DUP1 CALLDATASIZE SUB DUP2 ADD SWAP1 PUSH2 0x23E SWAP2 SWAP1 PUSH2 0xA7A JUMP JUMPDEST PUSH2 0x6FD JUMP JUMPDEST STOP JUMPDEST PUSH1 0x2 PUSH1 0x20 MSTORE DUP1 PUSH1 0x0 MSTORE PUSH1 0x40 PUSH1 0x0 KECCAK256 PUSH1 0x0 SWAP2 POP SLOAD SWAP1 PUSH2 0x100 EXP SWAP1 DIV PUSH1 0xFF AND DUP2 JUMP JUMPDEST PUSH1 0x0 DUP1 SLOAD SWAP1 PUSH2 0x100 EXP SWAP1 DIV PUSH20 0xFFFFFFFFFFFFFFFFFFFFFFFFFFFFFFFFFFFFFFFF AND DUP2 JUMP JUMPDEST PUSH1 0x5 PUSH1 0x20 MSTORE DUP1 PUSH1 0x0 MSTORE PUSH1 0x40 PUSH1 0x0 KECCAK256 PUSH1 0x0 SWAP2 POP SWAP1 POP DUP1 PUSH1 0x0 ADD DUP1 SLOAD PUSH2 0x2AC SWAP1 PUSH2 0xDE4 JUMP JUMPDEST DUP1 PUSH1 0x1F ADD PUSH1 0x20 DUP1 SWAP2 DIV MUL PUSH1 0x20 ADD PUSH1 0x40 MLOAD SWAP1 DUP2 ADD PUSH1 0x40 MSTORE DUP1 SWAP3 SWAP2 SWAP1 DUP2 DUP2 MSTORE PUSH1 0x20 ADD DUP3 DUP1 SLOAD PUSH2 0x2D8 SWAP1 PUSH2 0xDE4 JUMP JUMPDEST DUP1 ISZERO PUSH2 0x325 JUMPI DUP1 PUSH1 0x1F LT PUSH2 0x2FA JUMPI PUSH2 0x100 DUP1 DUP4 SLOAD DIV MUL DUP4 MSTORE SWAP2 PUSH1 0x20 ADD SWAP2 PUSH2 0x325 JUMP JUMPDEST DUP3 ADD SWAP2 SWAP1 PUSH1 0x0 MSTORE PUSH1 0x20 PUSH1 0x0 KECCAK256 SWAP1 JUMPDEST DUP2 SLOAD DUP2 MSTORE SWAP1 PUSH1 0x1 ADD SWAP1 PUSH1 0x20 ADD DUP1 DUP4 GT PUSH2 0x308 JUMPI DUP3 SWAP1 SUB PUSH1 0x1F AND DUP3 ADD SWAP2 JUMPDEST POP POP POP POP POP SWAP1 DUP1 PUSH1 0x1 ADD SLOAD SWAP1 DUP1 PUSH1 0x2 ADD PUSH1 0x0 SWAP1 SLOAD SWAP1 PUSH2 0x100 EXP SWAP1 DIV PUSH20 0xFFFFFFFFFFFFFFFFFFFFFFFFFFFFFFFFFFFFFFFF AND SWAP1 DUP1 PUSH1 0x2 ADD PUSH1 0x14 SWAP1 SLOAD SWAP1 PUSH2 0x100 EXP SWAP1 DIV PUSH1 0xFF AND SWAP1 DUP1 PUSH1 0x4 ADD SLOAD SWAP1 POP DUP6 JUMP JUMPDEST PUSH1 0x3 SLOAD DUP2 JUMP JUMPDEST PUSH1 0x0 DUP1 SLOAD SWAP1 PUSH2 0x100 EXP SWAP1 DIV PUSH20 0xFFFFFFFFFFFFFFFFFFFFFFFFFFFFFFFFFFFFFFFF AND PUSH20 0xFFFFFFFFFFFFFFFFFFFFFFFFFFFFFFFFFFFFFFFF AND CALLER PUSH20 0xFFFFFFFFFFFFFFFFFFFFFFFFFFFFFFFFFFFFFFFF AND EQ PUSH2 0x3D2 JUMPI PUSH1 0x0 DUP1 REVERT JUMPDEST PUSH1 0x0 PUSH1 0x5 PUSH1 0x0 PUSH1 0x4 PUSH1 0x0 DUP2 SLOAD DUP1 SWAP3 SWAP2 SWAP1 PUSH2 0x3EB SWAP1 PUSH2 0xE45 JUMP JUMPDEST SWAP2 SWAP1 POP SSTORE DUP2 MSTORE PUSH1 0x20 ADD SWAP1 DUP2 MSTORE PUSH1 0x20 ADD PUSH1 0x0 KECCAK256 SWAP1 POP DUP4 DUP2 PUSH1 0x0 ADD SWAP1 DUP1 MLOAD SWAP1 PUSH1 0x20 ADD SWAP1 PUSH2 0x417 SWAP3 SWAP2 SWAP1 PUSH2 0x8A2 JUMP JUMPDEST POP DUP3 DUP2 PUSH1 0x1 ADD DUP2 SWAP1 SSTORE POP DUP2 DUP2 PUSH1 0x2 ADD PUSH1 0x0 PUSH2 0x100 EXP DUP2 SLOAD DUP2 PUSH20 0xFFFFFFFFFFFFFFFFFFFFFFFFFFFFFFFFFFFFFFFF MUL NOT AND SWAP1 DUP4 PUSH20 0xFFFFFFFFFFFFFFFFFFFFFFFFFFFFFFFFFFFFFFFF AND MUL OR SWAP1 SSTORE POP PUSH1 0x0 DUP2 PUSH1 0x2 ADD PUSH1 0x14 PUSH2 0x100 EXP DUP2 SLOAD DUP2 PUSH1 0xFF MUL NOT AND SWAP1 DUP4 ISZERO ISZERO MUL OR SWAP1 SSTORE POP PUSH1 0x0 DUP2 PUSH1 0x4 ADD DUP2 SWAP1 SSTORE POP POP POP POP POP JUMP JUMPDEST PUSH1 0x1 SLOAD DUP2 JUMP JUMPDEST PUSH1 0x4 SLOAD DUP2 JUMP JUMPDEST CALLVALUE PUSH1 0x1 SLOAD LT PUSH2 0x4E1 JUMPI PUSH1 0x40 MLOAD PUSH32 0x8C379A000000000000000000000000000000000000000000000000000000000 DUP2 MSTORE PUSH1 0x4 ADD PUSH2 0x4D8 SWAP1 PUSH2 0xF00 JUMP JUMPDEST PUSH1 0x40 MLOAD DUP1 SWAP2 SUB SWAP1 REVERT JUMPDEST PUSH1 0x1 PUSH1 0x2 PUSH1 0x0 CALLER PUSH20 0xFFFFFFFFFFFFFFFFFFFFFFFFFFFFFFFFFFFFFFFF AND PUSH20 0xFFFFFFFFFFFFFFFFFFFFFFFFFFFFFFFFFFFFFFFF AND DUP2 MSTORE PUSH1 0x20 ADD SWAP1 DUP2 MSTORE PUSH1 0x20 ADD PUSH1 0x0 KECCAK256 PUSH1 0x0 PUSH2 0x100 EXP DUP2 SLOAD DUP2 PUSH1 0xFF MUL NOT AND SWAP1 DUP4 ISZERO ISZERO MUL OR SWAP1 SSTORE POP PUSH1 0x3 PUSH1 0x0 DUP2 SLOAD DUP1 SWAP3 SWAP2 SWAP1 PUSH2 0x54C SWAP1 PUSH2 0xE45 JUMP JUMPDEST SWAP2 SWAP1 POP SSTORE POP JUMP JUMPDEST PUSH1 0x0 PUSH1 0x5 PUSH1 0x0 DUP4 DUP2 MSTORE PUSH1 0x20 ADD SWAP1 DUP2 MSTORE PUSH1 0x20 ADD PUSH1 0x0 KECCAK256 SWAP1 POP PUSH1 0x2 PUSH1 0x0 CALLER PUSH20 0xFFFFFFFFFFFFFFFFFFFFFFFFFFFFFFFFFFFFFFFF AND PUSH20 0xFFFFFFFFFFFFFFFFFFFFFFFFFFFFFFFFFFFFFFFF AND DUP2 MSTORE PUSH1 0x20 ADD SWAP1 DUP2 MSTORE PUSH1 0x20 ADD PUSH1 0x0 KECCAK256 PUSH1 0x0 SWAP1 SLOAD SWAP1 PUSH2 0x100 EXP SWAP1 DIV PUSH1 0xFF AND PUSH2 0x5F6 JUMPI PUSH1 0x40 MLOAD PUSH32 0x8C379A000000000000000000000000000000000000000000000000000000000 DUP2 MSTORE PUSH1 0x4 ADD PUSH2 0x5ED SWAP1 PUSH2 0xF92 JUMP JUMPDEST PUSH1 0x40 MLOAD DUP1 SWAP2 SUB SWAP1 REVERT JUMPDEST DUP1 PUSH1 0x3 ADD PUSH1 0x0 CALLER PUSH20 0xFFFFFFFFFFFFFFFFFFFFFFFFFFFFFFFFFFFFFFFF AND PUSH20 0xFFFFFFFFFFFFFFFFFFFFFFFFFFFFFFFFFFFFFFFF AND DUP2 MSTORE PUSH1 0x20 ADD SWAP1 DUP2 MSTORE PUSH1 0x20 ADD PUSH1 0x0 KECCAK256 PUSH1 0x0 SWAP1 SLOAD SWAP1 PUSH2 0x100 EXP SWAP1 DIV PUSH1 0xFF AND ISZERO PUSH2 0x685 JUMPI PUSH1 0x40 MLOAD PUSH32 0x8C379A000000000000000000000000000000000000000000000000000000000 DUP2 MSTORE PUSH1 0x4 ADD PUSH2 0x67C SWAP1 PUSH2 0xFFE JUMP JUMPDEST PUSH1 0x40 MLOAD DUP1 SWAP2 SUB SWAP1 REVERT JUMPDEST PUSH1 0x1 DUP2 PUSH1 0x3 ADD PUSH1 0x0 CALLER PUSH20 0xFFFFFFFFFFFFFFFFFFFFFFFFFFFFFFFFFFFFFFFF AND PUSH20 0xFFFFFFFFFFFFFFFFFFFFFFFFFFFFFFFFFFFFFFFF AND DUP2 MSTORE PUSH1 0x20 ADD SWAP1 DUP2 MSTORE PUSH1 0x20 ADD PUSH1 0x0 KECCAK256 PUSH1 0x0 PUSH2 0x100 EXP DUP2 SLOAD DUP2 PUSH1 0xFF MUL NOT AND SWAP1 DUP4 ISZERO ISZERO MUL OR SWAP1 SSTORE POP DUP1 PUSH1 0x4 ADD PUSH1 0x0 DUP2 SLOAD DUP1 SWAP3 SWAP2 SWAP1 PUSH2 0x6F4 SWAP1 PUSH2 0xE45 JUMP JUMPDEST SWAP2 SWAP1 POP SSTORE POP POP POP JUMP JUMPDEST PUSH1 0x0 DUP1 SLOAD SWAP1 PUSH2 0x100 EXP SWAP1 DIV PUSH20 0xFFFFFFFFFFFFFFFFFFFFFFFFFFFFFFFFFFFFFFFF AND PUSH20 0xFFFFFFFFFFFFFFFFFFFFFFFFFFFFFFFFFFFFFFFF AND CALLER PUSH20 0xFFFFFFFFFFFFFFFFFFFFFFFFFFFFFFFFFFFFFFFF AND EQ PUSH2 0x755 JUMPI PUSH1 0x0 DUP1 REVERT JUMPDEST PUSH1 0x0 PUSH1 0x5 PUSH1 0x0 DUP4 DUP2 MSTORE PUSH1 0x20 ADD SWAP1 DUP2 MSTORE PUSH1 0x20 ADD PUSH1 0x0 KECCAK256 SWAP1 POP PUSH1 0x2 PUSH1 0x3 SLOAD PUSH2 0x77B SWAP2 SWAP1 PUSH2 0x104D JUMP JUMPDEST DUP2 PUSH1 0x4 ADD SLOAD GT PUSH2 0x7C0 JUMPI PUSH1 0x40 MLOAD PUSH32 0x8C379A000000000000000000000000000000000000000000000000000000000 DUP2 MSTORE PUSH1 0x4 ADD PUSH2 0x7B7 SWAP1 PUSH2 0x10F0 JUMP JUMPDEST PUSH1 0x40 MLOAD DUP1 SWAP2 SUB SWAP1 REVERT JUMPDEST DUP1 PUSH1 0x2 ADD PUSH1 0x14 SWAP1 SLOAD SWAP1 PUSH2 0x100 EXP SWAP1 DIV PUSH1 0xFF AND ISZERO PUSH2 0x812 JUMPI PUSH1 0x40 MLOAD PUSH32 0x8C379A000000000000000000000000000000000000000000000000000000000 DUP2 MSTORE PUSH1 0x4 ADD PUSH2 0x809 SWAP1 PUSH2 0x115C JUMP JUMPDEST PUSH1 0x40 MLOAD DUP1 SWAP2 SUB SWAP1 REVERT JUMPDEST DUP1 PUSH1 0x2 ADD PUSH1 0x0 SWAP1 SLOAD SWAP1 PUSH2 0x100 EXP SWAP1 DIV PUSH20 0xFFFFFFFFFFFFFFFFFFFFFFFFFFFFFFFFFFFFFFFF AND PUSH20 0xFFFFFFFFFFFFFFFFFFFFFFFFFFFFFFFFFFFFFFFF AND PUSH2 0x8FC DUP3 PUSH1 0x1 ADD SLOAD SWAP1 DUP2 ISZERO MUL SWAP1 PUSH1 0x40 MLOAD PUSH1 0x0 PUSH1 0x40 MLOAD DUP1 DUP4 SUB DUP2 DUP6 DUP9 DUP9 CALL SWAP4 POP POP POP POP ISZERO DUP1 ISZERO PUSH2 0x880 JUMPI RETURNDATASIZE PUSH1 0x0 DUP1 RETURNDATACOPY RETURNDATASIZE PUSH1 0x0 REVERT JUMPDEST POP PUSH1 0x1 DUP2 PUSH1 0x2 ADD PUSH1 0x14 PUSH2 0x100 EXP DUP2 SLOAD DUP2 PUSH1 0xFF MUL NOT AND SWAP1 DUP4 ISZERO ISZERO MUL OR SWAP1 SSTORE POP POP POP JUMP JUMPDEST DUP3 DUP1 SLOAD PUSH2 0x8AE SWAP1 PUSH2 0xDE4 JUMP JUMPDEST SWAP1 PUSH1 0x0 MSTORE PUSH1 0x20 PUSH1 0x0 KECCAK256 SWAP1 PUSH1 0x1F ADD PUSH1 0x20 SWAP1 DIV DUP2 ADD SWAP3 DUP3 PUSH2 0x8D0 JUMPI PUSH1 0x0 DUP6 SSTORE PUSH2 0x917 JUMP JUMPDEST DUP3 PUSH1 0x1F LT PUSH2 0x8E9 JUMPI DUP1 MLOAD PUSH1 0xFF NOT AND DUP4 DUP1 ADD OR DUP6 SSTORE PUSH2 0x917 JUMP JUMPDEST DUP3 DUP1 ADD PUSH1 0x1 ADD DUP6 SSTORE DUP3 ISZERO PUSH2 0x917 JUMPI SWAP2 DUP3 ADD JUMPDEST DUP3 DUP2 GT ISZERO PUSH2 0x916 JUMPI DUP3 MLOAD DUP3 SSTORE SWAP2 PUSH1 0x20 ADD SWAP2 SWAP1 PUSH1 0x1 ADD SWAP1 PUSH2 0x8FB JUMP JUMPDEST JUMPDEST POP SWAP1 POP PUSH2 0x924 SWAP2 SWAP1 PUSH2 0x928 JUMP JUMPDEST POP SWAP1 JUMP JUMPDEST JUMPDEST DUP1 DUP3 GT ISZERO PUSH2 0x941 JUMPI PUSH1 0x0 DUP2 PUSH1 0x0 SWAP1 SSTORE POP PUSH1 0x1 ADD PUSH2 0x929 JUMP JUMPDEST POP SWAP1 JUMP JUMPDEST PUSH1 0x0 PUSH1 0x40 MLOAD SWAP1 POP SWAP1 JUMP JUMPDEST PUSH1 0x0 DUP1 REVERT JUMPDEST PUSH1 0x0 DUP1 REVERT JUMPDEST PUSH1 0x0 PUSH20 0xFFFFFFFFFFFFFFFFFFFFFFFFFFFFFFFFFFFFFFFF DUP3 AND SWAP1 POP SWAP2 SWAP1 POP JUMP JUMPDEST PUSH1 0x0 PUSH2 0x984 DUP3 PUSH2 0x959 JUMP JUMPDEST SWAP1 POP SWAP2 SWAP1 POP JUMP JUMPDEST PUSH2 0x994 DUP2 PUSH2 0x979 JUMP JUMPDEST DUP2 EQ PUSH2 0x99F JUMPI PUSH1 0x0 DUP1 REVERT JUMPDEST POP JUMP JUMPDEST PUSH1 0x0 DUP2 CALLDATALOAD SWAP1 POP PUSH2 0x9B1 DUP2 PUSH2 0x98B JUMP JUMPDEST SWAP3 SWAP2 POP POP JUMP JUMPDEST PUSH1 0x0 PUSH1 0x20 DUP3 DUP5 SUB SLT ISZERO PUSH2 0x9CD JUMPI PUSH2 0x9CC PUSH2 0x94F JUMP JUMPDEST JUMPDEST PUSH1 0x0 PUSH2 0x9DB DUP5 DUP3 DUP6 ADD PUSH2 0x9A2 JUMP JUMPDEST SWAP2 POP POP SWAP3 SWAP2 POP POP JUMP JUMPDEST PUSH1 0x0 DUP2 ISZERO ISZERO SWAP1 POP SWAP2 SWAP1 POP JUMP JUMPDEST PUSH2 0x9F9 DUP2 PUSH2 0x9E4 JUMP JUMPDEST DUP3 MSTORE POP POP JUMP JUMPDEST PUSH1 0x0 PUSH1 0x20 DUP3 ADD SWAP1 POP PUSH2 0xA14 PUSH1 0x0 DUP4 ADD DUP5 PUSH2 0x9F0 JUMP JUMPDEST SWAP3 SWAP2 POP POP JUMP JUMPDEST PUSH2 0xA23 DUP2 PUSH2 0x979 JUMP JUMPDEST DUP3 MSTORE POP POP JUMP JUMPDEST PUSH1 0x0 PUSH1 0x20 DUP3 ADD SWAP1 POP PUSH2 0xA3E PUSH1 0x0 DUP4 ADD DUP5 PUSH2 0xA1A JUMP JUMPDEST SWAP3 SWAP2 POP POP JUMP JUMPDEST PUSH1 0x0 DUP2 SWAP1 POP SWAP2 SWAP1 POP JUMP JUMPDEST PUSH2 0xA57 DUP2 PUSH2 0xA44 JUMP JUMPDEST DUP2 EQ PUSH2 0xA62 JUMPI PUSH1 0x0 DUP1 REVERT JUMPDEST POP JUMP JUMPDEST PUSH1 0x0 DUP2 CALLDATALOAD SWAP1 POP PUSH2 0xA74 DUP2 PUSH2 0xA4E JUMP JUMPDEST SWAP3 SWAP2 POP POP JUMP JUMPDEST PUSH1 0x0 PUSH1 0x20 DUP3 DUP5 SUB SLT ISZERO PUSH2 0xA90 JUMPI PUSH2 0xA8F PUSH2 0x94F JUMP JUMPDEST JUMPDEST PUSH1 0x0 PUSH2 0xA9E DUP5 DUP3 DUP6 ADD PUSH2 0xA65 JUMP JUMPDEST SWAP2 POP POP SWAP3 SWAP2 POP POP JUMP JUMPDEST PUSH1 0x0 DUP2 MLOAD SWAP1 POP SWAP2 SWAP1 POP JUMP JUMPDEST PUSH1 0x0 DUP3 DUP3 MSTORE PUSH1 0x20 DUP3 ADD SWAP1 POP SWAP3 SWAP2 POP POP JUMP JUMPDEST PUSH1 0x0 JUMPDEST DUP4 DUP2 LT ISZERO PUSH2 0xAE1 JUMPI DUP1 DUP3 ADD MLOAD DUP2 DUP5 ADD MSTORE PUSH1 0x20 DUP2 ADD SWAP1 POP PUSH2 0xAC6 JUMP JUMPDEST DUP4 DUP2 GT ISZERO PUSH2 0xAF0 JUMPI PUSH1 0x0 DUP5 DUP5 ADD MSTORE JUMPDEST POP POP POP POP JUMP JUMPDEST PUSH1 0x0 PUSH1 0x1F NOT PUSH1 0x1F DUP4 ADD AND SWAP1 POP SWAP2 SWAP1 POP JUMP JUMPDEST PUSH1 0x0 PUSH2 0xB12 DUP3 PUSH2 0xAA7 JUMP JUMPDEST PUSH2 0xB1C DUP2 DUP6 PUSH2 0xAB2 JUMP JUMPDEST SWAP4 POP PUSH2 0xB2C DUP2 DUP6 PUSH1 0x20 DUP7 ADD PUSH2 0xAC3 JUMP JUMPDEST PUSH2 0xB35 DUP2 PUSH2 0xAF6 JUMP JUMPDEST DUP5 ADD SWAP2 POP POP SWAP3 SWAP2 POP POP JUMP JUMPDEST PUSH2 0xB49 DUP2 PUSH2 0xA44 JUMP JUMPDEST DUP3 MSTORE POP POP JUMP JUMPDEST PUSH1 0x0 PUSH2 0xB5A DUP3 PUSH2 0x959 JUMP JUMPDEST SWAP1 POP SWAP2 SWAP1 POP JUMP JUMPDEST PUSH2 0xB6A DUP2 PUSH2 0xB4F JUMP JUMPDEST DUP3 MSTORE POP POP JUMP JUMPDEST PUSH1 0x0 PUSH1 0xA0 DUP3 ADD SWAP1 POP DUP2 DUP2 SUB PUSH1 0x0 DUP4 ADD MSTORE PUSH2 0xB8A DUP2 DUP9 PUSH2 0xB07 JUMP JUMPDEST SWAP1 POP PUSH2 0xB99 PUSH1 0x20 DUP4 ADD DUP8 PUSH2 0xB40 JUMP JUMPDEST PUSH2 0xBA6 PUSH1 0x40 DUP4 ADD DUP7 PUSH2 0xB61 JUMP JUMPDEST PUSH2 0xBB3 PUSH1 0x60 DUP4 ADD DUP6 PUSH2 0x9F0 JUMP JUMPDEST PUSH2 0xBC0 PUSH1 0x80 DUP4 ADD DUP5 PUSH2 0xB40 JUMP JUMPDEST SWAP7 SWAP6 POP POP POP POP POP POP JUMP JUMPDEST PUSH1 0x0 PUSH1 0x20 DUP3 ADD SWAP1 POP PUSH2 0xBDF PUSH1 0x0 DUP4 ADD DUP5 PUSH2 0xB40 JUMP JUMPDEST SWAP3 SWAP2 POP POP JUMP JUMPDEST PUSH1 0x0 DUP1 REVERT JUMPDEST PUSH1 0x0 DUP1 REVERT JUMPDEST PUSH32 0x4E487B7100000000000000000000000000000000000000000000000000000000 PUSH1 0x0 MSTORE PUSH1 0x41 PUSH1 0x4 MSTORE PUSH1 0x24 PUSH1 0x0 REVERT JUMPDEST PUSH2 0xC27 DUP3 PUSH2 0xAF6 JUMP JUMPDEST DUP2 ADD DUP2 DUP2 LT PUSH8 0xFFFFFFFFFFFFFFFF DUP3 GT OR ISZERO PUSH2 0xC46 JUMPI PUSH2 0xC45 PUSH2 0xBEF JUMP JUMPDEST JUMPDEST DUP1 PUSH1 0x40 MSTORE POP POP POP JUMP JUMPDEST PUSH1 0x0 PUSH2 0xC59 PUSH2 0x945 JUMP JUMPDEST SWAP1 POP PUSH2 0xC65 DUP3 DUP3 PUSH2 0xC1E JUMP JUMPDEST SWAP2 SWAP1 POP JUMP JUMPDEST PUSH1 0x0 PUSH8 0xFFFFFFFFFFFFFFFF DUP3 GT ISZERO PUSH2 0xC85 JUMPI PUSH2 0xC84 PUSH2 0xBEF JUMP JUMPDEST JUMPDEST PUSH2 0xC8E DUP3 PUSH2 0xAF6 JUMP JUMPDEST SWAP1 POP PUSH1 0x20 DUP2 ADD SWAP1 POP SWAP2 SWAP1 POP JUMP JUMPDEST DUP3 DUP2 DUP4 CALLDATACOPY PUSH1 0x0 DUP4 DUP4 ADD MSTORE POP POP POP JUMP JUMPDEST PUSH1 0x0 PUSH2 0xCBD PUSH2 0xCB8 DUP5 PUSH2 0xC6A JUMP JUMPDEST PUSH2 0xC4F JUMP JUMPDEST SWAP1 POP DUP3 DUP2 MSTORE PUSH1 0x20 DUP2 ADD DUP5 DUP5 DUP5 ADD GT ISZERO PUSH2 0xCD9 JUMPI PUSH2 0xCD8 PUSH2 0xBEA JUMP JUMPDEST JUMPDEST PUSH2 0xCE4 DUP5 DUP3 DUP6 PUSH2 0xC9B JUMP JUMPDEST POP SWAP4 SWAP3 POP POP POP JUMP JUMPDEST PUSH1 0x0 DUP3 PUSH1 0x1F DUP4 ADD SLT PUSH2 0xD01 JUMPI PUSH2 0xD00 PUSH2 0xBE5 JUMP JUMPDEST JUMPDEST DUP2 CALLDATALOAD PUSH2 0xD11 DUP5 DUP3 PUSH1 0x20 DUP7 ADD PUSH2 0xCAA JUMP JUMPDEST SWAP2 POP POP SWAP3 SWAP2 POP POP JUMP JUMPDEST PUSH2 0xD23 DUP2 PUSH2 0xB4F JUMP JUMPDEST DUP2 EQ PUSH2 0xD2E JUMPI PUSH1 0x0 DUP1 REVERT JUMPDEST POP JUMP JUMPDEST PUSH1 0x0 DUP2 CALLDATALOAD SWAP1 POP PUSH2 0xD40 DUP2 PUSH2 0xD1A JUMP JUMPDEST SWAP3 SWAP2 POP POP JUMP JUMPDEST PUSH1 0x0 DUP1 PUSH1 0x0 PUSH1 0x60 DUP5 DUP7 SUB SLT ISZERO PUSH2 0xD5F JUMPI PUSH2 0xD5E PUSH2 0x94F JUMP JUMPDEST JUMPDEST PUSH1 0x0 DUP5 ADD CALLDATALOAD PUSH8 0xFFFFFFFFFFFFFFFF DUP2 GT ISZERO PUSH2 0xD7D JUMPI PUSH2 0xD7C PUSH2 0x954 JUMP JUMPDEST JUMPDEST PUSH2 0xD89 DUP7 DUP3 DUP8 ADD PUSH2 0xCEC JUMP JUMPDEST SWAP4 POP POP PUSH1 0x20 PUSH2 0xD9A DUP7 DUP3 DUP8 ADD PUSH2 0xA65 JUMP JUMPDEST SWAP3 POP POP PUSH1 0x40 PUSH2 0xDAB DUP7 DUP3 DUP8 ADD PUSH2 0xD31 JUMP JUMPDEST SWAP2 POP POP SWAP3 POP SWAP3 POP SWAP3 JUMP JUMPDEST PUSH32 0x4E487B7100000000000000000000000000000000000000000000000000000000 PUSH1 0x0 MSTORE PUSH1 0x22 PUSH1 0x4 MSTORE PUSH1 0x24 PUSH1 0x0 REVERT JUMPDEST PUSH1 0x0 PUSH1 0x2 DUP3 DIV SWAP1 POP PUSH1 0x1 DUP3 AND DUP1 PUSH2 0xDFC JUMPI PUSH1 0x7F DUP3 AND SWAP2 POP JUMPDEST PUSH1 0x20 DUP3 LT DUP2 EQ ISZERO PUSH2 0xE10 JUMPI PUSH2 0xE0F PUSH2 0xDB5 JUMP JUMPDEST JUMPDEST POP SWAP2 SWAP1 POP JUMP JUMPDEST PUSH32 0x4E487B7100000000000000000000000000000000000000000000000000000000 PUSH1 0x0 MSTORE PUSH1 0x11 PUSH1 0x4 MSTORE PUSH1 0x24 PUSH1 0x0 REVERT JUMPDEST PUSH1 0x0 PUSH2 0xE50 DUP3 PUSH2 0xA44 JUMP JUMPDEST SWAP2 POP PUSH32 0xFFFFFFFFFFFFFFFFFFFFFFFFFFFFFFFFFFFFFFFFFFFFFFFFFFFFFFFFFFFFFFFF DUP3 EQ ISZERO PUSH2 0xE83 JUMPI PUSH2 0xE82 PUSH2 0xE16 JUMP JUMPDEST JUMPDEST PUSH1 0x1 DUP3 ADD SWAP1 POP SWAP2 SWAP1 POP JUMP JUMPDEST PUSH32 0x4E6565647320746F2070726F76696465206D696E696D756D20636F6E74726962 PUSH1 0x0 DUP3 ADD MSTORE PUSH32 0x7574696F6E000000000000000000000000000000000000000000000000000000 PUSH1 0x20 DUP3 ADD MSTORE POP JUMP JUMPDEST PUSH1 0x0 PUSH2 0xEEA PUSH1 0x25 DUP4 PUSH2 0xAB2 JUMP JUMPDEST SWAP2 POP PUSH2 0xEF5 DUP3 PUSH2 0xE8E JUMP JUMPDEST PUSH1 0x40 DUP3 ADD SWAP1 POP SWAP2 SWAP1 POP JUMP JUMPDEST PUSH1 0x0 PUSH1 0x20 DUP3 ADD SWAP1 POP DUP2 DUP2 SUB PUSH1 0x0 DUP4 ADD MSTORE PUSH2 0xF19 DUP2 PUSH2 0xEDD JUMP JUMPDEST SWAP1 POP SWAP2 SWAP1 POP JUMP JUMPDEST PUSH32 0x546F20617070726F76652072657175657374206E6565647320746F2061206170 PUSH1 0x0 DUP3 ADD MSTORE PUSH32 0x70726F7665720000000000000000000000000000000000000000000000000000 PUSH1 0x20 DUP3 ADD MSTORE POP JUMP JUMPDEST PUSH1 0x0 PUSH2 0xF7C PUSH1 0x26 DUP4 PUSH2 0xAB2 JUMP JUMPDEST SWAP2 POP PUSH2 0xF87 DUP3 PUSH2 0xF20 JUMP JUMPDEST PUSH1 0x40 DUP3 ADD SWAP1 POP SWAP2 SWAP1 POP JUMP JUMPDEST PUSH1 0x0 PUSH1 0x20 DUP3 ADD SWAP1 POP DUP2 DUP2 SUB PUSH1 0x0 DUP4 ADD MSTORE PUSH2 0xFAB DUP2 PUSH2 0xF6F JUMP JUMPDEST SWAP1 POP SWAP2 SWAP1 POP JUMP JUMPDEST PUSH32 0x596F752063616E20766F7465206F6E6C79206F6E636500000000000000000000 PUSH1 0x0 DUP3 ADD MSTORE POP JUMP JUMPDEST PUSH1 0x0 PUSH2 0xFE8 PUSH1 0x16 DUP4 PUSH2 0xAB2 JUMP JUMPDEST SWAP2 POP PUSH2 0xFF3 DUP3 PUSH2 0xFB2 JUMP JUMPDEST PUSH1 0x20 DUP3 ADD SWAP1 POP SWAP2 SWAP1 POP JUMP JUMPDEST PUSH1 0x0 PUSH1 0x20 DUP3 ADD SWAP1 POP DUP2 DUP2 SUB PUSH1 0x0 DUP4 ADD MSTORE PUSH2 0x1017 DUP2 PUSH2 0xFDB JUMP JUMPDEST SWAP1 POP SWAP2 SWAP1 POP JUMP JUMPDEST PUSH32 0x4E487B7100000000000000000000000000000000000000000000000000000000 PUSH1 0x0 MSTORE PUSH1 0x12 PUSH1 0x4 MSTORE PUSH1 0x24 PUSH1 0x0 REVERT JUMPDEST PUSH1 0x0 PUSH2 0x1058 DUP3 PUSH2 0xA44 JUMP JUMPDEST SWAP2 POP PUSH2 0x1063 DUP4 PUSH2 0xA44 JUMP JUMPDEST SWAP3 POP DUP3 PUSH2 0x1073 JUMPI PUSH2 0x1072 PUSH2 0x101E JUMP JUMPDEST JUMPDEST DUP3 DUP3 DIV SWAP1 POP SWAP3 SWAP2 POP POP JUMP JUMPDEST PUSH32 0x4E656564732061746C656173742068616C66206D656D6265727320617070726F PUSH1 0x0 DUP3 ADD MSTORE PUSH32 0x76616C0000000000000000000000000000000000000000000000000000000000 PUSH1 0x20 DUP3 ADD MSTORE POP JUMP JUMPDEST PUSH1 0x0 PUSH2 0x10DA PUSH1 0x23 DUP4 PUSH2 0xAB2 JUMP JUMPDEST SWAP2 POP PUSH2 0x10E5 DUP3 PUSH2 0x107E JUMP JUMPDEST PUSH1 0x40 DUP3 ADD SWAP1 POP SWAP2 SWAP1 POP JUMP JUMPDEST PUSH1 0x0 PUSH1 0x20 DUP3 ADD SWAP1 POP DUP2 DUP2 SUB PUSH1 0x0 DUP4 ADD MSTORE PUSH2 0x1109 DUP2 PUSH2 0x10CD JUMP JUMPDEST SWAP1 POP SWAP2 SWAP1 POP JUMP JUMPDEST PUSH32 0x5265717565737420616C726561647920636F6D706C6574656400000000000000 PUSH1 0x0 DUP3 ADD MSTORE POP JUMP JUMPDEST PUSH1 0x0 PUSH2 0x1146 PUSH1 0x19 DUP4 PUSH2 0xAB2 JUMP JUMPDEST SWAP2 POP PUSH2 0x1151 DUP3 PUSH2 0x1110 JUMP JUMPDEST PUSH1 0x20 DUP3 ADD SWAP1 POP SWAP2 SWAP1 POP JUMP JUMPDEST PUSH1 0x0 PUSH1 0x20 DUP3 ADD SWAP1 POP DUP2 DUP2 SUB PUSH1 0x0 DUP4 ADD MSTORE PUSH2 0x1175 DUP2 PUSH2 0x1139 JUMP JUMPDEST SWAP1 POP SWAP2 SWAP1 POP JUMP INVALID LOG2 PUSH5 0x6970667358 0x22 SLT KECCAK256 CALL SWAP6 RETURNDATACOPY 0x5D SWAP7 DUP14 SHL 0xEF 0xD1 0x23 DUP9 PUSH16 0xB4393A7D387A7E68DE224DAB1E50F330 PUSH31 0x1448AC64736F6C634300080B0033A2646970667358221220C09DB2A621D900 0xE1 0xEB 0xD3 CALLDATASIZE NOT 0xB1 0xC7 CODECOPY LOG3 0xCE STATICCALL 0xBE 0x22 0x21 0xD2 0xC9 PUSH11 0x6CB6758AFCB912D364736F PUSH13 0x634300080B0033000000000000 "},"gasEstimates":{"creation":{"codeDepositCost":"1219200","executionCost":"1268","totalCost":"1220468"},"external":{"campaignsList(uint256)":"infinite","createCampaign(uint256)":"infinite","getDeployedCampaigns()":"infinite"}},"methodIdentifiers":{"campaignsList(uint256)":"c3d44506","createCampaign(uint256)":"a3303a75","getDeployedCampaigns()":"4acb9d4f"}},"storageLayout":{"storage":[{"astId":5,"contract":"Campaign.sol:CampaignFactory","label":"campaignsList","offset":0,"slot":"0","type":"t_array(t_contract(Campaign)264)dyn_storage"}],"types":{"t_array(t_contract(Campaign)264)dyn_storage":{"base":"t_contract(Campaign)264","encoding":"dynamic_array","label":"contract Campaign[]","numberOfBytes":"32"},"t_contract(Campaign)264":{"encoding":"inplace","label":"contract Campaign","numberOfBytes":"20"}}},"userdoc":{"kind":"user","methods":{},"version":1}}