{"abi":[{"inputs":[{"internalType":"uint256","name":"minimum","type":"uint256"},{"internalType":"address","name":"creator","type":"address"}],"stateMutability":"nonpayable","type":"constructor"},{"inputs":[{"internalType":"uint256","name":"index","type":"uint256"}],"name":"approveRequest","outputs":[],"stateMutability":"nonpayable","type":"function"},{"inputs":[{"internalType":"address","name":"","type":"address"}],"name":"approvers","outputs":[{"internalType":"bool","name":"","type":"bool"}],"stateMutability":"view","type":"function"},{"inputs":[],"name":"approversCount","outputs":[{"internalType":"uint256","name":"","type":"uint256"}],"stateMutability":"view","type":"function"},{"inputs":[],"name":"contribute","outputs":[],"stateMutability":"payable","type":"function"},{"inputs":[{"internalType":"string","name":"description","type":"string"},{"internalType":"uint256","name":"value","type":"uint256"},{"internalType":"address payable","name":"recipient","type":"address"}],"name":"createRequest","outputs":[],"stateMutability":"nonpayable","type":"function"},{"inputs":[{"internalType":"uint256","name":"index","type":"uint256"}],"name":"finalizeApprove","outputs":[],"stateMutability":"nonpayable","type":"function"},{"inputs":[],"name":"getRequestsCount","outputs":[{"internalType":"uint256","name":"","type":"uint256"}],"stateMutability":"view","type":"function"},{"inputs":[],"name":"getSummary","outputs":[{"internalType":"uint256","name":"","type":"uint256"},{"internalType":"uint256","name":"","type":"uint256"},{"internalType":"uint256","name":"","type":"uint256"},{"internalType":"uint256","name":"","type":"uint256"},{"internalType":"address","name":"","type":"address"}],"stateMutability":"view","type":"function"},{"inputs":[],"name":"manager","outputs":[{"internalType":"address","name":"","type":"address"}],"stateMutability":"view","type":"function"},{"inputs":[],"name":"minimumContribution","outputs":[{"internalType":"uint256","name":"","type":"uint256"}],"stateMutability":"view","type":"function"},{"inputs":[],"name":"numRequests","outputs":[{"internalType":"uint256","name":"","type":"uint256"}],"stateMutability":"view","type":"function"},{"inputs":[{"internalType":"uint256","name":"","type":"uint256"}],"name":"requests","outputs":[{"internalType":"string","name":"description","type":"string"},{"internalType":"uint256","name":"value","type":"uint256"},{"internalType":"address payable","name":"recipient","type":"address"},{"internalType":"bool","name":"complete","type":"bool"},{"internalType":"uint256","name":"approvalCount","type":"uint256"}],"stateMutability":"view","type":"function"}],"devdoc":{"kind":"dev","methods":{},"version":1},"evm":{"assembly":"    /* \"Campaign.sol\":420:2949  contract Campaign {... */\n  mstore(0x40, 0x80)\n    /* \"Campaign.sol\":889:1008  constructor(uint256 minimum, address creator) {... */\n  callvalue\n  dup1\n  iszero\n  tag_1\n  jumpi\n  0x00\n  dup1\n  revert\ntag_1:\n  pop\n  mload(0x40)\n  sub(codesize, bytecodeSize)\n  dup1\n  bytecodeSize\n  dup4\n  codecopy\n  dup2\n  dup2\n  add\n  0x40\n  mstore\n  dup2\n  add\n  swap1\n  tag_2\n  swap2\n  swap1\n  tag_3\n  jump\t// in\ntag_2:\n    /* \"Campaign.sol\":955:962  creator */\n  dup1\n    /* \"Campaign.sol\":945:952  manager */\n  0x00\n  dup1\n    /* \"Campaign.sol\":945:962  manager = creator */\n  0x0100\n  exp\n  dup2\n  sload\n  dup2\n  0xffffffffffffffffffffffffffffffffffffffff\n  mul\n  not\n  and\n  swap1\n  dup4\n  0xffffffffffffffffffffffffffffffffffffffff\n  and\n  mul\n  or\n  swap1\n  sstore\n  pop\n    /* \"Campaign.sol\":994:1001  minimum */\n  dup2\n    /* \"Campaign.sol\":972:991  minimumContribution */\n  0x01\n    /* \"Campaign.sol\":972:1001  minimumContribution = minimum */\n  dup2\n  swap1\n  sstore\n  pop\n    /* \"Campaign.sol\":889:1008  constructor(uint256 minimum, address creator) {... */\n  pop\n  pop\n    /* \"Campaign.sol\":420:2949  contract Campaign {... */\n  jump(tag_6)\n    /* \"#utility.yul\":88:205   */\ntag_8:\n    /* \"#utility.yul\":197:198   */\n  0x00\n    /* \"#utility.yul\":194:195   */\n  dup1\n    /* \"#utility.yul\":187:199   */\n  revert\n    /* \"#utility.yul\":334:411   */\ntag_10:\n    /* \"#utility.yul\":371:378   */\n  0x00\n    /* \"#utility.yul\":400:405   */\n  dup2\n    /* \"#utility.yul\":389:405   */\n  swap1\n  pop\n    /* \"#utility.yul\":334:411   */\n  swap2\n  swap1\n  pop\n  jump\t// out\n    /* \"#utility.yul\":417:539   */\ntag_11:\n    /* \"#utility.yul\":490:514   */\n  tag_23\n    /* \"#utility.yul\":508:513   */\n  dup2\n    /* \"#utility.yul\":490:514   */\n  tag_10\n  jump\t// in\ntag_23:\n    /* \"#utility.yul\":483:488   */\n  dup2\n    /* \"#utility.yul\":480:515   */\n  eq\n    /* \"#utility.yul\":470:533   */\n  tag_24\n  jumpi\n    /* \"#utility.yul\":529:530   */\n  0x00\n    /* \"#utility.yul\":526:527   */\n  dup1\n    /* \"#utility.yul\":519:531   */\n  revert\n    /* \"#utility.yul\":470:533   */\ntag_24:\n    /* \"#utility.yul\":417:539   */\n  pop\n  jump\t// out\n    /* \"#utility.yul\":545:688   */\ntag_12:\n    /* \"#utility.yul\":602:607   */\n  0x00\n    /* \"#utility.yul\":633:639   */\n  dup2\n    /* \"#utility.yul\":627:640   */\n  mload\n    /* \"#utility.yul\":618:640   */\n  swap1\n  pop\n    /* \"#utility.yul\":649:682   */\n  tag_26\n    /* \"#utility.yul\":676:681   */\n  dup2\n    /* \"#utility.yul\":649:682   */\n  tag_11\n  jump\t// in\ntag_26:\n    /* \"#utility.yul\":545:688   */\n  swap3\n  swap2\n  pop\n  pop\n  jump\t// out\n    /* \"#utility.yul\":694:820   */\ntag_13:\n    /* \"#utility.yul\":731:738   */\n  0x00\n    /* \"#utility.yul\":771:813   */\n  0xffffffffffffffffffffffffffffffffffffffff\n    /* \"#utility.yul\":764:769   */\n  dup3\n    /* \"#utility.yul\":760:814   */\n  and\n    /* \"#utility.yul\":749:814   */\n  swap1\n  pop\n    /* \"#utility.yul\":694:820   */\n  swap2\n  swap1\n  pop\n  jump\t// out\n    /* \"#utility.yul\":826:922   */\ntag_14:\n    /* \"#utility.yul\":863:870   */\n  0x00\n    /* \"#utility.yul\":892:916   */\n  tag_29\n    /* \"#utility.yul\":910:915   */\n  dup3\n    /* \"#utility.yul\":892:916   */\n  tag_13\n  jump\t// in\ntag_29:\n    /* \"#utility.yul\":881:916   */\n  swap1\n  pop\n    /* \"#utility.yul\":826:922   */\n  swap2\n  swap1\n  pop\n  jump\t// out\n    /* \"#utility.yul\":928:1050   */\ntag_15:\n    /* \"#utility.yul\":1001:1025   */\n  tag_31\n    /* \"#utility.yul\":1019:1024   */\n  dup2\n    /* \"#utility.yul\":1001:1025   */\n  tag_14\n  jump\t// in\ntag_31:\n    /* \"#utility.yul\":994:999   */\n  dup2\n    /* \"#utility.yul\":991:1026   */\n  eq\n    /* \"#utility.yul\":981:1044   */\n  tag_32\n  jumpi\n    /* \"#utility.yul\":1040:1041   */\n  0x00\n    /* \"#utility.yul\":1037:1038   */\n  dup1\n    /* \"#utility.yul\":1030:1042   */\n  revert\n    /* \"#utility.yul\":981:1044   */\ntag_32:\n    /* \"#utility.yul\":928:1050   */\n  pop\n  jump\t// out\n    /* \"#utility.yul\":1056:1199   */\ntag_16:\n    /* \"#utility.yul\":1113:1118   */\n  0x00\n    /* \"#utility.yul\":1144:1150   */\n  dup2\n    /* \"#utility.yul\":1138:1151   */\n  mload\n    /* \"#utility.yul\":1129:1151   */\n  swap1\n  pop\n    /* \"#utility.yul\":1160:1193   */\n  tag_34\n    /* \"#utility.yul\":1187:1192   */\n  dup2\n    /* \"#utility.yul\":1160:1193   */\n  tag_15\n  jump\t// in\ntag_34:\n    /* \"#utility.yul\":1056:1199   */\n  swap3\n  swap2\n  pop\n  pop\n  jump\t// out\n    /* \"#utility.yul\":1205:1712   */\ntag_3:\n    /* \"#utility.yul\":1284:1290   */\n  0x00\n    /* \"#utility.yul\":1292:1298   */\n  dup1\n    /* \"#utility.yul\":1341:1343   */\n  0x40\n    /* \"#utility.yul\":1329:1338   */\n  dup4\n    /* \"#utility.yul\":1320:1327   */\n  dup6\n    /* \"#utility.yul\":1316:1339   */\n  sub\n    /* \"#utility.yul\":1312:1344   */\n  slt\n    /* \"#utility.yul\":1309:1428   */\n  iszero\n  tag_36\n  jumpi\n    /* \"#utility.yul\":1347:1426   */\n  tag_37\n  tag_8\n  jump\t// in\ntag_37:\n    /* \"#utility.yul\":1309:1428   */\ntag_36:\n    /* \"#utility.yul\":1467:1468   */\n  0x00\n    /* \"#utility.yul\":1492:1556   */\n  tag_38\n    /* \"#utility.yul\":1548:1555   */\n  dup6\n    /* \"#utility.yul\":1539:1545   */\n  dup3\n    /* \"#utility.yul\":1528:1537   */\n  dup7\n    /* \"#utility.yul\":1524:1546   */\n  add\n    /* \"#utility.yul\":1492:1556   */\n  tag_12\n  jump\t// in\ntag_38:\n    /* \"#utility.yul\":1482:1556   */\n  swap3\n  pop\n    /* \"#utility.yul\":1438:1566   */\n  pop\n    /* \"#utility.yul\":1605:1607   */\n  0x20\n    /* \"#utility.yul\":1631:1695   */\n  tag_39\n    /* \"#utility.yul\":1687:1694   */\n  dup6\n    /* \"#utility.yul\":1678:1684   */\n  dup3\n    /* \"#utility.yul\":1667:1676   */\n  dup7\n    /* \"#utility.yul\":1663:1685   */\n  add\n    /* \"#utility.yul\":1631:1695   */\n  tag_16\n  jump\t// in\ntag_39:\n    /* \"#utility.yul\":1621:1695   */\n  swap2\n  pop\n    /* \"#utility.yul\":1576:1705   */\n  pop\n    /* \"#utility.yul\":1205:1712   */\n  swap3\n  pop\n  swap3\n  swap1\n  pop\n  jump\t// out\n    /* \"Campaign.sol\":420:2949  contract Campaign {... */\ntag_6:\n  dataSize(sub_0)\n  dup1\n  dataOffset(sub_0)\n  0x00\n  codecopy\n  0x00\n  return\nstop\n\nsub_0: assembly {\n        /* \"Campaign.sol\":420:2949  contract Campaign {... */\n      mstore(0x40, 0x80)\n      jumpi(tag_1, lt(calldatasize, 0x04))\n      shr(0xe0, calldataload(0x00))\n      dup1\n      0x8a9cfd55\n      gt\n      tag_14\n      jumpi\n      dup1\n      0x8a9cfd55\n      eq\n      tag_8\n      jumpi\n      dup1\n      0x937e09b1\n      eq\n      tag_9\n      jumpi\n      dup1\n      0x9fb42b1f\n      eq\n      tag_10\n      jumpi\n      dup1\n      0xd7bb99ba\n      eq\n      tag_11\n      jumpi\n      dup1\n      0xd7d1bbdb\n      eq\n      tag_12\n      jumpi\n      dup1\n      0xf00a7f4f\n      eq\n      tag_13\n      jumpi\n      jump(tag_1)\n    tag_14:\n      dup1\n      0x0a144391\n      eq\n      tag_2\n      jumpi\n      dup1\n      0x3410452a\n      eq\n      tag_3\n      jumpi\n      dup1\n      0x4051ddac\n      eq\n      tag_4\n      jumpi\n      dup1\n      0x481c6a75\n      eq\n      tag_5\n      jumpi\n      dup1\n      0x81d12c58\n      eq\n      tag_6\n      jumpi\n      dup1\n      0x82fde093\n      eq\n      tag_7\n      jumpi\n    tag_1:\n      0x00\n      dup1\n      revert\n        /* \"Campaign.sol\":724:765  mapping(address => bool) public approvers */\n    tag_2:\n      callvalue\n      dup1\n      iszero\n      tag_15\n      jumpi\n      0x00\n      dup1\n      revert\n    tag_15:\n      pop\n      tag_16\n      0x04\n      dup1\n      calldatasize\n      sub\n      dup2\n      add\n      swap1\n      tag_17\n      swap2\n      swap1\n      tag_18\n      jump\t// in\n    tag_17:\n      tag_19\n      jump\t// in\n    tag_16:\n      mload(0x40)\n      tag_20\n      swap2\n      swap1\n      tag_21\n      jump\t// in\n    tag_20:\n      mload(0x40)\n      dup1\n      swap2\n      sub\n      swap1\n      return\n        /* \"Campaign.sol\":2854:2947  function getRequestsCount() public view returns (uint256) {... */\n    tag_3:\n      callvalue\n      dup1\n      iszero\n      tag_22\n      jumpi\n      0x00\n      dup1\n      revert\n    tag_22:\n      pop\n      tag_23\n      tag_24\n      jump\t// in\n    tag_23:\n      mload(0x40)\n      tag_25\n      swap2\n      swap1\n      tag_26\n      jump\t// in\n    tag_25:\n      mload(0x40)\n      dup1\n      swap2\n      sub\n      swap1\n      return\n        /* \"Campaign.sol\":2486:2848  function getSummary()... */\n    tag_4:\n      callvalue\n      dup1\n      iszero\n      tag_27\n      jumpi\n      0x00\n      dup1\n      revert\n    tag_27:\n      pop\n      tag_28\n      tag_29\n      jump\t// in\n    tag_28:\n      mload(0x40)\n      tag_30\n      swap6\n      swap5\n      swap4\n      swap3\n      swap2\n      swap1\n      tag_31\n      jump\t// in\n    tag_30:\n      mload(0x40)\n      dup1\n      swap2\n      sub\n      swap1\n      return\n        /* \"Campaign.sol\":656:678  address public manager */\n    tag_5:\n      callvalue\n      dup1\n      iszero\n      tag_32\n      jumpi\n      0x00\n      dup1\n      revert\n    tag_32:\n      pop\n      tag_33\n      tag_34\n      jump\t// in\n    tag_33:\n      mload(0x40)\n      tag_35\n      swap2\n      swap1\n      tag_36\n      jump\t// in\n    tag_35:\n      mload(0x40)\n      dup1\n      swap2\n      sub\n      swap1\n      return\n        /* \"Campaign.sol\":839:882  mapping(uint256 => Request) public requests */\n    tag_6:\n      callvalue\n      dup1\n      iszero\n      tag_37\n      jumpi\n      0x00\n      dup1\n      revert\n    tag_37:\n      pop\n      tag_38\n      0x04\n      dup1\n      calldatasize\n      sub\n      dup2\n      add\n      swap1\n      tag_39\n      swap2\n      swap1\n      tag_40\n      jump\t// in\n    tag_39:\n      tag_41\n      jump\t// in\n    tag_38:\n      mload(0x40)\n      tag_42\n      swap6\n      swap5\n      swap4\n      swap3\n      swap2\n      swap1\n      tag_43\n      jump\t// in\n    tag_42:\n      mload(0x40)\n      dup1\n      swap2\n      sub\n      swap1\n      return\n        /* \"Campaign.sol\":771:800  uint256 public approversCount */\n    tag_7:\n      callvalue\n      dup1\n      iszero\n      tag_44\n      jumpi\n      0x00\n      dup1\n      revert\n    tag_44:\n      pop\n      tag_45\n      tag_46\n      jump\t// in\n    tag_45:\n      mload(0x40)\n      tag_47\n      swap2\n      swap1\n      tag_26\n      jump\t// in\n    tag_47:\n      mload(0x40)\n      dup1\n      swap2\n      sub\n      swap1\n      return\n        /* \"Campaign.sol\":1339:1691  function createRequest(... */\n    tag_8:\n      callvalue\n      dup1\n      iszero\n      tag_48\n      jumpi\n      0x00\n      dup1\n      revert\n    tag_48:\n      pop\n      tag_49\n      0x04\n      dup1\n      calldatasize\n      sub\n      dup2\n      add\n      swap1\n      tag_50\n      swap2\n      swap1\n      tag_51\n      jump\t// in\n    tag_50:\n      tag_52\n      jump\t// in\n    tag_49:\n      stop\n        /* \"Campaign.sol\":684:718  uint256 public minimumContribution */\n    tag_9:\n      callvalue\n      dup1\n      iszero\n      tag_53\n      jumpi\n      0x00\n      dup1\n      revert\n    tag_53:\n      pop\n      tag_54\n      tag_55\n      jump\t// in\n    tag_54:\n      mload(0x40)\n      tag_56\n      swap2\n      swap1\n      tag_26\n      jump\t// in\n    tag_56:\n      mload(0x40)\n      dup1\n      swap2\n      sub\n      swap1\n      return\n        /* \"Campaign.sol\":807:833  uint256 public numRequests */\n    tag_10:\n      callvalue\n      dup1\n      iszero\n      tag_57\n      jumpi\n      0x00\n      dup1\n      revert\n    tag_57:\n      pop\n      tag_58\n      tag_59\n      jump\t// in\n    tag_58:\n      mload(0x40)\n      tag_60\n      swap2\n      swap1\n      tag_26\n      jump\t// in\n    tag_60:\n      mload(0x40)\n      dup1\n      swap2\n      sub\n      swap1\n      return\n        /* \"Campaign.sol\":1100:1333  function contribute() public payable {... */\n    tag_11:\n      tag_61\n      tag_62\n      jump\t// in\n    tag_61:\n      stop\n        /* \"Campaign.sol\":1697:2072  function approveRequest(uint256 index) public {... */\n    tag_12:\n      callvalue\n      dup1\n      iszero\n      tag_63\n      jumpi\n      0x00\n      dup1\n      revert\n    tag_63:\n      pop\n      tag_64\n      0x04\n      dup1\n      calldatasize\n      sub\n      dup2\n      add\n      swap1\n      tag_65\n      swap2\n      swap1\n      tag_40\n      jump\t// in\n    tag_65:\n      tag_66\n      jump\t// in\n    tag_64:\n      stop\n        /* \"Campaign.sol\":2078:2480  function finalizeApprove(uint256 index) public restricted {... */\n    tag_13:\n      callvalue\n      dup1\n      iszero\n      tag_67\n      jumpi\n      0x00\n      dup1\n      revert\n    tag_67:\n      pop\n      tag_68\n      0x04\n      dup1\n      calldatasize\n      sub\n      dup2\n      add\n      swap1\n      tag_69\n      swap2\n      swap1\n      tag_40\n      jump\t// in\n    tag_69:\n      tag_70\n      jump\t// in\n    tag_68:\n      stop\n        /* \"Campaign.sol\":724:765  mapping(address => bool) public approvers */\n    tag_19:\n      mstore(0x20, 0x02)\n      dup1\n      0x00\n      mstore\n      keccak256(0x00, 0x40)\n      0x00\n      swap2\n      pop\n      sload\n      swap1\n      0x0100\n      exp\n      swap1\n      div\n      0xff\n      and\n      dup2\n      jump\t// out\n        /* \"Campaign.sol\":2854:2947  function getRequestsCount() public view returns (uint256) {... */\n    tag_24:\n        /* \"Campaign.sol\":2903:2910  uint256 */\n      0x00\n        /* \"Campaign.sol\":2929:2940  numRequests */\n      sload(0x04)\n        /* \"Campaign.sol\":2922:2940  return numRequests */\n      swap1\n      pop\n        /* \"Campaign.sol\":2854:2947  function getRequestsCount() public view returns (uint256) {... */\n      swap1\n      jump\t// out\n        /* \"Campaign.sol\":2486:2848  function getSummary()... */\n    tag_29:\n        /* \"Campaign.sol\":2566:2573  uint256 */\n      0x00\n        /* \"Campaign.sol\":2587:2594  uint256 */\n      dup1\n        /* \"Campaign.sol\":2608:2615  uint256 */\n      0x00\n        /* \"Campaign.sol\":2629:2636  uint256 */\n      dup1\n        /* \"Campaign.sol\":2650:2657  address */\n      0x00\n        /* \"Campaign.sol\":2703:2722  minimumContribution */\n      sload(0x01)\n        /* \"Campaign.sol\":2736:2757  address(this).balance */\n      selfbalance\n        /* \"Campaign.sol\":2771:2782  numRequests */\n      sload(0x04)\n        /* \"Campaign.sol\":2796:2810  approversCount */\n      sload(0x03)\n        /* \"Campaign.sol\":2824:2831  manager */\n      0x00\n      dup1\n      sload\n      swap1\n      0x0100\n      exp\n      swap1\n      div\n      0xffffffffffffffffffffffffffffffffffffffff\n      and\n        /* \"Campaign.sol\":2682:2841  return (... */\n      swap5\n      pop\n      swap5\n      pop\n      swap5\n      pop\n      swap5\n      pop\n      swap5\n      pop\n        /* \"Campaign.sol\":2486:2848  function getSummary()... */\n      swap1\n      swap2\n      swap3\n      swap4\n      swap5\n      jump\t// out\n        /* \"Campaign.sol\":656:678  address public manager */\n    tag_34:\n      0x00\n      dup1\n      sload\n      swap1\n      0x0100\n      exp\n      swap1\n      div\n      0xffffffffffffffffffffffffffffffffffffffff\n      and\n      dup2\n      jump\t// out\n        /* \"Campaign.sol\":839:882  mapping(uint256 => Request) public requests */\n    tag_41:\n      mstore(0x20, 0x05)\n      dup1\n      0x00\n      mstore\n      keccak256(0x00, 0x40)\n      0x00\n      swap2\n      pop\n      swap1\n      pop\n      dup1\n      0x00\n      add\n      dup1\n      sload\n      tag_73\n      swap1\n      tag_74\n      jump\t// in\n    tag_73:\n      dup1\n      0x1f\n      add\n      0x20\n      dup1\n      swap2\n      div\n      mul\n      0x20\n      add\n      mload(0x40)\n      swap1\n      dup2\n      add\n      0x40\n      mstore\n      dup1\n      swap3\n      swap2\n      swap1\n      dup2\n      dup2\n      mstore\n      0x20\n      add\n      dup3\n      dup1\n      sload\n      tag_75\n      swap1\n      tag_74\n      jump\t// in\n    tag_75:\n      dup1\n      iszero\n      tag_76\n      jumpi\n      dup1\n      0x1f\n      lt\n      tag_77\n      jumpi\n      0x0100\n      dup1\n      dup4\n      sload\n      div\n      mul\n      dup4\n      mstore\n      swap2\n      0x20\n      add\n      swap2\n      jump(tag_76)\n    tag_77:\n      dup3\n      add\n      swap2\n      swap1\n      0x00\n      mstore\n      keccak256(0x00, 0x20)\n      swap1\n    tag_78:\n      dup2\n      sload\n      dup2\n      mstore\n      swap1\n      0x01\n      add\n      swap1\n      0x20\n      add\n      dup1\n      dup4\n      gt\n      tag_78\n      jumpi\n      dup3\n      swap1\n      sub\n      0x1f\n      and\n      dup3\n      add\n      swap2\n    tag_76:\n      pop\n      pop\n      pop\n      pop\n      pop\n      swap1\n      dup1\n      0x01\n      add\n      sload\n      swap1\n      dup1\n      0x02\n      add\n      0x00\n      swap1\n      sload\n      swap1\n      0x0100\n      exp\n      swap1\n      div\n      0xffffffffffffffffffffffffffffffffffffffff\n      and\n      swap1\n      dup1\n      0x02\n      add\n      0x14\n      swap1\n      sload\n      swap1\n      0x0100\n      exp\n      swap1\n      div\n      0xff\n      and\n      swap1\n      dup1\n      0x04\n      add\n      sload\n      swap1\n      pop\n      dup6\n      jump\t// out\n        /* \"Campaign.sol\":771:800  uint256 public approversCount */\n    tag_46:\n      sload(0x03)\n      dup2\n      jump\t// out\n        /* \"Campaign.sol\":1339:1691  function createRequest(... */\n    tag_52:\n        /* \"Campaign.sol\":1068:1075  manager */\n      0x00\n      dup1\n      sload\n      swap1\n      0x0100\n      exp\n      swap1\n      div\n      0xffffffffffffffffffffffffffffffffffffffff\n      and\n        /* \"Campaign.sol\":1054:1075  msg.sender == manager */\n      0xffffffffffffffffffffffffffffffffffffffff\n      and\n        /* \"Campaign.sol\":1054:1064  msg.sender */\n      caller\n        /* \"Campaign.sol\":1054:1075  msg.sender == manager */\n      0xffffffffffffffffffffffffffffffffffffffff\n      and\n      eq\n        /* \"Campaign.sol\":1046:1076  require(msg.sender == manager) */\n      tag_80\n      jumpi\n      0x00\n      dup1\n      revert\n    tag_80:\n        /* \"Campaign.sol\":1489:1506  Request storage r */\n      0x00\n        /* \"Campaign.sol\":1509:1517  requests */\n      0x05\n        /* \"Campaign.sol\":1509:1532  requests[numRequests++] */\n      0x00\n        /* \"Campaign.sol\":1518:1529  numRequests */\n      0x04\n      0x00\n        /* \"Campaign.sol\":1518:1531  numRequests++ */\n      dup2\n      sload\n      dup1\n      swap3\n      swap2\n      swap1\n      tag_82\n      swap1\n      tag_83\n      jump\t// in\n    tag_82:\n      swap2\n      swap1\n      pop\n      sstore\n        /* \"Campaign.sol\":1509:1532  requests[numRequests++] */\n      dup2\n      mstore\n      0x20\n      add\n      swap1\n      dup2\n      mstore\n      0x20\n      add\n      0x00\n      keccak256\n        /* \"Campaign.sol\":1489:1532  Request storage r = requests[numRequests++] */\n      swap1\n      pop\n        /* \"Campaign.sol\":1558:1569  description */\n      dup4\n        /* \"Campaign.sol\":1542:1543  r */\n      dup2\n        /* \"Campaign.sol\":1542:1555  r.description */\n      0x00\n      add\n        /* \"Campaign.sol\":1542:1569  r.description = description */\n      swap1\n      dup1\n      mload\n      swap1\n      0x20\n      add\n      swap1\n      tag_84\n      swap3\n      swap2\n      swap1\n      tag_85\n      jump\t// in\n    tag_84:\n      pop\n        /* \"Campaign.sol\":1589:1594  value */\n      dup3\n        /* \"Campaign.sol\":1579:1580  r */\n      dup2\n        /* \"Campaign.sol\":1579:1586  r.value */\n      0x01\n      add\n        /* \"Campaign.sol\":1579:1594  r.value = value */\n      dup2\n      swap1\n      sstore\n      pop\n        /* \"Campaign.sol\":1618:1627  recipient */\n      dup2\n        /* \"Campaign.sol\":1604:1605  r */\n      dup2\n        /* \"Campaign.sol\":1604:1615  r.recipient */\n      0x02\n      add\n      0x00\n        /* \"Campaign.sol\":1604:1627  r.recipient = recipient */\n      0x0100\n      exp\n      dup2\n      sload\n      dup2\n      0xffffffffffffffffffffffffffffffffffffffff\n      mul\n      not\n      and\n      swap1\n      dup4\n      0xffffffffffffffffffffffffffffffffffffffff\n      and\n      mul\n      or\n      swap1\n      sstore\n      pop\n        /* \"Campaign.sol\":1650:1655  false */\n      0x00\n        /* \"Campaign.sol\":1637:1638  r */\n      dup2\n        /* \"Campaign.sol\":1637:1647  r.complete */\n      0x02\n      add\n      0x14\n        /* \"Campaign.sol\":1637:1655  r.complete = false */\n      0x0100\n      exp\n      dup2\n      sload\n      dup2\n      0xff\n      mul\n      not\n      and\n      swap1\n      dup4\n      iszero\n      iszero\n      mul\n      or\n      swap1\n      sstore\n      pop\n        /* \"Campaign.sol\":1683:1684  0 */\n      0x00\n        /* \"Campaign.sol\":1665:1666  r */\n      dup2\n        /* \"Campaign.sol\":1665:1680  r.approvalCount */\n      0x04\n      add\n        /* \"Campaign.sol\":1665:1684  r.approvalCount = 0 */\n      dup2\n      swap1\n      sstore\n      pop\n        /* \"Campaign.sol\":1479:1691  {... */\n      pop\n        /* \"Campaign.sol\":1339:1691  function createRequest(... */\n      pop\n      pop\n      pop\n      jump\t// out\n        /* \"Campaign.sol\":684:718  uint256 public minimumContribution */\n    tag_55:\n      sload(0x01)\n      dup2\n      jump\t// out\n        /* \"Campaign.sol\":807:833  uint256 public numRequests */\n    tag_59:\n      sload(0x04)\n      dup2\n      jump\t// out\n        /* \"Campaign.sol\":1100:1333  function contribute() public payable {... */\n    tag_62:\n        /* \"Campaign.sol\":1190:1199  msg.value */\n      callvalue\n        /* \"Campaign.sol\":1168:1187  minimumContribution */\n      sload(0x01)\n        /* \"Campaign.sol\":1168:1199  minimumContribution < msg.value */\n      lt\n        /* \"Campaign.sol\":1147:1262  require(... */\n      tag_87\n      jumpi\n      mload(0x40)\n      0x08c379a000000000000000000000000000000000000000000000000000000000\n      dup2\n      mstore\n      0x04\n      add\n      tag_88\n      swap1\n      tag_89\n      jump\t// in\n    tag_88:\n      mload(0x40)\n      dup1\n      swap2\n      sub\n      swap1\n      revert\n    tag_87:\n        /* \"Campaign.sol\":1296:1300  true */\n      0x01\n        /* \"Campaign.sol\":1272:1281  approvers */\n      0x02\n        /* \"Campaign.sol\":1272:1293  approvers[msg.sender] */\n      0x00\n        /* \"Campaign.sol\":1282:1292  msg.sender */\n      caller\n        /* \"Campaign.sol\":1272:1293  approvers[msg.sender] */\n      0xffffffffffffffffffffffffffffffffffffffff\n      and\n      0xffffffffffffffffffffffffffffffffffffffff\n      and\n      dup2\n      mstore\n      0x20\n      add\n      swap1\n      dup2\n      mstore\n      0x20\n      add\n      0x00\n      keccak256\n      0x00\n        /* \"Campaign.sol\":1272:1300  approvers[msg.sender] = true */\n      0x0100\n      exp\n      dup2\n      sload\n      dup2\n      0xff\n      mul\n      not\n      and\n      swap1\n      dup4\n      iszero\n      iszero\n      mul\n      or\n      swap1\n      sstore\n      pop\n        /* \"Campaign.sol\":1310:1324  approversCount */\n      0x03\n      0x00\n        /* \"Campaign.sol\":1310:1326  approversCount++ */\n      dup2\n      sload\n      dup1\n      swap3\n      swap2\n      swap1\n      tag_90\n      swap1\n      tag_83\n      jump\t// in\n    tag_90:\n      swap2\n      swap1\n      pop\n      sstore\n      pop\n        /* \"Campaign.sol\":1100:1333  function contribute() public payable {... */\n      jump\t// out\n        /* \"Campaign.sol\":1697:2072  function approveRequest(uint256 index) public {... */\n    tag_66:\n        /* \"Campaign.sol\":1753:1776  Request storage request */\n      0x00\n        /* \"Campaign.sol\":1779:1787  requests */\n      0x05\n        /* \"Campaign.sol\":1779:1794  requests[index] */\n      0x00\n        /* \"Campaign.sol\":1788:1793  index */\n      dup4\n        /* \"Campaign.sol\":1779:1794  requests[index] */\n      dup2\n      mstore\n      0x20\n      add\n      swap1\n      dup2\n      mstore\n      0x20\n      add\n      0x00\n      keccak256\n        /* \"Campaign.sol\":1753:1794  Request storage request = requests[index] */\n      swap1\n      pop\n        /* \"Campaign.sol\":1825:1834  approvers */\n      0x02\n        /* \"Campaign.sol\":1825:1846  approvers[msg.sender] */\n      0x00\n        /* \"Campaign.sol\":1835:1845  msg.sender */\n      caller\n        /* \"Campaign.sol\":1825:1846  approvers[msg.sender] */\n      0xffffffffffffffffffffffffffffffffffffffff\n      and\n      0xffffffffffffffffffffffffffffffffffffffff\n      and\n      dup2\n      mstore\n      0x20\n      add\n      swap1\n      dup2\n      mstore\n      0x20\n      add\n      0x00\n      keccak256\n      0x00\n      swap1\n      sload\n      swap1\n      0x0100\n      exp\n      swap1\n      div\n      0xff\n      and\n        /* \"Campaign.sol\":1804:1910  require(... */\n      tag_92\n      jumpi\n      mload(0x40)\n      0x08c379a000000000000000000000000000000000000000000000000000000000\n      dup2\n      mstore\n      0x04\n      add\n      tag_93\n      swap1\n      tag_94\n      jump\t// in\n    tag_93:\n      mload(0x40)\n      dup1\n      swap2\n      sub\n      swap1\n      revert\n    tag_92:\n        /* \"Campaign.sol\":1929:1936  request */\n      dup1\n        /* \"Campaign.sol\":1929:1946  request.approvals */\n      0x03\n      add\n        /* \"Campaign.sol\":1929:1958  request.approvals[msg.sender] */\n      0x00\n        /* \"Campaign.sol\":1947:1957  msg.sender */\n      caller\n        /* \"Campaign.sol\":1929:1958  request.approvals[msg.sender] */\n      0xffffffffffffffffffffffffffffffffffffffff\n      and\n      0xffffffffffffffffffffffffffffffffffffffff\n      and\n      dup2\n      mstore\n      0x20\n      add\n      swap1\n      dup2\n      mstore\n      0x20\n      add\n      0x00\n      keccak256\n      0x00\n      swap1\n      sload\n      swap1\n      0x0100\n      exp\n      swap1\n      div\n      0xff\n      and\n        /* \"Campaign.sol\":1928:1958  !request.approvals[msg.sender] */\n      iszero\n        /* \"Campaign.sol\":1920:1985  require(!request.approvals[msg.sender], \"You can vote only once\") */\n      tag_95\n      jumpi\n      mload(0x40)\n      0x08c379a000000000000000000000000000000000000000000000000000000000\n      dup2\n      mstore\n      0x04\n      add\n      tag_96\n      swap1\n      tag_97\n      jump\t// in\n    tag_96:\n      mload(0x40)\n      dup1\n      swap2\n      sub\n      swap1\n      revert\n    tag_95:\n        /* \"Campaign.sol\":2028:2032  true */\n      0x01\n        /* \"Campaign.sol\":1996:2003  request */\n      dup2\n        /* \"Campaign.sol\":1996:2013  request.approvals */\n      0x03\n      add\n        /* \"Campaign.sol\":1996:2025  request.approvals[msg.sender] */\n      0x00\n        /* \"Campaign.sol\":2014:2024  msg.sender */\n      caller\n        /* \"Campaign.sol\":1996:2025  request.approvals[msg.sender] */\n      0xffffffffffffffffffffffffffffffffffffffff\n      and\n      0xffffffffffffffffffffffffffffffffffffffff\n      and\n      dup2\n      mstore\n      0x20\n      add\n      swap1\n      dup2\n      mstore\n      0x20\n      add\n      0x00\n      keccak256\n      0x00\n        /* \"Campaign.sol\":1996:2032  request.approvals[msg.sender] = true */\n      0x0100\n      exp\n      dup2\n      sload\n      dup2\n      0xff\n      mul\n      not\n      and\n      swap1\n      dup4\n      iszero\n      iszero\n      mul\n      or\n      swap1\n      sstore\n      pop\n        /* \"Campaign.sol\":2042:2049  request */\n      dup1\n        /* \"Campaign.sol\":2042:2063  request.approvalCount */\n      0x04\n      add\n      0x00\n        /* \"Campaign.sol\":2042:2065  request.approvalCount++ */\n      dup2\n      sload\n      dup1\n      swap3\n      swap2\n      swap1\n      tag_98\n      swap1\n      tag_83\n      jump\t// in\n    tag_98:\n      swap2\n      swap1\n      pop\n      sstore\n      pop\n        /* \"Campaign.sol\":1743:2072  {... */\n      pop\n        /* \"Campaign.sol\":1697:2072  function approveRequest(uint256 index) public {... */\n      pop\n      jump\t// out\n        /* \"Campaign.sol\":2078:2480  function finalizeApprove(uint256 index) public restricted {... */\n    tag_70:\n        /* \"Campaign.sol\":1068:1075  manager */\n      0x00\n      dup1\n      sload\n      swap1\n      0x0100\n      exp\n      swap1\n      div\n      0xffffffffffffffffffffffffffffffffffffffff\n      and\n        /* \"Campaign.sol\":1054:1075  msg.sender == manager */\n      0xffffffffffffffffffffffffffffffffffffffff\n      and\n        /* \"Campaign.sol\":1054:1064  msg.sender */\n      caller\n        /* \"Campaign.sol\":1054:1075  msg.sender == manager */\n      0xffffffffffffffffffffffffffffffffffffffff\n      and\n      eq\n        /* \"Campaign.sol\":1046:1076  require(msg.sender == manager) */\n      tag_100\n      jumpi\n      0x00\n      dup1\n      revert\n    tag_100:\n        /* \"Campaign.sol\":2146:2169  Request storage request */\n      0x00\n        /* \"Campaign.sol\":2172:2180  requests */\n      0x05\n        /* \"Campaign.sol\":2172:2187  requests[index] */\n      0x00\n        /* \"Campaign.sol\":2181:2186  index */\n      dup4\n        /* \"Campaign.sol\":2172:2187  requests[index] */\n      dup2\n      mstore\n      0x20\n      add\n      swap1\n      dup2\n      mstore\n      0x20\n      add\n      0x00\n      keccak256\n        /* \"Campaign.sol\":2146:2187  Request storage request = requests[index] */\n      swap1\n      pop\n        /* \"Campaign.sol\":2260:2261  2 */\n      0x02\n        /* \"Campaign.sol\":2243:2257  approversCount */\n      sload(0x03)\n        /* \"Campaign.sol\":2243:2261  approversCount / 2 */\n      tag_102\n      swap2\n      swap1\n      tag_103\n      jump\t// in\n    tag_102:\n        /* \"Campaign.sol\":2218:2225  request */\n      dup2\n        /* \"Campaign.sol\":2218:2239  request.approvalCount */\n      0x04\n      add\n      sload\n        /* \"Campaign.sol\":2218:2262  request.approvalCount > (approversCount / 2) */\n      gt\n        /* \"Campaign.sol\":2197:2323  require(... */\n      tag_104\n      jumpi\n      mload(0x40)\n      0x08c379a000000000000000000000000000000000000000000000000000000000\n      dup2\n      mstore\n      0x04\n      add\n      tag_105\n      swap1\n      tag_106\n      jump\t// in\n    tag_105:\n      mload(0x40)\n      dup1\n      swap2\n      sub\n      swap1\n      revert\n    tag_104:\n        /* \"Campaign.sol\":2342:2349  request */\n      dup1\n        /* \"Campaign.sol\":2342:2358  request.complete */\n      0x02\n      add\n      0x14\n      swap1\n      sload\n      swap1\n      0x0100\n      exp\n      swap1\n      div\n      0xff\n      and\n        /* \"Campaign.sol\":2341:2358  !request.complete */\n      iszero\n        /* \"Campaign.sol\":2333:2388  require(!request.complete, \"Request already completed\") */\n      tag_107\n      jumpi\n      mload(0x40)\n      0x08c379a000000000000000000000000000000000000000000000000000000000\n      dup2\n      mstore\n      0x04\n      add\n      tag_108\n      swap1\n      tag_109\n      jump\t// in\n    tag_108:\n      mload(0x40)\n      dup1\n      swap2\n      sub\n      swap1\n      revert\n    tag_107:\n        /* \"Campaign.sol\":2399:2406  request */\n      dup1\n        /* \"Campaign.sol\":2399:2416  request.recipient */\n      0x02\n      add\n      0x00\n      swap1\n      sload\n      swap1\n      0x0100\n      exp\n      swap1\n      div\n      0xffffffffffffffffffffffffffffffffffffffff\n      and\n        /* \"Campaign.sol\":2399:2425  request.recipient.transfer */\n      0xffffffffffffffffffffffffffffffffffffffff\n      and\n        /* \"Campaign.sol\":2399:2440  request.recipient.transfer(request.value) */\n      0x08fc\n        /* \"Campaign.sol\":2426:2433  request */\n      dup3\n        /* \"Campaign.sol\":2426:2439  request.value */\n      0x01\n      add\n      sload\n        /* \"Campaign.sol\":2399:2440  request.recipient.transfer(request.value) */\n      swap1\n      dup2\n      iszero\n      mul\n      swap1\n      mload(0x40)\n      0x00\n      mload(0x40)\n      dup1\n      dup4\n      sub\n      dup2\n      dup6\n      dup9\n      dup9\n      call\n      swap4\n      pop\n      pop\n      pop\n      pop\n      iszero\n      dup1\n      iszero\n      tag_111\n      jumpi\n      returndatasize\n      0x00\n      dup1\n      returndatacopy\n      revert(0x00, returndatasize)\n    tag_111:\n      pop\n        /* \"Campaign.sol\":2469:2473  true */\n      0x01\n        /* \"Campaign.sol\":2450:2457  request */\n      dup2\n        /* \"Campaign.sol\":2450:2466  request.complete */\n      0x02\n      add\n      0x14\n        /* \"Campaign.sol\":2450:2473  request.complete = true */\n      0x0100\n      exp\n      dup2\n      sload\n      dup2\n      0xff\n      mul\n      not\n      and\n      swap1\n      dup4\n      iszero\n      iszero\n      mul\n      or\n      swap1\n      sstore\n      pop\n        /* \"Campaign.sol\":2136:2480  {... */\n      pop\n        /* \"Campaign.sol\":2078:2480  function finalizeApprove(uint256 index) public restricted {... */\n      pop\n      jump\t// out\n    tag_85:\n      dup3\n      dup1\n      sload\n      tag_112\n      swap1\n      tag_74\n      jump\t// in\n    tag_112:\n      swap1\n      0x00\n      mstore\n      keccak256(0x00, 0x20)\n      swap1\n      0x1f\n      add\n      0x20\n      swap1\n      div\n      dup2\n      add\n      swap3\n      dup3\n      tag_114\n      jumpi\n      0x00\n      dup6\n      sstore\n      jump(tag_113)\n    tag_114:\n      dup3\n      0x1f\n      lt\n      tag_115\n      jumpi\n      dup1\n      mload\n      not(0xff)\n      and\n      dup4\n      dup1\n      add\n      or\n      dup6\n      sstore\n      jump(tag_113)\n    tag_115:\n      dup3\n      dup1\n      add\n      0x01\n      add\n      dup6\n      sstore\n      dup3\n      iszero\n      tag_113\n      jumpi\n      swap2\n      dup3\n      add\n    tag_116:\n      dup3\n      dup2\n      gt\n      iszero\n      tag_117\n      jumpi\n      dup3\n      mload\n      dup3\n      sstore\n      swap2\n      0x20\n      add\n      swap2\n      swap1\n      0x01\n      add\n      swap1\n      jump(tag_116)\n    tag_117:\n    tag_113:\n      pop\n      swap1\n      pop\n      tag_118\n      swap2\n      swap1\n      tag_119\n      jump\t// in\n    tag_118:\n      pop\n      swap1\n      jump\t// out\n    tag_119:\n    tag_120:\n      dup1\n      dup3\n      gt\n      iszero\n      tag_121\n      jumpi\n      0x00\n      dup2\n      0x00\n      swap1\n      sstore\n      pop\n      0x01\n      add\n      jump(tag_120)\n    tag_121:\n      pop\n      swap1\n      jump\t// out\n        /* \"#utility.yul\":7:82   */\n    tag_122:\n        /* \"#utility.yul\":40:46   */\n      0x00\n        /* \"#utility.yul\":73:75   */\n      0x40\n        /* \"#utility.yul\":67:76   */\n      mload\n        /* \"#utility.yul\":57:76   */\n      swap1\n      pop\n        /* \"#utility.yul\":7:82   */\n      swap1\n      jump\t// out\n        /* \"#utility.yul\":88:205   */\n    tag_123:\n        /* \"#utility.yul\":197:198   */\n      0x00\n        /* \"#utility.yul\":194:195   */\n      dup1\n        /* \"#utility.yul\":187:199   */\n      revert\n        /* \"#utility.yul\":211:328   */\n    tag_124:\n        /* \"#utility.yul\":320:321   */\n      0x00\n        /* \"#utility.yul\":317:318   */\n      dup1\n        /* \"#utility.yul\":310:322   */\n      revert\n        /* \"#utility.yul\":334:460   */\n    tag_125:\n        /* \"#utility.yul\":371:378   */\n      0x00\n        /* \"#utility.yul\":411:453   */\n      0xffffffffffffffffffffffffffffffffffffffff\n        /* \"#utility.yul\":404:409   */\n      dup3\n        /* \"#utility.yul\":400:454   */\n      and\n        /* \"#utility.yul\":389:454   */\n      swap1\n      pop\n        /* \"#utility.yul\":334:460   */\n      swap2\n      swap1\n      pop\n      jump\t// out\n        /* \"#utility.yul\":466:562   */\n    tag_126:\n        /* \"#utility.yul\":503:510   */\n      0x00\n        /* \"#utility.yul\":532:556   */\n      tag_173\n        /* \"#utility.yul\":550:555   */\n      dup3\n        /* \"#utility.yul\":532:556   */\n      tag_125\n      jump\t// in\n    tag_173:\n        /* \"#utility.yul\":521:556   */\n      swap1\n      pop\n        /* \"#utility.yul\":466:562   */\n      swap2\n      swap1\n      pop\n      jump\t// out\n        /* \"#utility.yul\":568:690   */\n    tag_127:\n        /* \"#utility.yul\":641:665   */\n      tag_175\n        /* \"#utility.yul\":659:664   */\n      dup2\n        /* \"#utility.yul\":641:665   */\n      tag_126\n      jump\t// in\n    tag_175:\n        /* \"#utility.yul\":634:639   */\n      dup2\n        /* \"#utility.yul\":631:666   */\n      eq\n        /* \"#utility.yul\":621:684   */\n      tag_176\n      jumpi\n        /* \"#utility.yul\":680:681   */\n      0x00\n        /* \"#utility.yul\":677:678   */\n      dup1\n        /* \"#utility.yul\":670:682   */\n      revert\n        /* \"#utility.yul\":621:684   */\n    tag_176:\n        /* \"#utility.yul\":568:690   */\n      pop\n      jump\t// out\n        /* \"#utility.yul\":696:835   */\n    tag_128:\n        /* \"#utility.yul\":742:747   */\n      0x00\n        /* \"#utility.yul\":780:786   */\n      dup2\n        /* \"#utility.yul\":767:787   */\n      calldataload\n        /* \"#utility.yul\":758:787   */\n      swap1\n      pop\n        /* \"#utility.yul\":796:829   */\n      tag_178\n        /* \"#utility.yul\":823:828   */\n      dup2\n        /* \"#utility.yul\":796:829   */\n      tag_127\n      jump\t// in\n    tag_178:\n        /* \"#utility.yul\":696:835   */\n      swap3\n      swap2\n      pop\n      pop\n      jump\t// out\n        /* \"#utility.yul\":841:1170   */\n    tag_18:\n        /* \"#utility.yul\":900:906   */\n      0x00\n        /* \"#utility.yul\":949:951   */\n      0x20\n        /* \"#utility.yul\":937:946   */\n      dup3\n        /* \"#utility.yul\":928:935   */\n      dup5\n        /* \"#utility.yul\":924:947   */\n      sub\n        /* \"#utility.yul\":920:952   */\n      slt\n        /* \"#utility.yul\":917:1036   */\n      iszero\n      tag_180\n      jumpi\n        /* \"#utility.yul\":955:1034   */\n      tag_181\n      tag_123\n      jump\t// in\n    tag_181:\n        /* \"#utility.yul\":917:1036   */\n    tag_180:\n        /* \"#utility.yul\":1075:1076   */\n      0x00\n        /* \"#utility.yul\":1100:1153   */\n      tag_182\n        /* \"#utility.yul\":1145:1152   */\n      dup5\n        /* \"#utility.yul\":1136:1142   */\n      dup3\n        /* \"#utility.yul\":1125:1134   */\n      dup6\n        /* \"#utility.yul\":1121:1143   */\n      add\n        /* \"#utility.yul\":1100:1153   */\n      tag_128\n      jump\t// in\n    tag_182:\n        /* \"#utility.yul\":1090:1153   */\n      swap2\n      pop\n        /* \"#utility.yul\":1046:1163   */\n      pop\n        /* \"#utility.yul\":841:1170   */\n      swap3\n      swap2\n      pop\n      pop\n      jump\t// out\n        /* \"#utility.yul\":1176:1266   */\n    tag_129:\n        /* \"#utility.yul\":1210:1217   */\n      0x00\n        /* \"#utility.yul\":1253:1258   */\n      dup2\n        /* \"#utility.yul\":1246:1259   */\n      iszero\n        /* \"#utility.yul\":1239:1260   */\n      iszero\n        /* \"#utility.yul\":1228:1260   */\n      swap1\n      pop\n        /* \"#utility.yul\":1176:1266   */\n      swap2\n      swap1\n      pop\n      jump\t// out\n        /* \"#utility.yul\":1272:1381   */\n    tag_130:\n        /* \"#utility.yul\":1353:1374   */\n      tag_185\n        /* \"#utility.yul\":1368:1373   */\n      dup2\n        /* \"#utility.yul\":1353:1374   */\n      tag_129\n      jump\t// in\n    tag_185:\n        /* \"#utility.yul\":1348:1351   */\n      dup3\n        /* \"#utility.yul\":1341:1375   */\n      mstore\n        /* \"#utility.yul\":1272:1381   */\n      pop\n      pop\n      jump\t// out\n        /* \"#utility.yul\":1387:1597   */\n    tag_21:\n        /* \"#utility.yul\":1474:1478   */\n      0x00\n        /* \"#utility.yul\":1512:1514   */\n      0x20\n        /* \"#utility.yul\":1501:1510   */\n      dup3\n        /* \"#utility.yul\":1497:1515   */\n      add\n        /* \"#utility.yul\":1489:1515   */\n      swap1\n      pop\n        /* \"#utility.yul\":1525:1590   */\n      tag_187\n        /* \"#utility.yul\":1587:1588   */\n      0x00\n        /* \"#utility.yul\":1576:1585   */\n      dup4\n        /* \"#utility.yul\":1572:1589   */\n      add\n        /* \"#utility.yul\":1563:1569   */\n      dup5\n        /* \"#utility.yul\":1525:1590   */\n      tag_130\n      jump\t// in\n    tag_187:\n        /* \"#utility.yul\":1387:1597   */\n      swap3\n      swap2\n      pop\n      pop\n      jump\t// out\n        /* \"#utility.yul\":1603:1680   */\n    tag_131:\n        /* \"#utility.yul\":1640:1647   */\n      0x00\n        /* \"#utility.yul\":1669:1674   */\n      dup2\n        /* \"#utility.yul\":1658:1674   */\n      swap1\n      pop\n        /* \"#utility.yul\":1603:1680   */\n      swap2\n      swap1\n      pop\n      jump\t// out\n        /* \"#utility.yul\":1686:1804   */\n    tag_132:\n        /* \"#utility.yul\":1773:1797   */\n      tag_190\n        /* \"#utility.yul\":1791:1796   */\n      dup2\n        /* \"#utility.yul\":1773:1797   */\n      tag_131\n      jump\t// in\n    tag_190:\n        /* \"#utility.yul\":1768:1771   */\n      dup3\n        /* \"#utility.yul\":1761:1798   */\n      mstore\n        /* \"#utility.yul\":1686:1804   */\n      pop\n      pop\n      jump\t// out\n        /* \"#utility.yul\":1810:2032   */\n    tag_26:\n        /* \"#utility.yul\":1903:1907   */\n      0x00\n        /* \"#utility.yul\":1941:1943   */\n      0x20\n        /* \"#utility.yul\":1930:1939   */\n      dup3\n        /* \"#utility.yul\":1926:1944   */\n      add\n        /* \"#utility.yul\":1918:1944   */\n      swap1\n      pop\n        /* \"#utility.yul\":1954:2025   */\n      tag_192\n        /* \"#utility.yul\":2022:2023   */\n      0x00\n        /* \"#utility.yul\":2011:2020   */\n      dup4\n        /* \"#utility.yul\":2007:2024   */\n      add\n        /* \"#utility.yul\":1998:2004   */\n      dup5\n        /* \"#utility.yul\":1954:2025   */\n      tag_132\n      jump\t// in\n    tag_192:\n        /* \"#utility.yul\":1810:2032   */\n      swap3\n      swap2\n      pop\n      pop\n      jump\t// out\n        /* \"#utility.yul\":2038:2156   */\n    tag_133:\n        /* \"#utility.yul\":2125:2149   */\n      tag_194\n        /* \"#utility.yul\":2143:2148   */\n      dup2\n        /* \"#utility.yul\":2125:2149   */\n      tag_126\n      jump\t// in\n    tag_194:\n        /* \"#utility.yul\":2120:2123   */\n      dup3\n        /* \"#utility.yul\":2113:2150   */\n      mstore\n        /* \"#utility.yul\":2038:2156   */\n      pop\n      pop\n      jump\t// out\n        /* \"#utility.yul\":2162:2826   */\n    tag_31:\n        /* \"#utility.yul\":2367:2371   */\n      0x00\n        /* \"#utility.yul\":2405:2408   */\n      0xa0\n        /* \"#utility.yul\":2394:2403   */\n      dup3\n        /* \"#utility.yul\":2390:2409   */\n      add\n        /* \"#utility.yul\":2382:2409   */\n      swap1\n      pop\n        /* \"#utility.yul\":2419:2490   */\n      tag_196\n        /* \"#utility.yul\":2487:2488   */\n      0x00\n        /* \"#utility.yul\":2476:2485   */\n      dup4\n        /* \"#utility.yul\":2472:2489   */\n      add\n        /* \"#utility.yul\":2463:2469   */\n      dup9\n        /* \"#utility.yul\":2419:2490   */\n      tag_132\n      jump\t// in\n    tag_196:\n        /* \"#utility.yul\":2500:2572   */\n      tag_197\n        /* \"#utility.yul\":2568:2570   */\n      0x20\n        /* \"#utility.yul\":2557:2566   */\n      dup4\n        /* \"#utility.yul\":2553:2571   */\n      add\n        /* \"#utility.yul\":2544:2550   */\n      dup8\n        /* \"#utility.yul\":2500:2572   */\n      tag_132\n      jump\t// in\n    tag_197:\n        /* \"#utility.yul\":2582:2654   */\n      tag_198\n        /* \"#utility.yul\":2650:2652   */\n      0x40\n        /* \"#utility.yul\":2639:2648   */\n      dup4\n        /* \"#utility.yul\":2635:2653   */\n      add\n        /* \"#utility.yul\":2626:2632   */\n      dup7\n        /* \"#utility.yul\":2582:2654   */\n      tag_132\n      jump\t// in\n    tag_198:\n        /* \"#utility.yul\":2664:2736   */\n      tag_199\n        /* \"#utility.yul\":2732:2734   */\n      0x60\n        /* \"#utility.yul\":2721:2730   */\n      dup4\n        /* \"#utility.yul\":2717:2735   */\n      add\n        /* \"#utility.yul\":2708:2714   */\n      dup6\n        /* \"#utility.yul\":2664:2736   */\n      tag_132\n      jump\t// in\n    tag_199:\n        /* \"#utility.yul\":2746:2819   */\n      tag_200\n        /* \"#utility.yul\":2814:2817   */\n      0x80\n        /* \"#utility.yul\":2803:2812   */\n      dup4\n        /* \"#utility.yul\":2799:2818   */\n      add\n        /* \"#utility.yul\":2790:2796   */\n      dup5\n        /* \"#utility.yul\":2746:2819   */\n      tag_133\n      jump\t// in\n    tag_200:\n        /* \"#utility.yul\":2162:2826   */\n      swap7\n      swap6\n      pop\n      pop\n      pop\n      pop\n      pop\n      pop\n      jump\t// out\n        /* \"#utility.yul\":2832:3054   */\n    tag_36:\n        /* \"#utility.yul\":2925:2929   */\n      0x00\n        /* \"#utility.yul\":2963:2965   */\n      0x20\n        /* \"#utility.yul\":2952:2961   */\n      dup3\n        /* \"#utility.yul\":2948:2966   */\n      add\n        /* \"#utility.yul\":2940:2966   */\n      swap1\n      pop\n        /* \"#utility.yul\":2976:3047   */\n      tag_202\n        /* \"#utility.yul\":3044:3045   */\n      0x00\n        /* \"#utility.yul\":3033:3042   */\n      dup4\n        /* \"#utility.yul\":3029:3046   */\n      add\n        /* \"#utility.yul\":3020:3026   */\n      dup5\n        /* \"#utility.yul\":2976:3047   */\n      tag_133\n      jump\t// in\n    tag_202:\n        /* \"#utility.yul\":2832:3054   */\n      swap3\n      swap2\n      pop\n      pop\n      jump\t// out\n        /* \"#utility.yul\":3060:3182   */\n    tag_134:\n        /* \"#utility.yul\":3133:3157   */\n      tag_204\n        /* \"#utility.yul\":3151:3156   */\n      dup2\n        /* \"#utility.yul\":3133:3157   */\n      tag_131\n      jump\t// in\n    tag_204:\n        /* \"#utility.yul\":3126:3131   */\n      dup2\n        /* \"#utility.yul\":3123:3158   */\n      eq\n        /* \"#utility.yul\":3113:3176   */\n      tag_205\n      jumpi\n        /* \"#utility.yul\":3172:3173   */\n      0x00\n        /* \"#utility.yul\":3169:3170   */\n      dup1\n        /* \"#utility.yul\":3162:3174   */\n      revert\n        /* \"#utility.yul\":3113:3176   */\n    tag_205:\n        /* \"#utility.yul\":3060:3182   */\n      pop\n      jump\t// out\n        /* \"#utility.yul\":3188:3327   */\n    tag_135:\n        /* \"#utility.yul\":3234:3239   */\n      0x00\n        /* \"#utility.yul\":3272:3278   */\n      dup2\n        /* \"#utility.yul\":3259:3279   */\n      calldataload\n        /* \"#utility.yul\":3250:3279   */\n      swap1\n      pop\n        /* \"#utility.yul\":3288:3321   */\n      tag_207\n        /* \"#utility.yul\":3315:3320   */\n      dup2\n        /* \"#utility.yul\":3288:3321   */\n      tag_134\n      jump\t// in\n    tag_207:\n        /* \"#utility.yul\":3188:3327   */\n      swap3\n      swap2\n      pop\n      pop\n      jump\t// out\n        /* \"#utility.yul\":3333:3662   */\n    tag_40:\n        /* \"#utility.yul\":3392:3398   */\n      0x00\n        /* \"#utility.yul\":3441:3443   */\n      0x20\n        /* \"#utility.yul\":3429:3438   */\n      dup3\n        /* \"#utility.yul\":3420:3427   */\n      dup5\n        /* \"#utility.yul\":3416:3439   */\n      sub\n        /* \"#utility.yul\":3412:3444   */\n      slt\n        /* \"#utility.yul\":3409:3528   */\n      iszero\n      tag_209\n      jumpi\n        /* \"#utility.yul\":3447:3526   */\n      tag_210\n      tag_123\n      jump\t// in\n    tag_210:\n        /* \"#utility.yul\":3409:3528   */\n    tag_209:\n        /* \"#utility.yul\":3567:3568   */\n      0x00\n        /* \"#utility.yul\":3592:3645   */\n      tag_211\n        /* \"#utility.yul\":3637:3644   */\n      dup5\n        /* \"#utility.yul\":3628:3634   */\n      dup3\n        /* \"#utility.yul\":3617:3626   */\n      dup6\n        /* \"#utility.yul\":3613:3635   */\n      add\n        /* \"#utility.yul\":3592:3645   */\n      tag_135\n      jump\t// in\n    tag_211:\n        /* \"#utility.yul\":3582:3645   */\n      swap2\n      pop\n        /* \"#utility.yul\":3538:3655   */\n      pop\n        /* \"#utility.yul\":3333:3662   */\n      swap3\n      swap2\n      pop\n      pop\n      jump\t// out\n        /* \"#utility.yul\":3668:3767   */\n    tag_136:\n        /* \"#utility.yul\":3720:3726   */\n      0x00\n        /* \"#utility.yul\":3754:3759   */\n      dup2\n        /* \"#utility.yul\":3748:3760   */\n      mload\n        /* \"#utility.yul\":3738:3760   */\n      swap1\n      pop\n        /* \"#utility.yul\":3668:3767   */\n      swap2\n      swap1\n      pop\n      jump\t// out\n        /* \"#utility.yul\":3773:3942   */\n    tag_137:\n        /* \"#utility.yul\":3857:3868   */\n      0x00\n        /* \"#utility.yul\":3891:3897   */\n      dup3\n        /* \"#utility.yul\":3886:3889   */\n      dup3\n        /* \"#utility.yul\":3879:3898   */\n      mstore\n        /* \"#utility.yul\":3931:3935   */\n      0x20\n        /* \"#utility.yul\":3926:3929   */\n      dup3\n        /* \"#utility.yul\":3922:3936   */\n      add\n        /* \"#utility.yul\":3907:3936   */\n      swap1\n      pop\n        /* \"#utility.yul\":3773:3942   */\n      swap3\n      swap2\n      pop\n      pop\n      jump\t// out\n        /* \"#utility.yul\":3948:4255   */\n    tag_138:\n        /* \"#utility.yul\":4016:4017   */\n      0x00\n        /* \"#utility.yul\":4026:4139   */\n    tag_215:\n        /* \"#utility.yul\":4040:4046   */\n      dup4\n        /* \"#utility.yul\":4037:4038   */\n      dup2\n        /* \"#utility.yul\":4034:4047   */\n      lt\n        /* \"#utility.yul\":4026:4139   */\n      iszero\n      tag_217\n      jumpi\n        /* \"#utility.yul\":4125:4126   */\n      dup1\n        /* \"#utility.yul\":4120:4123   */\n      dup3\n        /* \"#utility.yul\":4116:4127   */\n      add\n        /* \"#utility.yul\":4110:4128   */\n      mload\n        /* \"#utility.yul\":4106:4107   */\n      dup2\n        /* \"#utility.yul\":4101:4104   */\n      dup5\n        /* \"#utility.yul\":4097:4108   */\n      add\n        /* \"#utility.yul\":4090:4129   */\n      mstore\n        /* \"#utility.yul\":4062:4064   */\n      0x20\n        /* \"#utility.yul\":4059:4060   */\n      dup2\n        /* \"#utility.yul\":4055:4065   */\n      add\n        /* \"#utility.yul\":4050:4065   */\n      swap1\n      pop\n        /* \"#utility.yul\":4026:4139   */\n      jump(tag_215)\n    tag_217:\n        /* \"#utility.yul\":4157:4163   */\n      dup4\n        /* \"#utility.yul\":4154:4155   */\n      dup2\n        /* \"#utility.yul\":4151:4164   */\n      gt\n        /* \"#utility.yul\":4148:4249   */\n      iszero\n      tag_218\n      jumpi\n        /* \"#utility.yul\":4237:4238   */\n      0x00\n        /* \"#utility.yul\":4228:4234   */\n      dup5\n        /* \"#utility.yul\":4223:4226   */\n      dup5\n        /* \"#utility.yul\":4219:4235   */\n      add\n        /* \"#utility.yul\":4212:4239   */\n      mstore\n        /* \"#utility.yul\":4148:4249   */\n    tag_218:\n        /* \"#utility.yul\":3997:4255   */\n      pop\n        /* \"#utility.yul\":3948:4255   */\n      pop\n      pop\n      pop\n      jump\t// out\n        /* \"#utility.yul\":4261:4363   */\n    tag_139:\n        /* \"#utility.yul\":4302:4308   */\n      0x00\n        /* \"#utility.yul\":4353:4355   */\n      0x1f\n        /* \"#utility.yul\":4349:4356   */\n      not\n        /* \"#utility.yul\":4344:4346   */\n      0x1f\n        /* \"#utility.yul\":4337:4342   */\n      dup4\n        /* \"#utility.yul\":4333:4347   */\n      add\n        /* \"#utility.yul\":4329:4357   */\n      and\n        /* \"#utility.yul\":4319:4357   */\n      swap1\n      pop\n        /* \"#utility.yul\":4261:4363   */\n      swap2\n      swap1\n      pop\n      jump\t// out\n        /* \"#utility.yul\":4369:4733   */\n    tag_140:\n        /* \"#utility.yul\":4457:4460   */\n      0x00\n        /* \"#utility.yul\":4485:4524   */\n      tag_221\n        /* \"#utility.yul\":4518:4523   */\n      dup3\n        /* \"#utility.yul\":4485:4524   */\n      tag_136\n      jump\t// in\n    tag_221:\n        /* \"#utility.yul\":4540:4611   */\n      tag_222\n        /* \"#utility.yul\":4604:4610   */\n      dup2\n        /* \"#utility.yul\":4599:4602   */\n      dup6\n        /* \"#utility.yul\":4540:4611   */\n      tag_137\n      jump\t// in\n    tag_222:\n        /* \"#utility.yul\":4533:4611   */\n      swap4\n      pop\n        /* \"#utility.yul\":4620:4672   */\n      tag_223\n        /* \"#utility.yul\":4665:4671   */\n      dup2\n        /* \"#utility.yul\":4660:4663   */\n      dup6\n        /* \"#utility.yul\":4653:4657   */\n      0x20\n        /* \"#utility.yul\":4646:4651   */\n      dup7\n        /* \"#utility.yul\":4642:4658   */\n      add\n        /* \"#utility.yul\":4620:4672   */\n      tag_138\n      jump\t// in\n    tag_223:\n        /* \"#utility.yul\":4697:4726   */\n      tag_224\n        /* \"#utility.yul\":4719:4725   */\n      dup2\n        /* \"#utility.yul\":4697:4726   */\n      tag_139\n      jump\t// in\n    tag_224:\n        /* \"#utility.yul\":4692:4695   */\n      dup5\n        /* \"#utility.yul\":4688:4727   */\n      add\n        /* \"#utility.yul\":4681:4727   */\n      swap2\n      pop\n        /* \"#utility.yul\":4461:4733   */\n      pop\n        /* \"#utility.yul\":4369:4733   */\n      swap3\n      swap2\n      pop\n      pop\n      jump\t// out\n        /* \"#utility.yul\":4739:4843   */\n    tag_141:\n        /* \"#utility.yul\":4784:4791   */\n      0x00\n        /* \"#utility.yul\":4813:4837   */\n      tag_226\n        /* \"#utility.yul\":4831:4836   */\n      dup3\n        /* \"#utility.yul\":4813:4837   */\n      tag_125\n      jump\t// in\n    tag_226:\n        /* \"#utility.yul\":4802:4837   */\n      swap1\n      pop\n        /* \"#utility.yul\":4739:4843   */\n      swap2\n      swap1\n      pop\n      jump\t// out\n        /* \"#utility.yul\":4849:4991   */\n    tag_142:\n        /* \"#utility.yul\":4952:4984   */\n      tag_228\n        /* \"#utility.yul\":4978:4983   */\n      dup2\n        /* \"#utility.yul\":4952:4984   */\n      tag_141\n      jump\t// in\n    tag_228:\n        /* \"#utility.yul\":4947:4950   */\n      dup3\n        /* \"#utility.yul\":4940:4985   */\n      mstore\n        /* \"#utility.yul\":4849:4991   */\n      pop\n      pop\n      jump\t// out\n        /* \"#utility.yul\":4997:5772   */\n    tag_43:\n        /* \"#utility.yul\":5232:5236   */\n      0x00\n        /* \"#utility.yul\":5270:5273   */\n      0xa0\n        /* \"#utility.yul\":5259:5268   */\n      dup3\n        /* \"#utility.yul\":5255:5274   */\n      add\n        /* \"#utility.yul\":5247:5274   */\n      swap1\n      pop\n        /* \"#utility.yul\":5320:5329   */\n      dup2\n        /* \"#utility.yul\":5314:5318   */\n      dup2\n        /* \"#utility.yul\":5310:5330   */\n      sub\n        /* \"#utility.yul\":5306:5307   */\n      0x00\n        /* \"#utility.yul\":5295:5304   */\n      dup4\n        /* \"#utility.yul\":5291:5308   */\n      add\n        /* \"#utility.yul\":5284:5331   */\n      mstore\n        /* \"#utility.yul\":5348:5426   */\n      tag_230\n        /* \"#utility.yul\":5421:5425   */\n      dup2\n        /* \"#utility.yul\":5412:5418   */\n      dup9\n        /* \"#utility.yul\":5348:5426   */\n      tag_140\n      jump\t// in\n    tag_230:\n        /* \"#utility.yul\":5340:5426   */\n      swap1\n      pop\n        /* \"#utility.yul\":5436:5508   */\n      tag_231\n        /* \"#utility.yul\":5504:5506   */\n      0x20\n        /* \"#utility.yul\":5493:5502   */\n      dup4\n        /* \"#utility.yul\":5489:5507   */\n      add\n        /* \"#utility.yul\":5480:5486   */\n      dup8\n        /* \"#utility.yul\":5436:5508   */\n      tag_132\n      jump\t// in\n    tag_231:\n        /* \"#utility.yul\":5518:5606   */\n      tag_232\n        /* \"#utility.yul\":5602:5604   */\n      0x40\n        /* \"#utility.yul\":5591:5600   */\n      dup4\n        /* \"#utility.yul\":5587:5605   */\n      add\n        /* \"#utility.yul\":5578:5584   */\n      dup7\n        /* \"#utility.yul\":5518:5606   */\n      tag_142\n      jump\t// in\n    tag_232:\n        /* \"#utility.yul\":5616:5682   */\n      tag_233\n        /* \"#utility.yul\":5678:5680   */\n      0x60\n        /* \"#utility.yul\":5667:5676   */\n      dup4\n        /* \"#utility.yul\":5663:5681   */\n      add\n        /* \"#utility.yul\":5654:5660   */\n      dup6\n        /* \"#utility.yul\":5616:5682   */\n      tag_130\n      jump\t// in\n    tag_233:\n        /* \"#utility.yul\":5692:5765   */\n      tag_234\n        /* \"#utility.yul\":5760:5763   */\n      0x80\n        /* \"#utility.yul\":5749:5758   */\n      dup4\n        /* \"#utility.yul\":5745:5764   */\n      add\n        /* \"#utility.yul\":5736:5742   */\n      dup5\n        /* \"#utility.yul\":5692:5765   */\n      tag_132\n      jump\t// in\n    tag_234:\n        /* \"#utility.yul\":4997:5772   */\n      swap7\n      swap6\n      pop\n      pop\n      pop\n      pop\n      pop\n      pop\n      jump\t// out\n        /* \"#utility.yul\":5778:5895   */\n    tag_143:\n        /* \"#utility.yul\":5887:5888   */\n      0x00\n        /* \"#utility.yul\":5884:5885   */\n      dup1\n        /* \"#utility.yul\":5877:5889   */\n      revert\n        /* \"#utility.yul\":5901:6018   */\n    tag_144:\n        /* \"#utility.yul\":6010:6011   */\n      0x00\n        /* \"#utility.yul\":6007:6008   */\n      dup1\n        /* \"#utility.yul\":6000:6012   */\n      revert\n        /* \"#utility.yul\":6024:6204   */\n    tag_145:\n        /* \"#utility.yul\":6072:6149   */\n      0x4e487b7100000000000000000000000000000000000000000000000000000000\n        /* \"#utility.yul\":6069:6070   */\n      0x00\n        /* \"#utility.yul\":6062:6150   */\n      mstore\n        /* \"#utility.yul\":6169:6173   */\n      0x41\n        /* \"#utility.yul\":6166:6167   */\n      0x04\n        /* \"#utility.yul\":6159:6174   */\n      mstore\n        /* \"#utility.yul\":6193:6197   */\n      0x24\n        /* \"#utility.yul\":6190:6191   */\n      0x00\n        /* \"#utility.yul\":6183:6198   */\n      revert\n        /* \"#utility.yul\":6210:6491   */\n    tag_146:\n        /* \"#utility.yul\":6293:6320   */\n      tag_239\n        /* \"#utility.yul\":6315:6319   */\n      dup3\n        /* \"#utility.yul\":6293:6320   */\n      tag_139\n      jump\t// in\n    tag_239:\n        /* \"#utility.yul\":6285:6291   */\n      dup2\n        /* \"#utility.yul\":6281:6321   */\n      add\n        /* \"#utility.yul\":6423:6429   */\n      dup2\n        /* \"#utility.yul\":6411:6421   */\n      dup2\n        /* \"#utility.yul\":6408:6430   */\n      lt\n        /* \"#utility.yul\":6387:6405   */\n      0xffffffffffffffff\n        /* \"#utility.yul\":6375:6385   */\n      dup3\n        /* \"#utility.yul\":6372:6406   */\n      gt\n        /* \"#utility.yul\":6369:6431   */\n      or\n        /* \"#utility.yul\":6366:6454   */\n      iszero\n      tag_240\n      jumpi\n        /* \"#utility.yul\":6434:6452   */\n      tag_241\n      tag_145\n      jump\t// in\n    tag_241:\n        /* \"#utility.yul\":6366:6454   */\n    tag_240:\n        /* \"#utility.yul\":6474:6484   */\n      dup1\n        /* \"#utility.yul\":6470:6472   */\n      0x40\n        /* \"#utility.yul\":6463:6485   */\n      mstore\n        /* \"#utility.yul\":6253:6491   */\n      pop\n        /* \"#utility.yul\":6210:6491   */\n      pop\n      pop\n      jump\t// out\n        /* \"#utility.yul\":6497:6626   */\n    tag_147:\n        /* \"#utility.yul\":6531:6537   */\n      0x00\n        /* \"#utility.yul\":6558:6578   */\n      tag_243\n      tag_122\n      jump\t// in\n    tag_243:\n        /* \"#utility.yul\":6548:6578   */\n      swap1\n      pop\n        /* \"#utility.yul\":6587:6620   */\n      tag_244\n        /* \"#utility.yul\":6615:6619   */\n      dup3\n        /* \"#utility.yul\":6607:6613   */\n      dup3\n        /* \"#utility.yul\":6587:6620   */\n      tag_146\n      jump\t// in\n    tag_244:\n        /* \"#utility.yul\":6497:6626   */\n      swap2\n      swap1\n      pop\n      jump\t// out\n        /* \"#utility.yul\":6632:6940   */\n    tag_148:\n        /* \"#utility.yul\":6694:6698   */\n      0x00\n        /* \"#utility.yul\":6784:6802   */\n      0xffffffffffffffff\n        /* \"#utility.yul\":6776:6782   */\n      dup3\n        /* \"#utility.yul\":6773:6803   */\n      gt\n        /* \"#utility.yul\":6770:6826   */\n      iszero\n      tag_246\n      jumpi\n        /* \"#utility.yul\":6806:6824   */\n      tag_247\n      tag_145\n      jump\t// in\n    tag_247:\n        /* \"#utility.yul\":6770:6826   */\n    tag_246:\n        /* \"#utility.yul\":6844:6873   */\n      tag_248\n        /* \"#utility.yul\":6866:6872   */\n      dup3\n        /* \"#utility.yul\":6844:6873   */\n      tag_139\n      jump\t// in\n    tag_248:\n        /* \"#utility.yul\":6836:6873   */\n      swap1\n      pop\n        /* \"#utility.yul\":6928:6932   */\n      0x20\n        /* \"#utility.yul\":6922:6926   */\n      dup2\n        /* \"#utility.yul\":6918:6933   */\n      add\n        /* \"#utility.yul\":6910:6933   */\n      swap1\n      pop\n        /* \"#utility.yul\":6632:6940   */\n      swap2\n      swap1\n      pop\n      jump\t// out\n        /* \"#utility.yul\":6946:7100   */\n    tag_149:\n        /* \"#utility.yul\":7030:7036   */\n      dup3\n        /* \"#utility.yul\":7025:7028   */\n      dup2\n        /* \"#utility.yul\":7020:7023   */\n      dup4\n        /* \"#utility.yul\":7007:7037   */\n      calldatacopy\n        /* \"#utility.yul\":7092:7093   */\n      0x00\n        /* \"#utility.yul\":7083:7089   */\n      dup4\n        /* \"#utility.yul\":7078:7081   */\n      dup4\n        /* \"#utility.yul\":7074:7090   */\n      add\n        /* \"#utility.yul\":7067:7094   */\n      mstore\n        /* \"#utility.yul\":6946:7100   */\n      pop\n      pop\n      pop\n      jump\t// out\n        /* \"#utility.yul\":7106:7518   */\n    tag_150:\n        /* \"#utility.yul\":7184:7189   */\n      0x00\n        /* \"#utility.yul\":7209:7275   */\n      tag_251\n        /* \"#utility.yul\":7225:7274   */\n      tag_252\n        /* \"#utility.yul\":7267:7273   */\n      dup5\n        /* \"#utility.yul\":7225:7274   */\n      tag_148\n      jump\t// in\n    tag_252:\n        /* \"#utility.yul\":7209:7275   */\n      tag_147\n      jump\t// in\n    tag_251:\n        /* \"#utility.yul\":7200:7275   */\n      swap1\n      pop\n        /* \"#utility.yul\":7298:7304   */\n      dup3\n        /* \"#utility.yul\":7291:7296   */\n      dup2\n        /* \"#utility.yul\":7284:7305   */\n      mstore\n        /* \"#utility.yul\":7336:7340   */\n      0x20\n        /* \"#utility.yul\":7329:7334   */\n      dup2\n        /* \"#utility.yul\":7325:7341   */\n      add\n        /* \"#utility.yul\":7374:7377   */\n      dup5\n        /* \"#utility.yul\":7365:7371   */\n      dup5\n        /* \"#utility.yul\":7360:7363   */\n      dup5\n        /* \"#utility.yul\":7356:7372   */\n      add\n        /* \"#utility.yul\":7353:7378   */\n      gt\n        /* \"#utility.yul\":7350:7462   */\n      iszero\n      tag_253\n      jumpi\n        /* \"#utility.yul\":7381:7460   */\n      tag_254\n      tag_144\n      jump\t// in\n    tag_254:\n        /* \"#utility.yul\":7350:7462   */\n    tag_253:\n        /* \"#utility.yul\":7471:7512   */\n      tag_255\n        /* \"#utility.yul\":7505:7511   */\n      dup5\n        /* \"#utility.yul\":7500:7503   */\n      dup3\n        /* \"#utility.yul\":7495:7498   */\n      dup6\n        /* \"#utility.yul\":7471:7512   */\n      tag_149\n      jump\t// in\n    tag_255:\n        /* \"#utility.yul\":7190:7518   */\n      pop\n        /* \"#utility.yul\":7106:7518   */\n      swap4\n      swap3\n      pop\n      pop\n      pop\n      jump\t// out\n        /* \"#utility.yul\":7538:7878   */\n    tag_151:\n        /* \"#utility.yul\":7594:7599   */\n      0x00\n        /* \"#utility.yul\":7643:7646   */\n      dup3\n        /* \"#utility.yul\":7636:7640   */\n      0x1f\n        /* \"#utility.yul\":7628:7634   */\n      dup4\n        /* \"#utility.yul\":7624:7641   */\n      add\n        /* \"#utility.yul\":7620:7647   */\n      slt\n        /* \"#utility.yul\":7610:7732   */\n      tag_257\n      jumpi\n        /* \"#utility.yul\":7651:7730   */\n      tag_258\n      tag_143\n      jump\t// in\n    tag_258:\n        /* \"#utility.yul\":7610:7732   */\n    tag_257:\n        /* \"#utility.yul\":7768:7774   */\n      dup2\n        /* \"#utility.yul\":7755:7775   */\n      calldataload\n        /* \"#utility.yul\":7793:7872   */\n      tag_259\n        /* \"#utility.yul\":7868:7871   */\n      dup5\n        /* \"#utility.yul\":7860:7866   */\n      dup3\n        /* \"#utility.yul\":7853:7857   */\n      0x20\n        /* \"#utility.yul\":7845:7851   */\n      dup7\n        /* \"#utility.yul\":7841:7858   */\n      add\n        /* \"#utility.yul\":7793:7872   */\n      tag_150\n      jump\t// in\n    tag_259:\n        /* \"#utility.yul\":7784:7872   */\n      swap2\n      pop\n        /* \"#utility.yul\":7600:7878   */\n      pop\n        /* \"#utility.yul\":7538:7878   */\n      swap3\n      swap2\n      pop\n      pop\n      jump\t// out\n        /* \"#utility.yul\":7884:8022   */\n    tag_152:\n        /* \"#utility.yul\":7965:7997   */\n      tag_261\n        /* \"#utility.yul\":7991:7996   */\n      dup2\n        /* \"#utility.yul\":7965:7997   */\n      tag_141\n      jump\t// in\n    tag_261:\n        /* \"#utility.yul\":7958:7963   */\n      dup2\n        /* \"#utility.yul\":7955:7998   */\n      eq\n        /* \"#utility.yul\":7945:8016   */\n      tag_262\n      jumpi\n        /* \"#utility.yul\":8012:8013   */\n      0x00\n        /* \"#utility.yul\":8009:8010   */\n      dup1\n        /* \"#utility.yul\":8002:8014   */\n      revert\n        /* \"#utility.yul\":7945:8016   */\n    tag_262:\n        /* \"#utility.yul\":7884:8022   */\n      pop\n      jump\t// out\n        /* \"#utility.yul\":8028:8183   */\n    tag_153:\n        /* \"#utility.yul\":8082:8087   */\n      0x00\n        /* \"#utility.yul\":8120:8126   */\n      dup2\n        /* \"#utility.yul\":8107:8127   */\n      calldataload\n        /* \"#utility.yul\":8098:8127   */\n      swap1\n      pop\n        /* \"#utility.yul\":8136:8177   */\n      tag_264\n        /* \"#utility.yul\":8171:8176   */\n      dup2\n        /* \"#utility.yul\":8136:8177   */\n      tag_152\n      jump\t// in\n    tag_264:\n        /* \"#utility.yul\":8028:8183   */\n      swap3\n      swap2\n      pop\n      pop\n      jump\t// out\n        /* \"#utility.yul\":8189:9004   */\n    tag_51:\n        /* \"#utility.yul\":8284:8290   */\n      0x00\n        /* \"#utility.yul\":8292:8298   */\n      dup1\n        /* \"#utility.yul\":8300:8306   */\n      0x00\n        /* \"#utility.yul\":8349:8351   */\n      0x60\n        /* \"#utility.yul\":8337:8346   */\n      dup5\n        /* \"#utility.yul\":8328:8335   */\n      dup7\n        /* \"#utility.yul\":8324:8347   */\n      sub\n        /* \"#utility.yul\":8320:8352   */\n      slt\n        /* \"#utility.yul\":8317:8436   */\n      iszero\n      tag_266\n      jumpi\n        /* \"#utility.yul\":8355:8434   */\n      tag_267\n      tag_123\n      jump\t// in\n    tag_267:\n        /* \"#utility.yul\":8317:8436   */\n    tag_266:\n        /* \"#utility.yul\":8503:8504   */\n      0x00\n        /* \"#utility.yul\":8492:8501   */\n      dup5\n        /* \"#utility.yul\":8488:8505   */\n      add\n        /* \"#utility.yul\":8475:8506   */\n      calldataload\n        /* \"#utility.yul\":8533:8551   */\n      0xffffffffffffffff\n        /* \"#utility.yul\":8525:8531   */\n      dup2\n        /* \"#utility.yul\":8522:8552   */\n      gt\n        /* \"#utility.yul\":8519:8636   */\n      iszero\n      tag_268\n      jumpi\n        /* \"#utility.yul\":8555:8634   */\n      tag_269\n      tag_124\n      jump\t// in\n    tag_269:\n        /* \"#utility.yul\":8519:8636   */\n    tag_268:\n        /* \"#utility.yul\":8660:8723   */\n      tag_270\n        /* \"#utility.yul\":8715:8722   */\n      dup7\n        /* \"#utility.yul\":8706:8712   */\n      dup3\n        /* \"#utility.yul\":8695:8704   */\n      dup8\n        /* \"#utility.yul\":8691:8713   */\n      add\n        /* \"#utility.yul\":8660:8723   */\n      tag_151\n      jump\t// in\n    tag_270:\n        /* \"#utility.yul\":8650:8723   */\n      swap4\n      pop\n        /* \"#utility.yul\":8446:8733   */\n      pop\n        /* \"#utility.yul\":8772:8774   */\n      0x20\n        /* \"#utility.yul\":8798:8851   */\n      tag_271\n        /* \"#utility.yul\":8843:8850   */\n      dup7\n        /* \"#utility.yul\":8834:8840   */\n      dup3\n        /* \"#utility.yul\":8823:8832   */\n      dup8\n        /* \"#utility.yul\":8819:8841   */\n      add\n        /* \"#utility.yul\":8798:8851   */\n      tag_135\n      jump\t// in\n    tag_271:\n        /* \"#utility.yul\":8788:8851   */\n      swap3\n      pop\n        /* \"#utility.yul\":8743:8861   */\n      pop\n        /* \"#utility.yul\":8900:8902   */\n      0x40\n        /* \"#utility.yul\":8926:8987   */\n      tag_272\n        /* \"#utility.yul\":8979:8986   */\n      dup7\n        /* \"#utility.yul\":8970:8976   */\n      dup3\n        /* \"#utility.yul\":8959:8968   */\n      dup8\n        /* \"#utility.yul\":8955:8977   */\n      add\n        /* \"#utility.yul\":8926:8987   */\n      tag_153\n      jump\t// in\n    tag_272:\n        /* \"#utility.yul\":8916:8987   */\n      swap2\n      pop\n        /* \"#utility.yul\":8871:8997   */\n      pop\n        /* \"#utility.yul\":8189:9004   */\n      swap3\n      pop\n      swap3\n      pop\n      swap3\n      jump\t// out\n        /* \"#utility.yul\":9010:9190   */\n    tag_154:\n        /* \"#utility.yul\":9058:9135   */\n      0x4e487b7100000000000000000000000000000000000000000000000000000000\n        /* \"#utility.yul\":9055:9056   */\n      0x00\n        /* \"#utility.yul\":9048:9136   */\n      mstore\n        /* \"#utility.yul\":9155:9159   */\n      0x22\n        /* \"#utility.yul\":9152:9153   */\n      0x04\n        /* \"#utility.yul\":9145:9160   */\n      mstore\n        /* \"#utility.yul\":9179:9183   */\n      0x24\n        /* \"#utility.yul\":9176:9177   */\n      0x00\n        /* \"#utility.yul\":9169:9184   */\n      revert\n        /* \"#utility.yul\":9196:9516   */\n    tag_74:\n        /* \"#utility.yul\":9240:9246   */\n      0x00\n        /* \"#utility.yul\":9277:9278   */\n      0x02\n        /* \"#utility.yul\":9271:9275   */\n      dup3\n        /* \"#utility.yul\":9267:9279   */\n      div\n        /* \"#utility.yul\":9257:9279   */\n      swap1\n      pop\n        /* \"#utility.yul\":9324:9325   */\n      0x01\n        /* \"#utility.yul\":9318:9322   */\n      dup3\n        /* \"#utility.yul\":9314:9326   */\n      and\n        /* \"#utility.yul\":9345:9363   */\n      dup1\n        /* \"#utility.yul\":9335:9416   */\n      tag_275\n      jumpi\n        /* \"#utility.yul\":9401:9405   */\n      0x7f\n        /* \"#utility.yul\":9393:9399   */\n      dup3\n        /* \"#utility.yul\":9389:9406   */\n      and\n        /* \"#utility.yul\":9379:9406   */\n      swap2\n      pop\n        /* \"#utility.yul\":9335:9416   */\n    tag_275:\n        /* \"#utility.yul\":9463:9465   */\n      0x20\n        /* \"#utility.yul\":9455:9461   */\n      dup3\n        /* \"#utility.yul\":9452:9466   */\n      lt\n        /* \"#utility.yul\":9432:9450   */\n      dup2\n        /* \"#utility.yul\":9429:9467   */\n      eq\n        /* \"#utility.yul\":9426:9510   */\n      iszero\n      tag_276\n      jumpi\n        /* \"#utility.yul\":9482:9500   */\n      tag_277\n      tag_154\n      jump\t// in\n    tag_277:\n        /* \"#utility.yul\":9426:9510   */\n    tag_276:\n        /* \"#utility.yul\":9247:9516   */\n      pop\n        /* \"#utility.yul\":9196:9516   */\n      swap2\n      swap1\n      pop\n      jump\t// out\n        /* \"#utility.yul\":9522:9702   */\n    tag_155:\n        /* \"#utility.yul\":9570:9647   */\n      0x4e487b7100000000000000000000000000000000000000000000000000000000\n        /* \"#utility.yul\":9567:9568   */\n      0x00\n        /* \"#utility.yul\":9560:9648   */\n      mstore\n        /* \"#utility.yul\":9667:9671   */\n      0x11\n        /* \"#utility.yul\":9664:9665   */\n      0x04\n        /* \"#utility.yul\":9657:9672   */\n      mstore\n        /* \"#utility.yul\":9691:9695   */\n      0x24\n        /* \"#utility.yul\":9688:9689   */\n      0x00\n        /* \"#utility.yul\":9681:9696   */\n      revert\n        /* \"#utility.yul\":9708:9941   */\n    tag_83:\n        /* \"#utility.yul\":9747:9750   */\n      0x00\n        /* \"#utility.yul\":9770:9794   */\n      tag_280\n        /* \"#utility.yul\":9788:9793   */\n      dup3\n        /* \"#utility.yul\":9770:9794   */\n      tag_131\n      jump\t// in\n    tag_280:\n        /* \"#utility.yul\":9761:9794   */\n      swap2\n      pop\n        /* \"#utility.yul\":9816:9882   */\n      0xffffffffffffffffffffffffffffffffffffffffffffffffffffffffffffffff\n        /* \"#utility.yul\":9809:9814   */\n      dup3\n        /* \"#utility.yul\":9806:9883   */\n      eq\n        /* \"#utility.yul\":9803:9906   */\n      iszero\n      tag_281\n      jumpi\n        /* \"#utility.yul\":9886:9904   */\n      tag_282\n      tag_155\n      jump\t// in\n    tag_282:\n        /* \"#utility.yul\":9803:9906   */\n    tag_281:\n        /* \"#utility.yul\":9933:9934   */\n      0x01\n        /* \"#utility.yul\":9926:9931   */\n      dup3\n        /* \"#utility.yul\":9922:9935   */\n      add\n        /* \"#utility.yul\":9915:9935   */\n      swap1\n      pop\n        /* \"#utility.yul\":9708:9941   */\n      swap2\n      swap1\n      pop\n      jump\t// out\n        /* \"#utility.yul\":9947:10171   */\n    tag_156:\n        /* \"#utility.yul\":10087:10121   */\n      0x4e6565647320746f2070726f76696465206d696e696d756d20636f6e74726962\n        /* \"#utility.yul\":10083:10084   */\n      0x00\n        /* \"#utility.yul\":10075:10081   */\n      dup3\n        /* \"#utility.yul\":10071:10085   */\n      add\n        /* \"#utility.yul\":10064:10122   */\n      mstore\n        /* \"#utility.yul\":10156:10163   */\n      0x7574696f6e000000000000000000000000000000000000000000000000000000\n        /* \"#utility.yul\":10151:10153   */\n      0x20\n        /* \"#utility.yul\":10143:10149   */\n      dup3\n        /* \"#utility.yul\":10139:10154   */\n      add\n        /* \"#utility.yul\":10132:10164   */\n      mstore\n        /* \"#utility.yul\":9947:10171   */\n      pop\n      jump\t// out\n        /* \"#utility.yul\":10177:10543   */\n    tag_157:\n        /* \"#utility.yul\":10319:10322   */\n      0x00\n        /* \"#utility.yul\":10340:10407   */\n      tag_285\n        /* \"#utility.yul\":10404:10406   */\n      0x25\n        /* \"#utility.yul\":10399:10402   */\n      dup4\n        /* \"#utility.yul\":10340:10407   */\n      tag_137\n      jump\t// in\n    tag_285:\n        /* \"#utility.yul\":10333:10407   */\n      swap2\n      pop\n        /* \"#utility.yul\":10416:10509   */\n      tag_286\n        /* \"#utility.yul\":10505:10508   */\n      dup3\n        /* \"#utility.yul\":10416:10509   */\n      tag_156\n      jump\t// in\n    tag_286:\n        /* \"#utility.yul\":10534:10536   */\n      0x40\n        /* \"#utility.yul\":10529:10532   */\n      dup3\n        /* \"#utility.yul\":10525:10537   */\n      add\n        /* \"#utility.yul\":10518:10537   */\n      swap1\n      pop\n        /* \"#utility.yul\":10177:10543   */\n      swap2\n      swap1\n      pop\n      jump\t// out\n        /* \"#utility.yul\":10549:10968   */\n    tag_89:\n        /* \"#utility.yul\":10715:10719   */\n      0x00\n        /* \"#utility.yul\":10753:10755   */\n      0x20\n        /* \"#utility.yul\":10742:10751   */\n      dup3\n        /* \"#utility.yul\":10738:10756   */\n      add\n        /* \"#utility.yul\":10730:10756   */\n      swap1\n      pop\n        /* \"#utility.yul\":10802:10811   */\n      dup2\n        /* \"#utility.yul\":10796:10800   */\n      dup2\n        /* \"#utility.yul\":10792:10812   */\n      sub\n        /* \"#utility.yul\":10788:10789   */\n      0x00\n        /* \"#utility.yul\":10777:10786   */\n      dup4\n        /* \"#utility.yul\":10773:10790   */\n      add\n        /* \"#utility.yul\":10766:10813   */\n      mstore\n        /* \"#utility.yul\":10830:10961   */\n      tag_288\n        /* \"#utility.yul\":10956:10960   */\n      dup2\n        /* \"#utility.yul\":10830:10961   */\n      tag_157\n      jump\t// in\n    tag_288:\n        /* \"#utility.yul\":10822:10961   */\n      swap1\n      pop\n        /* \"#utility.yul\":10549:10968   */\n      swap2\n      swap1\n      pop\n      jump\t// out\n        /* \"#utility.yul\":10974:11199   */\n    tag_158:\n        /* \"#utility.yul\":11114:11148   */\n      0x546f20617070726f76652072657175657374206e6565647320746f2061206170\n        /* \"#utility.yul\":11110:11111   */\n      0x00\n        /* \"#utility.yul\":11102:11108   */\n      dup3\n        /* \"#utility.yul\":11098:11112   */\n      add\n        /* \"#utility.yul\":11091:11149   */\n      mstore\n        /* \"#utility.yul\":11183:11191   */\n      0x70726f7665720000000000000000000000000000000000000000000000000000\n        /* \"#utility.yul\":11178:11180   */\n      0x20\n        /* \"#utility.yul\":11170:11176   */\n      dup3\n        /* \"#utility.yul\":11166:11181   */\n      add\n        /* \"#utility.yul\":11159:11192   */\n      mstore\n        /* \"#utility.yul\":10974:11199   */\n      pop\n      jump\t// out\n        /* \"#utility.yul\":11205:11571   */\n    tag_159:\n        /* \"#utility.yul\":11347:11350   */\n      0x00\n        /* \"#utility.yul\":11368:11435   */\n      tag_291\n        /* \"#utility.yul\":11432:11434   */\n      0x26\n        /* \"#utility.yul\":11427:11430   */\n      dup4\n        /* \"#utility.yul\":11368:11435   */\n      tag_137\n      jump\t// in\n    tag_291:\n        /* \"#utility.yul\":11361:11435   */\n      swap2\n      pop\n        /* \"#utility.yul\":11444:11537   */\n      tag_292\n        /* \"#utility.yul\":11533:11536   */\n      dup3\n        /* \"#utility.yul\":11444:11537   */\n      tag_158\n      jump\t// in\n    tag_292:\n        /* \"#utility.yul\":11562:11564   */\n      0x40\n        /* \"#utility.yul\":11557:11560   */\n      dup3\n        /* \"#utility.yul\":11553:11565   */\n      add\n        /* \"#utility.yul\":11546:11565   */\n      swap1\n      pop\n        /* \"#utility.yul\":11205:11571   */\n      swap2\n      swap1\n      pop\n      jump\t// out\n        /* \"#utility.yul\":11577:11996   */\n    tag_94:\n        /* \"#utility.yul\":11743:11747   */\n      0x00\n        /* \"#utility.yul\":11781:11783   */\n      0x20\n        /* \"#utility.yul\":11770:11779   */\n      dup3\n        /* \"#utility.yul\":11766:11784   */\n      add\n        /* \"#utility.yul\":11758:11784   */\n      swap1\n      pop\n        /* \"#utility.yul\":11830:11839   */\n      dup2\n        /* \"#utility.yul\":11824:11828   */\n      dup2\n        /* \"#utility.yul\":11820:11840   */\n      sub\n        /* \"#utility.yul\":11816:11817   */\n      0x00\n        /* \"#utility.yul\":11805:11814   */\n      dup4\n        /* \"#utility.yul\":11801:11818   */\n      add\n        /* \"#utility.yul\":11794:11841   */\n      mstore\n        /* \"#utility.yul\":11858:11989   */\n      tag_294\n        /* \"#utility.yul\":11984:11988   */\n      dup2\n        /* \"#utility.yul\":11858:11989   */\n      tag_159\n      jump\t// in\n    tag_294:\n        /* \"#utility.yul\":11850:11989   */\n      swap1\n      pop\n        /* \"#utility.yul\":11577:11996   */\n      swap2\n      swap1\n      pop\n      jump\t// out\n        /* \"#utility.yul\":12002:12174   */\n    tag_160:\n        /* \"#utility.yul\":12142:12166   */\n      0x596f752063616e20766f7465206f6e6c79206f6e636500000000000000000000\n        /* \"#utility.yul\":12138:12139   */\n      0x00\n        /* \"#utility.yul\":12130:12136   */\n      dup3\n        /* \"#utility.yul\":12126:12140   */\n      add\n        /* \"#utility.yul\":12119:12167   */\n      mstore\n        /* \"#utility.yul\":12002:12174   */\n      pop\n      jump\t// out\n        /* \"#utility.yul\":12180:12546   */\n    tag_161:\n        /* \"#utility.yul\":12322:12325   */\n      0x00\n        /* \"#utility.yul\":12343:12410   */\n      tag_297\n        /* \"#utility.yul\":12407:12409   */\n      0x16\n        /* \"#utility.yul\":12402:12405   */\n      dup4\n        /* \"#utility.yul\":12343:12410   */\n      tag_137\n      jump\t// in\n    tag_297:\n        /* \"#utility.yul\":12336:12410   */\n      swap2\n      pop\n        /* \"#utility.yul\":12419:12512   */\n      tag_298\n        /* \"#utility.yul\":12508:12511   */\n      dup3\n        /* \"#utility.yul\":12419:12512   */\n      tag_160\n      jump\t// in\n    tag_298:\n        /* \"#utility.yul\":12537:12539   */\n      0x20\n        /* \"#utility.yul\":12532:12535   */\n      dup3\n        /* \"#utility.yul\":12528:12540   */\n      add\n        /* \"#utility.yul\":12521:12540   */\n      swap1\n      pop\n        /* \"#utility.yul\":12180:12546   */\n      swap2\n      swap1\n      pop\n      jump\t// out\n        /* \"#utility.yul\":12552:12971   */\n    tag_97:\n        /* \"#utility.yul\":12718:12722   */\n      0x00\n        /* \"#utility.yul\":12756:12758   */\n      0x20\n        /* \"#utility.yul\":12745:12754   */\n      dup3\n        /* \"#utility.yul\":12741:12759   */\n      add\n        /* \"#utility.yul\":12733:12759   */\n      swap1\n      pop\n        /* \"#utility.yul\":12805:12814   */\n      dup2\n        /* \"#utility.yul\":12799:12803   */\n      dup2\n        /* \"#utility.yul\":12795:12815   */\n      sub\n        /* \"#utility.yul\":12791:12792   */\n      0x00\n        /* \"#utility.yul\":12780:12789   */\n      dup4\n        /* \"#utility.yul\":12776:12793   */\n      add\n        /* \"#utility.yul\":12769:12816   */\n      mstore\n        /* \"#utility.yul\":12833:12964   */\n      tag_300\n        /* \"#utility.yul\":12959:12963   */\n      dup2\n        /* \"#utility.yul\":12833:12964   */\n      tag_161\n      jump\t// in\n    tag_300:\n        /* \"#utility.yul\":12825:12964   */\n      swap1\n      pop\n        /* \"#utility.yul\":12552:12971   */\n      swap2\n      swap1\n      pop\n      jump\t// out\n        /* \"#utility.yul\":12977:13157   */\n    tag_162:\n        /* \"#utility.yul\":13025:13102   */\n      0x4e487b7100000000000000000000000000000000000000000000000000000000\n        /* \"#utility.yul\":13022:13023   */\n      0x00\n        /* \"#utility.yul\":13015:13103   */\n      mstore\n        /* \"#utility.yul\":13122:13126   */\n      0x12\n        /* \"#utility.yul\":13119:13120   */\n      0x04\n        /* \"#utility.yul\":13112:13127   */\n      mstore\n        /* \"#utility.yul\":13146:13150   */\n      0x24\n        /* \"#utility.yul\":13143:13144   */\n      0x00\n        /* \"#utility.yul\":13136:13151   */\n      revert\n        /* \"#utility.yul\":13163:13348   */\n    tag_103:\n        /* \"#utility.yul\":13203:13204   */\n      0x00\n        /* \"#utility.yul\":13220:13240   */\n      tag_303\n        /* \"#utility.yul\":13238:13239   */\n      dup3\n        /* \"#utility.yul\":13220:13240   */\n      tag_131\n      jump\t// in\n    tag_303:\n        /* \"#utility.yul\":13215:13240   */\n      swap2\n      pop\n        /* \"#utility.yul\":13254:13274   */\n      tag_304\n        /* \"#utility.yul\":13272:13273   */\n      dup4\n        /* \"#utility.yul\":13254:13274   */\n      tag_131\n      jump\t// in\n    tag_304:\n        /* \"#utility.yul\":13249:13274   */\n      swap3\n      pop\n        /* \"#utility.yul\":13293:13294   */\n      dup3\n        /* \"#utility.yul\":13283:13318   */\n      tag_305\n      jumpi\n        /* \"#utility.yul\":13298:13316   */\n      tag_306\n      tag_162\n      jump\t// in\n    tag_306:\n        /* \"#utility.yul\":13283:13318   */\n    tag_305:\n        /* \"#utility.yul\":13340:13341   */\n      dup3\n        /* \"#utility.yul\":13337:13338   */\n      dup3\n        /* \"#utility.yul\":13333:13342   */\n      div\n        /* \"#utility.yul\":13328:13342   */\n      swap1\n      pop\n        /* \"#utility.yul\":13163:13348   */\n      swap3\n      swap2\n      pop\n      pop\n      jump\t// out\n        /* \"#utility.yul\":13354:13576   */\n    tag_163:\n        /* \"#utility.yul\":13494:13528   */\n      0x4e656564732061746c656173742068616c66206d656d6265727320617070726f\n        /* \"#utility.yul\":13490:13491   */\n      0x00\n        /* \"#utility.yul\":13482:13488   */\n      dup3\n        /* \"#utility.yul\":13478:13492   */\n      add\n        /* \"#utility.yul\":13471:13529   */\n      mstore\n        /* \"#utility.yul\":13563:13568   */\n      0x76616c0000000000000000000000000000000000000000000000000000000000\n        /* \"#utility.yul\":13558:13560   */\n      0x20\n        /* \"#utility.yul\":13550:13556   */\n      dup3\n        /* \"#utility.yul\":13546:13561   */\n      add\n        /* \"#utility.yul\":13539:13569   */\n      mstore\n        /* \"#utility.yul\":13354:13576   */\n      pop\n      jump\t// out\n        /* \"#utility.yul\":13582:13948   */\n    tag_164:\n        /* \"#utility.yul\":13724:13727   */\n      0x00\n        /* \"#utility.yul\":13745:13812   */\n      tag_309\n        /* \"#utility.yul\":13809:13811   */\n      0x23\n        /* \"#utility.yul\":13804:13807   */\n      dup4\n        /* \"#utility.yul\":13745:13812   */\n      tag_137\n      jump\t// in\n    tag_309:\n        /* \"#utility.yul\":13738:13812   */\n      swap2\n      pop\n        /* \"#utility.yul\":13821:13914   */\n      tag_310\n        /* \"#utility.yul\":13910:13913   */\n      dup3\n        /* \"#utility.yul\":13821:13914   */\n      tag_163\n      jump\t// in\n    tag_310:\n        /* \"#utility.yul\":13939:13941   */\n      0x40\n        /* \"#utility.yul\":13934:13937   */\n      dup3\n        /* \"#utility.yul\":13930:13942   */\n      add\n        /* \"#utility.yul\":13923:13942   */\n      swap1\n      pop\n        /* \"#utility.yul\":13582:13948   */\n      swap2\n      swap1\n      pop\n      jump\t// out\n        /* \"#utility.yul\":13954:14373   */\n    tag_106:\n        /* \"#utility.yul\":14120:14124   */\n      0x00\n        /* \"#utility.yul\":14158:14160   */\n      0x20\n        /* \"#utility.yul\":14147:14156   */\n      dup3\n        /* \"#utility.yul\":14143:14161   */\n      add\n        /* \"#utility.yul\":14135:14161   */\n      swap1\n      pop\n        /* \"#utility.yul\":14207:14216   */\n      dup2\n        /* \"#utility.yul\":14201:14205   */\n      dup2\n        /* \"#utility.yul\":14197:14217   */\n      sub\n        /* \"#utility.yul\":14193:14194   */\n      0x00\n        /* \"#utility.yul\":14182:14191   */\n      dup4\n        /* \"#utility.yul\":14178:14195   */\n      add\n        /* \"#utility.yul\":14171:14218   */\n      mstore\n        /* \"#utility.yul\":14235:14366   */\n      tag_312\n        /* \"#utility.yul\":14361:14365   */\n      dup2\n        /* \"#utility.yul\":14235:14366   */\n      tag_164\n      jump\t// in\n    tag_312:\n        /* \"#utility.yul\":14227:14366   */\n      swap1\n      pop\n        /* \"#utility.yul\":13954:14373   */\n      swap2\n      swap1\n      pop\n      jump\t// out\n        /* \"#utility.yul\":14379:14554   */\n    tag_165:\n        /* \"#utility.yul\":14519:14546   */\n      0x5265717565737420616c726561647920636f6d706c6574656400000000000000\n        /* \"#utility.yul\":14515:14516   */\n      0x00\n        /* \"#utility.yul\":14507:14513   */\n      dup3\n        /* \"#utility.yul\":14503:14517   */\n      add\n        /* \"#utility.yul\":14496:14547   */\n      mstore\n        /* \"#utility.yul\":14379:14554   */\n      pop\n      jump\t// out\n        /* \"#utility.yul\":14560:14926   */\n    tag_166:\n        /* \"#utility.yul\":14702:14705   */\n      0x00\n        /* \"#utility.yul\":14723:14790   */\n      tag_315\n        /* \"#utility.yul\":14787:14789   */\n      0x19\n        /* \"#utility.yul\":14782:14785   */\n      dup4\n        /* \"#utility.yul\":14723:14790   */\n      tag_137\n      jump\t// in\n    tag_315:\n        /* \"#utility.yul\":14716:14790   */\n      swap2\n      pop\n        /* \"#utility.yul\":14799:14892   */\n      tag_316\n        /* \"#utility.yul\":14888:14891   */\n      dup3\n        /* \"#utility.yul\":14799:14892   */\n      tag_165\n      jump\t// in\n    tag_316:\n        /* \"#utility.yul\":14917:14919   */\n      0x20\n        /* \"#utility.yul\":14912:14915   */\n      dup3\n        /* \"#utility.yul\":14908:14920   */\n      add\n        /* \"#utility.yul\":14901:14920   */\n      swap1\n      pop\n        /* \"#utility.yul\":14560:14926   */\n      swap2\n      swap1\n      pop\n      jump\t// out\n        /* \"#utility.yul\":14932:15351   */\n    tag_109:\n        /* \"#utility.yul\":15098:15102   */\n      0x00\n        /* \"#utility.yul\":15136:15138   */\n      0x20\n        /* \"#utility.yul\":15125:15134   */\n      dup3\n        /* \"#utility.yul\":15121:15139   */\n      add\n        /* \"#utility.yul\":15113:15139   */\n      swap1\n      pop\n        /* \"#utility.yul\":15185:15194   */\n      dup2\n        /* \"#utility.yul\":15179:15183   */\n      dup2\n        /* \"#utility.yul\":15175:15195   */\n      sub\n        /* \"#utility.yul\":15171:15172   */\n      0x00\n        /* \"#utility.yul\":15160:15169   */\n      dup4\n        /* \"#utility.yul\":15156:15173   */\n      add\n        /* \"#utility.yul\":15149:15196   */\n      mstore\n        /* \"#utility.yul\":15213:15344   */\n      tag_318\n        /* \"#utility.yul\":15339:15343   */\n      dup2\n        /* \"#utility.yul\":15213:15344   */\n      tag_166\n      jump\t// in\n    tag_318:\n        /* \"#utility.yul\":15205:15344   */\n      swap1\n      pop\n        /* \"#utility.yul\":14932:15351   */\n      swap2\n      swap1\n      pop\n      jump\t// out\n\n    auxdata: 0xa2646970667358221220c043b3729db470dd1800805fccf854970e9522ab0db3cb7e1f880af2b19aaf0364736f6c634300080b0033\n}\n","bytecode":{"linkReferences":{},"object":"60806040523480156200001157600080fd5b50604051620014453803806200144583398181016040528101906200003791906200012b565b806000806101000a81548173ffffffffffffffffffffffffffffffffffffffff021916908373ffffffffffffffffffffffffffffffffffffffff16021790555081600181905550505062000172565b600080fd5b6000819050919050565b620000a0816200008b565b8114620000ac57600080fd5b50565b600081519050620000c08162000095565b92915050565b600073ffffffffffffffffffffffffffffffffffffffff82169050919050565b6000620000f382620000c6565b9050919050565b6200010581620000e6565b81146200011157600080fd5b50565b6000815190506200012581620000fa565b92915050565b6000806040838503121562000145576200014462000086565b5b60006200015585828601620000af565b9250506020620001688582860162000114565b9150509250929050565b6112c380620001826000396000f3fe6080604052600436106100a75760003560e01c80638a9cfd55116100645780638a9cfd55146101da578063937e09b1146102035780639fb42b1f1461022e578063d7bb99ba14610259578063d7d1bbdb14610263578063f00a7f4f1461028c576100a7565b80630a144391146100ac5780633410452a146100e95780634051ddac14610114578063481c6a751461014357806381d12c581461016e57806382fde093146101af575b600080fd5b3480156100b857600080fd5b506100d360048036038101906100ce9190610a75565b6102b5565b6040516100e09190610abd565b60405180910390f35b3480156100f557600080fd5b506100fe6102d5565b60405161010b9190610af1565b60405180910390f35b34801561012057600080fd5b506101296102df565b60405161013a959493929190610b1b565b60405180910390f35b34801561014f57600080fd5b50610158610323565b6040516101659190610b6e565b60405180910390f35b34801561017a57600080fd5b5061019560048036038101906101909190610bb5565b610347565b6040516101a6959493929190610c9c565b60405180910390f35b3480156101bb57600080fd5b506101c4610432565b6040516101d19190610af1565b60405180910390f35b3480156101e657600080fd5b5061020160048036038101906101fc9190610e57565b610438565b005b34801561020f57600080fd5b5061021861054f565b6040516102259190610af1565b60405180910390f35b34801561023a57600080fd5b50610243610555565b6040516102509190610af1565b60405180910390f35b61026161055b565b005b34801561026f57600080fd5b5061028a60048036038101906102859190610bb5565b610611565b005b34801561029857600080fd5b506102b360048036038101906102ae9190610bb5565b6107bb565b005b60026020528060005260406000206000915054906101000a900460ff1681565b6000600454905090565b60008060008060006001544760045460035460008054906101000a900473ffffffffffffffffffffffffffffffffffffffff16945094509450945094509091929394565b60008054906101000a900473ffffffffffffffffffffffffffffffffffffffff1681565b600560205280600052604060002060009150905080600001805461036a90610ef5565b80601f016020809104026020016040519081016040528092919081815260200182805461039690610ef5565b80156103e35780601f106103b8576101008083540402835291602001916103e3565b820191906000526020600020905b8154815290600101906020018083116103c657829003601f168201915b5050505050908060010154908060020160009054906101000a900473ffffffffffffffffffffffffffffffffffffffff16908060020160149054906101000a900460ff16908060040154905085565b60035481565b60008054906101000a900473ffffffffffffffffffffffffffffffffffffffff1673ffffffffffffffffffffffffffffffffffffffff163373ffffffffffffffffffffffffffffffffffffffff161461049057600080fd5b600060056000600460008154809291906104a990610f56565b9190505581526020019081526020016000209050838160000190805190602001906104d5929190610960565b50828160010181905550818160020160006101000a81548173ffffffffffffffffffffffffffffffffffffffff021916908373ffffffffffffffffffffffffffffffffffffffff16021790555060008160020160146101000a81548160ff0219169083151502179055506000816004018190555050505050565b60015481565b60045481565b346001541061059f576040517f08c379a000000000000000000000000000000000000000000000000000000000815260040161059690611011565b60405180910390fd5b6001600260003373ffffffffffffffffffffffffffffffffffffffff1673ffffffffffffffffffffffffffffffffffffffff16815260200190815260200160002060006101000a81548160ff0219169083151502179055506003600081548092919061060a90610f56565b9190505550565b6000600560008381526020019081526020016000209050600260003373ffffffffffffffffffffffffffffffffffffffff1673ffffffffffffffffffffffffffffffffffffffff16815260200190815260200160002060009054906101000a900460ff166106b4576040517f08c379a00000000000000000000000000000000000000000000000000000000081526004016106ab906110a3565b60405180910390fd5b8060030160003373ffffffffffffffffffffffffffffffffffffffff1673ffffffffffffffffffffffffffffffffffffffff16815260200190815260200160002060009054906101000a900460ff1615610743576040517f08c379a000000000000000000000000000000000000000000000000000000000815260040161073a9061110f565b60405180910390fd5b60018160030160003373ffffffffffffffffffffffffffffffffffffffff1673ffffffffffffffffffffffffffffffffffffffff16815260200190815260200160002060006101000a81548160ff0219169083151502179055508060040160008154809291906107b290610f56565b91905055505050565b60008054906101000a900473ffffffffffffffffffffffffffffffffffffffff1673ffffffffffffffffffffffffffffffffffffffff163373ffffffffffffffffffffffffffffffffffffffff161461081357600080fd5b60006005600083815260200190815260200160002090506002600354610839919061115e565b81600401541161087e576040517f08c379a000000000000000000000000000000000000000000000000000000000815260040161087590611201565b60405180910390fd5b8060020160149054906101000a900460ff16156108d0576040517f08c379a00000000000000000000000000000000000000000000000000000000081526004016108c79061126d565b60405180910390fd5b8060020160009054906101000a900473ffffffffffffffffffffffffffffffffffffffff1673ffffffffffffffffffffffffffffffffffffffff166108fc82600101549081150290604051600060405180830381858888f1935050505015801561093e573d6000803e3d6000fd5b5060018160020160146101000a81548160ff0219169083151502179055505050565b82805461096c90610ef5565b90600052602060002090601f01602090048101928261098e57600085556109d5565b82601f106109a757805160ff19168380011785556109d5565b828001600101855582156109d5579182015b828111156109d45782518255916020019190600101906109b9565b5b5090506109e291906109e6565b5090565b5b808211156109ff5760008160009055506001016109e7565b5090565b6000604051905090565b600080fd5b600080fd5b600073ffffffffffffffffffffffffffffffffffffffff82169050919050565b6000610a4282610a17565b9050919050565b610a5281610a37565b8114610a5d57600080fd5b50565b600081359050610a6f81610a49565b92915050565b600060208284031215610a8b57610a8a610a0d565b5b6000610a9984828501610a60565b91505092915050565b60008115159050919050565b610ab781610aa2565b82525050565b6000602082019050610ad26000830184610aae565b92915050565b6000819050919050565b610aeb81610ad8565b82525050565b6000602082019050610b066000830184610ae2565b92915050565b610b1581610a37565b82525050565b600060a082019050610b306000830188610ae2565b610b3d6020830187610ae2565b610b4a6040830186610ae2565b610b576060830185610ae2565b610b646080830184610b0c565b9695505050505050565b6000602082019050610b836000830184610b0c565b92915050565b610b9281610ad8565b8114610b9d57600080fd5b50565b600081359050610baf81610b89565b92915050565b600060208284031215610bcb57610bca610a0d565b5b6000610bd984828501610ba0565b91505092915050565b600081519050919050565b600082825260208201905092915050565b60005b83811015610c1c578082015181840152602081019050610c01565b83811115610c2b576000848401525b50505050565b6000601f19601f8301169050919050565b6000610c4d82610be2565b610c578185610bed565b9350610c67818560208601610bfe565b610c7081610c31565b840191505092915050565b6000610c8682610a17565b9050919050565b610c9681610c7b565b82525050565b600060a0820190508181036000830152610cb68188610c42565b9050610cc56020830187610ae2565b610cd26040830186610c8d565b610cdf6060830185610aae565b610cec6080830184610ae2565b9695505050505050565b600080fd5b600080fd5b7f4e487b7100000000000000000000000000000000000000000000000000000000600052604160045260246000fd5b610d3882610c31565b810181811067ffffffffffffffff82111715610d5757610d56610d00565b5b80604052505050565b6000610d6a610a03565b9050610d768282610d2f565b919050565b600067ffffffffffffffff821115610d9657610d95610d00565b5b610d9f82610c31565b9050602081019050919050565b82818337600083830152505050565b6000610dce610dc984610d7b565b610d60565b905082815260208101848484011115610dea57610de9610cfb565b5b610df5848285610dac565b509392505050565b600082601f830112610e1257610e11610cf6565b5b8135610e22848260208601610dbb565b91505092915050565b610e3481610c7b565b8114610e3f57600080fd5b50565b600081359050610e5181610e2b565b92915050565b600080600060608486031215610e7057610e6f610a0d565b5b600084013567ffffffffffffffff811115610e8e57610e8d610a12565b5b610e9a86828701610dfd565b9350506020610eab86828701610ba0565b9250506040610ebc86828701610e42565b9150509250925092565b7f4e487b7100000000000000000000000000000000000000000000000000000000600052602260045260246000fd5b60006002820490506001821680610f0d57607f821691505b60208210811415610f2157610f20610ec6565b5b50919050565b7f4e487b7100000000000000000000000000000000000000000000000000000000600052601160045260246000fd5b6000610f6182610ad8565b91507fffffffffffffffffffffffffffffffffffffffffffffffffffffffffffffffff821415610f9457610f93610f27565b5b600182019050919050565b7f4e6565647320746f2070726f76696465206d696e696d756d20636f6e7472696260008201527f7574696f6e000000000000000000000000000000000000000000000000000000602082015250565b6000610ffb602583610bed565b915061100682610f9f565b604082019050919050565b6000602082019050818103600083015261102a81610fee565b9050919050565b7f546f20617070726f76652072657175657374206e6565647320746f206120617060008201527f70726f7665720000000000000000000000000000000000000000000000000000602082015250565b600061108d602683610bed565b915061109882611031565b604082019050919050565b600060208201905081810360008301526110bc81611080565b9050919050565b7f596f752063616e20766f7465206f6e6c79206f6e636500000000000000000000600082015250565b60006110f9601683610bed565b9150611104826110c3565b602082019050919050565b60006020820190508181036000830152611128816110ec565b9050919050565b7f4e487b7100000000000000000000000000000000000000000000000000000000600052601260045260246000fd5b600061116982610ad8565b915061117483610ad8565b9250826111845761118361112f565b5b828204905092915050565b7f4e656564732061746c656173742068616c66206d656d6265727320617070726f60008201527f76616c0000000000000000000000000000000000000000000000000000000000602082015250565b60006111eb602383610bed565b91506111f68261118f565b604082019050919050565b6000602082019050818103600083015261121a816111de565b9050919050565b7f5265717565737420616c726561647920636f6d706c6574656400000000000000600082015250565b6000611257601983610bed565b915061126282611221565b602082019050919050565b600060208201905081810360008301526112868161124a565b905091905056fea2646970667358221220c043b3729db470dd1800805fccf854970e9522ab0db3cb7e1f880af2b19aaf0364736f6c634300080b0033","opcodes":"PUSH1 0x80 PUSH1 0x40 MSTORE CALLVALUE DUP1 ISZERO PUSH3 0x11 JUMPI PUSH1 0x0 DUP1 REVERT JUMPDEST POP PUSH1 0x40 MLOAD PUSH3 0x1445 CODESIZE SUB DUP1 PUSH3 0x1445 DUP4 CODECOPY DUP2 DUP2 ADD PUSH1 0x40 MSTORE DUP2 ADD SWAP1 PUSH3 0x37 SWAP2 SWAP1 PUSH3 0x12B JUMP JUMPDEST DUP1 PUSH1 0x0 DUP1 PUSH2 0x100 EXP DUP2 SLOAD DUP2 PUSH20 0xFFFFFFFFFFFFFFFFFFFFFFFFFFFFFFFFFFFFFFFF MUL NOT AND SWAP1 DUP4 PUSH20 0xFFFFFFFFFFFFFFFFFFFFFFFFFFFFFFFFFFFFFFFF AND MUL OR SWAP1 SSTORE POP DUP2 PUSH1 0x1 DUP2 SWAP1 SSTORE POP POP POP PUSH3 0x172 JUMP JUMPDEST PUSH1 0x0 DUP1 REVERT JUMPDEST PUSH1 0x0 DUP2 SWAP1 POP SWAP2 SWAP1 POP JUMP JUMPDEST PUSH3 0xA0 DUP2 PUSH3 0x8B JUMP JUMPDEST DUP2 EQ PUSH3 0xAC JUMPI PUSH1 0x0 DUP1 REVERT JUMPDEST POP JUMP JUMPDEST PUSH1 0x0 DUP2 MLOAD SWAP1 POP PUSH3 0xC0 DUP2 PUSH3 0x95 JUMP JUMPDEST SWAP3 SWAP2 POP POP JUMP JUMPDEST PUSH1 0x0 PUSH20 0xFFFFFFFFFFFFFFFFFFFFFFFFFFFFFFFFFFFFFFFF DUP3 AND SWAP1 POP SWAP2 SWAP1 POP JUMP JUMPDEST PUSH1 0x0 PUSH3 0xF3 DUP3 PUSH3 0xC6 JUMP JUMPDEST SWAP1 POP SWAP2 SWAP1 POP JUMP JUMPDEST PUSH3 0x105 DUP2 PUSH3 0xE6 JUMP JUMPDEST DUP2 EQ PUSH3 0x111 JUMPI PUSH1 0x0 DUP1 REVERT JUMPDEST POP JUMP JUMPDEST PUSH1 0x0 DUP2 MLOAD SWAP1 POP PUSH3 0x125 DUP2 PUSH3 0xFA JUMP JUMPDEST SWAP3 SWAP2 POP POP JUMP JUMPDEST PUSH1 0x0 DUP1 PUSH1 0x40 DUP4 DUP6 SUB SLT ISZERO PUSH3 0x145 JUMPI PUSH3 0x144 PUSH3 0x86 JUMP JUMPDEST JUMPDEST PUSH1 0x0 PUSH3 0x155 DUP6 DUP3 DUP7 ADD PUSH3 0xAF JUMP JUMPDEST SWAP3 POP POP PUSH1 0x20 PUSH3 0x168 DUP6 DUP3 DUP7 ADD PUSH3 0x114 JUMP JUMPDEST SWAP2 POP POP SWAP3 POP SWAP3 SWAP1 POP JUMP JUMPDEST PUSH2 0x12C3 DUP1 PUSH3 0x182 PUSH1 0x0 CODECOPY PUSH1 0x0 RETURN INVALID PUSH1 0x80 PUSH1 0x40 MSTORE PUSH1 0x4 CALLDATASIZE LT PUSH2 0xA7 JUMPI PUSH1 0x0 CALLDATALOAD PUSH1 0xE0 SHR DUP1 PUSH4 0x8A9CFD55 GT PUSH2 0x64 JUMPI DUP1 PUSH4 0x8A9CFD55 EQ PUSH2 0x1DA JUMPI DUP1 PUSH4 0x937E09B1 EQ PUSH2 0x203 JUMPI DUP1 PUSH4 0x9FB42B1F EQ PUSH2 0x22E JUMPI DUP1 PUSH4 0xD7BB99BA EQ PUSH2 0x259 JUMPI DUP1 PUSH4 0xD7D1BBDB EQ PUSH2 0x263 JUMPI DUP1 PUSH4 0xF00A7F4F EQ PUSH2 0x28C JUMPI PUSH2 0xA7 JUMP JUMPDEST DUP1 PUSH4 0xA144391 EQ PUSH2 0xAC JUMPI DUP1 PUSH4 0x3410452A EQ PUSH2 0xE9 JUMPI DUP1 PUSH4 0x4051DDAC EQ PUSH2 0x114 JUMPI DUP1 PUSH4 0x481C6A75 EQ PUSH2 0x143 JUMPI DUP1 PUSH4 0x81D12C58 EQ PUSH2 0x16E JUMPI DUP1 PUSH4 0x82FDE093 EQ PUSH2 0x1AF JUMPI JUMPDEST PUSH1 0x0 DUP1 REVERT JUMPDEST CALLVALUE DUP1 ISZERO PUSH2 0xB8 JUMPI PUSH1 0x0 DUP1 REVERT JUMPDEST POP PUSH2 0xD3 PUSH1 0x4 DUP1 CALLDATASIZE SUB DUP2 ADD SWAP1 PUSH2 0xCE SWAP2 SWAP1 PUSH2 0xA75 JUMP JUMPDEST PUSH2 0x2B5 JUMP JUMPDEST PUSH1 0x40 MLOAD PUSH2 0xE0 SWAP2 SWAP1 PUSH2 0xABD JUMP JUMPDEST PUSH1 0x40 MLOAD DUP1 SWAP2 SUB SWAP1 RETURN JUMPDEST CALLVALUE DUP1 ISZERO PUSH2 0xF5 JUMPI PUSH1 0x0 DUP1 REVERT JUMPDEST POP PUSH2 0xFE PUSH2 0x2D5 JUMP JUMPDEST PUSH1 0x40 MLOAD PUSH2 0x10B SWAP2 SWAP1 PUSH2 0xAF1 JUMP JUMPDEST PUSH1 0x40 MLOAD DUP1 SWAP2 SUB SWAP1 RETURN JUMPDEST CALLVALUE DUP1 ISZERO PUSH2 0x120 JUMPI PUSH1 0x0 DUP1 REVERT JUMPDEST POP PUSH2 0x129 PUSH2 0x2DF JUMP JUMPDEST PUSH1 0x40 MLOAD PUSH2 0x13A SWAP6 SWAP5 SWAP4 SWAP3 SWAP2 SWAP1 PUSH2 0xB1B JUMP JUMPDEST PUSH1 0x40 MLOAD DUP1 SWAP2 SUB SWAP1 RETURN JUMPDEST CALLVALUE DUP1 ISZERO PUSH2 0x14F JUMPI PUSH1 0x0 DUP1 REVERT JUMPDEST POP PUSH2 0x158 PUSH2 0x323 JUMP JUMPDEST PUSH1 0x40 MLOAD PUSH2 0x165 SWAP2 SWAP1 PUSH2 0xB6E JUMP JUMPDEST PUSH1 0x40 MLOAD DUP1 SWAP2 SUB SWAP1 RETURN JUMPDEST CALLVALUE DUP1 ISZERO PUSH2 0x17A JUMPI PUSH1 0x0 DUP1 REVERT JUMPDEST POP PUSH2 0x195 PUSH1 0x4 DUP1 CALLDATASIZE SUB DUP2 ADD SWAP1 PUSH2 0x190 SWAP2 SWAP1 PUSH2 0xBB5 JUMP JUMPDEST PUSH2 0x347 JUMP JUMPDEST PUSH1 0x40 MLOAD PUSH2 0x1A6 SWAP6 SWAP5 SWAP4 SWAP3 SWAP2 SWAP1 PUSH2 0xC9C JUMP JUMPDEST PUSH1 0x40 MLOAD DUP1 SWAP2 SUB SWAP1 RETURN JUMPDEST CALLVALUE DUP1 ISZERO PUSH2 0x1BB JUMPI PUSH1 0x0 DUP1 REVERT JUMPDEST POP PUSH2 0x1C4 PUSH2 0x432 JUMP JUMPDEST PUSH1 0x40 MLOAD PUSH2 0x1D1 SWAP2 SWAP1 PUSH2 0xAF1 JUMP JUMPDEST PUSH1 0x40 MLOAD DUP1 SWAP2 SUB SWAP1 RETURN JUMPDEST CALLVALUE DUP1 ISZERO PUSH2 0x1E6 JUMPI PUSH1 0x0 DUP1 REVERT JUMPDEST POP PUSH2 0x201 PUSH1 0x4 DUP1 CALLDATASIZE SUB DUP2 ADD SWAP1 PUSH2 0x1FC SWAP2 SWAP1 PUSH2 0xE57 JUMP JUMPDEST PUSH2 0x438 JUMP JUMPDEST STOP JUMPDEST CALLVALUE DUP1 ISZERO PUSH2 0x20F JUMPI PUSH1 0x0 DUP1 REVERT JUMPDEST POP PUSH2 0x218 PUSH2 0x54F JUMP JUMPDEST PUSH1 0x40 MLOAD PUSH2 0x225 SWAP2 SWAP1 PUSH2 0xAF1 JUMP JUMPDEST PUSH1 0x40 MLOAD DUP1 SWAP2 SUB SWAP1 RETURN JUMPDEST CALLVALUE DUP1 ISZERO PUSH2 0x23A JUMPI PUSH1 0x0 DUP1 REVERT JUMPDEST POP PUSH2 0x243 PUSH2 0x555 JUMP JUMPDEST PUSH1 0x40 MLOAD PUSH2 0x250 SWAP2 SWAP1 PUSH2 0xAF1 JUMP JUMPDEST PUSH1 0x40 MLOAD DUP1 SWAP2 SUB SWAP1 RETURN JUMPDEST PUSH2 0x261 PUSH2 0x55B JUMP JUMPDEST STOP JUMPDEST CALLVALUE DUP1 ISZERO PUSH2 0x26F JUMPI PUSH1 0x0 DUP1 REVERT JUMPDEST POP PUSH2 0x28A PUSH1 0x4 DUP1 CALLDATASIZE SUB DUP2 ADD SWAP1 PUSH2 0x285 SWAP2 SWAP1 PUSH2 0xBB5 JUMP JUMPDEST PUSH2 0x611 JUMP JUMPDEST STOP JUMPDEST CALLVALUE DUP1 ISZERO PUSH2 0x298 JUMPI PUSH1 0x0 DUP1 REVERT JUMPDEST POP PUSH2 0x2B3 PUSH1 0x4 DUP1 CALLDATASIZE SUB DUP2 ADD SWAP1 PUSH2 0x2AE SWAP2 SWAP1 PUSH2 0xBB5 JUMP JUMPDEST PUSH2 0x7BB JUMP JUMPDEST STOP JUMPDEST PUSH1 0x2 PUSH1 0x20 MSTORE DUP1 PUSH1 0x0 MSTORE PUSH1 0x40 PUSH1 0x0 KECCAK256 PUSH1 0x0 SWAP2 POP SLOAD SWAP1 PUSH2 0x100 EXP SWAP1 DIV PUSH1 0xFF AND DUP2 JUMP JUMPDEST PUSH1 0x0 PUSH1 0x4 SLOAD SWAP1 POP SWAP1 JUMP JUMPDEST PUSH1 0x0 DUP1 PUSH1 0x0 DUP1 PUSH1 0x0 PUSH1 0x1 SLOAD SELFBALANCE PUSH1 0x4 SLOAD PUSH1 0x3 SLOAD PUSH1 0x0 DUP1 SLOAD SWAP1 PUSH2 0x100 EXP SWAP1 DIV PUSH20 0xFFFFFFFFFFFFFFFFFFFFFFFFFFFFFFFFFFFFFFFF AND SWAP5 POP SWAP5 POP SWAP5 POP SWAP5 POP SWAP5 POP SWAP1 SWAP2 SWAP3 SWAP4 SWAP5 JUMP JUMPDEST PUSH1 0x0 DUP1 SLOAD SWAP1 PUSH2 0x100 EXP SWAP1 DIV PUSH20 0xFFFFFFFFFFFFFFFFFFFFFFFFFFFFFFFFFFFFFFFF AND DUP2 JUMP JUMPDEST PUSH1 0x5 PUSH1 0x20 MSTORE DUP1 PUSH1 0x0 MSTORE PUSH1 0x40 PUSH1 0x0 KECCAK256 PUSH1 0x0 SWAP2 POP SWAP1 POP DUP1 PUSH1 0x0 ADD DUP1 SLOAD PUSH2 0x36A SWAP1 PUSH2 0xEF5 JUMP JUMPDEST DUP1 PUSH1 0x1F ADD PUSH1 0x20 DUP1 SWAP2 DIV MUL PUSH1 0x20 ADD PUSH1 0x40 MLOAD SWAP1 DUP2 ADD PUSH1 0x40 MSTORE DUP1 SWAP3 SWAP2 SWAP1 DUP2 DUP2 MSTORE PUSH1 0x20 ADD DUP3 DUP1 SLOAD PUSH2 0x396 SWAP1 PUSH2 0xEF5 JUMP JUMPDEST DUP1 ISZERO PUSH2 0x3E3 JUMPI DUP1 PUSH1 0x1F LT PUSH2 0x3B8 JUMPI PUSH2 0x100 DUP1 DUP4 SLOAD DIV MUL DUP4 MSTORE SWAP2 PUSH1 0x20 ADD SWAP2 PUSH2 0x3E3 JUMP JUMPDEST DUP3 ADD SWAP2 SWAP1 PUSH1 0x0 MSTORE PUSH1 0x20 PUSH1 0x0 KECCAK256 SWAP1 JUMPDEST DUP2 SLOAD DUP2 MSTORE SWAP1 PUSH1 0x1 ADD SWAP1 PUSH1 0x20 ADD DUP1 DUP4 GT PUSH2 0x3C6 JUMPI DUP3 SWAP1 SUB PUSH1 0x1F AND DUP3 ADD SWAP2 JUMPDEST POP POP POP POP POP SWAP1 DUP1 PUSH1 0x1 ADD SLOAD SWAP1 DUP1 PUSH1 0x2 ADD PUSH1 0x0 SWAP1 SLOAD SWAP1 PUSH2 0x100 EXP SWAP1 DIV PUSH20 0xFFFFFFFFFFFFFFFFFFFFFFFFFFFFFFFFFFFFFFFF AND SWAP1 DUP1 PUSH1 0x2 ADD PUSH1 0x14 SWAP1 SLOAD SWAP1 PUSH2 0x100 EXP SWAP1 DIV PUSH1 0xFF AND SWAP1 DUP1 PUSH1 0x4 ADD SLOAD SWAP1 POP DUP6 JUMP JUMPDEST PUSH1 0x3 SLOAD DUP2 JUMP JUMPDEST PUSH1 0x0 DUP1 SLOAD SWAP1 PUSH2 0x100 EXP SWAP1 DIV PUSH20 0xFFFFFFFFFFFFFFFFFFFFFFFFFFFFFFFFFFFFFFFF AND PUSH20 0xFFFFFFFFFFFFFFFFFFFFFFFFFFFFFFFFFFFFFFFF AND CALLER PUSH20 0xFFFFFFFFFFFFFFFFFFFFFFFFFFFFFFFFFFFFFFFF AND EQ PUSH2 0x490 JUMPI PUSH1 0x0 DUP1 REVERT JUMPDEST PUSH1 0x0 PUSH1 0x5 PUSH1 0x0 PUSH1 0x4 PUSH1 0x0 DUP2 SLOAD DUP1 SWAP3 SWAP2 SWAP1 PUSH2 0x4A9 SWAP1 PUSH2 0xF56 JUMP JUMPDEST SWAP2 SWAP1 POP SSTORE DUP2 MSTORE PUSH1 0x20 ADD SWAP1 DUP2 MSTORE PUSH1 0x20 ADD PUSH1 0x0 KECCAK256 SWAP1 POP DUP4 DUP2 PUSH1 0x0 ADD SWAP1 DUP1 MLOAD SWAP1 PUSH1 0x20 ADD SWAP1 PUSH2 0x4D5 SWAP3 SWAP2 SWAP1 PUSH2 0x960 JUMP JUMPDEST POP DUP3 DUP2 PUSH1 0x1 ADD DUP2 SWAP1 SSTORE POP DUP2 DUP2 PUSH1 0x2 ADD PUSH1 0x0 PUSH2 0x100 EXP DUP2 SLOAD DUP2 PUSH20 0xFFFFFFFFFFFFFFFFFFFFFFFFFFFFFFFFFFFFFFFF MUL NOT AND SWAP1 DUP4 PUSH20 0xFFFFFFFFFFFFFFFFFFFFFFFFFFFFFFFFFFFFFFFF AND MUL OR SWAP1 SSTORE POP PUSH1 0x0 DUP2 PUSH1 0x2 ADD PUSH1 0x14 PUSH2 0x100 EXP DUP2 SLOAD DUP2 PUSH1 0xFF MUL NOT AND SWAP1 DUP4 ISZERO ISZERO MUL OR SWAP1 SSTORE POP PUSH1 0x0 DUP2 PUSH1 0x4 ADD DUP2 SWAP1 SSTORE POP POP POP POP POP JUMP JUMPDEST PUSH1 0x1 SLOAD DUP2 JUMP JUMPDEST PUSH1 0x4 SLOAD DUP2 JUMP JUMPDEST CALLVALUE PUSH1 0x1 SLOAD LT PUSH2 0x59F JUMPI PUSH1 0x40 MLOAD PUSH32 0x8C379A000000000000000000000000000000000000000000000000000000000 DUP2 MSTORE PUSH1 0x4 ADD PUSH2 0x596 SWAP1 PUSH2 0x1011 JUMP JUMPDEST PUSH1 0x40 MLOAD DUP1 SWAP2 SUB SWAP1 REVERT JUMPDEST PUSH1 0x1 PUSH1 0x2 PUSH1 0x0 CALLER PUSH20 0xFFFFFFFFFFFFFFFFFFFFFFFFFFFFFFFFFFFFFFFF AND PUSH20 0xFFFFFFFFFFFFFFFFFFFFFFFFFFFFFFFFFFFFFFFF AND DUP2 MSTORE PUSH1 0x20 ADD SWAP1 DUP2 MSTORE PUSH1 0x20 ADD PUSH1 0x0 KECCAK256 PUSH1 0x0 PUSH2 0x100 EXP DUP2 SLOAD DUP2 PUSH1 0xFF MUL NOT AND SWAP1 DUP4 ISZERO ISZERO MUL OR SWAP1 SSTORE POP PUSH1 0x3 PUSH1 0x0 DUP2 SLOAD DUP1 SWAP3 SWAP2 SWAP1 PUSH2 0x60A SWAP1 PUSH2 0xF56 JUMP JUMPDEST SWAP2 SWAP1 POP SSTORE POP JUMP JUMPDEST PUSH1 0x0 PUSH1 0x5 PUSH1 0x0 DUP4 DUP2 MSTORE PUSH1 0x20 ADD SWAP1 DUP2 MSTORE PUSH1 0x20 ADD PUSH1 0x0 KECCAK256 SWAP1 POP PUSH1 0x2 PUSH1 0x0 CALLER PUSH20 0xFFFFFFFFFFFFFFFFFFFFFFFFFFFFFFFFFFFFFFFF AND PUSH20 0xFFFFFFFFFFFFFFFFFFFFFFFFFFFFFFFFFFFFFFFF AND DUP2 MSTORE PUSH1 0x20 ADD SWAP1 DUP2 MSTORE PUSH1 0x20 ADD PUSH1 0x0 KECCAK256 PUSH1 0x0 SWAP1 SLOAD SWAP1 PUSH2 0x100 EXP SWAP1 DIV PUSH1 0xFF AND PUSH2 0x6B4 JUMPI PUSH1 0x40 MLOAD PUSH32 0x8C379A000000000000000000000000000000000000000000000000000000000 DUP2 MSTORE PUSH1 0x4 ADD PUSH2 0x6AB SWAP1 PUSH2 0x10A3 JUMP JUMPDEST PUSH1 0x40 MLOAD DUP1 SWAP2 SUB SWAP1 REVERT JUMPDEST DUP1 PUSH1 0x3 ADD PUSH1 0x0 CALLER PUSH20 0xFFFFFFFFFFFFFFFFFFFFFFFFFFFFFFFFFFFFFFFF AND PUSH20 0xFFFFFFFFFFFFFFFFFFFFFFFFFFFFFFFFFFFFFFFF AND DUP2 MSTORE PUSH1 0x20 ADD SWAP1 DUP2 MSTORE PUSH1 0x20 ADD PUSH1 0x0 KECCAK256 PUSH1 0x0 SWAP1 SLOAD SWAP1 PUSH2 0x100 EXP SWAP1 DIV PUSH1 0xFF AND ISZERO PUSH2 0x743 JUMPI PUSH1 0x40 MLOAD PUSH32 0x8C379A000000000000000000000000000000000000000000000000000000000 DUP2 MSTORE PUSH1 0x4 ADD PUSH2 0x73A SWAP1 PUSH2 0x110F JUMP JUMPDEST PUSH1 0x40 MLOAD DUP1 SWAP2 SUB SWAP1 REVERT JUMPDEST PUSH1 0x1 DUP2 PUSH1 0x3 ADD PUSH1 0x0 CALLER PUSH20 0xFFFFFFFFFFFFFFFFFFFFFFFFFFFFFFFFFFFFFFFF AND PUSH20 0xFFFFFFFFFFFFFFFFFFFFFFFFFFFFFFFFFFFFFFFF AND DUP2 MSTORE PUSH1 0x20 ADD SWAP1 DUP2 MSTORE PUSH1 0x20 ADD PUSH1 0x0 KECCAK256 PUSH1 0x0 PUSH2 0x100 EXP DUP2 SLOAD DUP2 PUSH1 0xFF MUL NOT AND SWAP1 DUP4 ISZERO ISZERO MUL OR SWAP1 SSTORE POP DUP1 PUSH1 0x4 ADD PUSH1 0x0 DUP2 SLOAD DUP1 SWAP3 SWAP2 SWAP1 PUSH2 0x7B2 SWAP1 PUSH2 0xF56 JUMP JUMPDEST SWAP2 SWAP1 POP SSTORE POP POP POP JUMP JUMPDEST PUSH1 0x0 DUP1 SLOAD SWAP1 PUSH2 0x100 EXP SWAP1 DIV PUSH20 0xFFFFFFFFFFFFFFFFFFFFFFFFFFFFFFFFFFFFFFFF AND PUSH20 0xFFFFFFFFFFFFFFFFFFFFFFFFFFFFFFFFFFFFFFFF AND CALLER PUSH20 0xFFFFFFFFFFFFFFFFFFFFFFFFFFFFFFFFFFFFFFFF AND EQ PUSH2 0x813 JUMPI PUSH1 0x0 DUP1 REVERT JUMPDEST PUSH1 0x0 PUSH1 0x5 PUSH1 0x0 DUP4 DUP2 MSTORE PUSH1 0x20 ADD SWAP1 DUP2 MSTORE PUSH1 0x20 ADD PUSH1 0x0 KECCAK256 SWAP1 POP PUSH1 0x2 PUSH1 0x3 SLOAD PUSH2 0x839 SWAP2 SWAP1 PUSH2 0x115E JUMP JUMPDEST DUP2 PUSH1 0x4 ADD SLOAD GT PUSH2 0x87E JUMPI PUSH1 0x40 MLOAD PUSH32 0x8C379A000000000000000000000000000000000000000000000000000000000 DUP2 MSTORE PUSH1 0x4 ADD PUSH2 0x875 SWAP1 PUSH2 0x1201 JUMP JUMPDEST PUSH1 0x40 MLOAD DUP1 SWAP2 SUB SWAP1 REVERT JUMPDEST DUP1 PUSH1 0x2 ADD PUSH1 0x14 SWAP1 SLOAD SWAP1 PUSH2 0x100 EXP SWAP1 DIV PUSH1 0xFF AND ISZERO PUSH2 0x8D0 JUMPI PUSH1 0x40 MLOAD PUSH32 0x8C379A000000000000000000000000000000000000000000000000000000000 DUP2 MSTORE PUSH1 0x4 ADD PUSH2 0x8C7 SWAP1 PUSH2 0x126D JUMP JUMPDEST PUSH1 0x40 MLOAD DUP1 SWAP2 SUB SWAP1 REVERT JUMPDEST DUP1 PUSH1 0x2 ADD PUSH1 0x0 SWAP1 SLOAD SWAP1 PUSH2 0x100 EXP SWAP1 DIV PUSH20 0xFFFFFFFFFFFFFFFFFFFFFFFFFFFFFFFFFFFFFFFF AND PUSH20 0xFFFFFFFFFFFFFFFFFFFFFFFFFFFFFFFFFFFFFFFF AND PUSH2 0x8FC DUP3 PUSH1 0x1 ADD SLOAD SWAP1 DUP2 ISZERO MUL SWAP1 PUSH1 0x40 MLOAD PUSH1 0x0 PUSH1 0x40 MLOAD DUP1 DUP4 SUB DUP2 DUP6 DUP9 DUP9 CALL SWAP4 POP POP POP POP ISZERO DUP1 ISZERO PUSH2 0x93E JUMPI RETURNDATASIZE PUSH1 0x0 DUP1 RETURNDATACOPY RETURNDATASIZE PUSH1 0x0 REVERT JUMPDEST POP PUSH1 0x1 DUP2 PUSH1 0x2 ADD PUSH1 0x14 PUSH2 0x100 EXP DUP2 SLOAD DUP2 PUSH1 0xFF MUL NOT AND SWAP1 DUP4 ISZERO ISZERO MUL OR SWAP1 SSTORE POP POP POP JUMP JUMPDEST DUP3 DUP1 SLOAD PUSH2 0x96C SWAP1 PUSH2 0xEF5 JUMP JUMPDEST SWAP1 PUSH1 0x0 MSTORE PUSH1 0x20 PUSH1 0x0 KECCAK256 SWAP1 PUSH1 0x1F ADD PUSH1 0x20 SWAP1 DIV DUP2 ADD SWAP3 DUP3 PUSH2 0x98E JUMPI PUSH1 0x0 DUP6 SSTORE PUSH2 0x9D5 JUMP JUMPDEST DUP3 PUSH1 0x1F LT PUSH2 0x9A7 JUMPI DUP1 MLOAD PUSH1 0xFF NOT AND DUP4 DUP1 ADD OR DUP6 SSTORE PUSH2 0x9D5 JUMP JUMPDEST DUP3 DUP1 ADD PUSH1 0x1 ADD DUP6 SSTORE DUP3 ISZERO PUSH2 0x9D5 JUMPI SWAP2 DUP3 ADD JUMPDEST DUP3 DUP2 GT ISZERO PUSH2 0x9D4 JUMPI DUP3 MLOAD DUP3 SSTORE SWAP2 PUSH1 0x20 ADD SWAP2 SWAP1 PUSH1 0x1 ADD SWAP1 PUSH2 0x9B9 JUMP JUMPDEST JUMPDEST POP SWAP1 POP PUSH2 0x9E2 SWAP2 SWAP1 PUSH2 0x9E6 JUMP JUMPDEST POP SWAP1 JUMP JUMPDEST JUMPDEST DUP1 DUP3 GT ISZERO PUSH2 0x9FF JUMPI PUSH1 0x0 DUP2 PUSH1 0x0 SWAP1 SSTORE POP PUSH1 0x1 ADD PUSH2 0x9E7 JUMP JUMPDEST POP SWAP1 JUMP JUMPDEST PUSH1 0x0 PUSH1 0x40 MLOAD SWAP1 POP SWAP1 JUMP JUMPDEST PUSH1 0x0 DUP1 REVERT JUMPDEST PUSH1 0x0 DUP1 REVERT JUMPDEST PUSH1 0x0 PUSH20 0xFFFFFFFFFFFFFFFFFFFFFFFFFFFFFFFFFFFFFFFF DUP3 AND SWAP1 POP SWAP2 SWAP1 POP JUMP JUMPDEST PUSH1 0x0 PUSH2 0xA42 DUP3 PUSH2 0xA17 JUMP JUMPDEST SWAP1 POP SWAP2 SWAP1 POP JUMP JUMPDEST PUSH2 0xA52 DUP2 PUSH2 0xA37 JUMP JUMPDEST DUP2 EQ PUSH2 0xA5D JUMPI PUSH1 0x0 DUP1 REVERT JUMPDEST POP JUMP JUMPDEST PUSH1 0x0 DUP2 CALLDATALOAD SWAP1 POP PUSH2 0xA6F DUP2 PUSH2 0xA49 JUMP JUMPDEST SWAP3 SWAP2 POP POP JUMP JUMPDEST PUSH1 0x0 PUSH1 0x20 DUP3 DUP5 SUB SLT ISZERO PUSH2 0xA8B JUMPI PUSH2 0xA8A PUSH2 0xA0D JUMP JUMPDEST JUMPDEST PUSH1 0x0 PUSH2 0xA99 DUP5 DUP3 DUP6 ADD PUSH2 0xA60 JUMP JUMPDEST SWAP2 POP POP SWAP3 SWAP2 POP POP JUMP JUMPDEST PUSH1 0x0 DUP2 ISZERO ISZERO SWAP1 POP SWAP2 SWAP1 POP JUMP JUMPDEST PUSH2 0xAB7 DUP2 PUSH2 0xAA2 JUMP JUMPDEST DUP3 MSTORE POP POP JUMP JUMPDEST PUSH1 0x0 PUSH1 0x20 DUP3 ADD SWAP1 POP PUSH2 0xAD2 PUSH1 0x0 DUP4 ADD DUP5 PUSH2 0xAAE JUMP JUMPDEST SWAP3 SWAP2 POP POP JUMP JUMPDEST PUSH1 0x0 DUP2 SWAP1 POP SWAP2 SWAP1 POP JUMP JUMPDEST PUSH2 0xAEB DUP2 PUSH2 0xAD8 JUMP JUMPDEST DUP3 MSTORE POP POP JUMP JUMPDEST PUSH1 0x0 PUSH1 0x20 DUP3 ADD SWAP1 POP PUSH2 0xB06 PUSH1 0x0 DUP4 ADD DUP5 PUSH2 0xAE2 JUMP JUMPDEST SWAP3 SWAP2 POP POP JUMP JUMPDEST PUSH2 0xB15 DUP2 PUSH2 0xA37 JUMP JUMPDEST DUP3 MSTORE POP POP JUMP JUMPDEST PUSH1 0x0 PUSH1 0xA0 DUP3 ADD SWAP1 POP PUSH2 0xB30 PUSH1 0x0 DUP4 ADD DUP9 PUSH2 0xAE2 JUMP JUMPDEST PUSH2 0xB3D PUSH1 0x20 DUP4 ADD DUP8 PUSH2 0xAE2 JUMP JUMPDEST PUSH2 0xB4A PUSH1 0x40 DUP4 ADD DUP7 PUSH2 0xAE2 JUMP JUMPDEST PUSH2 0xB57 PUSH1 0x60 DUP4 ADD DUP6 PUSH2 0xAE2 JUMP JUMPDEST PUSH2 0xB64 PUSH1 0x80 DUP4 ADD DUP5 PUSH2 0xB0C JUMP JUMPDEST SWAP7 SWAP6 POP POP POP POP POP POP JUMP JUMPDEST PUSH1 0x0 PUSH1 0x20 DUP3 ADD SWAP1 POP PUSH2 0xB83 PUSH1 0x0 DUP4 ADD DUP5 PUSH2 0xB0C JUMP JUMPDEST SWAP3 SWAP2 POP POP JUMP JUMPDEST PUSH2 0xB92 DUP2 PUSH2 0xAD8 JUMP JUMPDEST DUP2 EQ PUSH2 0xB9D JUMPI PUSH1 0x0 DUP1 REVERT JUMPDEST POP JUMP JUMPDEST PUSH1 0x0 DUP2 CALLDATALOAD SWAP1 POP PUSH2 0xBAF DUP2 PUSH2 0xB89 JUMP JUMPDEST SWAP3 SWAP2 POP POP JUMP JUMPDEST PUSH1 0x0 PUSH1 0x20 DUP3 DUP5 SUB SLT ISZERO PUSH2 0xBCB JUMPI PUSH2 0xBCA PUSH2 0xA0D JUMP JUMPDEST JUMPDEST PUSH1 0x0 PUSH2 0xBD9 DUP5 DUP3 DUP6 ADD PUSH2 0xBA0 JUMP JUMPDEST SWAP2 POP POP SWAP3 SWAP2 POP POP JUMP JUMPDEST PUSH1 0x0 DUP2 MLOAD SWAP1 POP SWAP2 SWAP1 POP JUMP JUMPDEST PUSH1 0x0 DUP3 DUP3 MSTORE PUSH1 0x20 DUP3 ADD SWAP1 POP SWAP3 SWAP2 POP POP JUMP JUMPDEST PUSH1 0x0 JUMPDEST DUP4 DUP2 LT ISZERO PUSH2 0xC1C JUMPI DUP1 DUP3 ADD MLOAD DUP2 DUP5 ADD MSTORE PUSH1 0x20 DUP2 ADD SWAP1 POP PUSH2 0xC01 JUMP JUMPDEST DUP4 DUP2 GT ISZERO PUSH2 0xC2B JUMPI PUSH1 0x0 DUP5 DUP5 ADD MSTORE JUMPDEST POP POP POP POP JUMP JUMPDEST PUSH1 0x0 PUSH1 0x1F NOT PUSH1 0x1F DUP4 ADD AND SWAP1 POP SWAP2 SWAP1 POP JUMP JUMPDEST PUSH1 0x0 PUSH2 0xC4D DUP3 PUSH2 0xBE2 JUMP JUMPDEST PUSH2 0xC57 DUP2 DUP6 PUSH2 0xBED JUMP JUMPDEST SWAP4 POP PUSH2 0xC67 DUP2 DUP6 PUSH1 0x20 DUP7 ADD PUSH2 0xBFE JUMP JUMPDEST PUSH2 0xC70 DUP2 PUSH2 0xC31 JUMP JUMPDEST DUP5 ADD SWAP2 POP POP SWAP3 SWAP2 POP POP JUMP JUMPDEST PUSH1 0x0 PUSH2 0xC86 DUP3 PUSH2 0xA17 JUMP JUMPDEST SWAP1 POP SWAP2 SWAP1 POP JUMP JUMPDEST PUSH2 0xC96 DUP2 PUSH2 0xC7B JUMP JUMPDEST DUP3 MSTORE POP POP JUMP JUMPDEST PUSH1 0x0 PUSH1 0xA0 DUP3 ADD SWAP1 POP DUP2 DUP2 SUB PUSH1 0x0 DUP4 ADD MSTORE PUSH2 0xCB6 DUP2 DUP9 PUSH2 0xC42 JUMP JUMPDEST SWAP1 POP PUSH2 0xCC5 PUSH1 0x20 DUP4 ADD DUP8 PUSH2 0xAE2 JUMP JUMPDEST PUSH2 0xCD2 PUSH1 0x40 DUP4 ADD DUP7 PUSH2 0xC8D JUMP JUMPDEST PUSH2 0xCDF PUSH1 0x60 DUP4 ADD DUP6 PUSH2 0xAAE JUMP JUMPDEST PUSH2 0xCEC PUSH1 0x80 DUP4 ADD DUP5 PUSH2 0xAE2 JUMP JUMPDEST SWAP7 SWAP6 POP POP POP POP POP POP JUMP JUMPDEST PUSH1 0x0 DUP1 REVERT JUMPDEST PUSH1 0x0 DUP1 REVERT JUMPDEST PUSH32 0x4E487B7100000000000000000000000000000000000000000000000000000000 PUSH1 0x0 MSTORE PUSH1 0x41 PUSH1 0x4 MSTORE PUSH1 0x24 PUSH1 0x0 REVERT JUMPDEST PUSH2 0xD38 DUP3 PUSH2 0xC31 JUMP JUMPDEST DUP2 ADD DUP2 DUP2 LT PUSH8 0xFFFFFFFFFFFFFFFF DUP3 GT OR ISZERO PUSH2 0xD57 JUMPI PUSH2 0xD56 PUSH2 0xD00 JUMP JUMPDEST JUMPDEST DUP1 PUSH1 0x40 MSTORE POP POP POP JUMP JUMPDEST PUSH1 0x0 PUSH2 0xD6A PUSH2 0xA03 JUMP JUMPDEST SWAP1 POP PUSH2 0xD76 DUP3 DUP3 PUSH2 0xD2F JUMP JUMPDEST SWAP2 SWAP1 POP JUMP JUMPDEST PUSH1 0x0 PUSH8 0xFFFFFFFFFFFFFFFF DUP3 GT ISZERO PUSH2 0xD96 JUMPI PUSH2 0xD95 PUSH2 0xD00 JUMP JUMPDEST JUMPDEST PUSH2 0xD9F DUP3 PUSH2 0xC31 JUMP JUMPDEST SWAP1 POP PUSH1 0x20 DUP2 ADD SWAP1 POP SWAP2 SWAP1 POP JUMP JUMPDEST DUP3 DUP2 DUP4 CALLDATACOPY PUSH1 0x0 DUP4 DUP4 ADD MSTORE POP POP POP JUMP JUMPDEST PUSH1 0x0 PUSH2 0xDCE PUSH2 0xDC9 DUP5 PUSH2 0xD7B JUMP JUMPDEST PUSH2 0xD60 JUMP JUMPDEST SWAP1 POP DUP3 DUP2 MSTORE PUSH1 0x20 DUP2 ADD DUP5 DUP5 DUP5 ADD GT ISZERO PUSH2 0xDEA JUMPI PUSH2 0xDE9 PUSH2 0xCFB JUMP JUMPDEST JUMPDEST PUSH2 0xDF5 DUP5 DUP3 DUP6 PUSH2 0xDAC JUMP JUMPDEST POP SWAP4 SWAP3 POP POP POP JUMP JUMPDEST PUSH1 0x0 DUP3 PUSH1 0x1F DUP4 ADD SLT PUSH2 0xE12 JUMPI PUSH2 0xE11 PUSH2 0xCF6 JUMP JUMPDEST JUMPDEST DUP2 CALLDATALOAD PUSH2 0xE22 DUP5 DUP3 PUSH1 0x20 DUP7 ADD PUSH2 0xDBB JUMP JUMPDEST SWAP2 POP POP SWAP3 SWAP2 POP POP JUMP JUMPDEST PUSH2 0xE34 DUP2 PUSH2 0xC7B JUMP JUMPDEST DUP2 EQ PUSH2 0xE3F JUMPI PUSH1 0x0 DUP1 REVERT JUMPDEST POP JUMP JUMPDEST PUSH1 0x0 DUP2 CALLDATALOAD SWAP1 POP PUSH2 0xE51 DUP2 PUSH2 0xE2B JUMP JUMPDEST SWAP3 SWAP2 POP POP JUMP JUMPDEST PUSH1 0x0 DUP1 PUSH1 0x0 PUSH1 0x60 DUP5 DUP7 SUB SLT ISZERO PUSH2 0xE70 JUMPI PUSH2 0xE6F PUSH2 0xA0D JUMP JUMPDEST JUMPDEST PUSH1 0x0 DUP5 ADD CALLDATALOAD PUSH8 0xFFFFFFFFFFFFFFFF DUP2 GT ISZERO PUSH2 0xE8E JUMPI PUSH2 0xE8D PUSH2 0xA12 JUMP JUMPDEST JUMPDEST PUSH2 0xE9A DUP7 DUP3 DUP8 ADD PUSH2 0xDFD JUMP JUMPDEST SWAP4 POP POP PUSH1 0x20 PUSH2 0xEAB DUP7 DUP3 DUP8 ADD PUSH2 0xBA0 JUMP JUMPDEST SWAP3 POP POP PUSH1 0x40 PUSH2 0xEBC DUP7 DUP3 DUP8 ADD PUSH2 0xE42 JUMP JUMPDEST SWAP2 POP POP SWAP3 POP SWAP3 POP SWAP3 JUMP JUMPDEST PUSH32 0x4E487B7100000000000000000000000000000000000000000000000000000000 PUSH1 0x0 MSTORE PUSH1 0x22 PUSH1 0x4 MSTORE PUSH1 0x24 PUSH1 0x0 REVERT JUMPDEST PUSH1 0x0 PUSH1 0x2 DUP3 DIV SWAP1 POP PUSH1 0x1 DUP3 AND DUP1 PUSH2 0xF0D JUMPI PUSH1 0x7F DUP3 AND SWAP2 POP JUMPDEST PUSH1 0x20 DUP3 LT DUP2 EQ ISZERO PUSH2 0xF21 JUMPI PUSH2 0xF20 PUSH2 0xEC6 JUMP JUMPDEST JUMPDEST POP SWAP2 SWAP1 POP JUMP JUMPDEST PUSH32 0x4E487B7100000000000000000000000000000000000000000000000000000000 PUSH1 0x0 MSTORE PUSH1 0x11 PUSH1 0x4 MSTORE PUSH1 0x24 PUSH1 0x0 REVERT JUMPDEST PUSH1 0x0 PUSH2 0xF61 DUP3 PUSH2 0xAD8 JUMP JUMPDEST SWAP2 POP PUSH32 0xFFFFFFFFFFFFFFFFFFFFFFFFFFFFFFFFFFFFFFFFFFFFFFFFFFFFFFFFFFFFFFFF DUP3 EQ ISZERO PUSH2 0xF94 JUMPI PUSH2 0xF93 PUSH2 0xF27 JUMP JUMPDEST JUMPDEST PUSH1 0x1 DUP3 ADD SWAP1 POP SWAP2 SWAP1 POP JUMP JUMPDEST PUSH32 0x4E6565647320746F2070726F76696465206D696E696D756D20636F6E74726962 PUSH1 0x0 DUP3 ADD MSTORE PUSH32 0x7574696F6E000000000000000000000000000000000000000000000000000000 PUSH1 0x20 DUP3 ADD MSTORE POP JUMP JUMPDEST PUSH1 0x0 PUSH2 0xFFB PUSH1 0x25 DUP4 PUSH2 0xBED JUMP JUMPDEST SWAP2 POP PUSH2 0x1006 DUP3 PUSH2 0xF9F JUMP JUMPDEST PUSH1 0x40 DUP3 ADD SWAP1 POP SWAP2 SWAP1 POP JUMP JUMPDEST PUSH1 0x0 PUSH1 0x20 DUP3 ADD SWAP1 POP DUP2 DUP2 SUB PUSH1 0x0 DUP4 ADD MSTORE PUSH2 0x102A DUP2 PUSH2 0xFEE JUMP JUMPDEST SWAP1 POP SWAP2 SWAP1 POP JUMP JUMPDEST PUSH32 0x546F20617070726F76652072657175657374206E6565647320746F2061206170 PUSH1 0x0 DUP3 ADD MSTORE PUSH32 0x70726F7665720000000000000000000000000000000000000000000000000000 PUSH1 0x20 DUP3 ADD MSTORE POP JUMP JUMPDEST PUSH1 0x0 PUSH2 0x108D PUSH1 0x26 DUP4 PUSH2 0xBED JUMP JUMPDEST SWAP2 POP PUSH2 0x1098 DUP3 PUSH2 0x1031 JUMP JUMPDEST PUSH1 0x40 DUP3 ADD SWAP1 POP SWAP2 SWAP1 POP JUMP JUMPDEST PUSH1 0x0 PUSH1 0x20 DUP3 ADD SWAP1 POP DUP2 DUP2 SUB PUSH1 0x0 DUP4 ADD MSTORE PUSH2 0x10BC DUP2 PUSH2 0x1080 JUMP JUMPDEST SWAP1 POP SWAP2 SWAP1 POP JUMP JUMPDEST PUSH32 0x596F752063616E20766F7465206F6E6C79206F6E636500000000000000000000 PUSH1 0x0 DUP3 ADD MSTORE POP JUMP JUMPDEST PUSH1 0x0 PUSH2 0x10F9 PUSH1 0x16 DUP4 PUSH2 0xBED JUMP JUMPDEST SWAP2 POP PUSH2 0x1104 DUP3 PUSH2 0x10C3 JUMP JUMPDEST PUSH1 0x20 DUP3 ADD SWAP1 POP SWAP2 SWAP1 POP JUMP JUMPDEST PUSH1 0x0 PUSH1 0x20 DUP3 ADD SWAP1 POP DUP2 DUP2 SUB PUSH1 0x0 DUP4 ADD MSTORE PUSH2 0x1128 DUP2 PUSH2 0x10EC JUMP JUMPDEST SWAP1 POP SWAP2 SWAP1 POP JUMP JUMPDEST PUSH32 0x4E487B7100000000000000000000000000000000000000000000000000000000 PUSH1 0x0 MSTORE PUSH1 0x12 PUSH1 0x4 MSTORE PUSH1 0x24 PUSH1 0x0 REVERT JUMPDEST PUSH1 0x0 PUSH2 0x1169 DUP3 PUSH2 0xAD8 JUMP JUMPDEST SWAP2 POP PUSH2 0x1174 DUP4 PUSH2 0xAD8 JUMP JUMPDEST SWAP3 POP DUP3 PUSH2 0x1184 JUMPI PUSH2 0x1183 PUSH2 0x112F JUMP JUMPDEST JUMPDEST DUP3 DUP3 DIV SWAP1 POP SWAP3 SWAP2 POP POP JUMP JUMPDEST PUSH32 0x4E656564732061746C656173742068616C66206D656D6265727320617070726F PUSH1 0x0 DUP3 ADD MSTORE PUSH32 0x76616C0000000000000000000000000000000000000000000000000000000000 PUSH1 0x20 DUP3 ADD MSTORE POP JUMP JUMPDEST PUSH1 0x0 PUSH2 0x11EB PUSH1 0x23 DUP4 PUSH2 0xBED JUMP JUMPDEST SWAP2 POP PUSH2 0x11F6 DUP3 PUSH2 0x118F JUMP JUMPDEST PUSH1 0x40 DUP3 ADD SWAP1 POP SWAP2 SWAP1 POP JUMP JUMPDEST PUSH1 0x0 PUSH1 0x20 DUP3 ADD SWAP1 POP DUP2 DUP2 SUB PUSH1 0x0 DUP4 ADD MSTORE PUSH2 0x121A DUP2 PUSH2 0x11DE JUMP JUMPDEST SWAP1 POP SWAP2 SWAP1 POP JUMP JUMPDEST PUSH32 0x5265717565737420616C726561647920636F6D706C6574656400000000000000 PUSH1 0x0 DUP3 ADD MSTORE POP JUMP JUMPDEST PUSH1 0x0 PUSH2 0x1257 PUSH1 0x19 DUP4 PUSH2 0xBED JUMP JUMPDEST SWAP2 POP PUSH2 0x1262 DUP3 PUSH2 0x1221 JUMP JUMPDEST PUSH1 0x20 DUP3 ADD SWAP1 POP SWAP2 SWAP1 POP JUMP JUMPDEST PUSH1 0x0 PUSH1 0x20 DUP3 ADD SWAP1 POP DUP2 DUP2 SUB PUSH1 0x0 DUP4 ADD MSTORE PUSH2 0x1286 DUP2 PUSH2 0x124A JUMP JUMPDEST SWAP1 POP SWAP2 SWAP1 POP JUMP INVALID LOG2 PUSH5 0x6970667358 0x22 SLT KECCAK256 0xC0 NUMBER 0xB3 PUSH19 0x9DB470DD1800805FCCF854970E9522AB0DB3CB PUSH31 0x1F880AF2B19AAF0364736F6C634300080B0033000000000000000000000000 "},"gasEstimates":{"creation":{"codeDepositCost":"960600","executionCost":"infinite","totalCost":"infinite"},"external":{"approveRequest(uint256)":"infinite","approvers(address)":"2846","approversCount()":"2540","contribute()":"51024","createRequest(string,uint256,address)":"infinite","finalizeApprove(uint256)":"infinite","getRequestsCount()":"2460","getSummary()":"infinite","manager()":"2578","minimumContribution()":"2451","numRequests()":"2473","requests(uint256)":"infinite"}},"methodIdentifiers":{"approveRequest(uint256)":"d7d1bbdb","approvers(address)":"0a144391","approversCount()":"82fde093","contribute()":"d7bb99ba","createRequest(string,uint256,address)":"8a9cfd55","finalizeApprove(uint256)":"f00a7f4f","getRequestsCount()":"3410452a","getSummary()":"4051ddac","manager()":"481c6a75","minimumContribution()":"937e09b1","numRequests()":"9fb42b1f","requests(uint256)":"81d12c58"}},"storageLayout":{"storage":[{"astId":56,"contract":"Campaign.sol:Campaign","label":"manager","offset":0,"slot":"0","type":"t_address"},{"astId":58,"contract":"Campaign.sol:Campaign","label":"minimumContribution","offset":0,"slot":"1","type":"t_uint256"},{"astId":62,"contract":"Campaign.sol:Campaign","label":"approvers","offset":0,"slot":"2","type":"t_mapping(t_address,t_bool)"},{"astId":64,"contract":"Campaign.sol:Campaign","label":"approversCount","offset":0,"slot":"3","type":"t_uint256"},{"astId":66,"contract":"Campaign.sol:Campaign","label":"numRequests","offset":0,"slot":"4","type":"t_uint256"},{"astId":71,"contract":"Campaign.sol:Campaign","label":"requests","offset":0,"slot":"5","type":"t_mapping(t_uint256,t_struct(Request)54_storage)"}],"types":{"t_address":{"encoding":"inplace","label":"address","numberOfBytes":"20"},"t_address_payable":{"encoding":"inplace","label":"address payable","numberOfBytes":"20"},"t_bool":{"encoding":"inplace","label":"bool","numberOfBytes":"1"},"t_mapping(t_address,t_bool)":{"encoding":"mapping","key":"t_address","label":"mapping(address => bool)","numberOfBytes":"32","value":"t_bool"},"t_mapping(t_uint256,t_struct(Request)54_storage)":{"encoding":"mapping","key":"t_uint256","label":"mapping(uint256 => struct Campaign.Request)","numberOfBytes":"32","value":"t_struct(Request)54_storage"},"t_string_storage":{"encoding":"bytes","label":"string","numberOfBytes":"32"},"t_struct(Request)54_storage":{"encoding":"inplace","label":"struct Campaign.Request","members":[{"astId":41,"contract":"Campaign.sol:Campaign","label":"description","offset":0,"slot":"0","type":"t_string_storage"},{"astId":43,"contract":"Campaign.sol:Campaign","label":"value","offset":0,"slot":"1","type":"t_uint256"},{"astId":45,"contract":"Campaign.sol:Campaign","label":"recipient","offset":0,"slot":"2","type":"t_address_payable"},{"astId":47,"contract":"Campaign.sol:Campaign","label":"complete","offset":20,"slot":"2","type":"t_bool"},{"astId":51,"contract":"Campaign.sol:Campaign","label":"approvals","offset":0,"slot":"3","type":"t_mapping(t_address,t_bool)"},{"astId":53,"contract":"Campaign.sol:Campaign","label":"approvalCount","offset":0,"slot":"4","type":"t_uint256"}],"numberOfBytes":"160"},"t_uint256":{"encoding":"inplace","label":"uint256","numberOfBytes":"32"}}},"userdoc":{"kind":"user","methods":{},"version":1}}